:100000000C9445020C9462020C9462020C946202FD
:100010000C9481040C9462020C9462020C946202AF
:100020000C9462020C94D1040C94B1040C94B304AB
:100030000C9462020C9462020C9462020C946202B0
:100040000C945D040C9462020C9462020C946202A3
:100050000C946202FF0000000A0005040000000486
:10006000090000FF0101000A040505000004040A5C
:100070000000FF02020000020506000002040B005F
:1000800000FF03030000060507000006040C000043
:10009000FF0000000A010511020001040D0000FF2D
:1000A0000101000A050511040005040E0000FF020D
:1000B0000200000305110100FF0303000007051102
:1000C000080080250000004B00000096000000E1C1
:1000D000000000C2010046000300881370170100F1
:1000E0003200204E32008813409CC40910270000C3
:1000F00000000300000000000100D203FF7F490060
:10010000E601010000006400CA03FF7F02003C0218
:10011000010000000400BF0301004400EA01640084
:100120005802AC26B403FF7F4403EC01640058027C
:10013000AC26AE03FF7F4D00EE0101000000010080
:10014000A603FF7F4000F001FD7F0100F4019E0344
:10015000FF7F4000F201FF7F0100204E8603FF7FFA
:100160004200F801FF7F0A00409C9603FF7F400099
:10017000F401FD7F0100F4018E03FF7F4000F601D2
:10018000FF7F010088137E03FF7F4200FA01FF7F9B
:100190000A00C4097303FF7F4100FC016400581B7F
:1001A00030756803FF7F4D00FE0101000000010073
:1001B0006203FF7F02002E020100000004005A03C8
:1001C000020001002A0201000000040051030200A5
:1001D000020022020100000001004A03FF7F02002A
:1001E0001A020100000001004103FF7F0200120219
:1001F0000100000001003B03FF7F00000000000041
:1002000000000000000000000000000000000000EE
:100210000000160208022003D5021E020602E202B6
:10022000D9022602040236033003C200020232025F
:100230000002270320031A03110308034002E80108
:1002400027030103F902F102E902636865616C6941
:100250002D636861726765720A76332E305F3230C3
:1002600032363035313600524556455253452050CE
:100270004F4C415249545900010101020A1E010329
:1002800018478E01190C03010101E803010604E877
:10029000030004046400000204640000FF0364001F
:1002A00000FD03E80301FA03E80301F8030100007D
:1002B000F603E803010404010000EF03640000F208
:1002C00003010000F003010000F003010000000042
:1002D000010000ED0372657600616476616E63650E
:1002E000640073696D706C6500542D70726F677275
:1002F0000054656D706572610070726F6772616D38
:1003000000616C77617973006578742E20416463B5
:10031000006578742E20646562006465627567000C
:100320006E6F726D616C0064697361626C6564000C
:1003300073657061720074656D70007265736574C9
:1003400000627574746F6E733A006D656E75733A02
:10035000007C6F75747075743A007C7370656564A9
:100360003A00554152543A00616463206E6F6973DC
:10037000653A00696E707574206C6F773A006D6134
:10038000782050643A006D61782050633A006D61C6
:10039000782049643A006D696E2049643A006D61C5
:1003A000782049633A006D696E2049633A006265BE
:1003B00065703A006469736368206F66663A007C12
:1003C00066616E2054206F6E3A0066616E206F6E1B
:1003D0003A006261636B6C696768743A006E6F6CB7
:1003E000696D697400206E6F0079657300550000B7
:1003F0006D00432F6D002500F40041680043005755
:10040000680057005600410008090A0B0C0D0E0049
:1004100001800476046C04620458044E0444043AD7
:100420000430042704000073657474696E677300F8
:10043000562D5F70696E3A202000562B5F70696EF2
:100440003A2020005662365F70696E3A200056628C
:10045000355F70696E3A20005662345F70696E3A9B
:1004600020005662335F70696E3A20005662325F38
:1004700070696E3A20005662315F70696E3A2000F2
:100480005662305F70696E3A200011241FBECFE5BE
:10049000D8E0DEBFCDBF10E0A0E6B0E0E4E5FFE2CB
:1004A00002C005900D92A838B107D9F722E0A8E85C
:1004B000B0E001C01D92AF35B207E1F70E94770AA4
:1004C0000C94A8170C9400000E942B1640E062E0E8
:1004D00080E10E94E3150E94CD040E943A050C942D
:1004E000FC02CF93DF9300D000D0CDB7DEB7482F0A
:1004F000282F30E0A0E0BDE70E94C51619827A835C
:100500008B839C83A4E6B0E0A41BB10924E60E947F
:10051000391729813A814B815C81620F731F841FD7
:10052000951F24E630E040E050E00E94F816B90143
:100530008DE00F900F900F900F90DF91CF910C9462
:100540002405811511F0909A0895909808958111CD
:1005500004C0939A969A929A089593980895811157
:1005600002C0969A089596980895811102C0929AB1
:10057000089592980895BC018EE00C9424050C9483
:10058000BB0280FF11C0C09A81FF10C0C19A82FFD8
:100590000FC0C29A83FF0EC0C39A84FF0DC0DE9ABB
:1005A00085FF0CC0DF9A0895C098EECFC198EFCFB9
:1005B000C298F0CFC398F1CFDE98F2CFDF980895BC
:1005C00080E00E94A70280E00E94A10280E00E94D9
:1005D000BA0480E00E94C1028C9A8B9A889A8F9A02
:1005E000B89AB99ABA9ABB9AD69AD79A8D9A8E9A8D
:1005F0008D9A8A9A08950895D598D498DD98DC98B4
:10060000BF9ABE9ABD9A8EEA86B9369A08959C0121
:10061000E0919700E13119F18FB7F894F0E0DF0134
:10062000AA0FBB1FA758BE4F12963E932E938FBFA3
:1006300080918F008115E1F0EE0FFF1FEE0FFF1F7D
:10064000E556FE4F80819181A281B381820F931F75
:10065000A11DB11D80839183A283B38308959091DE
:10066000980080918C0037FD04C0982B90938C00EB
:10067000089590959823FACF0E94330D9093980196
:10068000809397010E94910C90939A018093990115
:1006900080918F00811509F485C00E94330D40912F
:1006A000D7015091D8016091D9017091DA01480FBA
:1006B000591F611D711D4093D7015093D80160935C
:1006C000D9017093DA010E94910C4091DB015091A5
:1006D000DC016091DD017091DE01480F591F611D41
:1006E000711D4093DB015093DC016093DD01709339
:1006F000DE018091DF019091E001019709F050C087
:100700008091A3019091A401A091A501B091A601AF
:10071000B695A795979587958093A3019093A4018B
:10072000A093A501B093A60180919B0190919C019B
:10073000A0919D01B0919E01B695A795979587953B
:1007400080939B0190939C01A0939D01B0939E0187
:1007500080919F019091A001A091A101B091A2016F
:10076000B695A7959795879580939F019093A00143
:10077000A093A101B093A2018091A7019091A8013B
:10078000A091A901B091AA01B695A79597958795D3
:100790008093A7019093A801A093A901B093AA0107
:1007A0000C946F0708958091FE019091FF01892BB1
:1007B000D9F0809194008115B9F09091910041E0B9
:1007C00001C0440F9A95EAF72091DF013091E001D2
:1007D0002F703FB7F8945BB39BB3942B9BBB820FF6
:1007E0008A95F1F75BBB3FBF089580918E008F5FC4
:1007F000863108F080E080938E0085E0E0E9F0E04B
:10080000A5E9B0E001900D928A95E1F7E0918E00A4
:10081000EF5FE63108F0E0E085E0E89FF0011124A9
:10082000EC5AFF4F45E050E0A0E9B0E00E944D17C0
:1008300080918E0081110CC00E943C032091DF0149
:100840003091E00181E0232B09F480E080938F0058
:10085000089584B125B190918D00933018F0922FB6
:100860000E94070380918D0091E0980F90938D0076
:100870008D30A9F08031A9F081111BC080919000CA
:1008800087FD17C02FB7F89498B380919000829598
:10089000880F807E9F71892B88BB2FBF08950C9491
:1008A000D30380919100806287B910928D000C94DF
:1008B000F503089580918C0008951F920F920FB652
:1008C0000F9211242F933F934F935F936F937F93D6
:1008D0008F939F93AF93BF93EF93FF930E9429044D
:1008E000FF91EF91BF91AF919F918F917F916F9108
:1008F0005F914F913F912F910F900FBE0F901F90DE
:1009000018951F920F920FB60F9211242F933F93B9
:100910004F935F936F937F938F939F93AF93BF9307
:10092000EF93FF930E941E12FF91EF91BF91AF9141
:100930009F918F917F916F915F914F913F912F91F7
:100940000F900FBE0F901F90189588E085BD85B55C
:10095000846085BD14BC8CE783BD89B7806889BF7E
:100960000895979A18958F93979880919A0082BFCF
:100970008F911895811104C013BE12BE97980895E7
:10098000869598E7980F90939A0090E095958795B3
:1009900084548CBF8CE483BF089589B7836089BF7A
:1009A00008951F921FB61F9211242F933F938F9388
:1009B0009F932091A1003091A20080919D00909181
:1009C0009E00820F931F80939D0090939E00209124
:1009D0009F003091A00080919B0090919C00820F1D
:1009E000931F80939B0090939C002FB7F894809165
:1009F0009D0090919E0035E0969587953A95E1F798
:100A00009BBD8ABD80919B0090919C0035E096959E
:100A100087953A95E1F799BD88BD2FBF80919D00DC
:100A20008F7180939D0010929E0080919B008F712A
:100A300080939B0010929C009F918F913F912F91EA
:100A40001F901FBE1F9018959FB7F8948E3049F4E1
:100A50007093A2006093A1008FB580688FBD9FBF87
:100A600008958D30E1F77093A00060939F008FB5DB
:100A70008062F4CF80E094E097BD86BD82E08FBDB8
:100A800089E18EBD89B7846089BF0895CF93DF93D4
:100A90000F92CDB7DEB7E0918A00F0918B003097CE
:100AA00011F4EFE5F2E0CE0101962EEB8E179F07D1
:100AB00020F40F90DF91CF9108952193F7CF009705
:100AC00009F408950197EFE9FFE03197F1F700C0CD
:100AD0000000F5CF8436910560F064E670E00E9476
:100AE000E416CB010C945F05019725E32A95F1F7F5
:100AF00000000097C9F708956AE070E00E94E416CC
:100B0000CB010C946A05E82FF0E0EE0FFF1FE35FC6
:100B1000FE4F8081918108952FB7F894E82FF0E07F
:100B2000EE0FFF1FE758FE4F808191812FBF089580
:100B30008091E50108958091C1009091C2000895CF
:100B4000613110F4423038F021E0FC01228313823D
:100B500020831182089550E09A01260F311D260F3F
:100B6000311DB901660F771F660F771F625F7F4FD8
:100B700044E00C9463172FB7F89480E090E0FC01F8
:100B8000EE0FFF1FEE0FFF1FE556FE4F1082118282
:100B90001282138201968131910589F788E290E0F3
:100BA0009093E0018093DF011092E4012FBF08953C
:100BB000CF93CFB7F8941092BF001092C00010925C
:100BC000BB001092BC001092BD001092BE001092AB
:100BD000B7001092B8001092B9001092BA001092AB
:100BE000B3001092B4001092B5001092B6000E94AB
:100BF00046128093AD009093AE00CFBFCF91089581
:100C0000E3ECF0E08AE4DF011D928A95E9F70895AC
:100C1000CF93CFB7F89481E090E09093E001809378
:100C2000DF018093E4010E940006CFBFCF910895B9
:100C3000CF93DF930E940806C091C100D091C200FB
:100C40008091C1009091C2008C179D0719F0DF912F
:100C5000CF9108958AE090E00E946C12F1CF10923B
:100C6000E50180E00C94A702CF93DF9381E00E941E
:100C70008C05EC0180E00E948C058C179D0750F4D8
:100C8000C81BD90B81E0C93ED34008F480E0DF9156
:100C9000CF910895C0E0D0E0F5CFCF92DF92EF92F0
:100CA000FF920F931F93CF93DF93CDB7DEB72897B3
:100CB0000FB6F894DEBF0FBECDBF182F6B01672BA8
:100CC00089F480E090E028960FB6F894DEBF0FBE5E
:100CD000CDBFDF91CF911F910F91FF90EF90DF90EB
:100CE000CF90089540E0682FCE0105960E94A005A0
:100CF00041E0612FCE0101960E94A005ED81FE81A9
:100D0000E980FA80EE15FF05E1F26B817C8180E0DD
:100D100090E00F811885601B710B81099109960184
:100D200040E050E02E1B3F0B410951090E94D416B0
:100D3000970140E050E02E1B3F0B410951090E94F2
:100D40001A17C901DA01800F911FA11DB11DA13031
:100D5000B1051CF08FEF9FEFB6CFB7FFB4CFA0E087
:100D6000B0E0CD01B0CF82508C3130F4E82FF0E00C
:100D7000E559FF4F8081089581E00895CF93C82FF2
:100D8000833151F481E020913701309138012331D2
:100D9000310589F080E00FC00E94B306813069F40C
:100DA000EC2FF0E0EE0FFF1FE35FFE4F208131815B
:100DB0002139314078F3CF91089581E0FCCFEF9253
:100DC000FF920F931F93CF93CFE191E0E92EF12C87
:100DD00000E010E08C2F0E94BE0690E09195819576
:100DE00091098E219F21082B192BEE0CFF1CCF5F40
:100DF000C53281F7C801CF911F910F91FF90EF90FD
:100E000008952FB7F8946091A8007091A90080917F
:100E1000AA009091AB002FBF20E03DE740E050E0FA
:100E20000E94F816C90108952FB7F8946091A400A4
:100E30007091A5008091A6009091A7002FBF969574
:100E400087957795679520E03DE740E050E00E9468
:100E5000F816C901089540913B0150913C018091E1
:100E6000A8009091A900A091AA00B091AB00840FB6
:100E7000951FA11DB11D8093A8009093A900A09378
:100E8000AA00B093AB008091A300815019F0809329
:100E9000A300089582E38093A30020913101309153
:100EA0003201DA010E94C51624E630E040E050E04D
:100EB0000E94F8168091A4009091A500A091A60030
:100EC000B091A700820F931FA41FB51F8093A400A9
:100ED0009093A500A093A600B093A70008958091D9
:100EE000DF019091E001892B49F08091DF01909121
:100EF000E00101979093E0018093DF01089590E075
:100F0000880F991FFC01E35FFE4F2081318162173A
:100F10007307B8F4261B370B27303105B8F4FC01F2
:100F2000ED53FF4F208131812F5F3F4FFC01ED5387
:100F3000FF4F20833183835F9E4FFC016083718369
:100F40000895AB01421B530B9A01E6CF20E030E03D
:100F5000EDCFCF93DF938FB7F8941092A800109243
:100F6000A9001092AA001092AB001092A400109257
:100F7000A5001092A6001092A70092E39093A30000
:100F80008FBFCDE0D1E06CA17DA18CE10E947F07F5
:100F90008E859F858093AF009093B0000E940806D5
:100FA0000E94D8051092B1001092B20060E070E08B
:100FB00089E10E947F0760E070E08BE10E947F077B
:100FC00060E070E08DE1DF91CF910C947F0710928B
:100FD000C1001092C2000C94A9070C94E7079091ED
:100FE000E50191110FC00E94A7020E94E70781E06E
:100FF0008093E501809360000E9418060E94A90773
:101000001092E3010895CF92DF92EF92FF920F9337
:101010001F93CF93DF93C0910D01D0910E0180916A
:101020000F01909110018C179D0708F09FC0C81BFD
:10103000D90BBE0182E10E947F078DE0C82E81E0BE
:10104000D82E9FE1E92E91E0F92E1FE1F701619181
:1010500071917F01812F0E947F071F5F1532B1F7C9
:101060008091E301811106C00E94DF068093E101B7
:101070009093E201E090E101F090E20180E090E0E5
:101080008C0141E050E09A01082E02C0220F331F6C
:101090000A94E2F72E213F21232B29F0F60126ADF9
:1010A00037AD020F131F0196F2E0CF0ED11C863030
:1010B000910549F7B80183E10E947F0701151105E9
:1010C00009F457C0CE01801B910B0C171D0718F0B7
:1010D000C8018C1B9D0B893B9B4008F04AC0E8016E
:1010E00013E1BE0184E10E947F07B70186E10E94FF
:1010F0007F07612F70E085E10E947F070E94850CC9
:10110000009113011091140181110AC00E94270D52
:101110000091110110911201811102C000E010E054
:101120009801DE010E94C51620E137E240E050E060
:101130000E94F816B90188E10E947F07B80187E193
:101140000E947F070E940107BC0189E10E947F077E
:101150000E941407BC018AE1DF91CF911F910F918A
:10116000FF90EF90DF90CF900C947F07C0E0D0E02D
:1011700060CF12E1E12CF12CB4CF1F93CF93DF931A
:10118000182FC82FD0E084E0189FF0011124E556F5
:10119000FE4F608171818281938120E332E040E0E3
:1011A00050E00E94F816CC0FDD1FC95ADE4F28838D
:1011B0003983B901812F0E944D06BC01812FDF9137
:1011C000CF911F910C947F07CF92DF92EF92FF9205
:1011D0000F931F93CF93DF93CDB7DEB72C970FB646
:1011E000F894DEBF0FBECDBF0E9446122091AD0025
:1011F0003091AE00821B930B8133954708F4B3C046
:101200004FB7F8942091BF003091C000A0E3B2E046
:101210000E94C5166B017C01F694E794D794C7949D
:101220008091BB009091BC00A091BD00B091BE0028
:101230008D839E83AF83B8878091B7009091B8006B
:10124000A091B900B091BA0089839A83AB83BC8323
:101250008091B3009091B400A091B500B091B60018
:1012600089879A87AB87BC874FBF0E94D80580913A
:10127000B1009091B20001968093B1009093B200BA
:1012800069817A818B819C819601A7010E94F81661
:1012900029833A834B835C836D817E818F8198851E
:1012A0009601A7010E94F816B90180E00E944D0640
:1012B0008D839E8369817A8181E00E944D06AD8194
:1012C000BE818A179B0708F04BC0A81BB90BA983E6
:1012D000BA83009145011091460129813A81201776
:1012E000310720F48091AC00811105C069817A81B9
:1012F0008CE10E947F0769817A81601B710B8BE111
:101300000E947F0769857A858B859C859601A70158
:101310000E94F816B90187E00E944D062091AF00A7
:101320003091B0008093AF009093B000821B930B7C
:10133000BC01660F771F8DE10E947F07B6018EE129
:101340002C960FB6F894DEBF0FBECDBFDF91CF91C4
:101350001F910F91FF90EF90DF90CF900C947F073B
:1013600019821A82B6CF2C960FB6F894DEBF0FBE44
:10137000CDBFDF91CF911F910F91FF90EF90DF9044
:10138000CF900895CF932FB7F8948091DF0190917B
:10139000E0012FBF892B09F091C08091E4018111F8
:1013A00082C08091E501811509F480C08091C1005F
:1013B0009091C20001968093C1009093C200409129
:1013C0009B0150919C0160919D0170919E017695C9
:1013D0006795579547958091BB009091BC00A0916F
:1013E000BD00B091BE00840F951FA61FB71F80934C
:1013F000BB009093BC00A093BD00B093BE00409191
:101400009F015091A0016091A1017091A201769578
:101410006795579547958091B7009091B800A09136
:10142000B900B091BA00840F951FA61FB71F809313
:10143000B7009093B800A093B900B093BA00409160
:10144000B7015091B8016091B9017091BA017695D8
:101450006795579547958091B3009091B400A091FE
:10146000B500B091B600840F951FA61FB71F8093DB
:10147000B3009093B400A093B500B093B6008091F0
:10148000BF009091C00001968093BF009093C00070
:101490000E94E408C0E08C2F0E94BD08CF5FC131DC
:1014A000D1F70E940308CF910C94BB058091600096
:1014B0008115C9F385E00E94BD08F5CFCF9108954D
:1014C0000C94C2090E94E00278940E9464020E9477
:1014D000A5040E945C0D0E94BE0C0E94ED070E94B4
:1014E00046050E94380B0E9443100C945C100E9429
:1014F000620A0E94C31680E090E008950F931F9344
:10150000CF93DF9300D00F92CDB7DEB789839A8354
:101510008B0141110E94A21784E08B8389819A81FB
:101520000E947B178017910791F084E690E00E945B
:101530004E128B8181508B838111F0CF81E00F900F
:101540000F900F90DF91CF911F910F91089580E040
:10155000F6CFEF92FF920F931F93CF93DF938C01FF
:101560007C01E60EF71ECFEFDFEF0E151F0541F4ED
:10157000CE01DF91CF911F910F91FF90EF900895D1
:10158000C8010E947317C82788E09E0136952795E9
:101590009C2FE90190FF04C091E0C92790EAD92768
:1015A000815099F70F5F1F4FE0CF0F931F93CF9399
:1015B000DF9300D00F92CDB7DEB78C016A837B83B7
:1015C00049830E94A90A4981BC018A819B81800FBD
:1015D000911F0F900F900F90DF91CF911F910F915E
:1015E0000C947E0A482F64E270E08AEB93E00C943E
:1015F000D50A44E250E0DC01E6EDF0E00E944D1730
:1016000008958091F2019091F3012091F0013091C1
:10161000F1018217930728F42093F2013093F3012C
:10162000C90181329E4430F080E29EE48093F20151
:101630009093F3018091F6019091F7012091F401CC
:101640003091F5018217930728F42093F601309327
:10165000F701C9018938934130F088E893E180931C
:10166000F6019093F7010895FC0180810C947102BA
:1016700044E250E06AEB73E086EE91E00E9463176B
:1016800086EE91E00C94340B44E250E06AEB73E098
:1016900086EE91E00E94811781E00E94F20A86EEB8
:1016A00091E00C94340B282F81E090E03AE0211176
:1016B00001C008952150AC01349FC001359F900DA9
:1016C0001124F5CFCF9397FF0AC00E943117C1E0D4
:1016D00000977040604051F48C2FCF910895C1E085
:1016E000009770406040A1F3C0E0F2CFCF5F2AE0E6
:1016F00030E040E050E00E941A17B901CA01E8CF7B
:10170000BC0180E090E00C94620BEF92FF920F938B
:101710001F93CF93DF9300D000D0CDB7DEB789837E
:101720009A837B014B835C83DC01ED91FD91CF01BA
:10173000B8010E94E416009799F0081B190B1E14BB
:101740001F048CF08C018B819C81800F911F8E1760
:101750009F07A0F4CF01801B910B8B839C830EC04D
:101760001E141F0484F7C901801B910BE817F907A9
:1017700018F49F01200F311F2B833C838B819C81A8
:10178000E981FA81808391830F900F900F900F90E1
:10179000DF91CF911F910F91FF90EF9008950F93DC
:1017A0001F93CF93DF93CDB7DEB728970FB6F8948A
:1017B000DEBF0FBECDBF8F83988769837A834B834B
:1017C0005C832D833E83FC01808191810E94800B8C
:1017D0008230C8F082500E94530B8C012D813E81D3
:1017E0004B815C8169817A818F8198850E94850B0C
:1017F00028960FB6F894DEBF0FBECDBFDF91CF9114
:101800001F910F91089581E090E0E7CF809125022C
:1018100090912602892B99F40E949805811581F0F8
:101820000E949B0520910A0230910B02AC01421BE1
:10183000530B81E04330510518F080E0089581E0BA
:101840000895815E0C948305CF93DF93EC01809122
:10185000250290912602892B41F0209731F40E94B5
:101860009B0580930A0290930B02C0932502D093AC
:1018700026020E94000680912402811105C08C2F4F
:10188000DF91CF910C94C102DF91CF910895FF9227
:101890000F931F93CF93DF9381E00E94FB02C8E177
:1018A000D2E00CE012E0F12C8F2D0E94210C8993E4
:1018B0009993F801819391938F01F394F6E0FF12CD
:1018C000F3CF10922502109226021092240280E09B
:1018D00090E00E94240C10920A0210920B028FEFEB
:1018E00080932702DF91CF911F910F91FF90089570
:1018F00080E090E00E94240C81E08093240208950F
:101900000E94780C80E00C94FB0280912C020895D8
:1019100081E020912A0230912B02232B09F480E0F0
:10192000089580912A0290912B020895813020E839
:10193000920710F080E090E880932A0290932B02A7
:101940000E94BF020C94080680912C028115A9F018
:1019500080E090E00E94960C1092280210922902DA
:1019600010922C028AE090E00E946C1280E00E94AB
:10197000B5028AE090E00C946C12089581E08093A7
:101980002C020C94A40C2091E8013091E901213043
:10199000310519F481E00C94A10210F480E0FBCF32
:1019A00024303105A1F4809135028115B9F385E029
:1019B0000E9483052091EA013091EB01A901525068
:1019C0008417950758F32817390720F30895223014
:1019D000310519F480913502DECF23303105D9F677
:1019E000E6CF0E942A0D811569F180912D02909118
:1019F0002E02A0912F02B091300280599F4FAF4F1D
:101A0000BF4F80932D0290932E02A0932F02B0938C
:101A100030020E94060C8115A1F080913102909154
:101A20003202A0913302B091340280599F4FAF4FE0
:101A3000BF4F8093310290933202A0933302B09350
:101A4000340208950E94880C8111CFCFE2CF80919B
:101A50003A02089581E02091380230913902232B17
:101A600009F480E008958091380290913902089538
:101A7000813020EC920710F080E090EC80933802E7
:101A8000909339020E94BB020C94080680913A029E
:101A9000811589F080E090E00E94380D10923802A4
:101AA00010923902109236021092370280E00E94A2
:101AB000AF0210923A020895109238021092390241
:101AC000109236021092370280E090E00E94380DAA
:101AD00081E080933A020C94460DA82F60913B025E
:101AE00070913C0240913F025091400280E090E0B2
:101AF000FB012EE0929FE00DF11D112432962591FD
:101B000035912115310579F01CF457FF09C0305883
:101B100024233523232B21F0A11521F0A1508F5F21
:101B20009F5FE6CF892F08950F931F93CF93DF9385
:101B300000D0CDB7DEB78A830E946D0D3EE0839F53
:101B400080011124E0913B02F0913C02E00FF11F73
:101B5000859195910E94601389830E940E118111D5
:101B600023C06FE08981681BE0913B02F0913C0249
:101B7000E00FF11F359694919983911531F0862FDE
:101B80009981891B0E949E13698180913B029091EB
:101B90003C02800F911F04960F900F90DF91CF9120
:101BA0001F910F910C946F1020914B023A81832F5B
:101BB00090E0022E001C00082817090691F60F90ED
:101BC0000F90DF91CF911F910F9108950E946D0D9D
:101BD000E0913B02F0913C029F014EE0849F200D7A
:101BE000311D1124C901F901369625913591FC0169
:101BF000349684918150823010F0C9010895F90122
:101C00004591559165917591CB01089580933F025F
:101C1000909340028FEF0E946D0D809347020895CC
:101C200080933B0290933C0260933D0270933E028E
:101C300080E00E94E50E84E99DE08093430290934A
:101C400044028DE29EE080934102909342028FEF26
:101C500080934B029FE70C94060E8F929F92AF9257
:101C6000BF92CF92DF92EF92FF920F931F93CF9389
:101C7000DF93CDB7DEB72C970FB6F894DEBF0FBE5B
:101C8000CDBF182FB62E0E94E60D7C01812F0E9439
:101C90006D0DE0913B02F0913C029EE0899FE00DCA
:101CA000F11D1124389646E050E0DE0117960E949F
:101CB0004D1786E0FE013796DE01119601900D92D8
:101CC0008A95E1F786E0FE013196DE0117960190D4
:101CD0000D928A95E1F70F811885C984DA849B8477
:101CE0008C84E2E0BE1651F191E0A92EB12C0E3F9A
:101CF000FFE71F0739F134F1292D382DA601B50171
:101D0000C7010E94CF0BE0913D02F0913E02309757
:101D100009F448C0C7012C960FB6F894DEBF0FBE79
:101D2000CDBFDF91CF911F910F91FF90EF90DF908A
:101D3000CF90BF90AF909F908F9009948FEFB82E67
:101D4000AB2CD5CF21F4C501F6010995DCCF0C3FB2
:101D5000FFE71F07B9F4F701808191818A0D9B1D70
:101D6000292D382D2817390744F09C01F7012C152F
:101D70003D052CF080839183C6CFC901F7CFC08287
:101D8000D182C1CF0D3FFFE71F0721F40E948C12C3
:101D9000082F10E0292D382DA601B501C7010E949A
:101DA000850BB1CF2C960FB6F894DEBF0FBECDBF1A
:101DB000DF91CF911F910F91FF90EF90DF90CF9027
:101DC000BF90AF909F908F9008951092490210920B
:101DD00048028093470281E0809346028093450247
:101DE0000895809149028F5F809349020895809100
:101DF0004902811519F0815080934902089580911C
:101E0000490290914702891720F08FEF890F809344
:101E1000490220914802821718F480934802282F23
:101E200030E02F5F3F4F281731051CF4815080931D
:101E300048020895CF930E94FF0EC091480220915E
:101E40004802822F90E001968C17910524F410929D
:101E50004602CF9108956C2F621B80E00E941B13F5
:101E6000809149028C1311C08EE30E942713809148
:101E70004702C81730F4E0914302F09144028C2FDE
:101E800009950E94A213CF5FDACF80E2EECFCF9305
:101E90000E949312C82F0E943916811539F081E0F3
:101EA00080934602CFE78C2FCF910895C23071F016
:101EB000C43029F40E94F10E81E0809346028091A3
:101EC0004602811581F30E941A0FEDCF0E94F70E92
:101ED000F3CFCF93DF930F92CDB7DEB7898381E045
:101EE000809346020E94470F811102C01092450262
:101EF0009091450291110BC0883049F481E08093A4
:101F00004502809149020F90DF91CF910895298178
:101F1000211519F021E020934602813019F7911123
:101F2000E1CF8FEFF0CFCF93DF9380914902809381
:101F30004B0210924A0281E080934602C1E0D2E057
:101F40000E949312682F823011F08430C1F4E09126
:101F50004102F09142028091490209958091490223
:101F600080934B02D0934A02C09346020E941A11FA
:101F70008115B9F0C09346020E941A0F16C0813035
:101F800011F0883099F78FEF80934B0281E08093B6
:101F9000450280934602683009F080E0DF91CF91DE
:101FA0000895809146028111E7CF80914A028F5FA8
:101FB00080934A02C5CF8091E8019091E90103978F
:101FC000029750F48FEF9FE72091000230910102B9
:101FD000232B09F4029708958EEF9FE7F5CF0E9417
:101FE000DB0F0E94060E0C94010BCF93DF93CDB74D
:101FF000DEB7A4970FB6F894DEBF0FBECDBF6FEE6D
:102000007FE08AEF90E00E94100E0E94DB0F0E949A
:10201000060E80E00E94690F87FD2BC00E94E60D2E
:10202000892B41F486EE91E00E94F90A84E00E9437
:102030003111EBCF84E2E6EEF1E0DE011196019082
:102040000D928A95E1F70E94930F81110EC084E2F0
:10205000FE013196A6EEB1E001900D928A95E1F76E
:1020600086EE91E00E94340BD0CF84E00E943111C3
:10207000F7CFA4960FB6F894DEBF0FBECDBFDF91A9
:10208000CF910C94440B0C940715CF93DF9300D0A1
:10209000CDB7DEB789839A830E9425130E941D1352
:1020A00089819A810F900F90DF91CF910C946013EA
:1020B00087E692E00C9445108AE492E00E94451075
:1020C00088EB9BE00C944E12FB0145915591659174
:1020D0007591FC0140835183628373830895CF928D
:1020E000DF92EF92FF921F93CF93DF9300D000D047
:1020F000CDB7DEB7162FFC0185919591A591B591CD
:10210000833071F4FD01862F0F900F900F900F9088
:10211000DF91CF911F91FF90EF90DF90CF900994C6
:1021200086FF12C0482F4F73FD01808191810F906F
:102130000F900F900F90DF91CF911F91FF90EF9034
:10214000DF90CF900C94ED14813079F0823009F457
:102150003DC00F900F900F900F90DF91CF911F9186
:10216000FF90EF90DF90CF900895BD01CE010196D2
:102170000E946410EB81FC8180819181880F991FFE
:10218000880F991FE981FA81E80FF91F6591759110
:1021900085919591125024E630E040E050E00E9495
:1021A000F816612FC9010E94E71480E30E942713EB
:1021B00080E30F900F900F900F90DF91CF911F91C0
:1021C000FF90EF90DF90CF900C942713BD01CE01CC
:1021D00001960E946410E980FA80CB80DC80D601F1
:1021E000ED91FD91EE0FFF1FEE0DFF1D8591959175
:1021F0000E945117181B812F0E949E13F6016081C7
:10220000C7010F900F900F900F90DF91CF911F910A
:10221000FF90EF90DF90CF900C94791380914B0258
:1022200087FD06C080914A0286958F5F8170089570
:1022300080E0089580914B0287FD0AC080914A0298
:102240002FEF280F2695982F969581E0291301C02E
:1022500080E008950E944A1280934F0290935002AA
:1022600008952091EE013091EF01232B09F480E0D5
:1022700090914C02981741F080934C020E942A11D1
:1022800082E390E00C946C12089590914C029111AD
:1022900002C00C9431110895262F30E0A901440F9B
:1022A000551F481759075CF02817390724F4660FA3
:1022B000681B862F0895181619060CF4089580E0FF
:1022C00008959C01369527958A9720F46AE0C90104
:1022D0000C944C1110924C0280E00895CF93DF9340
:1022E00000D00F92CDB7DEB79C0136952795369575
:1022F00027952A833B838432934048F010924C0206
:1023000080E00F900F900F90DF91CF9108956AE0D9
:102310008A819B810E944C1189836AE08A819B811A
:1023200088970E944C119981890FEBCF60ED77E07F
:102330000E94E4166AE00C944C11823825E0920762
:1023400040F46AE070E00E94E416CB0164E10C9472
:102350004C1110924C0280E00895803321E19207E5
:1023600060F46AE070E00E94E416CB0168E270E07D
:102370000E94E41664E10C944C1110924C0280E02F
:1023800008958A3223E0920760F46AE070E00E94C8
:10239000E416CB0168E270E00E94E41664E10C945C
:1023A0004C1110924C0280E0089520914C0226308E
:1023B00050F4243098F4223069F0233069F0213051
:1023C00039F080E00895283058F0D9F70C94C11105
:1023D0000C9461110C9496110C949D110C946E1137
:1023E0000C94AD110E944A1220914F02309150027C
:1023F000821B930B0E94D51140914D0250914E02C9
:102400008417150631F080934D0210924E020C9401
:10241000BA0408952FB7F894609151027091520256
:1024200080915302909154022FBF08950E94C30CD3
:102430000E9453160E94F2110C94600A809151027E
:1024400090915202A0915302B09154020196A11DA5
:10245000B11D8093510290935202A0935302B09306
:10246000540280916100815019F0809361000895B9
:1024700081EE809361000E942B070C94F10C0E9466
:102480000A12969587957795679508950E943F1251
:10249000CB0108950E940A12CB010895CF93DF93D8
:1024A00000D000D0CDB7DEB78B839C830E9446124C
:1024B00089839A830E94461229813A81821B930B59
:1024C0002B813C8182179307A8F30F900F900F90F8
:1024D0000F90DF91CF910895CF93DF9300D000D07C
:1024E000CDB7DEB78B839C830E94461289839A8383
:1024F0000E9416120E94461229813A81821B930B78
:102500002B813C818217930798F30F900F900F90C7
:102510000F90DF91CF910895E0915502F0E0E858D7
:10252000FD4F849108951F93CF93DF93E09155025F
:10253000F0E0EC57FD4FC49110E087E090E00E947E
:102540006C120E945A04D82F809157029091580221
:102550009D1799F1811110C0D09358021092550225
:1025600010925602D11519F081E00E9445118D2F6D
:10257000DF91CF911F9108958150843010F01F5F3B
:1025800083E080935702C117C0F6809155028530D1
:1025900070F7D11561F3909156029F5F90935602A8
:1025A000E82FF0E0E258FD4FE4919E1700F38F5FB3
:1025B0008093550210925602DACF8F5FDECFCF9212
:1025C000DF92EF92FF920F931F93CF93DF936B01F4
:1025D0007C01EA01F7FE0AC08DE28993F094E09451
:1025E000D094C094C11CD11CE11CF11CB601C701E0
:1025F0000E94620BC80FD11D18828E01B601C7015F
:102600002AE030E040E050E00E941A17605DF801D7
:1026100062938F0169017A01C114D104E104F104CC
:1026200069F7CE01DF91CF911F910F91FF90EF904D
:10263000DF90CF9008950C94931560E080E00C94A7
:10264000931561E080E00C9493150C948C158A30FE
:1026500011F40C9421130C9434160F931F93CF9301
:10266000DF9300D00F92CDB7DEB76983009731F1C9
:102670008A839B8300E010E0802F3981032E001CA9
:1026800000080317100534F4EA81FB819081911151
:1026900009C08F5F0F900F900F90DF91CF911F9126
:1026A0000F9108952A813B812F5F3F4F2A833B83FF
:1026B0000F5F1F4F892F0E942713DECF80E0EACFE4
:1026C0000F931F93CF93DF938C0180E001151105C9
:1026D00059F0E80103C021960E942713FE0184915E
:1026E0008111F9CF8C2F801BDF91CF911F910F911A
:1026F0000895FC01E60FF11DE60FF11D85919591FE
:102700000C946013CF93DF9300D00F92CDB7DEB758
:1027100089836A831B829B818A81981744F087FD95
:1027200080E00F900F900F90DF91CF9108958981F5
:102730000E9427138B818F5F8B83EDCF682F80E200
:102740000C94821380E10C949E13CF93DF9300D0FE
:102750000F92CDB7DEB789839A836B830E945A1795
:102760009B81981B892F0E949E136B8189819A817E
:102770000F900F900F90DF91CF910C942D13CF936A
:10278000DF93CDB7DEB72C970FB6F894DEBF0FBE40
:10279000CDBF4C87AE014F5F5F4F0E94DF126C854B
:1027A000CE0101960E94A5132C960FB6F894DEBFB9
:1027B0000FBECDBFDF91CF9108954F925F926F9280
:1027C0007F92AF92BF92CF92DF92EF92FF920F93E0
:1027D0001F93CF93DF93CDB7DEB72E970FB6F89444
:1027E000DEBF0FBECDBF6C01162F7A01211509F493
:1027F0003FC09C01A8EEB3E00E94C5169A0140E0DC
:1028000050E00E941A1729013A01011541F0709415
:10281000609450944094411C511C611C711CB20185
:10282000C3010E94620B8F5F212F312F330F330BB7
:1028300028173105ECF04FEF410FB201C3010E94A0
:10284000BF138DE62E960FB6F894DEBF0FBECDBF38
:10285000DF91CF911F910F91FF90EF90DF90CF907C
:10286000BF90AF907F906F905F904F900C94341614
:10287000C601B7010E94E4168D879E8780E090E034
:102880006E012FEFC21AD20AA601011529F02DE21E
:102890002983AE014E5F5F4F0E94DF125C0182E030
:1028A000E816F10460F1812F912F990F990B019790
:1028B00095012C193D09281739070CF52701612CC2
:1028C000712C9701A301ED85FE852E0F3F1F411D41
:1028D000511DA8EEB3E0F5E6EF16F10410F4A4E6FE
:1028E000B0E00E9440179201A3010E941A17B9019B
:1028F000CA01A5010E94DF128EE2F5018083612FDB
:10290000C6010E94A5132E960FB6F894DEBF0FBE27
:10291000CDBFDF91CF911F910F91FF90EF90DF908E
:10292000CF90BF90AF907F906F905F904F90089541
:102930000F93CF93DF93DC0185E0489F9001112432
:10294000F901E357FD4FC591D591CE010E94511772
:10295000681B11F10AF14D7F4830E1F4B7FF1AC04E
:10296000B195A195B10901E0F901E457FD4F8491BA
:10297000F901E657FD4F4591559121E0811101C0C4
:1029800020E0CD010E94DD13CE01DF91CF910F91A8
:102990000C94601300E0E8CFDF91CF910F91089580
:1029A000CF93DF930F92CDB7DEB789838DEF860F7C
:1029B0000E949E138981811107C085EE93E00F90DC
:1029C000DF91CF910C94601389EE93E0F8CF462FFE
:1029D000BC0180E090E00C94BF134D3011F40C94D6
:1029E000D0144C3061F4883E23E0920770F089EFF8
:1029F000860F0E949E138DED93E00C94601345307A
:102A000021F4883E2DEF9207F1CF0C949814FF9299
:102A10000F931F93CF93DF93CDB7DEB728970FB6F1
:102A2000F894DEBF0FBECDBF8EE0F82EF9821FE115
:102A30001A8301E10B830C830D830E830F831887A8
:102A4000BE016F5F7F4F80E00E94C815F9821A8334
:102A50000B830C831D831E831F831887BE016F5F4A
:102A60007F4F81E00E94C815F9821A831B831C8363
:102A70001D831E831F831887BE016F5F7F4F82E017
:102A80000E94C81528960FB6F894DEBF0FBECDBFC2
:102A9000DF91CF911F910F91FF900895AC9881E045
:102AA00090E00E947C05AC9A81E090E00E947C0559
:102AB000AC9884E690E00C947C0580FF0CC0AB9A47
:102AC00081FF0BC0AA9A82FF0AC0A99A83FF09C09E
:102AD000A89A0C944E15AB98F3CFAA98F4CFA99866
:102AE000F5CFA898F6CFCF93DF930F92CDB7DEB78F
:102AF0008983611561F0AD9A898182958F700E94FA
:102B00005D1589810F90DF91CF910C945D15AD9883
:102B1000F3CF60E00C94731581E00E94891580ED7D
:102B200097E00C947C05CF93DF93CDB7DEB7289761
:102B30000FB6F894DEBF0FBECDBF98E0E3E6F0E03D
:102B4000DE01119601900D929A95E1F790915A024B
:102B5000691710F06FEF690FFE013196E60FF11D56
:102B6000E60FF11D9081890F806828960FB6F894C2
:102B7000DEBF0FBECDBFDF91CF910C948915809140
:102B80005C02982F946090935C028C600C94891581
:102B90000F931F93CF93DF93880F880F880F88734D
:102BA0008064EB010E9489158E01085F1F4F61E070
:102BB00089910E947315C017D107C9F7DF91CF9192
:102BC0001F910F910895623028F080915D02886016
:102BD00080935D0260935A0210925902411539F0B8
:102BE000613029F480915D02846080935D02A39A34
:102BF000A29AA19AA09A80E593EC0E947C05AD98D8
:102C0000AC9883E00E945D1584E991E10E947C0507
:102C100083E00E945D1584E991E10E947C0583E0D8
:102C20000E945D1586E990E00E947C0582E00E948A
:102C30005D1580915D0280620E94891584E0809319
:102C40005C020E94BF150E948C1582E080935B029B
:102C500086E00C948915A59AA49A10925D0240E032
:102C600061E080E10C94E31561E00E94731581E05E
:102C70000895CF93C0916200C11581F00E9434067F
:102C8000C82F811549F080915E02811102C00E9417
:102C9000581088E00E943111C0935E028C2FCF91B2
:102CA00008950895089508951F93CF93DF93182FE3
:102CB000682F81E194E00E947913C12FD0E0FE01DA
:102CC000E85FFB4F84911930C8F40E948C0565E0E1
:102CD0000E94E714111591F0CA95809125029091F8
:102CE000260202C096958795CA95E2F780FF06C036
:102CF0008AE2DF91CF911F910C942713DF91CF913E
:102D00001F9108950E94511681E00E94EF070E94D2
:102D1000470C8BE00E94E50E84E596E18093430228
:102D200090934402C0E001E010E0C093490281E0CA
:102D30000E94690FC82F8115C1F3873090F48FEF7F
:102D40008C0F980102C0220F331F8A95E2F7C90148
:102D50002091250230912602822793270E94240C7D
:102D6000E4CF893011F70E94800C0E942F060E9448
:102D700052160E94F50F0E94511681E00E94EF0743
:102D80000E94470CD2CF0C948216A29FB001B39F31
:102D9000C001A39F700D811D1124911DB29F700D64
:102DA000811D1124911D0895DB018F939F930E9433
:102DB0004017BF91AF91A29F800D911DA39F900DD1
:102DC000B29F900D11240895AA1BBB1B51E107C0AF
:102DD000AA1FBB1FA617B70710F0A61BB70B881FAB
:102DE000991F5A95A9F780959095BC01CD0108953A
:102DF000A1E21A2EAA1BBB1BFD010DC0AA1FBB1FFF
:102E0000EE1FFF1FA217B307E407F50720F0A21B70
:102E1000B30BE40BF50B661F771F881F991F1A94DD
:102E200069F760957095809590959B01AC01BD0107
:102E3000CF010895052E97FB1EF400940E943117D0
:102E400057FD07D00E94F81607FC03D04EF40C94EF
:102E5000311750954095309521953F4F4F4F5F4F1B
:102E6000089590958095709561957F4F8F4F9F4FF6
:102E700008950E94C516B7FF0895821B930B08950D
:102E80000E94C516A59F900DB49F900DA49F800D24
:102E9000911D1124089505900D9241505040D8F78E
:102EA0000895FC0105900020E9F7809590958E0F1C
:102EB0009F1F0895FC0101900020E9F780959095EF
:102EC0008E0F9F1F0895DC01CB01FC01E199FECF1D
:102ED00006C0FFBBEEBBE09A31960DB20D92415099
:102EE0005040B8F70895E199FECF9FBB8EBBE09AA2
:102EF00099278DB30895A8E1B0E042E050E00C942A
:102F00006517DC01A40FB51F4150504048F0CB01BC
:102F1000840F951F2E910E94921741505040D0F778
:102F20000895262FE199FECF9FBB8EBBE09A0197B3
:102F30000DB2021631F02DBB0FB6F894E29AE19A69
:102F40000FBE08950196272F0E9492170C94911797
:042F5000F894FFCF23
:102F540001E10100004000140054000000010401DC
:102F6400040101010101010100000101010101014C
:082F74000002010308010A003C
:00000001FF
