:100000000C94D0060C94F8060C94F8060C94F806A0
:100010000C9426090C94F8060C94F8060C94F80637
:100020000C94F8060C9476090C9456090C94580913
:100030000C94F8060C94EB090C94230A0C94F80623
:100040000C9402090C94F8060C94F8060C94F8062B
:100050000C94F80600000000FB5A9E4100000000CE
:10006000FB5A9E41FE0064003516E803FE02640060
:100070003E092C0100000000C0AE4E5AFC53501443
:100080003FA0540B0000000006C5C6398018600967
:10009000DC377017000000000000000000000000C6
:1000A000B3D568100000000076D66810000000008C
:1000B000FBD568100000000087D668100000000023
:1000C00040C6190F0000000040C72D0F00000000BF
:1000D00040C6190F0000000040C72D0F8E006400BD
:1000E000A30FE8033001640032052C01FF0000007B
:1000F0000A00050400000004090000FF0101000AD5
:10010000040505000004040A0000FF0202000002CA
:100110000506000002040B0000FF030300000605B3
:1001200007000006040C0000FF0000000A01051390
:10013000020001040D0000FF0101000A050513047F
:100140000005040E0000FF02020000030513010079
:1001500003040F0000FF0303000007051308000756
:100160000410000080250000004B000000960000F5
:1001700000E1000000C20100460003008813701770
:1001800001003200581B32008813983AF4011027FE
:100190000000000003000000000001000400000156
:1001A0000202020202030405610C570C520C4D0CB2
:1001B000480C430C3E0C390C340C2F0C5C0C2B0CF3
:1001C00001000100010001000100B0040807520312
:1001D00000005203B0040807E8030000E803D0075A
:1001E0009209D60600006C07E40C100EC409E40C5A
:1001F000B80B100E0410C409A60EAC0D740E6810D6
:10020000B80B0A0F890C740ECC10B80B0A0F890CAE
:10021000740EFE10B80B0A0F890C40066C0714050B
:10022000400678050100A00FD00701000100010081
:10023000A00F010001000100B119EA19331BDD1BF9
:10024000E81BF31BDF1CDB1C0F1DDB1DE71DEC1D7A
:100250008A1E871E911EB61EBD1EE01E692140210A
:100260004621FA23E81BFC23350ACE272C0A7229E3
:10027000200A7A29140AFC27080A2428F909E52704
:1002800000000000059D09020044003B02FD7F00C4
:100290000010279809010049008D020000000000AD
:1002A00000B50904004900470401000000010000F6
:1002B00000000000000000000000000000079D0991
:1002C000020044003F02FD7F000010279809010052
:1002D00049009102000000000000B5090400490037
:1002E00047040100000001000000000000000000C1
:1002F00000000000000000019109020041003102ED
:10030000FD7F0000CC8D8909020041003302FD7F92
:100310000000CC8DB509040049004704010000002D
:1003200001000000000000000000000000000000CC
:10033000F409020041003D02FD7F00003075EF0925
:10034000820041007302FD7F00008813EA098200E9
:1003500041007502FD7F00008813E509820041001D
:100360007702FD7F00008813E009820041007902D6
:10037000FD7F00008813DB09820041007B02FD7FC6
:1003800000008813D609820041007D02FD7F000035
:100390008813D109820041007F02FD7F000088138D
:1003A000CC09820041008102FD7F00008813C6094C
:1003B000010041005B02000000000000C0090100D4
:1003C00041005902000000000000B5090400490086
:1003D00047040100000001000000000000000000D0
:1003E00000000000000006090A0B0C0D0E0F10069D
:1003F0002122232425262728AE09FF7F490049040E
:10040000FD7F0000FFFFAB09FF7F03004E280000C7
:1004100000000000A309FF7F40004B04FD7F0000A7
:10042000FFFF0000000000000000000000000000CE
:100430007E0C952D740C0127660C5A2C00000000D0
:100440001A0BFF7F0200BA05010000000B00170B1A
:100450000F000300D231FE7F602C0000130B0E80D2
:1004600041005403FD7F00008813130B100041006E
:10047000540332000000CC8D060B01804100540370
:10048000FD7FB004D007060B200041005403FF7F1E
:100490000100CC8D0F0B048041006803FD7F00003C
:1004A00088130B0B0F8041005603FD7F000088135B
:1004B0000B0B10004100560332000000CC8D010BE5
:1004C0001F0045004C03FF7F6400E8FDFD0A3F006C
:1004D00040005003FF7F0100581BF60A1E804000B9
:1004E0005803FF7F0100581BF20A1F00400052030F
:1004F000FF7F01008813EB0A1F8040005A03FF7F33
:1005000001008813E10A0C8048006A03010003001F
:10051000C800D80A01004D00680301000000010076
:10052000D30A000248006A03FC7FECFF0000C70A00
:1005300000024B006C03010001001E00BE0A1F00F8
:100540004D005E03010000000100B60A00044A06E7
:100550006E030A000A008403AA0A00014403600330
:1005600064005802AC26A40A3F004C005C03FF7FE5
:100570000000E8039A0A1F0047006603010001001B
:10058000FA008E0A03004900700301000000050014
:10059000840A1F804B006403010001006300790A94
:1005A0001F804D00620301000000010000000000F8
:1005B00000000000000000000000A8014A03FA0C3F
:1005C000EB0CE30CD90CCD0CC50CB60CAB0C9C0C95
:1005D0008F0C00090003040708090003070809003D
:1005E00001020304080900010203040506080909C1
:1005F000200CFF7F49002603010000006400180C56
:10060000FF7F020032070100000004000D0C010012
:1006100044002A0364005802AC26020CFF7F440306
:100620002C0364005802AC26FC0BFF7F4D002E0308
:10063000010000000100F40BFF7F40003003FD7F4C
:100640000100F401EC0BFF7F40003203FF7F01004B
:10065000581BD40BFF7F42003803FF7F0A00983AF3
:10066000E40BFF7F40003403FD7F0100F401DC0B4D
:10067000FF7F40003603FF7F01008813CC0BFF7F14
:1006800042003A03FF7F0A00F401C10BFF7F4100E3
:100690003C036400581B3075B60BFF7F4D003E03D2
:1006A000010000000100B00BFF7F020024070100E1
:1006B00000000400A80B0200010020070100000058
:1006C00004009F0B02000200180701000000010057
:1006D000980BFF7F020010070100000001008F0B44
:1006E000FF7F02000807010000000100890BFF7F67
:1006F00000000000000000000000000000000000FA
:1007000000000000000000000C0748036E0B230BE4
:1007100014074603300B270B1C074403840B7E0B86
:100720006401420328074003750B6E0B680B5F0BD7
:10073000560B36072803750B4F0B470B3F0B370B38
:1007400020202D2D202000636865616C692D636871
:1007500061726765720A76332E305F32303236301E
:100760003531360063616C69622E206572726F727A
:1007700000706C656173652063616C69627261749D
:100780006500656570726F6D2072657365740A65CA
:1007900072726F723A2000726573657474696E6765
:1007A00020656570726F6D002020202020202020A1
:1007B0002020202079657300656570726F6D20724E
:1007C000657365743A005245564552534520504F63
:1007D0004C4152495459006572726F723A00636F0E
:1007E0006D706C6574653A001F32000000400000B7
:1007F00000001A330040000000000040DC30FFFF22
:10080000FF7F0400004081328001000000000040B2
:10081000733100020000080000407F310002000038
:1008200008000040933100020000000000409B31AE
:10083000FFFFFF7F04000040BB2E000000600000AF
:100840000000BF2E0000006000000000C32E00006A
:10085000006000000000C72E0000002004000040DF
:10086000CB2E0000002004000040CF2E000000200E
:10087000040000402D31FFFFFF7F040000400F31D6
:10088000FFFFFF7F000000406731FFFFFF7F000098
:100890000000F030FFFFFF7F040000004B31FFFF3E
:1008A000FF7F000000000000FFFFFF7F000000004E
:1008B000250064542F64743D200064563D202020A0
:1008C000006D6178563D0054696E743D00206C697E
:1008D0006D69743D0056696E7075743D007769727C
:1008E000657320523D00626174742E20523D004CAD
:1008F000696D6974733A20004E2F41005465787415
:100900003D004E2F410025200043684342426C4485
:100910006946435374534243594343000101010262
:100920000A1E010318478E01190C03010101E80397
:10093000019C0DE803009A0D640000980D6400000E
:10094000950D640000930DE80301900DE803018EFE
:100950000D0100008C0DE803019A0D010000850DCA
:10096000640000880D010000860D010000860D0165
:1009700000000000010000830D16191B1A1C07055A
:10098000062122232425262728566D696E75733A81
:100990000056706C75733A006164633A0074656D5B
:1009A000703A004965787065633A00493A007661AB
:1009B0006C75653A0063616C69622E20702E3A0096
:1009C000566F75743A0056312D383A005662383AEF
:1009D000005662373A005662363A005662353A009F
:1009E0005662343A005662333A005662323A005642
:1009F00062313A0056696E3A00657870657274200B
:100A000044414E474552210074656D7020696E74F3
:100A100065726E0074656D702065787465726E0025
:100A2000492064697363686172676500492063687F
:100A30006172676500766F6C746167650062616CF6
:100A4000616E636520706F727421006261747465F9
:100A500072792100646973636F6E6E6563740063FD
:100A60006F6E6E6563740064542F6474002D645659
:100A70000056206C696D6974006164617074206453
:100A800069733A00442F4320726573743A00442F0F
:100A900043206379636C65733A0063617020434F50
:100AA00066663A0074696D653A007C657874726EAA
:100AB0002054434F3A007C64542F64743A006578A4
:100AC00074726E20543A007C69676E72206672738D
:100AD000743A007C64563A00656E61622064563A4E
:100AE0000062616C2E206572723A006D696E496415
:100AF0003A0049643A006D696E49633A0049633AC5
:100B0000004361703A0056636F3A0056643A0056EB
:100B1000733A0056633A00563A0062617474657223
:100B2000793A0072657600616476616E636564008F
:100B300073696D706C6500542D70726F677200542C
:100B4000656D706572610070726F6772616D0061D2
:100B50006C77617973006578742E20416463006559
:100B600078742E20646562006465627567006E6F3C
:100B7000726D616C0064697361626C6564007365B9
:100B80007061720074656D700072657365740062E7
:100B90007574746F6E733A006D656E75733A007C90
:100BA0006F75747075743A007C73706565643A0093
:100BB000554152543A00616463206E6F6973653A1F
:100BC00000696E707574206C6F773A006D617820E3
:100BD00050643A006D61782050633A006D6178206E
:100BE00049643A006D696E2049643A006D6178206D
:100BF00049633A006D696E2049633A006265657029
:100C00003A006469736368206F66663A007C6661C7
:100C10006E2054206F6E3A0066616E206F6E3A004F
:100C20006261636B6C696768743A004C4544004EBE
:100C3000695A6E004C343335004C343330004C6903
:100C4000706F004C696C6F004C69666500506220E3
:100C500020004E694D48004E69436400556E6B6E2E
:100C6000004E6F6E65007265736574206465666121
:100C7000756C740063616C696272617465007365A0
:100C80007474696E6773006F7074696F6E7300655A
:100C90006469742062617474657279006361706163
:100CA0006369747920636865636B00443E43206622
:100CB0006F726D61740073746F726167652B62612E
:100CC0006C616E630073746F726167650066617357
:100CD0007420636861726765006469736368617238
:100CE00067650062616C616E63650063686172676D
:100CF000652B62616C616E63650063686172676534
:100D0000006578742E74656D702E6375746F6666F9
:100D10000074696D65206C696D6974006361706150
:100D200063697479206375746F666600696E7075A7
:100D300074205620746F206C6F77004857206661CE
:100D4000696C7572650062616C616E6365722064C6
:100D50006973632E00696E742E74656D702E6375F1
:100D6000746F666600626174746572792064697379
:100D7000632E006E6F6C696D697400206E6F007970
:100D80006573005500006D00432F6D002500F400D1
:100D900041680043005768005700560041004F0B60
:100DA00011241FBECFE5D8E0DEBFCDBF10E0A0E626
:100DB000B0E0E6E9F9E702C005900D92AA38B10764
:100DC000D9F724E0AAE8B0E001C01D92A23CB20726
:100DD000E1F716E0C0EDD6E004C02197FE010E94C5
:100DE000433CCF3CD107C9F70E9414120C94C03C7D
:100DF0000C9400000E94E23940E062E080E10E9431
:100E00009A390E9472090E94DF090C94A107CF93BE
:100E1000DF9300D000D0CDB7DEB7482F282F30E0C9
:100E2000A0E0BDE70E94C33B19827A838B839C8339
:100E3000A4E6B0E0A41BB10924E60E94493C298144
:100E40003A814B815C81620F731F841F951F24E6DA
:100E500030E040E050E00E94023CB9018DE00F908C
:100E60000F900F900F90DF91CF910C94C9098115CD
:100E700011F0909A089590980895811105C0939A61
:100E8000C498969A929A08959398C49A0895811155
:100E900002C0969A089596980895811102C0929A78
:100EA000089592980895BC018EE00C94C9090C94A1
:100EB000530780FF17C0C09A81FF16C0C19A82FFF6
:100EC00015C0C29A83FF14C0C39A84FF13C0DE9A70
:100ED00085FF12C0DF9A86FF11C0AE9A87FF10C04F
:100EE000AF9A0895C098E8CFC198E9CFC298EACFE9
:100EF000C398EBCFDE98ECCFDF98EDCFAE98EECF76
:100F0000AF98089580E00E943D0780E00E94370777
:100F100080E00E945F0980E00E9459078C9A8B9ABA
:100F2000889A8F9AB89AB99ABA9ABB9AD69AD79A47
:100F3000A69AA79ABC9A8D9A8E9A8D9A8A9A0895A3
:100F40000895D598D498DD98DC98BF9ABE9ABD9A3A
:100F50008EEA86B9369A08959C01E0919900E331B2
:100F600019F18FB7F894F0E0DF01AA0FBB1FA75566
:100F7000BD4F12963E932E938FBF809191008115A5
:100F8000E1F0EE0FFF1FEE0FFF1FE153FD4F8081D9
:100F90009181A281B381820F931FA11DB11D808316
:100FA0009183A283B383089590919A0080918E00DB
:100FB00037FD04C0982B90938E0008959095982348
:100FC000FACF0E946E249093CC028093CB020E94B1
:100FD000451D9093CE028093CD02809191008115A2
:100FE00009F485C00E946E244091130350911403AC
:100FF0006091150370911603480F591F611D711DF3
:1010000040931303509314036093150370931603D6
:101010000E94451D409117035091180360911903D8
:1010200070911A03480F591F611D711D40931703DA
:10103000509318036093190370931A0380911B0354
:1010400090911C03019709F050C08091D7029091B4
:10105000D802A091D902B091DA02B695A7959795DA
:1010600087958093D7029093D802A093D902B0932A
:10107000DA028091CF029091D002A091D102B0917A
:10108000D202B695A795979587958093CF029093B6
:10109000D002A093D102B093D2028091D30290915A
:1010A000D402A091D502B091D602B695A795979596
:1010B00087958093D3029093D402A093D502B093E6
:1010C000D6028091DB029091DC02A091DD02B0910A
:1010D000DE02B695A795979587958093DB0290934E
:1010E000DC02A093DD02B093DE020C94150F08958C
:1010F00080913E0390913F03892BD9F08091960017
:101100008115B9F09091930041E001C0440F9A9588
:10111000EAF720911B0330911C032F703FB7F8941E
:101120005BB39BB3942B9BBB820F8A95F1F75BBBA0
:101130003FBF0895809190008F5F883108F080E074
:101140008093900085E0E2E9F0E0A7E9B0E001904B
:101150000D928A95E1F7E0919000EF5FE83108F099
:10116000E0E085E0E89FF0011124E451FF4F45E005
:1011700050E0A2E9B0E00E94653C809190008111AE
:101180000CC00E94E10720911B0330911C0381E0F9
:10119000232B09F480E080939100089584B125B158
:1011A00090918F00933018F0922F0E94AC0780919D
:1011B0008F0091E0980F90938F008D30A9F08031CF
:1011C000A9F081111BC08091920087FD17C02FB735
:1011D000F89498B3809192008295880F807E9F71D9
:1011E000892B88BB2FBF08950C94780880919300B9
:1011F000806287B910928F000C949A0808958091AC
:101200008E0008951F920F920FB60F9211242F9304
:101210003F934F935F936F937F938F939F93AF937E
:10122000BF93EF93FF930E94CE08FF91EF91BF9180
:10123000AF919F918F917F916F915F914F913F916E
:101240002F910F900FBE0F901F9018951F920F9225
:101250000FB60F9211242F933F934F935F936F9389
:101260007F938F939F93AF93BF93EF93FF930E94CE
:101270000E35FF91EF91BF91AF919F918F917F912B
:101280006F915F914F913F912F910F900FBE0F90F3
:101290001F90189588E085BD85B5846085BD14BC18
:1012A0008CE783BD89B7806889BF0895979A1895A0
:1012B0008F93979880919C0082BF8F911895811190
:1012C00004C013BE12BE97980895869598E7980FAC
:1012D00090939C0090E09595879584548CBF8CE406
:1012E00083BF089589B7836089BF08951F921FB691
:1012F0001F9211242F933F938F939F932091A300CC
:101300003091A40080919F009091A000820F931FC4
:1013100080939F009093A0002091A1003091A200A3
:1013200080919D0090919E00820F931F80939D005D
:1013300090939E002FB7F89480919F009091A00009
:1013400035E0969587953A95E1F79BBD8ABD8091EA
:101350009D0090919E0035E0969587953A95E1F72E
:1013600099BD88BD2FBF80919F008F7180939F0092
:101370001092A00080919D008F7180939D0010922B
:101380009E009F918F913F912F911F901FBE1F90A4
:1013900018959FB7F8948E3049F47093A400609329
:1013A000A3008FB580688FBD9FBF08958D30E1F792
:1013B0007093A2006093A1008FB58062F4CF80E0AB
:1013C00094E097BD86BD82E08FBD89E18EBD89B76F
:1013D000846089BF08951F921FB61F9211242F9316
:1013E0003F934F936F937F938F939F93EF93FF93CD
:1013F0005A9927C04CB18091BB019091BC01839553
:10140000282F30E06091BD017091BE01861717064C
:1014100059F0E091BB01F091BC01E554FF4F4083CE
:101420003093BC012093BB01FF91EF919F918F916D
:101430007F916F914F913F912F911F901FBE1F90F1
:1014400018958CB1F1CF2F932FB72F933F938F9394
:101450009F93EF93FF932091BB013091BC0180914A
:10146000BD019091BE012817390751F45598FF919D
:10147000EF919F918F913F912F912FBF2F911895B1
:10148000E091BD01F091BE01E554FF4F20818091B4
:10149000BD019091BE01839590E09093BE01809331
:1014A000BD012CB9E4CFCF92DF92EF92FF92CF93A0
:1014B000DF93EC016A017B01E885F985C11461EED7
:1014C000D606E104F104F9F02C8981E001C0880F0F
:1014D0002A95EAF7808360E079E08DE390E09A0155
:1014E000A7010E94023C215031094109510956953A
:1014F00047953795279561E0C9013031B8F06115FE
:10150000A9F0E885F985108260E874E88EE190E042
:101510009601A7010E94023C21503109410951095D
:10152000569547953795279560E0E6CFEC81FD818C
:101530009083EE81FF8120831D8AEA85FB852081CF
:10154000498981E090E0BC0101C0660F4A95EAF745
:10155000262B2083EA85FB8520814A89BC0101C0B6
:10156000660F4A95EAF7262B2083EA85FB852081C2
:101570003B8901C0880F3A95EAF7809582238083E2
:10158000DF91CF91FF90EF90DF90CF900895CF93B0
:10159000DF93FC01A281B381AD015F5FAE5FBE4FFF
:1015A000EA01288139818D919D9112972817390779
:1015B000B9F7A285B3854C91818921E030E0B9016A
:1015C00001C0660F8A95EAF7862F809584238C9355
:1015D000A285B3854C918289E90101C0CC0F8A951F
:1015E000EAF78C2F809584238C93A285B3858C9108
:1015F000938901C0220F9A95EAF7209528232C930E
:1016000080819181FC01EE5FFE4F20813181329318
:101610002293DF91CF910895FC018589811529F0EE
:10162000A085B1858C9186FFFBCF158A0895CF9355
:10163000DF93FC0122813381D901BF5F8D919D91A0
:101640001297839590E0E901CE5FDE4F4881598182
:1016500048175907D9F34D915D91240F351FD901D2
:101660006C93A281B381AE5FBE4F9E938E93A28591
:10167000B3858C91938921E001C0220F9A95EAF7F6
:10168000822B8C9381E0858B0084F185E02D808115
:101690008064808381E090E0DF91CF9108958BEBAF
:1016A00090E08093A5009093A6008093A70090936C
:1016B000A80080E48093A9001092AA0029E2209358
:1016C000AB001092AC002BE22093AD001092AE0064
:1016D0002AE22093AF001092B0008093B1001092E4
:1016E000B2008CE28093B3001092B40084E0809347
:1016F000B50083E08093B60087E08093B70085E073
:101700008093B80081E08093B9000895CF93DF9370
:101710000F92CDB7DEB7E0918C00F0918D0030973D
:1017200011F4E2ECF4E0CE0101962EEB8E179F0748
:1017300020F40F90DF91CF9108952193F7CFCF93AD
:10174000DF9300D0CDB7DEB7CE01019620918C009B
:1017500030918D002115310511F422EC34E0821B0B
:10176000930B0F900F90DF91CF910895CF93DF935C
:101770000F92CDB7DEB7E0918C00F0918D003097DD
:1017800011F4E2ECF4E080E090E09E012F5F3F4F27
:101790002E173F0730F040814E3B19F401963196E9
:1017A000F7CF0F90DF91CF910895009709F4089536
:1017B0000197EFE9FFE03197F1F700C00000F5CFA6
:1017C0008436910560F064E670E00E94EE3BCB0148
:1017D0000C94D50B019725E32A95F1F700000097AB
:1017E000C9F708956AE070E00E94EE3BCB010C94CB
:1017F000E00BE82FF0E0EE0FFF1FED57FD4F80816B
:1018000091810895E82FF0E0EE0FFF1FEF5CFD4F90
:101810008081918108952FB7F894E82FF0E0EE0FC2
:10182000FF1FE755FD4F808191812FBF0895809163
:10183000210308958091DD019091DE01089580914A
:10184000CB019091CC0108958091CD019091CE0172
:1018500008958093C8010895E82FF0E0EE0FFF1F70
:10186000E152FE4F80819181089581E080931F03B2
:101870000895633110F4423038F021E0FC012283F6
:10188000138220831182089550E09A01260F311DA2
:10189000260F311DB901660F771F660F771F625F34
:1018A0007F4F44E00C947B3C9A01833190F462308A
:1018B00080F470E0680F711D680F711D660F771F4F
:1018C000660F771F625F7F4F44E050E0C9010C94C0
:1018D000993C0895EF92FF921F93CF93DF9300D02E
:1018E00000D0CDB7DEB784E5E82E80E0F82E10E01A
:1018F000F70185919591A591B59189839A83AB83E1
:10190000BC83AE014F5F5F4F60E0812F0E94540C9B
:10191000F701349685919591A591B59189839A8324
:10192000AB83BC83AE014F5F5F4F61E0812F0E94AC
:10193000540C1F5F88E0E80EF11C1331C9F681E0FA
:101940000E9491120F900F900F900F90DF91CF9106
:101950001F91FF90EF90089580911D0390911E03B9
:101960000C94F91481E020915F02309160022531DE
:10197000310509F080E0089580915D0290915E024A
:1019800008958091590290915A02089580916302BE
:1019900090916402089580910B0290910C0203973C
:1019A00050F08091110290911202039720F083E091
:1019B00090E00C94301A80E008952FB7F89480E0FE
:1019C00090E0FC01EE0FFF1FEE0FFF1FE153FD4FF4
:1019D000108211821282138201968331910589F758
:1019E00088E290E090931C0380931B0310922003E5
:1019F0002FBF0895CF93CFB7F8941092DB011092C8
:101A0000DC011092D7011092D8011092D9011092E6
:101A1000DA011092D3011092D4011092D5011092E4
:101A2000D6011092CF011092D0011092D1011092E4
:101A3000D2010E9436358093C9019093CA01CFBF6D
:101A4000CF910895EFEDF1E082E5DF011D928A95D7
:101A5000E9F70895CF93CFB7F89481E090E09093A1
:101A60001C0380931B03809320030E94220DCFBF91
:101A7000CF910895CF93DF930E942A0DC091DD018D
:101A8000D091DE018091DD019091DE018C179D07E0
:101A900019F0DF91CF9108958AE090E00E946B35B4
:101AA000F1CF1092210380E00C943D07CF93DF9398
:101AB00081E00E940B0CEC0180E00E940B0C8C1763
:101AC0009D0750F4C81BD90B81E0C93ED34008F4F0
:101AD00080E0DF91CF910895C0E0D0E0F5CFCF92C4
:101AE000DF92EF92FF920F931F93CF93DF93CDB7C7
:101AF000DEB728970FB6F894DEBF0FBECDBF182F04
:101B00006B01672B89F480E090E028960FB6F8947B
:101B1000DEBF0FBECDBFDF91CF911F910F91FF9020
:101B2000EF90DF90CF90089540E0682FCE010596AA
:101B30000E94390C41E0612FCE0101960E94390CC0
:101B4000ED81FE81E980FA80EE15FF05E1F26B81FF
:101B50007C8180E090E00F811885601B710B81090A
:101B60009109960140E050E02E1B3F0B41095109BD
:101B70000E94D23B970140E050E02E1B3F0B4109F1
:101B800051090E94243CC901DA01800F911FA11D57
:101B9000B11DA130B1051CF08FEF9FEFB6CFB7FF9D
:101BA000B4CFA0E0B0E0CD01B0CFCF92DF92EF9202
:101BB000FF920F931F93CF93DF93CDB7DEB7289794
:101BC0000FB6F894DEBF0FBECDBF182F6B01672B89
:101BD00089F480E090E028960FB6F894DEBF0FBE3F
:101BE000CDBFDF91CF911F910F91FF90EF90DF90CC
:101BF000CF90089540E0682FCE0105960E94390CE1
:101C000041E0612FCE0101960E94390CEF81F885E9
:101C1000EB80FC80EE15FF05E1F269817A8180E0BE
:101C200090E00D811E81601B710B81099109960165
:101C300040E050E02E1B3F0B410951090E94D23B6E
:101C4000970140E050E02E1B3F0B410951090E94D3
:101C5000243CC901DA01800F911FA11DB11DA130E3
:101C6000B1051CF08FEF9FEFB6CFB7FFB4CFA0E068
:101C7000B0E0CD01B0CF82508E3130F4E82FF0E0EB
:101C8000E459FF4F8081089581E00895CF93C82FD4
:101C9000853151F481E020915F023091600225315D
:101CA000310589F080E00FC00E943B0E813069F45D
:101CB000EC2FF0E0EE0FFF1FEF5CFD4F2081318134
:101CC0002139314078F3CF91089581E0FCCFEF9234
:101CD000FF920F931F93CF93C1E291E0E92EF12C75
:101CE00000E010E08C2F0E94460E90E091958195C7
:101CF00091098E219F21082B192BEE0CFF1CCF5F21
:101D0000C93281F7C801CF911F910F91FF90EF90D9
:101D10000895CF93DF9300D00F92CDB7DEB76B83DA
:101D2000E82FF0E0EE0FFF1FEF5CFD4F20813181C7
:101D300029833A830E943B0E482F6B8189819A81C7
:101D40000F900F900F90DF91CF910C94A1382FB787
:101D5000F8946091C4017091C5018091C601909181
:101D6000C7012FBF20E03DE740E050E00E94023C69
:101D7000C90108952FB7F8946091C0017091C10115
:101D80008091C2019091C3012FBF96958795779559
:101D9000679520E03DE740E050E00E94023CC90129
:101DA000089540916302509164028091C401909122
:101DB000C501A091C601B091C701840F951FA11D57
:101DC000B11D8093C4019093C501A093C601B09347
:101DD000C7018091BF01815019F08093BF01089520
:101DE00082E38093BF012091590230915A02DA01B7
:101DF0000E94C33B24E630E040E050E00E94023CF9
:101E00008091C0019091C101A091C201B091C30124
:101E1000820F931FA41FB51F8093C0019093C1012F
:101E2000A093C201B093C301089580911B039091C8
:101E30001C03892B49F080911B0390911C0301978F
:101E400090931C0380931B03089590E0880F991FC3
:101E5000FC01EF5CFD4F2081318162177307B8F4FC
:101E6000261B370B27303105B8F4FC01E152FE4F39
:101E7000208131812F5F3F4FFC01E152FE4F2083D3
:101E800031838F5C9D4FFC01608371830895AB01AA
:101E9000421B530B9A01E6CF20E030E0EDCFCF9309
:101EA000DF938FB7F8941092C4011092C50110927D
:101EB000C6011092C7011092C0011092C101109288
:101EC000C2011092C30192E39093BF018FBFC1E39F
:101ED000D2E068A579A58EE10E94250F8E859F85A9
:101EE0008093CB019093CC010E942A0D0E94FA0CA2
:101EF0001092CD011092CE0160E070E08BE10E9463
:101F0000250F60E070E08DE10E94250F60E070E039
:101F10008FE1DF91CF910C94250F1092DD0110928B
:101F2000DE010C944F0F0C948D0F909121039111B1
:101F30000FC00E943D070E948D0F81E08093210316
:101F4000809360000E943A0D0E944F0F10921F0371
:101F50000895EF92FF920F931F93CF93DF93C09159
:101F60003102D091320280913302909134028C1769
:101F70009D0708F098C0C81BD90BBE0184E10E94E0
:101F8000250F83E4E82E82E0F82E11E2F70161913B
:101F900071917F01812F0E94250F1F5F1932B1F7C8
:101FA00080911F03811106C00E94670E80931D035C
:101FB00090931E03E0901D03F0901E03E3E7F2E010
:101FC00080E090E08C0141E050E09A01082E02C0D0
:101FD000220F331F0A94E2F72E213F21232B21F0F9
:101FE00020813181020F131F0196329688309105AE
:101FF00061F7B80185E10E94250F0115110509F46B
:1020000055C0CE01801B910B0C171D0718F0C8019D
:102010008C1B9D0B893B9B4008F048C0E80115E1F3
:10202000BE0186E10E94250FB70188E10E94250FBD
:10203000612F70E087E10E94250F0E94391D0091F9
:1020400037021091380281110AC00E946224009167
:10205000350210913602811102C000E010E09801B3
:10206000DE010E94C33B20E137E240E050E00E94E5
:10207000023CB9018AE10E94250FB80189E10E9462
:10208000250F0E94A70EBC018BE10E94250F0E9424
:10209000BA0EBC018CE1DF91CF911F910F91FF909F
:1020A000EF900C94250FC0E0D0E067CF14E1E12C55
:1020B000F12CB6CF1F93CF93DF93182FC82FD0E00A
:1020C00084E0189FF0011124E153FD4F608171817C
:1020D0008281938120E332E040E050E00E94023CA4
:1020E000CC0FDD1FCD57DD4F28833983B901812FF8
:1020F0000E946F0DBC01812FDF91CF911F910C9435
:10210000250FCF92DF92EF92FF920F931F93CF9301
:10211000DF93CDB7DEB72C970FB6F894DEBF0FBEB6
:10212000CDBF0E9436352091C9013091CA01821B72
:10213000930B8133954708F4B3C04FB7F8942091BF
:10214000DB013091DC01A0E3B2E00E94C33B6B01F4
:102150007C01F694E794D794C7948091D70190912D
:10216000D801A091D901B091DA018D839E83AF830C
:10217000B8878091D3019091D401A091D501B091FD
:10218000D60189839A83AB83BC838091CF019091E0
:10219000D001A091D101B091D20189879A87AB87F4
:1021A000BC874FBF0E94FA0C8091CD019091CE0167
:1021B00001968093CD019093CE0169817A818B81C4
:1021C0009C819601A7010E94023C29833A834B839C
:1021D0005C836D817E818F8198859601A7010E9425
:1021E000023CB90180E00E946F0D8D839E8369815E
:1021F0007A8181E00E946F0DAD81BE818A179B07B5
:1022000008F04BC0A81BB90BA983BA8300916D02DB
:1022100010916E0229813A812017310720F48091B4
:10222000C801811105C069817A818EE10E94250F64
:1022300069817A81601B710B8DE10E94250F698590
:102240007A858B859C859601A7010E94023CB90185
:1022500087E00E946F0D2091CB013091CC018093DB
:10226000CB019093CC01821B930BBC01660F771FAF
:102270008FE10E94250FB60180E22C960FB6F894EC
:10228000DEBF0FBECDBFDF91CF911F910F91FF90A9
:10229000EF90DF90CF900C94250F19821A82B6CF61
:1022A0002C960FB6F894DEBF0FBECDBFDF91CF9155
:1022B0001F910F91FF90EF90DF90CF900895CF93F3
:1022C0002FB7F89480911B0390911C032FBF892B8B
:1022D00009F091C080912003811182C08091210377
:1022E000811509F480C08091DD019091DE01019695
:1022F0008093DD019093DE014091CF025091D00296
:102300006091D1027091D202769567955795479565
:102310008091D7019091D801A091D901B091DA01B3
:10232000840F951FA61FB71F8093D7019093D801E4
:10233000A093D901B093DA014091D3025091D40215
:102340006091D5027091D60276956795579547951D
:102350008091D3019091D401A091D501B091D60183
:10236000840F951FA61FB71F8093D3019093D401AC
:10237000A093D501B093D6014091EB025091EC02AD
:102380006091ED027091EE027695679557954795AD
:102390008091CF019091D001A091D101B091D20153
:1023A000840F951FA61FB71F8093CF019093D00174
:1023B000A093D101B093D2018091DB019091DC0117
:1023C00001968093DB019093DC010E948110C0E0B4
:1023D0008C2F0E945A10CF5FC331D1F70E94A90FF2
:1023E000CF910C94DD0C809160008115C9F385E0DC
:1023F0000E945A10F5CFCF9108950C945F110E945E
:10240000820778940E94FA060E944A090E94FF24DB
:102410000E94D61D0E94930F0E94860B0E94871473
:102420000E94902F0C9477300E94FF110E9440135D
:102430000E94EC2D80E090E008950F931F93CF93BE
:10244000DF9300D00F92CDB7DEB789839A838B01DB
:1024500041110E94BA3C84E08B8389819A810E9459
:10246000933C8017910791F084E690E00E944D35EF
:102470008B8181508B838111F0CF81E00F900F9081
:102480000F90DF91CF911F910F91089580E0F6CFCB
:10249000EF92FF920F931F93CF93DF938C017C01F8
:1024A000E60EF71ECFEFDFEF0E151F0541F4CE014C
:1024B000DF91CF911F910F91FF90EF900895C80188
:1024C0000E948B3CC82788E09E01369527959C2F5B
:1024D000E90190FF04C091E0C92790EAD927815013
:1024E00099F70F5F1F4FE0CF0F931F93CF93DF93A9
:1024F00000D00F92CDB7DEB78C016A837B8349830E
:102500000E9448124981BC018A819B81800F911FE2
:102510000F900F900F90DF91CF911F910F910C941E
:102520001D12482F68E970E08EE090E00C94741260
:10253000482F60E273E088EA90E00C947412482F10
:1025400064E270E08AEC93E00C9474120F931F9392
:10255000CF93DF9300D00F92CDB7DEB78B8381701E
:102560008983482F63E678E680E090E00E941D12A0
:10257000182F49816CE679E682E090E00E941D12F6
:10258000182B498162E070E184E090E00E941D1206
:10259000182B498168E070E086E090E00E941D12EF
:1025A00089838B8181FB442740F96AE070E088E0F1
:1025B00090E00E941D128A839B8192FB442740F980
:1025C00063E070E08AE090E00E941D128195082F80
:1025D00004708A81880F082B9B8193FB442740F964
:1025E0006CE070E08CE090E00E941D128195887094
:1025F000802B8A838981182B9A81912B99838B81D7
:1026000081FD0E946A0C80E00E949112182F110F28
:102610009981192B8B8182FD0E940B1880E00E940A
:10262000981281958470812B89839B8193FD0E94F0
:10263000A21480E00E949F12819588709981892B55
:102640000F900F900F90DF91CF911F910F910895F0
:10265000CF93C82F0E942830C0FF04C0C260C4605E
:10266000C86004C0C1FDFBCFC2FDFACF0E94493053
:102670008C2F0E94A612682F8C2FCF910C944D3076
:1026800080E00E94A612811521F00E94281380E0AC
:10269000089581E0089580E00E94A61281600C9464
:1026A0002813CF930E94862F8AE492E08093A4039C
:1026B0009093A503C1E0C093A30310929C030E94D2
:1026C0001316823011F4C0939C030E949C1C982F17
:1026D00081E0913009F080E0CF91089561E081E0E0
:1026E0000E940E1C86E592E08093A4039093A503BC
:1026F000089561E081E00E940E1C82E692E08093E2
:10270000A4039093A503089560E082E00E940E1C4C
:1027100084E492E08093A4039093A50308950E941B
:10272000A91D88EE93E00E948A1D82E390E00E943A
:102730006B350E94BC1D61E081E00E940E1C8EE39F
:1027400092E08093A4039093A503089510929C03B4
:102750008930E8F4E82FF0E0EE53F34C0C94433C5E
:102760000E941316811102C00C9479130E94131653
:10277000853029F40C948F1381E080939C030C9492
:102780006E1388E392E08093A4039093A5030895C9
:102790000C9484130E946E13809150039091510306
:1027A00065E070E00E94EE3B60939D0370939E0392
:1027B000089581E080939C038CE592E0E4CF0E9431
:1027C00008200C944F0FCF93C82F0E94DF138C2F3B
:1027D0000E94A613C73039F063E081E0C83041F0B1
:1027E000CF910C949C1C60917003660F615080E047
:1027F000CF910C947918CF93DF930F92CDB7DEB7BA
:1028000089830E94FF26811581F1898180932503A8
:102810000E94A613109222031092230383E0809358
:1028200024030E94303A81E00E94950F0E945113C8
:10283000811591F081E0809324030E942D200E9455
:10284000862F1092A30385E00E94213480912503F6
:102850000E94E3130E9466200E94510D0E94403A9C
:102860000F90DF91CF910C948F2F0F90DF91CF912C
:102870000895DC015C96ED91FD91EE0FFF1FEE0FC8
:10288000FF1FEC59FE4F65917591859195910895C3
:1028900044E250E0DC01E8E7F1E00E94653C089585
:1028A00080913203909133032091300330913103B2
:1028B0008217930728F42093320330933303C9011E
:1028C00089359B4130F088E59BE1809332039093FA
:1028D0003303809136039091370320913403309174
:1028E00035038217930728F4209336033093370378
:1028F000C9018938934130F088E893E18093360329
:10290000909337030895FC0180810C94070744E2FB
:1029100050E06AEC73E086E293E00E947B3C86E242
:1029200093E00C94831444E250E06AEC73E086E296
:1029300093E00E94993C81E00E949F1286E293E01E
:102940000C94831444E250E0A6E2B3E0E8E7F1E03F
:102950000E94653C0C949314FC010994FC01859140
:1029600095910C94AC14CF93DF9300D000D000D09D
:10297000CDB7DEB78D839E8369837A834B835C8377
:1029800085E00E94020C29813A818217930768F43E
:10299000ED81FE81108281E00F900F900F900F90DB
:1029A0000F900F90DF91CF9108952B813C812817D4
:1029B000390728F481E0ED81FE818083ECCF80E04F
:1029C000EBCF282F81E090E03AE0211101C008957B
:1029D0002150AC01349FC001359F900D1124F5CFDB
:1029E000009719F024F48FEF089580E0089581E0B6
:1029F00008959C0180E090E1422F4170840F36954C
:102A000027959150C9F70895CF9397FF0AC00E9468
:102A10003B3CC1E000977040604051F48C2FCF9157
:102A20000895C1E0009770406040A1F3C0E0F2CF8C
:102A3000CF5F2AE030E040E050E00E94243CB90142
:102A4000CA01E8CFBC0180E090E00C940415EF923D
:102A5000FF920F931F93CF93DF9300D000D0CDB799
:102A6000DEB789839A837B014B835C83DC01ED9124
:102A7000FD91CF01B8010E94EE3B009799F0081B31
:102A8000190B1E141F048CF08C018B819C81800F0C
:102A9000911F8E179F07A0F4CF01801B910B8B8392
:102AA0009C830EC01E141F0484F7C901801B910B68
:102AB000E817F90718F49F01200F311F2B833C837F
:102AC0008B819C81E981FA81808391830F900F90A3
:102AD0000F900F90DF91CF911F910F91FF90EF908A
:102AE00008950F931F93CF93DF93CDB7DEB7289749
:102AF0000FB6F894DEBF0FBECDBF8F839887698372
:102B00007A834B835C832D833E83FC01808191819A
:102B10000E9422158230C8F082500E94E1148C017C
:102B20002D813E814B815C8169817A818F8198857D
:102B30000E94271528960FB6F894DEBF0FBECDBFB2
:102B4000DF91CF911F910F91089581E090E0E7CF41
:102B50002FEF3FEF40E050E00C9471150E94953547
:102B60008111FCCF0E9495358115E1F308954091C4
:102B70004E0350914F0360914A0370914B0395E0CF
:102B8000969FF001979FF00D1124E80FF11DEE0FB5
:102B9000FF1FE054FE4F25913591823051F4623091
:102BA000710539F44730510520F04150510920EBAF
:102BB00034E0429FC001439F900D529F900D11241D
:102BC000089540914E0350914F0320914A03309154
:102BD0004B0395E0929FF001939FF00D1124E80FB5
:102BE000F11DEE0FFF1FE054FE4F2591359181300E
:102BF00061F42091540330915503249FC001259F17
:102C0000900D349F900D11240895823029F4209165
:102C1000560330915703F1CF833079F72091680341
:102C200030916903EACFE0914A03F0914B03E456F7
:102C3000FE4F8491089520914C0330914D03A09153
:102C40006603B09167030E94C33B64302FE27207B2
:102C500023E68207910588F4E0914A03F0914B0343
:102C6000E456FE4FE491E53041F024E630E040E0E8
:102C700050E00E94023CC901089528EE3DEFFBCFD1
:102C800020914E0330914F0380916A0390916B0322
:102C9000AC01249FC001259F900D349F900D1124FD
:102CA000089582E00E94B715BC018091380390918D
:102CB00039030E94A7189C0180913203909133033D
:102CC0002817390708F4C901089582E00E94B71552
:102CD000BC0180913A0390913B030E94A7189C018C
:102CE00080913603909137032817390708F4C901FA
:102CF000089580914A0390914B039C012A50310919
:102D00002230310580F02AE0289FF001299FF00D44
:102D10001124EE53FE4F659175918CEC9DE80E9455
:102D2000EE3BCB01089581E090E0089580914C0343
:102D300090914D038436910508F088C084E690E0B8
:102D400080934C0390934D0380915C0390915D03BD
:102D5000893E934030F088EE93E080935C0390933B
:102D60005D030E94791620914E0330914F03821724
:102D7000930728F480934E0390934F039C01232BD9
:102D800029F481E080934E0310924F030E94511664
:102D900020915003309151038217930728F48093B8
:102DA0005003909351039C018091580390915903D3
:102DB0002817390720F420935803309359030E94B1
:102DC000651620915203309153038217930728F41C
:102DD00080935203909353039C0140915A03509166
:102DE0005B032417350728F420935A0330935B03C1
:102DF000A90180913003909131036091500370914B
:102E000051036817790720F480935003909351037E
:102E100060915803709159036817790720F48093E3
:102E200058039093590380913403909135032817E8
:102E3000390720F48093520390935303481759079E
:102E400020F480935A0390935B030895893E9D4F2D
:102E500008F47ACF88EE9DEF73CF98E2899FB00196
:102E6000112468557F4F48E250E08AE493E00E94C5
:102E70007B3C0C94961698E2899FB001112468550A
:102E80007F4F48E250E08AE493E00E94993C81E061
:102E90000C9498120E9496168091500390915103C1
:102EA0006AE070E00E94EE3B609358037093590310
:102EB00008950E94961680915203909153036AE000
:102EC00070E00E94EE3B60935A0370935B03089599
:102ED0000E94961680914C0390914D03809350036D
:102EE0009093510320914A0330914B0323303105D5
:102EF00041F4969587959695879580935003909386
:102F000051030E944A1780914C0390914D03809386
:102F10005203909353030C94591720914A03309114
:102F20004B034AE0429FC001439F900D1124FC01D6
:102F3000EE53FE4F459155914093540350935503E2
:102F4000FC01EC53FE4F459155914093560350932D
:102F500057032115310549F540ED57E040934C03E7
:102F600050934D0343E040934E0310924F0348EEBD
:102F700053E040935C0350935D0310925E03109204
:102F80005F0340E757E14093600350936103109261
:102F90006203109263034EE1409364031092650351
:102FA00048E74093660310926703F901E456FE4F29
:102FB000E491E11121C081EF9FEF2230310511F43E
:102FC0008BEF9FEF21E020936803109269038093B9
:102FD0006A0390936B0383E080936C0310926D03FC
:102FE00084E680936E0310926F0385E080937003F4
:102FF000109271030C94681728E020936A031092D2
:103000006B03FC01EA53FE4F859195918093680311
:1030100090936903EFCFCF9310924A0310924B0322
:103020000E948D17C0E08C2F0E943B17CF5FC431E8
:10303000D1F781E0CF910C949812CF93DF930F9248
:10304000CDB7DEB789830E942D1780914A039091F6
:103050004B03892B19F10E9419320E94C4368091CA
:103060004A0390914B038B30910551F120F4009766
:10307000A9F00A97F9F067E080914C0390914D0315
:103080000E94BB388FE20E94293680914E039091B6
:103090004F030F90DF91CF910C9462362981822FDC
:1030A00090E001960E9462368AE30F90DF91CF9103
:1030B0000C94293689E00F90DF91CF910C94D23196
:1030C00065E080915003909151030E9498380E94CE
:1030D000C43684E0F0CF80916403909165030E9430
:1030E000AB1E80E592E08093A4039093A5030C941B
:1030F0009C1CCF93DF930F92CDB7DEB7698391E02D
:103100009093A30380937203809172039981891332
:1031100002C01092A30380FF18C080E00E94E31356
:10312000813079F49091A303911559F08091720345
:103130008F5F809372030E94DF130E946B188130AF
:1031400019F30F90DF91CF91089583E0E7CFAB01A2
:103150009C01A8EEB3E00E94C33B9A0140E050E01E
:103160000E94023CA8EEB3E00E94503C84369105D8
:1031700040F424E630E040E050E00E94023CC90107
:1031800008952FEF3FEFFBCF8091990390919A0321
:10319000892B99F40E94170C811581F00E941A0C5A
:1031A0002091730330917403AC01421B530B81E0F7
:1031B0004330510518F080E0089581E008958F5D57
:1031C0000C94020CEF92FF920F931F93CF93DF9317
:1031D00000D00F92CDB7DEB71A821B828FEFF82E88
:1031E000EF2C2FEF298301E010E020911D03309197
:1031F0001E03C8010A8002C0880F991F0A94E2F7D3
:1032000082239323892B49F08A810E94DF188E152F
:103210009F0518F42A8129837C018A819B8101966C
:103220008A839B83089709F789810F900F900F90ED
:10323000DF91CF911F910F91FF90EF900895CF9361
:10324000DF932091990330919A03232B21F4DF918E
:10325000CF910C94DF18C82FD0E090917703CC0F5A
:10326000DD1F911591F00E94DF18FE01E858FC4F18
:10327000C857DC4F2081318148815981241B350B8F
:10328000820F931FDF91CF910895C858DC4F88813A
:103290009981F8CFEF92FF920F931F93CF93DF9313
:1032A00080911D0390911E03892B81F100E010E0B5
:1032B000E8018FEFF82EEF2C20911D0330911E03B3
:1032C00081E090E0002E02C0880F991F0A94E2F777
:1032D00082239323892B59F0802F0E941F19C8172E
:1032E000D90708F4EC018E159F0508F47C010F5FE7
:1032F0001F4F0830110501F7CE19DF0981E0209139
:103300006A0330916B032C173D0708F080E0DF91D2
:10331000CF911F910F91FF90EF900895CF93DF937E
:10332000EC018091990390919A03892B41F02097A9
:1033300031F40E941A0C8093730390937403C0932A
:103340009903D0939A030E94220D809198038111D2
:1033500005C08C2FDF91CF910C945907DF91CF914D
:103360000895FF920F931F93CF93DF9381E00E9404
:10337000A007C8E8D3E008E713E0F12C8F2D0E94E6
:10338000DF1889939993F801819391938F01F394B6
:10339000F8E0FF12F3CF1092990310929A03109263
:1033A000980380E090E00E948E19109273031092AF
:1033B00074038FEF80939B03DF91CF911F910F9147
:1033C000FF90089580E090E00E948E1981E0809344
:1033D000980308950E94E21980E00C94A007EF92F0
:1033E000FF921F93CF93DF9300D000D0CDB7DEB70D
:1033F00080919B0387FD31C00E941F1989839A83A6
:1034000010E091E0E92EF12C1B821C8280911D03BB
:1034100090911E038E219F21892B71F0812F0E9494
:103420001F1929813A812817390730F48B819C8133
:103430008E299F298B839C83EE0CFF1C1F5F183005
:1034400029F78B819C810F900F900F900F90DF9147
:10345000CF911F91FF90EF9008951B821C82F1CFB6
:103460000F931F93CF93DF9300D000D0CDB7DEB77B
:1034700089839A831B821C8201E010E020911D0346
:1034800030911E03C8010B8002C0880F991F0A9457
:10349000E2F782239323892B99F42B813C812F5FC0
:1034A0003F4F2B833C832830310541F781E00F905B
:1034B0000F900F900F90DF91CF911F910F91089572
:1034C0008B818F5D0E942C0C29813A818217930792
:1034D00020F780E0ECCFAF92BF92CF92DF92EF92D5
:1034E000FF920F931F93CF93DF9300D000D0CDB7FF
:1034F000DEB786E090E00E94301A811509F480C0A2
:103500000E94CB0CA82E811509F47AC080919B03F0
:1035100087FF04C00E94E21880939B030E94DF187B
:1035200089839A83E0905603F090570388E7C82E6A
:1035300083E0D82E08E813E0BA2C1B821C8220916D
:103540001D0330911E0381E090E00B8002C0880FC4
:10355000991F0A94E2F782239323892BA1F08B8190
:103560000E94DF188E159F05B8F121E049815A812C
:103570004817590708F420E0B222F60180839183AE
:10358000F801808391834B815C814F5F5F4F4B8358
:103590005C8352E0C50ED11C0E5F1F4F8B819C8156
:1035A000089769F6109277030E9449358093750356
:1035B00090937603B11491F00F900F900F900F90AD
:1035C000DF91CF911F910F91FF90EF90DF90CF90FF
:1035D000BF90AF900C94E219BA2CE4CF0E94EF197F
:1035E0000F900F900F900F90DF91CF911F910F913F
:1035F000FF90EF90DF90CF90BF90AF900C948E191A
:103600000F900F900F900F90DF91CF911F910F911E
:10361000FF90EF90DF90CF90BF90AF9008950F9301
:103620001F93CF9380917703811110C081E0809325
:10363000770308E813E0C0E08C2F0E94DF18F80140
:10364000819391938F01CF5FC830B1F7CF911F91D4
:103650000F9108950E9449352091750330917603AA
:10366000821B930B08958091990390919A03892B63
:1036700059F40E946B1A0E94C418811110C09091D5
:10368000980382E0891B08950E940F1B0E942A1B49
:10369000409788F380E090E00E948E19ECCF82E0A2
:1036A00008950F931F93CF93DF9300D000D0CDB731
:1036B000DEB789839A831B821C8201E010E020918F
:1036C0001D0330911E03C8010B8002C0880F991F93
:1036D0000A94E2F782239323892B99F42B813C816E
:1036E0002F5F3F4F2B833C832830310541F780E02B
:1036F0000F900F900F900F90DF91CF911F910F912E
:1037000008958B810E941F1929813A81821793079E
:1037100028F381E0EDCF0F931F93CF93DF9300D079
:1037200000D0CDB7DEB789839A831B821C8201E06B
:1037300010E020911D0330911E03C8010B8002C0D0
:10374000880F991F0A94E2F782239323892B99F417
:103750002B813C812F5F3F4F2B833C8328303105E9
:1037600041F780E00F900F900F900F90DF91CF9175
:103770001F910F9108958B810E941F1929813A8111
:103780002817390728F381E0EDCFCF93DF9300D0DE
:10379000CDB7DEB789839A830E94AC0C90E0811587
:1037A00039F0682F70E089819A810E94EE3BCB014D
:1037B0000F900F90DF91CF9108950E94D22481E065
:1037C0000E94D32180919D0390919E030C949D248F
:1037D0000C94E9240E94CB0C811521F00E947324E3
:1037E0000C948A2208950E94EA1B0E94BC0C20912E
:1037F000A1033091A2032817390740F481E79AE02A
:10380000809322039093230380E0089580919F0387
:103810009091A0030E949D2482E00895CF93DF93AE
:103820000F92CDB7DEB769830E94E1158093A103A3
:103830009093A20389818115A1F08091500390910A
:10384000510380939F039093A0038091580390911C
:10385000590380939D0390939E030F90DF91CF9126
:103860000895809152039091530380939F03909306
:10387000A00380915A0390915B03EBCF8091A40346
:103880009091A5030C94AE148091A4039091A5038C
:1038900002960C94AE140E94441C0E9466200C9464
:1038A0002736CF93DF9300D0CDB7DEB70E944935DE
:1038B00089839A830E94493529813A81821B930B1F
:1038C000853B910510F00E94510D0E9495358115A0
:1038D00089F30F900F90DF91CF910C9417340E94D1
:1038E0004B1C0E94D82F86E00E9421340C94511C5E
:1038F0000E944B1C0E94510D0E94DC2F87E00E9409
:1039000021340C94511CE091A403F091A50334964A
:1039100085919591FC010994813020F40E94781CD6
:1039200080E0089539F48091A3038111F9CF0E94BA
:103930006F1CF6CF81E008950F931F93CF93DF9311
:10394000109263040E943E1CD2E000E010E0C1E04F
:103950000E949535809363040E940030C115C1F028
:103960000E94A920D82F0E948C1CC82F811581F09D
:103970000E941A0C8017910791F00E941A0C8C017A
:103980000E94831CD82F0E948C1CC82F811107C055
:10399000C091A303C11519F0D11105C0C0E08091F9
:1039A00063048130A9F60E94441C8D2FDF91CF91D2
:1039B0001F910F9108950E94BC1D0C94EA190E945A
:1039C000A91D0E94B11981E0209162033091630327
:1039D000232B09F480E08093A60380E00C94D3218C
:1039E0000F931F93CF930091A1031091A203C801DD
:1039F0000E94C51B0E948B1BC82F0E94C4188111F6
:103A000009C0C11107C00E94BC0CC1E0081719070A
:103A100008F4C0E08C2FCF911F910F910895CF93A0
:103A2000DF9300D00F92CDB7DEB70E94F01C8983E0
:103A30000E944A1D8A839B838091A6038115A9F069
:103A40006A817B8189810E943C22811110C06A8138
:103A50007B8189810E949D230E948A1D82E00F90B4
:103A60000F900F90DF91CF9108958981EECF81E083
:103A7000F6CF8091AB03089581E02091A9033091A6
:103A8000AA03232B09F480E008958091A903909163
:103A9000AA0308958091A7039091A8030895CF9356
:103AA000DF930F92CDB7DEB740912C0350912D03D9
:103AB000BA017250CE0101960E94B314898181111E
:103AC00018C00E94C10C009711F481E090E0BC0185
:103AD00084EF91E00E94A7189C0180913603909199
:103AE00037032817390708F4C9010F90DF91CF91E8
:103AF000089580E090E0F9CF813020E8920710F03F
:103B000080E090E88093A9039093AA030E9457074E
:103B10000C942A0DCF93DF93EC010E944F1DC81720
:103B2000D90708F4CE012091A7033091A8032817E4
:103B3000390761F08093A7039093A803BC0182E149
:103B40000E94D50DDF91CF910C947C1DDF91CF9118
:103B500008958091AB0381110EC080E090E00E9437
:103B60007C1D1092A7031092A80381E00E944D07CC
:103B700081E08093AB0308958091AB038115A9F098
:103B800080E090E00E947C1D1092A7031092A80391
:103B90001092AB038AE090E00E946B3580E00E94B7
:103BA0004D078AE090E00C946B35089581E0809396
:103BB000AB030C94BC1D87E08093A30482E0809348
:103BC000A2040E941A3483E08093AC0308958FEF1F
:103BD0008093A3040C941734EF92FF920F931F93DA
:103BE000CF93DF9384E10E94460E20914A033091E7
:103BF0004B032A50310991E02230310508F490E05E
:103C000021E0C82FC227C9230E94AC0C082FD091F5
:103C10009C03D11559F080914E03D1E0081301C0E7
:103C2000D0E0813009F44DC011E0011110E00E9494
:103C3000B20C8115B9F085E10E94020C7C0184E18F
:103C40000E94020CE816F90608F040C09C012E19EB
:103C50003F09790181E035EFE31631E0F30608F41E
:103C600080E0C82B87E0D11183E08093A304111575
:103C700019F082508093A304C11529F08091A30408
:103C800081508093A304D11126C0111511F182E057
:103C90000E942134D1E0011541F10E948B35811140
:103CA00026C01092AC03D11128C0C11122C00E94BD
:103CB0008B358830F1F48091AC038F5F8093AC0337
:103CC00018C0011101C080E0D823B0CFE81AF90A6A
:103CD000C1CFC11541F082E00E9421341111DACF29
:103CE000D111D8CF02C00E941734D0E0D6CFD11561
:103CF000E1F28091AC03823041F082E0DF91CF911C
:103D00001F910F91FF90EF90089581E0F7CF1092EF
:103D1000B10308950E9449358093AF039093B00397
:103D200008950E9449352091AF033091B003821B62
:103D3000930B2091AD033091AE032817390728F477
:103D400081E090E09093B103089582E091E0FACF92
:103D50008091B10308954CE3489F9001499F300D35
:103D600011242093AD033093AE0308950E94B1193E
:103D70000E94D22481E00C94D3210E94E9240C9467
:103D8000EA190F931F93CF930091A1031091A203FF
:103D9000C8010E94C51B0E94511BC82F0E94C41855
:103DA000811109C0C11107C00E94BC0CC1E080177D
:103DB000910708F4C0E08C2FCF911F910F910895C7
:103DC000CF93DF9300D00F92CDB7DEB70E94C11E14
:103DD00089830E9473248A839B83BC0189810E940A
:103DE0003C2281110EC06A817B8189810E949D23C2
:103DF0000E949D2482E00F900F900F90DF91CF9151
:103E0000089581E0F8CF8091C303811109C06091CA
:103E1000BE037091BF038091C0039091C1030895C8
:103E20000E943E352091BE033091BF034091C003F4
:103E30005091C103621B730B840B950B0895609125
:103E4000BA037091BB038091BC039091BD0328EE2F
:103E500033E040E050E00E94023CB901CA010895FD
:103E60006091B6037091B7038091B8039091B90344
:103E700028EE33E040E050E00E94023CB901CA0164
:103E800008956091B6037091B7038091B803909143
:103E9000B90320E63AEE40E050E00E94023CC9013E
:103EA00008950F931F93CF93DF9381E00E94E11554
:103EB000EC0184E00E94E1158C0186E10E94020C75
:103EC0008C179D07D0F408171907C8F49C01201B14
:103ED000310BCE01801B910B64E670E00E94EE3B3B
:103EE000C9010E94EE3B6436710508F063E6862F37
:103EF000DF91CF911F910F91089583E6F9CF80E074
:103F0000F7CFCF92DF92EF92FF920E94511F9091D4
:103F1000C203981798F58093C2030E94031FC090B4
:103F2000C503D090C603E090C703F090C8039B017F
:103F3000AC012C193D094E095F0969017A010E9403
:103F4000031F6093C5037093C6038093C7039093C8
:103F5000C8038091C9039091CA03A091CB03B0918B
:103F6000CC038C159D05AE05BF0540F4C092C90376
:103F7000D092CA03E092CB03F092CC03FF90EF9073
:103F8000DF90CF9008950E94811F8091C403A9E61D
:103F9000811101C0A4E68091C203A81BBB0B209134
:103FA000C9033091CA034091CB035091CC030E94C6
:103FB0005B3C08952091280330912903213031057D
:103FC00019F481E00C94370710F480E0FBCF243023
:103FD0003105A1F48091C3038115B9F385E00E94F6
:103FE000020C20912A0330912B03A901525084170F
:103FF000950758F32817390720F308952230310523
:1040000019F48091C303DECF23303105D9F6E6CF12
:104010000E94511F8093C2031092C5031092C603E1
:104020001092C7031092C8031092C9031092CA03DA
:104030001092CB031092CC031092BA031092BB03E0
:104040001092BC031092BD031092B6031092B703F6
:104050001092B8031092B903089560E971E080E00E
:104060000E94D50D8093B4039093B50381E00E9424
:10407000E115BC016854744F6D3C2DE8720710F0D7
:104080006CEC7DE880E00E94D50D813C2FEF92071B
:1040900010F080EC9FEF8093B2039093B3030E94E3
:1040A000B20C8093C4030E943E356093BE037093AC
:1040B000BF038093C0039093C1030E940820109215
:1040C000CD0381E08093C3030C94350C0E94031F41
:1040D0006093BE037093BF038093C0039093C103AA
:1040E0001092C30308950E946524811569F180919F
:1040F000B6039091B703A091B803B091B90380596A
:104100009F4FAF4FBF4F8093B6039093B703A093D9
:10411000B803B093B9030E94C4188115A1F080912F
:10412000BA039091BB03A091BC03B091BD03805929
:104130009F4FAF4FBF4F8093BA039093BB03A093A1
:10414000BC03B093BD0308950E943C1D8111CFCFE5
:10415000E2CFCF93DF938091C303811104C082E04B
:10416000DF91CF91089585E00E94020C20912C03ED
:1041700030912D033E5F2817390740F485E59DE017
:10418000809322039093230380E0EACF80E00E9493
:104190000B0C2091B2033091B3038217930758F4AC
:1041A0002091B4033091B5038217930738F40E942D
:1041B000391D811519F085E69DE0E2CF8091CD0390
:1041C0008130C9F30E94B20C9091C403891719F091
:1041D00086E49DE0D5CFC0919F03D091A003C85144
:1041E000DC4F0E94C60CC817D90718F48BE39DE07A
:1041F000C7CF86E00E94020C20913C0330913D0322
:104200008217930718F48CE29DE0BACF8BE10E94ED
:10421000020CEC010E941B16883E2DEF920759F00C
:10422000C817D90740F08CE19DE08093220390935A
:10423000230381E095CFC0915C03D0915D03C83E1C
:1042400083E0D80740F40E94411F8C179D0718F0A7
:1042500081E19DE0EACF80915E0390915F03892B1D
:1042600009F47DCF87E00E94020C20916003309119
:1042700061032817390708F072CF81E09DE080CFF5
:104280000E94BD1E0E94DB1C0C94EA19CF93809102
:10429000CE03813058F0D1F00E94331BC82F8230FA
:1042A00011F00E9440218C2FCF9108950E94E01EB2
:1042B000C82F8130C1F780919C038115A1F382E062
:1042C0008093CE030E94B119C2E0EDCF0E940F1D72
:1042D000EFCFCF93DF930E94B11961E083E00E949A
:1042E0000E1CC091A103D091A2030E94AC0C8111BD
:1042F0000DC00E94BC0CC817D90778F00E94B61EEA
:1043000080E08093CE03DF91CF910895CE010E948B
:10431000C51B0E948B1B8111F1CF60E083E00E94DE
:104320000E1C0E94DF1C81E08093A603EACF8091DF
:10433000CF03813029F480919D0390919E030895CD
:1043400080E090E008952CE0829FC0011124855206
:104350009C4F0C9410258BE394E00C941025CF9384
:10436000DF9300D000D0CDB7DEB784E10E94020C0D
:1043700089839A8386E10E94020C29813A81281B55
:10438000390B29833A8389E10E94020C8B839C8339
:10439000CE0101960E9410250F900F900F900F9064
:1043A000DF91CF910895EF92FF920F93CF93DF9318
:1043B00000D000D00F92CDB7DEB7898381E0809323
:1043C000CF030E94BC0C20919D0330919E0340912D
:1043D000A1035091A2030981BC0183E394E00E94F0
:1043E00029258091A1039091A2030E94C51B8A8375
:1043F0009B8383EDE82E83E0F82E1C821D822091A2
:104400001D0330911E0381E090E00C8002C0880FF4
:10441000991F0A94E2F782239323892B71F08C81F0
:104420000E941F1920919D0330919E0309814A81AA
:104430005B81BC01C7010E9429258C819D81019669
:104440008C839D839CE0E90EF11C8C819D810897F3
:10445000B1F6109241041092D20310923F041092D0
:1044600040040F900F900F900F900F90DF91CF911D
:104470000F91FF90EF9008950F931F93CF93C82F44
:104480008B0180919C03811559F080914104C115E5
:1044900001F181111EC00E94E21981E08093410464
:1044A0000E9497218017910790F1C11581F18091A9
:1044B0004104843061F59091D20381E0890F8093AB
:1044C000D20381E09A3008F480E0CF911F910F91E0
:1044D00008958B7F29F780919D0390919E03803AE8
:1044E000910510F480EA90E08017910710F4109283
:1044F00098030E94331B8093CF03813029F70E94D9
:104500004A19811569F28FEF80939B03C9CF1092EE
:10451000D203DACF0F931F93CF93DF9300D000D055
:10452000CDB7DEB789839A830E94BC0C49815A813A
:10453000BC0183E394E00E94EA2503ED13E01B82B3
:104540001C8220911D0330911E0381E090E00B80BE
:1045500002C0880F991F0A94E2F782239323892BC4
:1045600049F08B810E941F1949815A81BC01C80101
:104570000E94EA258B819C8101968B839C83045F3A
:104580001F4F0897F1F60F900F900F900F90DF914B
:10459000CF911F910F910895EF92FF920F931F9368
:1045A000CF93DF9300D000D0CDB7DEB76091A103E9
:1045B0007091A20383E394E00E944F257C018091D7
:1045C000A1039091A2030E94C51B89839A8303EDE6
:1045D00013E01B821C8220911D0330911E0381E099
:1045E00090E00B8002C0880F991F0A94E2F78223A3
:1045F0009323892B71F069817A81C8010E944F252C
:10460000E816F90630F069817A81C8010E944F25C9
:104610007C018B819C8101968B839C83045F1F4F5F
:104620000897C9F6C7010F900F900F900F90DF9178
:10463000CF911F910F91FF90EF9008950F931F93CB
:10464000CF93DF93EB0100919F031091A00380179C
:10465000910708F48C010E9497219C018017910713
:1046600008F498012C173D0729F14091410444308A
:10467000C1F42C173D07A8F08017910790F48091A2
:104680009D0390919E038C179D07A0F04091D0034D
:104690005091D10380917303909174034817590787
:1046A00049F080917303909174038093D0039093A9
:1046B000D103E901CE01DF91CF911F910F910895B0
:1046C000EF92FF920F931F93CF93DF938C010E9481
:1046D000BC0C8093330490933404009335041093FE
:1046E000360483EDE82E83E0F82EC0E0D0E0209180
:1046F0001D0330911E0381E090E00C2E02C0880F54
:10470000991F0A94E2F782239323892B41F08C2F7F
:104710000E941F19F70180839183028313832196DE
:10472000FCE0EF0EF11CC830D10509F7DF91CF9105
:104730001F910F91FF90EF9008951F93CF93DF93F8
:10474000182FEB010E94CB0C811109C0111509F43F
:1047500040C080913F0490914004892BD1F10E9488
:10476000C418811136C0CE010E948A22CE010E9457
:1047700060230E94CC228C179D0720F48C0F9D1F74
:104780009695879580933F0490934004BE010E94C4
:104790001E2380933F049093400480914104823013
:1047A00001F150F481110CC0111599F00E94E21929
:1047B00081E0809341040DC08330C9F084E0F9CFDB
:1047C000111539F082E08093410410923F04109259
:1047D000400480913F0490914004DF91CF911F915C
:1047E000089510923F041092400483E0E2CF111527
:1047F00081F3E4CF0C94DD1B0F931F93CF93DF93D2
:104800000E94EA1B0E94BC0CEC0182E00E94E115B0
:104810008C179D0730F480919F039091A0030E9414
:104820009D248091A1039091A2038C179D0740F4D1
:1048300081E79AE0809322039093230381E005C0EF
:104840000E94240C029730F482E0DF91CF911F91F7
:104850000F91089580915E0390915F03892B69F019
:104860008FE10E94020C20916E0330916F03281794
:1048700039071CF487E69AE0DDCF0E94240C8C01F6
:10488000C0916C03D0916D03CC0FDD1F81E00C173C
:104890001D0708F480E00E94290C0C171D07A0F2E8
:1048A0008091680390916903892B71F28DE10E94D8
:1048B000020CEC010E944016C817D9072CF68DE6B1
:1048C0009AE0B8CF80914604089581E02091440495
:1048D00030914504232B09F480E00895809144042D
:1048E0009091450408958091420490914304089565
:1048F0000E94C10C009711F481E090E0BC0180910E
:104900003803909139030E94A7189C0180913203CB
:10491000909133032817390708F4C90108958130AD
:1049200020E8920710F080E090E880934404909390
:1049300045040E9453070C942A0DCF93DF93EC019A
:104940000E947824C817D90708F4CE0120914204A8
:104950003091430482179307A8F4A901481B590B0F
:104960004D38510518F0C9018C58910980934204C3
:1049700090934304BC0181E10E94D50DDF91CF915A
:104980000C948F24AC01421B530B4D38510520F081
:10499000C90184579F4FEACF2817390739F7DF91AC
:1049A000CF91089580914604811112C01092440461
:1049B00010924504109242041092430480E090E06B
:1049C0000E948F2481E00E94470781E08093460483
:1049D000089580914604811589F080E090E00E945E
:1049E0008F241092440410924504109242041092B5
:1049F000430480E00E9447071092460408951092F5
:104A0000440410924504109242041092430480E042
:104A100090E00E948F2481E0809346040C94E92466
:104A2000FC01428153814115510589F0208131817A
:104A300037FF03C0319521953109A8EEB3E00E94FC
:104A4000C33B9A0140E050E00E94023CA901CA0128
:104A500008950F93DC01FB014617570708F4FA018C
:104A60006417750708F4BA01011105C09E2F8F2F36
:104A7000FB01692F782F1696ED93FD931897ED9310
:104A8000FD931D921D921D921D9214962D933D93A0
:104A90006E1B7F0B14976D937D930F910895DC012E
:104AA0001896ED91FD911A973097F1F09B0140E037
:104AB00050E016968D919D911897281B390B41094E
:104AC00051091A960D90BC91A02D0E94503C9F0157
:104AD000FF0F440B542F0E94243C4130510524F415
:104AE00057FD05C0C90108958FEF9FEF089580E03D
:104AF00090E00895EF92FF920F931F93CF93DF936F
:104B000000D00F92CDB7DEB78A839B83FC018281F0
:104B100093817A01E81AF90A8417950718F07C0145
:104B2000E41AF50AEA81FB812481358136952795BF
:104B30002E153F05F0F4008111818417950718F5B3
:104B4000CB01801B910B8C01C8010E94F01489835A
:104B5000EA81FB81808591850E94F014F981F81328
:104B600008C0EA81FB81E482F58200871187E28632
:104B7000F3860F900F900F90DF91CF911F910F91BF
:104B8000FF90EF900895061B170BDECF0F931F9336
:104B9000CF93DF938C01EB019A01FC01A085B185D5
:104BA0000E94493C2285338540E050E00E94243C2D
:104BB000C217D3071406150654F0C21BD30BF80115
:104BC000C683D783DF91CF911F910F910895C0E0E5
:104BD000D0E0F5CFCF93DF9300D000D000D0CDB799
:104BE000DEB789839A836B837C834D835E830E94C7
:104BF0007A254D815E816B817C8189819A810F90BC
:104C00000F900F900F900F900F90DF91CF910C9419
:104C1000C6251F93CF93DF93182F6BE47AE08FE5BF
:104C20009AE00E94A52FD0E084E10E94460EC82F92
:104C3000811559F00E94AC0C91E0811101C090E007
:104C4000911741F0D11559F0DC2F0E949535813034
:104C500059F7C0E08C2FDF91CF911F9108956DE33C
:104C60007AE08FE59AE0111102C084E59AE00E9493
:104C7000A52FEACFCF92DF92EF92FF920F931F936F
:104C8000CF93DF9300D00F92CDB7DEB789836B014E
:104C90007A01BA010E94D50D8A839B83B60189816E
:104CA0000E94D50D8C01B7016C0D7D1D7695679521
:104CB00089810E94D50D0115110539F10F3F1007AB
:104CC00031F12A813B812115310519F12F3F32073E
:104CD00011F10217130708F59C012A503109021738
:104CE0001307E8F40A962A813B8182179307C8F4D8
:104CF00080E00F900F900F90DF91CF911F910F9157
:104D0000FF90EF90DF90CF90089581E0F2CF82E0A6
:104D1000F0CF83E0EECF84E0ECCF85E0EACF86E011
:104D2000E8CF87E0E6CF40913203509133036091A2
:104D300030037091310381E10E943A2681110BC04A
:104D400040913203509133036091300370913103ED
:104D500082E00C943A26865F089540913603509184
:104D60003703609134037091350382E10E943A2643
:104D700081110BC040913603509137036091340389
:104D80007091350383E00C943A26865F0895CF93A3
:104D9000DF930E944013D82F811571F04CEC5DE831
:104DA00068EE73E080E00E943A26811551F0682F8A
:104DB00085E39AE00E946130D0E08D2FDF91CF91A2
:104DC00008950E949326811521F0682F8CE29AE0C5
:104DD000F1CF0E94AD26C9E0811521F0682F80E255
:104DE0009AE0E8CF40EA5FE068EE73E08C2F0E9423
:104DF0003A268111DCCFCF5FC131A1F7DECF0C9411
:104E0000C726CF93C1E080915E0390915F03892B09
:104E100009F4C0E010925E0310925F030E94303AE2
:104E200088E692E00E94D72B0E94FF260E94403A1B
:104E3000C0935E0310925F0310922403CF910895F4
:104E4000EF92FF920F931F93CF93DF93CDB7DEB70F
:104E500029970FB6F894DEBF0FBECDBF6E837F8358
:104E600048875987122F60E070E00E94252A1111AF
:104E700007C08091460390914703892B09F479C0BC
:104E80008FEF9FE70E941B2A81E00E94AD2B082F25
:104E900087FD77C00E94422A7C0181FF6DC0102FE0
:104EA000110F110BEE81FF81E00FF11F84918D83B3
:104EB0000E94460E811541F30E943A0D1092210383
:104EC000109260000E94122C811509F44CC0E885F4
:104ED000F985E00FF11FF49084E00E9421348D8168
:104EE0000E94020C8C010E944A3A8F2D0E94F90BFD
:104EF00089839A830B831C83AE014F5F5F4F609160
:104F000047048F2D0E94540CE7FE2AC081E0809355
:104F100021030E943A0D0E944A3A80E00E94F90B58
:104F200089839A8381E00E94F90B29813A81281BA9
:104F3000390B29833A8385E10E94020C8B839C8381
:104F4000AE014F5F5F4F6091470480E00E94540CB8
:104F5000AE014F5F5F4F6091470481E00E94540CA7
:104F600081E00E94911281E0809321038093600090
:104F70008BCF8BEF9FE786CF82FF86CF0E94122CCC
:104F800083CF29960FB6F894DEBF0FBECDBFDF9159
:104F9000CF911F910F91FF90EF90089581E0809342
:104FA0004704109248040E94950F81E00E94092650
:104FB000811549F020E046EE53E06FEE73E080E3A8
:104FC00093E00E9420270C94510D81E080934704C8
:104FD0001092480480E00E94950F1092620020E039
:104FE00046EF52E0BA0188EF92E00E94202781E06C
:104FF000809362000C94510DCF93C1E080915E03C9
:1050000090915F03892B09F4C0E01092470410923D
:1050100048040E94403A81E080935E0310925F034F
:1050200080E00E94950F21E04DEB52E0BA018EEB3B
:1050300092E00E9420270E94510DC0935E031092BF
:105040005F03CF910C94303A1092470410924804B9
:1050500080E00E94950F21E044E852E0BA0185E823
:1050600092E00E9420270C94510DCF93DF9300D043
:1050700000D0CDB7DEB7482F60914E04CE01019627
:105080000E94390C67E08B819C810E9498380F90B8
:105090000F900F900F90DF91CF9108950E94C60C52
:1050A00067E00E94983880914D040E94F90B66E0F9
:1050B0000C948F3820914D04223011F40C948F24DD
:1050C0000C947C1D4091490450914A0460914D0418
:1050D00020914B0430914C04623059F541305048D6
:1050E00028F050E81092490450934A0429353B4176
:1050F00030F028E53BE120934B0430934C04895475
:10510000944031F48091490490914A040E945A28B5
:1051100084E10E94460E81111AC06BE47AE08FE5AB
:105120009AE00E94A52F80914D04833081F40C9465
:10513000BC1D4130504828F050E81092490450936B
:105140004A0429383341D8F228E833E1D4CF08950E
:10515000BF92CF92DF92EF92FF920F931F93CF9364
:10516000DF93CDB7DEB72C970FB6F894DEBF0FBE36
:10517000CDBF10E07E0185E0E80EF11C6E019FEFCF
:10518000C91AD90A82E00E94172B85E398E280931E
:10519000590490935A0410935F0480E00E94AD2B51
:1051A000182F87FD8FC081E00E94950F80E00E943C
:1051B0000926811509F483C0412F60914E04C7016F
:1051C0000E94390C412F60914D04C6010E94390C98
:1051D00062E678E288EF93E00E94252A8F81988525
:1051E00080934B0490934C0400E0E986FA86CB86CA
:1051F000DC868D819E818093490490934A0481E0EE
:105200000E94AD2B81150CF447C0C1F580914D046F
:10521000823071F50E94D2248091490490914A0411
:105220000E945A280E94122C8115B9F0082F0E9462
:105230003A0D80914B0490914C048F839887209174
:10524000490430914A042D833E838B839C83809153
:105250004D040E94F90B89839A8380E090E00E94BC
:105260005A2880914D04823031F40E94E924C1CF44
:105270000E94A91DD1CF0E94BC1DBBCF823009F076
:10528000B8CF0E94122C8111B4CF8F819885809362
:105290004B0490934C04ADCF011589F049855A8594
:1052A000612F80914E040E94540C4B855C85612FC8
:1052B00080914D040E94540C81E00E9491120E9442
:1052C000510D60CF2C960FB6F894DEBF0FBECDBF48
:1052D000DF91CF911F910F91FF90EF90DF90CF90D2
:1052E000BF90089581E180934E0482E080934D0445
:1052F0000C94A82882E180934E0483E080934D04AF
:105300000C94A828A82F60914F04709150044091EC
:1053100053045091540480E090E0FB012EE0929FF2
:10532000E00DF11D1124329625913591211531059D
:1053300079F01CF457FF09C0305824233523232B60
:1053400021F0A11521F0A1508F5F9F5FE6CF892F3B
:1053500008950F931F93CF93DF9300D0CDB7DEB79F
:105360008A830E9482293EE0839F80011124E0917C
:105370004F04F0915004E00FF11F859195910E9428
:10538000823689830E94FB33811123C06FE08981BB
:10539000681BE0914F04F0915004E00FF11F359627
:1053A00094919983911531F0862F9981891B0E94E0
:1053B000C036698180914F0490915004800F911FF5
:1053C00004960F900F90DF91CF911F910F910C9445
:1053D0005C332091A3043A81832F90E0022E001CBD
:1053E00000082817090691F60F900F90DF91CF91D2
:1053F0001F910F9108950E948229E0914F04F0912E
:1054000050049F014EE0849F200D311D1124C901DD
:10541000F901369625913591FC013496849181509D
:10542000823010F0C9010895F901459155916591B7
:105430007591CB01089580935304909354048FEF9A
:105440000E94822980935D04089580934F04909375
:105450005004609351047093520480E00E94172B13
:1054600089EA99E28093590490935A0481E59AE27B
:1054700080935704909358048FEF8093A3049FE781
:105480000C941B2A0E948229E0914F04F091500451
:105490009EE0899FE00DF11D112432968591959132
:1054A00008958F929F92AF92BF92CF92DF92EF9228
:1054B000FF920F931F93CF93DF93CDB7DEB72C9757
:1054C0000FB6F894DEBF0FBECDBF182FB62E0E94C8
:1054D000FB297C01812F0E948229E0914F04F091E9
:1054E00050049EE0899FE00DF11D1124389646E09E
:1054F00050E0DE0117960E94653C86E0FE0137967B
:10550000DE01119601900D928A95E1F786E0FE0189
:105510003196DE01179601900D928A95E1F70F8181
:105520001885C984DA849B848C84E2E0BE1651F12C
:1055300091E0A92EB12C0E3FFFE71F0739F134F19E
:10554000292D382DA601B501C7010E947115E091E2
:105550005104F0915204309709F448C0C7012C96C9
:105560000FB6F894DEBF0FBECDBFDF91CF911F9174
:105570000F91FF90EF90DF90CF90BF90AF909F90F2
:105580008F9009948FEFB82EAB2CD5CF21F4C501A5
:10559000F6010995DCCF0C3FFFE71F07B9F4F701CF
:1055A000808191818A0D9B1D292D382D281739075F
:1055B00044F09C01F7012C153D052CF0808391836C
:1055C000C6CFC901F7CFC082D182C1CF0D3FFFE75F
:1055D0001F0721F40E948E35082F10E0292D382D49
:1055E000A601B501C7010E942715B1CF2C960FB6B1
:1055F000F894DEBF0FBECDBFDF91CF911F910F9109
:10560000FF90EF90DF90CF90BF90AF909F908F90E2
:10561000089524E0829FC0011124E0915504F09187
:105620005604E80FF91F859195910C9482361092DB
:105630005F0410925E0480935D0481E080935C04BB
:1056400080935B040895409155045091560480E086
:1056500094E0899FF0011124E40FF51F2591359105
:10566000232B09F408958F5FF3CF80915F048F5F40
:1056700080935F04089580915F04811519F0815033
:1056800080935F04089580915F0490915D04891771
:1056900020F08FEF890F80935F0420915E048217C2
:1056A00018F480935E04282F30E02F5F3F4F2817B7
:1056B00031051CF4815080935E040895CF930E94BD
:1056C000432BC0915E0420915E04822F90E00196EE
:1056D0008C17910524F410925C04CF9108956C2FDF
:1056E000621B80E00E941D3680915F048C1311C004
:1056F0008EE30E94293680915D04C81730F4E09152
:105700005904F0915A048C2F09950E94C736CF5F37
:10571000DACF80E2EECFCF930E949535C82F0E945A
:10572000F039811539F081E080935C04CFE78C2F4C
:10573000CF910895C23071F0C43029F40E94352B06
:1057400081E080935C0480915C04811581F30E9468
:105750005E2BEDCF0E943B2BF3CFCF93DF930F92C5
:10576000CDB7DEB7898381E080935C040E948B2BE8
:10577000811102C010925B0490915B0491110BC0E7
:10578000883049F481E080935B0480915F040F903E
:10579000DF91CF9108952981211519F021E02093FF
:1057A0005C04813019F79111E1CF8FEFF0CF0F93A7
:1057B0001F93CF93DF9300D00F92CDB7DEB78983CD
:1057C0009A831B8209E01BE289819A8180935504A8
:1057D000909356040E94232B0E94172B0093590488
:1057E00010935A049B8190935F0480E00E94AD2B3C
:1057F0008B8387FD0EC094E0890290011124809173
:10580000550490915604820F931F02960E94AE1485
:10581000DBCF8B810F900F900F90DF91CF911F9175
:105820000F910895CF93DF9380915F048093A30439
:105830001092A20481E080935C04C1E0D2E00E9457
:105840009535682F823011F08430C1F4E09157040F
:10585000F091580480915F04099580915F048093D2
:10586000A304D093A204C0935C040E940734811562
:10587000B9F0C0935C040E945E2B16C0813011F019
:10588000883099F78FEF8093A30481E080935B04C5
:1058900080935C04683009F080E0DF91CF91089537
:1058A00080915C048111E7CF8091A2048F5F809387
:1058B000A204C5CF0C944B1380E394E00C94D72B37
:1058C0000F931F93CF93DF9300D0CDB7DEB78983BB
:1058D0009A830E94791601E010E09C01A801698179
:1058E0007A818EE493E00E9427150F900F90DF914C
:1058F000CF911F910F910895CF93DF9380914A0329
:1059000090914B03C0E0D0E4892B11F10E94131653
:10591000C1E0D0E002C0CC0FDD1F8A95E2F7809194
:105920005E0390915F03892BB9F4D05C0E9413163B
:10593000811107C08091680390916903892B09F058
:10594000DE5F8091460390914703892B09F0D05880
:10595000CE01DF91CF9108950E941316811511F0A9
:10596000DF5BE4CFDB5BE2CF23E08A34920741F4D4
:105970000E948D170E9496160E947C2C0C941B2A64
:1059800023E08C34920719F40E946817F3CF23E0C8
:105990008035920719F40E944A17ECCF8255934044
:1059A00049F70E945917E6CFCF93DF93CDB7DEB703
:1059B000A8970FB6F894DEBF0FBECDBF64EB7CE2B4
:1059C00080E494E00E94252A0E947C2C0E941B2ADD
:1059D00080E00E94AD2B87FD1DC088E2EAE4F3E081
:1059E000DE01119601900D928A95E1F70E94122C2A
:1059F00081110AC088E2FE013196AAE4B3E0019069
:105A00000D928A95E1F7E0CF84E00E9421340E9454
:105A10009616DACFA8960FB6F894DEBF0FBECDBFAC
:105A2000DF91CF910895E0916104F0916204E80F55
:105A3000F11D64918EEB95E00C949B36CF93DF9330
:105A40000F92CDB7DEB789830E942D170E941316DF
:105A500020914A0330914B03232B99F02FED35E031
:105A6000833089F026EE35E0823069F02AED35E0AA
:105A7000811549F022ED35E0853029F024ED35E03F
:105A800002C02FEE35E0209361043093620480E081
:105A9000E82FE20FF32FF11D8F5FE491E930C1F79A
:105AA0000E94172B83E19DE28093590490935A043E
:105AB0008091600480935F0480E00E94AD2B909100
:105AC0005F049093600487FD12C0E0916104F0913F
:105AD0006204E90FF11D8491893031F40E94D42CC5
