:100000000C9489020C94B1020C94B1020C94B102CC
:100010000C94D0040C94B1020C94B1020C94B10273
:100020000C94B1020C9420050C9400050C9402056C
:100030000C94B1020C9495050C94CD050C94B1026E
:100040000C94AC040C94B1020C94B1020C94B10267
:100050000C94B102FF0000000A0005040000000437
:10006000090000FF0101000A040505000004040A5C
:100070000000FF02020000020506000002040B005F
:1000800000FF03030000060507000006040C000043
:10009000FF0000000A010511020001040D0000FF2D
:1000A0000101000A050511040005040E0000FF020D
:1000B0000200000305110100FF0303000007051102
:1000C000080080250000004B00000096000000E1C1
:1000D000000000C2010046000300881370170100F1
:1000E0003200102732008813204EC4091027000068
:1000F00000000300000000000100010001000100F9
:1001000001000100B0040807520300005203B004CC
:100110000807E8030000E803D0079209D6060000AC
:100120006C07E40C100EC409E40CB80B100E04109C
:10013000C409A60EAC0D740E6810B80B0A0F890C1A
:10014000740ECC10B80B0A0F890C740EFE10B80B8D
:100150000A0F890C40066C0714054006780501005B
:10016000A00FD007010001000100A00F0100010055
:1001700001005804FF7F49000103010000006400F2
:100180005004FF7F0200B402010000000400450497
:1001900001004400050364005802AC263A04FF7FC6
:1001A0004403070364005802AC263404FF7F4D006B
:1001B00009030100000001002C04FF7F40000B0335
:1001C000FD7F0100F4012404FF7F40000D03FF7F49
:1001D000010010270C04FF7F42001303FF7F0A0079
:1001E000204E1C04FF7F40000F03FD7F0100F4013F
:1001F0001404FF7F40001103FF7F010088130404F3
:10020000FF7F42001503FF7F0A00C409F903FF7F47
:10021000410017036400581B3075EE03FF7F4D004B
:100220001903010000000100E803FF7F0200A6029D
:10023000010000000400E00302000100A20201002E
:1002400000000400D703020002009A02010000002F
:100250000100D003FF7F02009202010000000100B4
:10026000C703FF7F02008A02010000000100C103F2
:10027000FF7F000000000000000000000000000000
:10028000000000000000000000008E022303A6030F
:100290005B039602210368035F039E021F03BC03F6
:1002A000B603C2001D03AA021B03AD03A603A003ED
:1002B00097038E03B8020303AD0387037F0377031D
:1002C0006F03636865616C692D636861726765724D
:1002D0000A76332E305F32303236303531360052C6
:1002E00045564552534520504F4C415249545900B0
:1002F000010101020A1E010318478E01190C0301B6
:100300000101E803018C04E803008A04640000880A
:100310000464000085046400008304E80301800491
:10032000E803017E040100007C04E803018A040163
:1003300000007504640000780401000076040100E8
:100340000076040100000000010000730414171976
:10035000181A0705061F20212223247265760061E2
:100360006476616E6365640073696D706C650054DA
:100370002D70726F67720054656D706572610070E8
:10038000726F6772616D00616C7761797300657877
:10039000742E20416463006578742E2064656200C9
:1003A0006465627567006E6F726D616C006469737D
:1003B00061626C65640073657061720074656D7074
:1003C00000726573657400627574746F6E733A00C1
:1003D0006D656E75733A007C6F75747075743A0054
:1003E0007C73706565643A00554152543A0061640B
:1003F00063206E6F6973653A00696E707574206C66
:100400006F773A006D61782050643A006D61782012
:1004100050633A006D61782049643A006D696E203E
:1004200049643A006D61782049633A006D696E2035
:1004300049633A00626565703A00646973636820D5
:100440006F66663A007C66616E2054206F6E3A00DB
:1004500066616E206F6E3A006261636B6C696768FB
:10046000743A006E6F6C696D697400206E6F00796C
:100470006573005500006D00432F6D002500F400EA
:1004800041680043005768005700560041000809C2
:100490000A0B0C0D0E00010605FC04F204E804DE54
:1004A00004D404CA04C004B604AD04000073657427
:1004B00074696E677300562D5F70696E3A20200074
:1004C000562B5F70696E3A2020005662365F706965
:1004D0006E3A20005662355F70696E3A20005662AF
:1004E000345F70696E3A20005662335F70696E3A0D
:1004F00020005662325F70696E3A20005662315FAA
:1005000070696E3A20005662305F70696E3A200062
:10051000F90611241FBECFE5D8E0DEBFCDBF10E045
:10052000A0E6B0E0E4E9F9E302C005900D92A83836
:10053000B107D9F724E0A8E8B0E001C01D92AF30C0
:10054000B207E1F712E0C9E8D2E004C02197FE014A
:100550000E944B1CC838D107C9F70E94A00C0C940C
:10056000C81C0C9400000E948E1940E062E080E1FB
:100570000E9446190E941C050E9489050C944B0399
:10058000CF93DF9300D000D0CDB7DEB7482F282F10
:1005900030E0A0E0BDE70E94D71B19827A838B83ED
:1005A0009C83A4E6B0E0A41BB10924E60E94511C80
:1005B00029813A814B815C81620F731F841F951FD3
:1005C00024E630E040E050E00E940A1CB9018DE0D2
:1005D0000F900F900F900F90DF91CF910C947305B7
:1005E000811511F0909A089590980895811104C092
:1005F000939A969A929A089593980895811102C0B9
:10060000969A089596980895811102C0929A089535
:1006100092980895BC018EE00C9473050C940A0323
:1006200080FF11C0C09A81FF10C0C19A82FF0FC025
:10063000C29A83FF0EC0C39A84FF0DC0DE9A85FF65
:100640000CC0DF9A0895C098EECFC198EFCFC29842
:10065000F0CFC398F1CFDE98F2CFDF98089580E015
:100660000E94F60280E00E94F00280E00E940905EC
:1006700080E00E9410038C9A8B9A889A8F9AB89A7D
:10068000B99ABA9ABB9AD69AD79A8D9A8E9A8D9A17
:100690008A9A08950895D598D498DD98DC98BF9AE1
:1006A000BE9ABD9A8EEA86B9369A08959C01E09169
:1006B0009700E13119F18FB7F894F0E0DF01AA0F4C
:1006C000BB1FAD56BD4F12963E932E938FBF8091A8
:1006D0008F008115E1F0EE0FFF1FEE0FFF1FEB54AF
:1006E000FD4F80819181A281B381820F931FA11D53
:1006F000B11D80839183A283B38308959091980064
:1007000080918C0037FD04C0982B90938C00089545
:1007100090959823FACF0E9472109093B202809322
:10072000B1020E94FB0E9093B4028093B3028091B9
:100730008F00811509F485C00E9472104091F1026A
:100740005091F2026091F3027091F402480F591F28
:10075000611D711D4093F1025093F2026093F30208
:100760007093F4020E94FB0E4091F5025091F60244
:100770006091F7027091F802480F591F611D711DB9
:100780004093F5025093F6026093F7027093F802DB
:100790008091F9029091FA02019709F050C080917E
:1007A000BD029091BE02A091BF02B091C002B69569
:1007B000A795979587958093BD029093BE02A093CD
:1007C000BF02B093C0028091B5029091B602A09191
:1007D000B702B091B802B695A79597958795809383
:1007E000B5029093B602A093B702B093B80280917D
:1007F000B9029091BA02A091BB02B091BC02B69529
:10080000A795979587958093B9029093BA02A09384
:10081000BB02B093BC028091C1029091C202A09130
:10082000C302B091C402B695A7959795879580931A
:10083000C1029093C202A093C302B093C4020C946D
:10084000980908958091190390911A03892BD9F082
:10085000809194008115B9F09091910041E001C020
:10086000440F9A95EAF72091F9023091FA022F701D
:100870003FB7F8945BB39BB3942B9BBB820F8A95D5
:10088000F1F75BBB3FBF089580918E008F5F86318B
:1008900008F080E080938E0085E0E0E9F0E0A5E9D3
:1008A000B0E001900D928A95E1F7E0918E00EF5F44
:1008B000E63108F0E0E085E0E89FF0011124EC5A11
:1008C000FF4F45E050E0A0E9B0E00E946D1C809130
:1008D0008E0081110CC00E948B032091F90230918F
:1008E000FA0281E0232B09F480E080938F000895C1
:1008F00084B125B190918D00933018F0922F0E9411
:10090000560380918D0091E0980F90938D008D306B
:10091000A9F08031A9F081111BC08091900087FD62
:1009200017C02FB7F89498B3809190008295880FE4
:10093000807E9F71892B88BB2FBF08950C94220461
:1009400080919100806287B910928D000C944404CC
:10095000089580918C0008951F920F920FB60F9208
:1009600011242F933F934F935F936F937F938F93B4
:100970009F93AF93BF93EF93FF930E947804FF91EF
:10098000EF91BF91AF919F918F917F916F915F9107
:100990004F913F912F910F900FBE0F901F90189580
:1009A0001F920F920FB60F9211242F933F934F93E4
:1009B0005F936F937F938F939F93AF93BF93EF93C7
:1009C000FF930E947615FF91EF91BF91AF919F9198
:1009D0008F917F916F915F914F913F912F910F90E8
:1009E0000FBE0F901F90189588E085BD85B5846077
:1009F00085BD14BC8CE783BD89B7806889BF089525
:100A0000979A18958F93979880919A0082BF8F91AB
:100A10001895811104C013BE12BE9798089586954B
:100A200098E7980F90939A0090E095958795845455
:100A30008CBF8CE483BF089589B7836089BF089514
:100A40001F921FB61F9211242F933F938F939F9352
:100A50002091A1003091A20080919D0090919E0074
:100A6000820F931F80939D0090939E0020919F0082
:100A70003091A00080919B0090919C00820F931F69
:100A800080939B0090939C002FB7F89480919D00D9
:100A900090919E0035E0969587953A95E1F79BBD3C
:100AA0008ABD80919B0090919C0035E0969587953A
:100AB0003A95E1F799BD88BD2FBF80919D008F7158
:100AC00080939D0010929E0080919B008F71809377
:100AD0009B0010929C009F918F913F912F911F90AE
:100AE0001FBE1F9018959FB7F8948E3049F47093ED
:100AF000A2006093A1008FB580688FBD9FBF08954D
:100B00008D30E1F77093A00060939F008FB58062F5
:100B1000F4CF80E094E097BD86BD82E08FBD89E18F
:100B20008EBD89B7846089BF08951F921FB61F923A
:100B300011242F933F934F936F937F938F939F93A2
:100B4000EF93FF935A9927C04CB18091B9019091CE
:100B5000BA018395282F30E06091BB017091BC01F0
:100B60008617170659F0E091B901F091BA01E754E0
:100B7000FF4F40833093BA012093B901FF91EF9169
:100B80009F918F917F916F914F913F912F911F90E6
:100B90001FBE1F9018958CB1F1CF2F932FB72F93B5
:100BA0003F938F939F93EF93FF932091B9013091DF
:100BB000BA018091BB019091BC012817390751F40B
:100BC0005598FF91EF919F918F913F912F912FBF5A
:100BD0002F911895E091BB01F091BC01E754FF4FB4
:100BE00020818091BB019091BC01839590E090930E
:100BF000BC018093BB012CB9E4CFCF92DF92EF927E
:100C0000FF92CF93DF93EC016A017B01E885F985C0
:100C1000C11461EED606E104F104F9F02C8981E0FB
:100C200001C0880F2A95EAF7808360E079E08DE3C0
:100C300090E09A01A7010E940A1C21503109410944
:100C40005109569547953795279561E0C90130318F
:100C5000B8F06115A9F0E885F985108260E874E8BC
:100C60008EE190E09601A7010E940A1C21503109F3
:100C700041095109569547953795279560E0E6CF8C
:100C8000EC81FD819083EE81FF8120831D8AEA85BE
:100C9000FB852081498981E090E0BC0101C0660F9D
:100CA0004A95EAF7262B2083EA85FB8520814A892D
:100CB000BC0101C0660F4A95EAF7262B2083EA851E
:100CC000FB8520813B8901C0880F3A95EAF7809522
:100CD00082238083DF91CF91FF90EF90DF90CF90C0
:100CE0000895CF93DF93FC01A281B381AD015F5FD3
:100CF000AE5FBE4FEA01288139818D919D91129797
:100D000028173907B9F7A285B3854C91818921E06D
:100D100030E0B90101C0660F8A95EAF7862F809509
:100D200084238C93A285B3854C918289E90101C00B
:100D3000CC0F8A95EAF78C2F809584238C93A2851B
:100D4000B3858C91938901C0220F9A95EAF720957B
:100D500028232C9380819181FC01EE5FFE4F20813E
:100D6000318132932293DF91CF910895FC018589DF
:100D7000811529F0A085B1858C9186FFFBCF158A5E
:100D80000895CF93DF93FC0122813381D901BF5FA6
:100D90008D919D911297839590E0E901CE5FDE4F92
:100DA0004881598148175907D9F34D915D91240F16
:100DB000351FD9016C93A281B381AE5FBE4F9E9364
:100DC0008E93A285B3858C91938921E001C0220F77
:100DD0009A95EAF7822B8C9381E0858B0084F185CC
:100DE000E02D80818064808381E090E0DF91CF916D
:100DF000089589EB90E08093A3009093A4008093E2
:100E0000A5009093A60080E48093A7001092A8000C
:100E100029E22093A9001092AA002BE22093AB00B4
:100E20001092AC002AE22093AD001092AE008093A5
:100E3000AF001092B0008CE28093B1001092B2002B
:100E400084E08093B30083E08093B40087E08093D4
:100E5000B50085E08093B60081E08093B7000895E7
:100E6000CF93DF930F92CDB7DEB7E0918A00F09178
:100E70008B00309711F4EFE0F4E0CE0101962EEBF9
:100E80008E179F0720F40F90DF91CF910895219343
:100E9000F7CFCF93DF9300D0CDB7DEB7CE01019669
:100EA00020918A0030918B002115310511F42FE03B
:100EB00034E0821B930B0F900F90DF91CF91089538
:100EC000CF93DF930F92CDB7DEB7E0918A00F09118
:100ED0008B00309711F4EFE0F4E080E090E09E01A9
:100EE0002F5F3F4F2E173F0730F040814E3B19F4E4
:100EF00001963196F7CF0F90DF91CF91089500972B
:100F000009F408950197EFE9FFE03197F1F700C088
:100F10000000F5CF8436910560F064E670E00E9431
:100F2000F61BCB010C947F07019725E32A95F1F777
:100F300000000097C9F708956AE070E00E94F61B70
:100F4000CB010C948A07E82FF0E0EE0FFF1FEF585B
:100F5000FD4F808191810895E82FF0E0EE0FFF1F93
:100F6000E95DFD4F8081918108952FB7F894E82FB6
:100F7000F0E0EE0FFF1FED56FD4F808191812FBFF6
:100F800008958091FF0208958091DB019091DC012A
:100F90000895613110F4423038F021E0FC012283E1
:100FA000138220831182089550E09A01260F311D8B
:100FB000260F311DB901660F771F660F771F625F1D
:100FC0007F4F44E00C94831C2FB7F89480E090E0AE
:100FD000FC01EE0FFF1FEE0FFF1FEB54FD4F1082C1
:100FE00011821282138201968131910589F788E27C
:100FF00090E09093FA028093F9021092FE022FBFC4
:101000000895CF93CFB7F8941092D9011092DA01D6
:101010001092D5011092D6011092D7011092D801EA
:101020001092D1011092D2011092D3011092D401EA
:101030001092CD011092CE011092CF011092D001EA
:101040000E949E158093C7019093C801CFBFCF9196
:101050000895EDEDF1E08AE4DF011D928A95E9F74C
:101060000895CF93CFB7F89481E090E09093FA027F
:101070008093F9028093FE020E942908CFBFCF918E
:101080000895CF93DF930E943108C091DB01D09186
:10109000DC018091DB019091DC018C179D0719F038
:1010A000DF91CF9108958AE090E00E94CF15F1CFB3
:1010B0001092FF0280E00C94F602CF93DF9381E060
:1010C0000E94B507EC0180E00E94B5078C179D07D0
:1010D00050F4C81BD90B81E0C93ED34008F480E02E
:1010E000DF91CF910895C0E0D0E0F5CFCF92DF92AD
:1010F000EF92FF920F931F93CF93DF93CDB7DEB79D
:1011000028970FB6F894DEBF0FBECDBF182F6B0126
:10111000672B89F480E090E028960FB6F894DEBF44
:101120000FBECDBFDF91CF911F910F91FF90EF9038
:10113000DF90CF90089540E0682FCE0105960E9481
:10114000C90741E0612FCE0101960E94C907ED81D8
:10115000FE81E980FA80EE15FF05E1F26B817C816A
:1011600080E090E00F811885601B710B8109910967
:10117000960140E050E02E1B3F0B410951090E94AF
:10118000E61B970140E050E02E1B3F0B410951093F
:101190000E942C1CC901DA01800F911FA11DB11DF5
:1011A000A130B1051CF08FEF9FEFB6CFB7FFB4CFE2
:1011B000A0E0B0E0CD01B0CF82508C3130F4E82F08
:1011C000F0E0E459FF4F8081089581E00895CF93C6
:1011D000C82F833151F481E02091510230915202A5
:1011E0002331310589F080E00FC00E94DC08813096
:1011F00069F4EC2FF0E0EE0FFF1FE95DFD4F208159
:1012000031812139314078F3CF91089581E0FCCFCD
:10121000EF92FF920F931F93CF93CFE191E0E92ECE
:10122000F12C00E010E08C2F0E94E70890E09195EF
:10123000819591098E219F21082B192BEE0CFF1C03
:10124000CF5FC53281F7C801CF911F910F91FF90F9
:10125000EF9008952FB7F8946091C2017091C30187
:101260008091C4019091C5012FBF20E03DE740E08F
:1012700050E00E940A1CC90108952FB7F8946091AC
:10128000BE017091BF018091C0019091C1012FBF3B
:10129000969587957795679520E03DE740E050E08B
:1012A0000E940A1CC90108954091550250915602AE
:1012B0008091C2019091C301A091C401B091C50178
:1012C000840F951FA11DB11D8093C2019093C3018E
:1012D000A093C401B093C5018091BD01815019F064
:1012E0008093BD01089582E38093BD0120914B025C
:1012F00030914C02DA010E94D71B24E630E040E036
:1013000050E00E940A1C8091BE019091BF01A09103
:10131000C001B091C101820F931FA41FB51F80931C
:10132000BE019093BF01A093C001B093C101089585
:101330008091F9029091FA02892B49F08091F9028B
:101340009091FA0201979093FA028093F90208951E
:1013500090E0880F991FFC01E95DFD4F20813181EC
:1013600062177307B8F4261B370B27303105B8F422
:10137000FC01E352FE4F208131812F5F3F4FFC0182
:10138000E352FE4F20833183895D9D4FFC016083D2
:1013900071830895AB01421B530B9A01E6CF20E005
:1013A00030E0EDCFCF93DF938FB7F8941092C20166
:1013B0001092C3011092C4011092C5011092BE0197
:1013C0001092BF011092C0011092C10192E390935C
:1013D000BD018FBFC7E2D2E06CA17DA18CE10E946C
:1013E000A8098E859F858093C9019093CA010E94A8
:1013F00031080E9401081092CB011092CC0160E0EC
:1014000070E089E10E94A80960E070E08BE10E9431
:10141000A80960E070E08DE1DF91CF910C94A809FC
:101420001092DB011092DC010C94D2090C94100A8A
:101430009091FF0291110FC00E94F6020E94100AC3
:1014400081E08093FF02809360000E9441080E9427
:10145000D2091092FD020895CF92DF92EF92FF928F
:101460000F931F93CF93DF93C0912702D09128024F
:101470008091290290912A028C179D0708F09FC045
:10148000C81BD90BBE0182E10E94A80987E2C82EC1
:1014900082E0D82E99E3E92E92E0F92E1FE1F701C0
:1014A000619171917F01812F0E94A8091F5F153200
:1014B000B1F78091FD02811106C00E940809809356
:1014C000FB029093FC02E090FB02F090FC0280E0B3
:1014D00090E08C0141E050E09A01082E02C0220FFA
:1014E000331F0A94E2F72E213F21232B29F0F60126
:1014F00026AD37AD020F131F0196F2E0CF0ED11CBF
:101500008630910549F7B80183E10E94A8090115C9
:10151000110509F457C0CE01801B910B0C171D0754
:1015200018F0C8018C1B9D0B893B9B4008F04AC0FA
:10153000E80113E1BE0184E10E94A809B70186E138
:101540000E94A809612F70E085E10E94A8090E940D
:10155000EF0E00912D0210912E0281110AC00E94FF
:10156000661000912B0210912C02811102C000E044
:1015700010E09801DE010E94D71B20E137E240E035
:1015800050E00E940A1CB90188E10E94A809B80134
:1015900087E10E94A8090E942A09BC0189E10E94F2
:1015A000A8090E943D09BC018AE1DF91CF911F91FA
:1015B0000F91FF90EF90DF90CF900C94A809C0E0BE
:1015C000D0E060CF12E1E12CF12CB4CF1F93CF9388
:1015D000DF93182FC82FD0E084E0189FF00111246A
:1015E000EB54FD4F608171818281938120E332E071
:1015F00040E050E00E940A1CCC0FDD1FCF58DD4FA9
:1016000028833983B901812F0E947608BC01812F7C
:10161000DF91CF911F910C94A809CF92DF92EF92A6
:10162000FF920F931F93CF93DF93CDB7DEB72C9725
:101630000FB6F894DEBF0FBECDBF0E949E1520915D
:10164000C7013091C801821B930B8133954708F481
:10165000B3C04FB7F8942091D9013091DA01A0E3DB
:10166000B2E00E94D71B6B017C01F694E794D794FB
:10167000C7948091D5019091D601A091D701B091E6
:10168000D8018D839E83AF83B8878091D1019091DB
:10169000D201A091D301B091D40189839A83AB8305
:1016A000BC838091CD019091CE01A091CF01B091EA
:1016B000D00189879A87AB87BC874FBF0E940108FA
:1016C0008091CB019091CC0101968093CB019093B6
:1016D000CC0169817A818B819C819601A7010E944E
:1016E0000A1C29833A834B835C836D817E818F81C1
:1016F00098859601A7010E940A1CB90180E00E940A
:1017000076088D839E8369817A8181E00E947608C4
:10171000AD81BE818A179B0708F04BC0A81BB90B8F
:10172000A983BA8300915F021091600229813A81F6
:101730002017310720F48091C601811105C069810D
:101740007A818CE10E94A80969817A81601B710B02
:101750008BE10E94A80969857A858B859C85960115
:10176000A7010E940A1CB90187E00E947608209117
:10177000C9013091CA018093C9019093CA01821BAB
:10178000930BBC01660F771F8DE10E94A809B6017B
:101790008EE12C960FB6F894DEBF0FBECDBFDF9161
:1017A000CF911F910F91FF90EF90DF90CF900C940D
:1017B000A80919821A82B6CF2C960FB6F894DEBF0C
:1017C0000FBECDBFDF91CF911F910F91FF90EF9092
:1017D000DF90CF900895CF932FB7F8948091F902BE
:1017E0009091FA022FBF892B09F091C08091FE02DF
:1017F000811182C08091FF02811509F480C080911F
:10180000DB019091DC0101968093DB019093DC0178
:101810004091B5025091B6026091B7027091B80242
:1018200076956795579547958091D5019091D6010A
:10183000A091D701B091D801840F951FA61FB71FA3
:101840008093D5019093D601A093D701B093D8018E
:101850004091B9025091BA026091BB027091BC02F2
:1018600076956795579547958091D1019091D201D2
:10187000A091D301B091D401840F951FA61FB71F6B
:101880008093D1019093D201A093D301B093D4015E
:101890004091D1025091D2026091D3027091D40252
:1018A00076956795579547958091CD019091CE019A
:1018B000A091CF01B091D001840F951FA61FB71F33
:1018C0008093CD019093CE01A093CF01B093D0012E
:1018D0008091D9019091DA0101968093D90190937A
:1018E000DA010E940D0BC0E08C2F0E94E60ACF5F48
:1018F000C131D1F70E942C0ACF910C94E40780915A
:1019000060008115C9F385E00E94E60AF5CFCF910A
:1019100008950C94EB0B0E942F0378940E94B3025D
:101920000E94F4040E949B100E94280F0E94160A35
:101930000E9430070E94700D0E949B130C94B413F8
:101940000E948B0C0E94D51B80E090E008950F93BD
:101950001F93CF93DF9300D00F92CDB7DEB789836B
:101960009A838B0141110E94C21C84E08B83898180
:101970009A810E949B1C8017910791F084E690E069
:101980000E94B1158B8181508B838111F0CF81E052
:101990000F900F900F90DF91CF911F910F910895AD
:1019A00080E0F6CFEF92FF920F931F93CF93DF93D8
:1019B0008C017C01E60EF71ECFEFDFEF0E151F0541
:1019C00041F4CE01DF91CF911F910F91FF90EF90E5
:1019D0000895C8010E94931CC82788E09E0136958F
:1019E00027959C2FE90190FF04C091E0C92790EA58
:1019F000D927815099F70F5F1F4FE0CF0F931F93A7
:101A0000CF93DF9300D00F92CDB7DEB78C016A83FE
:101A10007B8349830E94D20C4981BC018A819B81CE
:101A2000800F911F0F900F900F90DF91CF911F911A
:101A30000F910C94A70C482F64E270E08AEB93E0BE
:101A40000C94FE0CDC015C96ED91FD91EE0FFF1FF6
:101A5000EE0FFF1FEE53FF4F6591759185919591A4
:101A6000089544E250E0DC01E6EDF0E00E946D1CD8
:101A7000089580910D0390910E0320910B033091F6
:101A80000C038217930728F420930D0330930E0361
:101A9000C9018131974230F080E197E280930D03D4
:101AA00090930E03809111039091120320910F03E4
:101AB000309110038217930728F420931103309379
:101AC0001203C9018938934130F088E893E180938B
:101AD0001103909312030895FC0180810C94C002BD
:101AE00044E250E06AEB73E081E093E00E94831CE3
:101AF00081E093E00C946C0D44E250E06AEB73E0FB
:101B000081E093E00E94A11C81E00E941B0D81E016
:101B100093E00C946C0D282F81E090E03AE02111C5
:101B200001C008952150AC01349FC001359F900D34
:101B30001124F5CFCF9397FF0AC00E94431CC1E048
:101B400000977040604051F48C2FCF910895C1E010
:101B5000009770406040A1F3C0E0F2CFCF5F2AE071
:101B600030E040E050E00E942C1CB901CA01E8CFEF
:101B7000BC0180E090E00C949A0DEF92FF920F93DD
:101B80001F93CF93DF9300D000D0CDB7DEB789830A
:101B90009A837B014B835C83DC01ED91FD91CF0146
:101BA000B8010E94F61B009799F0081B190B1E1430
:101BB0001F048CF08C018B819C81800F911F8E17EC
:101BC0009F07A0F4CF01801B910B8B839C830EC0D9
:101BD0001E141F0484F7C901801B910BE817F90735
:101BE00018F49F01200F311F2B833C838B819C8134
:101BF000E981FA81808391830F900F900F900F906D
:101C0000DF91CF911F910F91FF90EF9008950F9367
:101C10001F93CF93DF93CDB7DEB728970FB6F89415
:101C2000DEBF0FBECDBF8F83988769837A834B83D6
:101C30005C832D833E83FC01808191810E94B80DDD
:101C40008230C8F082500E948B0D8C012D813E8124
:101C50004B815C8169817A818F8198850E94BD0D5D
:101C600028960FB6F894DEBF0FBECDBFDF91CF919F
:101C70001F910F91089581E090E0E7CF40912903F3
:101C800050912A03209125033091260395E0929FDD
:101C9000F001939FF00D1124E80FF11DEE0FFF1FCF
:101CA000E650FF4F25913591813061F420912F034B
:101CB00030913003249FC001259F900D349F900DDB
:101CC00011240895823029F4209131033091320398
:101CD000F1CF833079F72091430330914403EACF69
:101CE0008091680390916903892B99F40E94C10740
:101CF000811581F00E94C40720914D0330914E035D
:101D0000AC01421B530B81E04330510518F080E0D9
:101D1000089581E00895815E0C94AC07CF93DF9322
:101D2000EC018091680390916903892B41F0209721
:101D300031F40E94C40780934D0390934E03C093E7
:101D40006803D09369030E94290880916703811179
:101D500005C08C2FDF91CF910C941003DF91CF91B0
:101D60000895FF920F931F93CF93DF9381E00E941A
:101D70004A03CBE5D3E00FE413E0F12C8F2D0E9452
:101D80008B0E89939993F801819391938F01F3942A
:101D9000F6E0FF12F3CF10926803109269031092DD
:101DA000670380E090E00E948E0E10924D03109227
:101DB0004E038FEF80936A03DF91CF911F910F91B4
:101DC000FF90089580E090E00E948E0E81E0809365
:101DD000670308950E94E20E80E00C944A0380910C
:101DE0006F03089581E020916D0330916E03232BE2
:101DF00009F480E0089580916D0390916E03089539
:101E0000813020E8920710F080E090E880936D0325
:101E100090936E030E940E030C94310880916F031F
:101E20008115A9F080E090E00E94000F10926B03F2
:101E300010926C0310926F038AE090E00E94CF151D
:101E400080E00E9404038AE090E00C94CF1508958E
:101E500081E080936F030C940E0F80917D038111BC
:101E600009C0609178037091790380917A03909111
:101E70007B0308950E94A615209178033091790381
:101E800040917A0350917B03621B730B840B950B7B
:101E900008950F931F93CF93DF9381E00E943E0E2E
:101EA000EC0184E00E943E0E8C0184E10E94AC07AC
:101EB0008C179D07D0F408171907C8F49C01201B44
:101EC000310BCE01801B910B64E670E00E94F61B83
:101ED000C9010E94F61B6436710508F063E6862F7F
:101EE000DF91CF911F910F91089583E6F9CF80E0A4
:101EF000F7CFCF92DF92EF92FF920E94490F90911D
:101F00007C03981798F580937C030E942D0FC09056
:101F10007F03D0908003E0908103F09082039B01C7
:101F2000AC012C193D094E095F0969017A010E9433
:101F30002D0F60937F0370938003809381039093B0
:101F400082038091830390918403A0918503B091D3
:101F500086038C159D05AE05BF0540F4C092830332
:101F6000D0928403E0928503F0928603FF90EF9075
:101F7000DF90CF9008950E94790F80917E03A9E6AB
:101F8000811101C0A4E680917C03A81BBB0B2091AA
:101F900083033091840340918503509186030E940E
:101FA000631C08952091030330910403213031050F
:101FB00019F481E00C94F00210F480E0FBCF24309F
:101FC0003105A1F480917D038115B9F385E00E946C
:101FD000AC072091050330910603A90152508417E4
:101FE000950758F32817390720F308952230310553
:101FF00019F480917D03DECF23303105D9F6E6CF89
:102000000E946910811569F18091700390917103AC
:10201000A0917203B091730380599F4FAF4FBF4F90
:102020008093700390937103A0937203B093730332
:102030000E94700E8115A1F0809174039091750338
:10204000A0917603B091770380599F4FAF4FBF4F58
:102050008093740390937503A0937603B0937703F2
:1020600008950E94F20E8111CFCFE2CF2CE0829F23
:10207000C001112481579C4F0C94AC1087ED93E064
:102080000C94AC10CF93DF9300D000D0CDB7DEB767
:1020900082E10E94AC0789839A8384E10E94AC07A5
:1020A00029813A81281B390B29833A8387E10E94D1
:1020B000AC078B839C83CE0101960E94AC100F90DD
:1020C0000F900F900F90DF91CF9108958091DF03D3
:1020D000089581E02091DD033091DE03232B09F484
:1020E00080E008958091DD039091DE0308958130B2
:1020F00020E8920710F080E090E88093DD03909351
:10210000DE030E940A030C9431088091DF038115DD
:1021100089F080E090E00E9477101092DD03109229
:10212000DE031092DB031092DC0380E00E94FE02CB
:102130001092DF0308951092DD031092DE031092D7
:10214000DB031092DC0380E090E00E94771081E0D6
:102150008093DF030C948510FC014281538141156B
:10216000510589F02081318137FF03C031952195D8
:102170003109A8EEB3E00E94D71B9A0140E050E07D
:102180000E940A1CA901CA010895A82F6091E003CA
:102190007091E1034091E4035091E50380E090E009
:1021A000FB012EE0929FE00DF11D11243296259146
:1021B00035912115310579F01CF457FF09C03058CD
:1021C00024233523232B21F0A11521F0A1508F5F6B
:1021D0009F5FE6CF892F08950F931F93CF93DF93CF
:1021E00000D0CDB7DEB78A830E94C5103EE0839F42
:1021F00080011124E091E003F091E103E00FF11F71
:10220000859195910E94C31689830E94661481115D
:1022100023C06FE08981681BE091E003F091E10346
:10222000E00FF11F359694919983911531F0862F27
:102230009981891B0E94011769818091E003909127
:10224000E103800F911F04960F900F90DF91CF91C3
:102250001F910F910C94C7132091F0033A81832FA3
:1022600090E0022E001C00082817090691F60F9036
:102270000F90DF91CF911F910F9108950E94C5108B
:10228000E091E003F091E1039F014EE0849F200D77
:10229000311D1124C901F901369625913591FC01B2
:1022A000349684918150823010F0C9010895F9016B
:1022B0004591559165917591CB0108958093E40303
:1022C0009093E5038FEF0E94C5108093EC0308956F
:1022D0008093E0039093E1036093E2037093E30340
:1022E00080E00E943D128CEE90E18093E803909391
:1022F000E90385E891E18093E6039093E7038FEF8C
:102300008093F0039FE70C945E118F929F92AF929F
:10231000BF92CF92DF92EF92FF920F931F93CF93D2
:10232000DF93CDB7DEB72C970FB6F894DEBF0FBEA4
:10233000CDBF182FB62E0E943E117C01812F0E9426
:10234000C510E091E003F091E1039EE0899FE00D6C
:10235000F11D1124389646E050E0DE0117960E94E8
:102360006D1C86E0FE013796DE01119601900D92FC
:102370008A95E1F786E0FE013196DE01179601901D
:102380000D928A95E1F70F811885C984DA849B84C0
:102390008C84E2E0BE1651F191E0A92EB12C0E3FE3
:1023A000FFE71F0739F134F1292D382DA601B501BA
:1023B000C7010E94070EE091E203F091E30330971A
:1023C00009F448C0C7012C960FB6F894DEBF0FBEC3
:1023D000CDBFDF91CF911F910F91FF90EF90DF90D4
:1023E000CF90BF90AF909F908F9009948FEFB82EB1
:1023F000AB2CD5CF21F4C501F6010995DCCF0C3FFC
:10240000FFE71F07B9F4F701808191818A0D9B1DB9
:10241000292D382D2817390744F09C01F7012C1578
:102420003D052CF080839183C6CFC901F7CFC082D0
:10243000D182C1CF0D3FFFE71F0721F40E94EF15A6
:10244000082F10E0292D382DA601B501C7010E94E3
:10245000BD0DB1CF2C960FB6F894DEBF0FBECDBF29
:10246000DF91CF911F910F91FF90EF90DF90CF9070
:10247000BF90AF909F908F9008951092EE031092AE
:10248000ED038093EC0381E08093EB038093EA03F8
:1024900008958091EE038F5F8093EE0308958091FD
:1024A000EE03811519F081508093EE030895809119
:1024B000EE039091EC03891720F08FEF890F809342
:1024C000EE032091ED03821718F48093ED03282F7B
:1024D00030E02F5F3F4F281731051CF48150809367
:1024E000ED030895CF930E945712C091ED03209100
:1024F000ED03822F90E001968C17910524F4109241
:10250000EB03CF9108956C2F621B80E00E947E1632
:102510008091EE038C1311C08EE30E948A16809185
:10252000EC03C81730F4E091E803F091E9038C2F35
:1025300009950E940517CF5FDACF80E2EECFCF93E7
:102540000E94F615C82F0E949C19811539F081E070
:102550008093EB03CFE78C2FCF910895C23071F0B9
:10256000C43029F40E94491281E08093EB038091EA
:10257000EB03811581F30E947212EDCF0E944F127E
:10258000F3CFCF93DF930F92CDB7DEB7898381E08E
:102590008093EB030E949F12811102C01092EA0304
:1025A0009091EA0391110BC0883049F481E0809347
:1025B000EA038091EE030F90DF91CF910895298176
:1025C000211519F021E02093EB03813019F79111C7
:1025D000E1CF8FEFF0CFCF93DF938091EE03809325
:1025E000F0031092EF0381E08093EB03C1E0D2E0AF
:1025F0000E94F615682F823011F08430C1F4E0910A
:10260000E603F091E7038091EE0309958091EE03D4
:102610008093F003D093EF03C093EB030E947214F6
:102620008115B9F0C093EB030E94721216C081307D
:1026300011F0883099F78FEF8093F00381E0809359
:10264000EA038093EB03683009F080E0DF91CF91DB
:1026500008958091EB038111E7CF8091EF038F5FA5
:102660008093EF03C5CF80910303909104030397F8
:10267000029750F48FEF9FE720911B0330911C03CA
:10268000232B09F4029708958EEF9FE7F5CF0E9460
:1026900033130E945E110C94390DCF93DF93CDB7A5
:1026A000DEB7A4970FB6F894DEBF0FBECDBF67E4C8
:1026B00073E182E791E00E9468110E9433130E9447
:1026C0005E1180E00E94C11287FD2BC00E943E1166
:1026D000892B41F481E093E00E94310D84E00E9457
:1026E0008914EBCF84E2E1E0F3E0DE011196019082
:1026F0000D928A95E1F70E94EB1281110EC084E2DF
:10270000FE013196A1E0B3E001900D928A95E1F7C8
:1027100081E093E00E946C0DD0CF84E00E94891488
:10272000F7CFA4960FB6F894DEBF0FBECDBFDF91F2
:10273000CF910C947C0D0C946A18CF93DF9300D04A
:10274000CDB7DEB789839A830E9488160E948016CF
:1027500089819A810F900F90DF91CF910C94C316CD
:102760008FED92E00C949D1382EC92E00E949D13F9
:1027700088EB9BE00C94B115FB0145915591659157
:102780007591FC0140835183628373830895CF92D6
:10279000DF92EF92FF921F93CF93DF9300D000D090
:1027A000CDB7DEB7162FFC0185919591A591B59116
:1027B000833071F4FD01862F0F900F900F900F90D2
:1027C000DF91CF911F91FF90EF90DF90CF90099410
:1027D00086FF12C0482F4F73FD01808191810F90B9
:1027E0000F900F900F90DF91CF911F91FF90EF907E
:1027F000DF90CF900C945018813079F0823009F43A
:102800003DC00F900F900F900F90DF91CF911F91CF
:10281000FF90EF90DF90CF900895BD01CE0101961B
:102820000E94BC13EB81FC8180819181880F991FEC
:10283000880F991FE981FA81E80FF91F6591759159
:1028400085919591125024E630E040E050E00E94DE
:102850000A1C612FC9010E944A1880E30E948A164F
:1028600080E30F900F900F900F90DF91CF911F9109
:10287000FF90EF90DF90CF900C948A16BD01CE01AF
:1028800001960E94BC13E980FA80CB80DC80D601DF
:10289000ED91FD91EE0FFF1FEE0DFF1D85919591BE
:1028A0000E94711C181B812F0E940117F601608184
:1028B000C7010F900F900F900F90DF91CF911F9154
:1028C000FF90EF90DF90CF900C94DC168091F00396
:1028D00087FD06C08091EF0386958F5F8170089514
:1028E00080E008958091F00387FD0AC08091EF0396
:1028F0002FEF280F2695982F969581E0291301C078
:1029000080E008950E94A2158093F4039093F5034C
:1029100008952091090330910A03232B09F480E0E4
:102920009091F103981741F08093F1030E94821473
:1029300082E390E00C94CF1508959091F1039111EA
:1029400002C00C9489140895262F30E0A901440F89
:10295000551F481759075CF02817390724F4660FEC
:10296000681B862F0895181619060CF4089580E048
:1029700008959C01369527958A9720F46AE0C9014D
:102980000C94A4141092F10380E00895CF93DF9388
:1029900000D00F92CDB7DEB79C01369527953695BE
:1029A00027952A833B838432934048F01092F103A9
:1029B00080E00F900F900F90DF91CF9108956AE023
:1029C0008A819B810E94A41489836AE08A819B8109
:1029D00088970E94A4149981890FEBCF60ED77E06E
:1029E0000E94F61B6AE00C94A414823825E092073A
:1029F00040F46AE070E00E94F61BCB0164E10C94A5
:102A0000A4141092F10380E00895803321E192072D
:102A100060F46AE070E00E94F61BCB0168E270E0AF
:102A20000E94F61B64E10C94A4141092F10380E060
:102A300008958A3223E0920760F46AE070E00E9411
:102A4000F61BCB0168E270E00E94F61B64E10C9477
:102A5000A4141092F10380E008952091F103263030
:102A600050F4243098F4223069F0233069F021309A
:102A700039F080E00895283058F0D9F70C941915F2
:102A80000C94B9140C94EE140C94F5140C94C61414
:102A90000C9405150E94A2152091F4033091F503C2
:102AA000821B930B0E942D154091F2035091F3036A
:102AB0008417150631F08093F2031092F3030C94FF
:102AC000090508952FB7F8946091F6037091F70304
:102AD0008091F8039091F9032FBF08950E94D20FBF
:102AE0000E944C1B0E944A150C94890C8091F6039D
:102AF0009091F703A091F803B091F9030196A11DFD
:102B0000B11D8093F6039093F703A093F803B0935D
:102B1000F90380916100815019F08093610008955C
:102B200081EE809361000E9454090C9400100E9471
:102B30006215969587957795679508950E949715E4
:102B4000CB0108950E946215CB0108950E9497154C
:102B500028EE33E040E050E00E940A1CB901CA01AF
:102B60000895CF93DF9300D000D0CDB7DEB78B832D
:102B70009C830E949E1589839A830E949E152981B9
:102B80003A81821B930B2B813C8182179307A8F318
:102B90000F900F900F900F90DF91CF910895CF93EA
:102BA000DF9300D000D0CDB7DEB78B839C830E942B
:102BB0009E1589839A830E946E150E949E15298115
:102BC0003A81821B930B2B813C818217930798F3E8
:102BD0000F900F900F900F90DF91CF910895E0919B
:102BE000FA03F0E0E051FD4F849108951F93CF93D5
:102BF000DF93E091FA03F0E0E450FD4FC49110E060
:102C000087E090E00E94CF150E94A904D82F809100
:102C1000FC039091FD039D1799F1811110C0D09391
:102C2000FD031092FA031092FB03D11519F081E015
:102C30000E949D148D2FDF91CF911F910895815097
:102C4000843010F01F5F83E08093FC03C117C0F64F
:102C50008091FA03853070F7D11561F39091FB03F1
:102C60009F5F9093FB03E82FF0E0EA50FD4FE49163
:102C70009E1700F38F5F8093FA031092FB03DACF65
:102C80008F5FDECFCF92DF92EF92FF920F931F9371
:102C9000CF93DF936B017C01EA01F7FE0AC08DE25E
:102CA0008993F094E094D094C094C11CD11CE11C91
:102CB000F11CB601C7010E949A0DC80FD11D1882E0
:102CC0008E01B601C7012AE030E040E050E00E94EA
:102CD0002C1C605DF80162938F0169017A01C114B7
:102CE000D104E104F10469F7CE01DF91CF911F9186
:102CF0000F91FF90EF90DF90CF9008950C94F6180D
:102D000060E080E00C94F61861E080E00C94F61826
:102D10000C94EF188A3011F40C9484160C949719C3
:102D20000F931F93CF93DF9300D00F92CDB7DEB7F1
:102D30006983009731F18A839B8300E010E0802F44
:102D40003981032E001C00080317100534F4EA81B2
:102D5000FB819081911109C08F5F0F900F900F90B0
:102D6000DF91CF911F910F9108952A813B812F5FB1
:102D70003F4F2A833B830F5F1F4F892F0E948A1684
:102D8000DECF80E0EACF0F931F93CF93DF938C01C8
:102D900080E00115110559F0E80103C021960E9459
:102DA0008A16FE0184918111F9CF8C2F801BDF914F
:102DB000CF911F910F910895FC01E60FF11DE60FD1
:102DC000F11D859195910C94C316CF93DF9300D09C
:102DD0000F92CDB7DEB789836A831B829B818A817C
:102DE000981744F087FD80E00F900F900F90DF91CF
:102DF000CF91089589810E948A168B818F5F8B8382
:102E0000EDCF682F80E20C94E51680E10C94011759
:102E1000CF93DF9300D00F92CDB7DEB789839A832B
:102E20006B830E947A1C9B81981B892F0E9401173B
:102E30006B8189819A810F900F900F90DF91CF91D4
:102E40000C949016CF93DF93CDB7DEB72C970FB6C7
:102E5000F894DEBF0FBECDBF4C87AE014F5F5F4F12
:102E60000E9442166C85CE0101960E9408172C968E
:102E70000FB6F894DEBF0FBECDBFDF91CF9108959E
:102E80004F925F926F927F92AF92BF92CF92DF92FA
:102E9000EF92FF920F931F93CF93DF93CDB7DEB7DF
:102EA0002E970FB6F894DEBF0FBECDBF6C01162F64
:102EB0007A01211509F43FC09C01A8EEB3E00E94FD
:102EC000D71B9A0140E050E00E942C1C29013A01D6
:102ED000011541F07094609450944094411C511C31
:102EE000611C711CB201C3010E949A0D8F5F212FDA
:102EF000312F330F330B28173105ECF04FEF410F13
:102F0000B201C3010E9422178DE62E960FB6F894E7
:102F1000DEBF0FBECDBFDF91CF911F910F91FF900C
:102F2000EF90DF90CF90BF90AF907F906F905F90C9
:102F30004F900C949719C601B7010E94F61B8D871C
:102F40009E8780E090E06E012FEFC21AD20AA601A0
:102F5000011529F02DE22983AE014E5F5F4F0E94DB
:102F600042165C0182E0E816F10460F1812F912F96
:102F7000990F990B019795012C193D0928173907CD
:102F80000CF52701612C712C9701A301ED85FE85BD
:102F90002E0F3F1F411D511DA8EEB3E0F5E6EF16C1
:102FA000F10410F4A4E6B0E00E94581C9201A301C1
:102FB0000E942C1CB901CA01A5010E9442168EE292
:102FC000F5018083612FC6010E9408172E960FB667
:102FD000F894DEBF0FBECDBFDF91CF911F910F914F
:102FE000FF90EF90DF90CF90BF90AF907F906F9069
:102FF0005F904F9008950F93CF93DF93DC0185E0AE
:10300000489F90011124F901EB5FFC4FC591D591C8
:10301000CE010E94711C681B11F10AF14D7F4830EE
:10302000E1F4B7FF1AC0B195A195B10901E0F9012A
:10303000EC5FFC4F8491F901EE5FFC4F4591559197
:1030400021E0811101C020E0CD010E944017CE0196
:10305000DF91CF910F910C94C31600E0E8CFDF9180
:10306000CF910F910895CF93DF930F92CDB7DEB735
:1030700089838DEF860F0E9401178981811107C016
:103080008BE694E00F90DF91CF910C94C3168FE6FE
:1030900094E0F8CF462FBC0180E090E00C9422171A
:1030A0004D3011F40C9433184C3061F4883E23E019
:1030B000920770F089EF860F0E94011783E694E073
:1030C0000C94C316453021F4883E2DEF9207F1CFC2
:1030D0000C94FB17FF920F931F93CF93DF93CDB701
:1030E000DEB728970FB6F894DEBF0FBECDBF8EE0D7
:1030F000F82EF9821FE11A8301E10B830C830D8303
:103100000E830F831887BE016F5F7F4F80E00E94A0
:103110002B19F9821A830B830C831D831E831F8353
:103120001887BE016F5F7F4F81E00E942B19F982E3
:103130001A831B831C831D831E831F831887BE0174
:103140006F5F7F4F82E00E942B1928960FB6F8948C
:10315000DEBF0FBECDBFDF91CF911F910F91FF90CA
:103160000895AC9881E090E00E949C07AC9A81E0C1
:1031700090E00E949C07AC9884E690E00C949C0739
:1031800080FF0CC0AB9A81FF0BC0AA9A82FF0AC0D5
:10319000A99A83FF09C0A89A0C94B118AB98F3CFF1
:1031A000AA98F4CFA998F5CFA898F6CFCF93DF933C
:1031B0000F92CDB7DEB78983611561F0AD9A898131
:1031C00082958F700E94C01889810F90DF91CF91F6
:1031D0000C94C018AD98F3CF60E00C94D61881E041
:1031E0000E94EC1880ED97E00C949C07CF93DF933E
:1031F000CDB7DEB728970FB6F894DEBF0FBECDBFB0
:1032000098E0E4E6F0E0DE01119601900D929A95C7
:10321000E1F79091FF03691710F06FEF690FFE015E
:103220003196E60FF11DE60FF11D9081890F806840
:1032300028960FB6F894DEBF0FBECDBFDF91CF91B9
:103240000C94EC1880910104982F946090930104E1
:103250008C600C94EC180F931F93CF93DF93880F1F
:10326000880F880F88738064EB010E94EC188E0130
:10327000085F1F4F61E089910E94D618C017D107DF
:10328000C9F7DF91CF911F910F910895623028F017
:10329000809102048860809302046093FF0310927F
:1032A000FE03411539F0613029F4809102048460F5
:1032B00080930204A39AA29AA19AA09A80E593EC23
:1032C0000E949C07AD98AC9883E00E94C01884E9E6
:1032D00091E10E949C0783E00E94C01884E991E17B
:1032E0000E949C0783E00E94C01886E990E00E943B
:1032F0009C0782E00E94C0188091020480620E94B4
:10330000EC1884E0809301040E9422190E94EF18B7
:1033100082E08093000486E00C94EC18A59AA49AAD
:103320001092020440E061E080E10C94461961E0F3
:103330000E94D61881E00895CF93C0916200C11514
:1033400081F00E945D08C82F811549F08091030427
:10335000811102C00E94B01388E00E948914C093BA
:1033600003048C2FCF910895089581E093E00E948B
:10337000220DAB01BC0183EA90E00C94FD0583EAC9
:1033800090E00E94B60683EA90E00C947106CF9319
:10339000DF930F92CDB7DEB78983682F83EA90E081
:1033A0000E94C106809106049981892780930604B2
:1033B0000F90DF91CF91089580916300813059F48F
:1033C00080911B0390911C03892B29F00E94B51951
:1033D00082E080936300089580916300813029F03A
:1033E0000E94BF1981E08093630008958BE30C94E1
:1033F000C719CF93DF93EC018881811103C0DF915E
:10340000CF91089521960E94C719F6CFCF93DF93ED
:10341000CDB7DEB72F970FB6F894DEBF0FBECDBF86
:10342000AE014F5F5F4F0E944216CE0101960E948F
:10343000F9192F960FB6F894DEBF0FBECDBFDF91FE
:10344000CF910895BC0180E090E00C94061ACF93D0
:10345000DF9300D0CDB7DEB789839A83109206043C
:1034600084E20E94C71989819A810E94221A0E94CF
:10347000F6198091000390E001960E94221A0E94A2
:10348000F6196091070470910804809109049091E5
:103490000A0428EE33E040E050E00E940A1CB90123
:1034A000CA010E94061A8EE20E94C71960910704A1
:1034B000709108048091090490910A0424E630E098
:1034C00040E050E00E940A1CB901CA012AE030E045
:1034D00040E050E00E940A1CCB010E94221A0F908B
:1034E0000F90DF91CF910C94F6198DE00E94C719CF
:1034F0008AE00C94C7198091060490E00E94221A79
:103500000C94751ACF93DF9381E090E00E94271A04
:10351000CDE4D3E0FE0184910E94AC070E94221A00
:103520000E94F6192196F3E0CB35DF0799F7C0E04A
:103530008C2F0E9436100E94221A0E94F619CF5F2B
:10354000C630B1F70E943E100E94221A0E94F6195E
:103550000E9442100E94221A0E94F6190E94490FEE
:1035600090E00E94221A0E94F6190E94BB0F0E944E
:10357000061A0E94F619DF91CF910C947B1ACF9313
:10358000DF9300D0CDB7DEB7898382E090E00E9460
:10359000271A1A828981811501F18A810E94A30765
:1035A0000E94221A0E94F6198A818F5F8A838532CF
:1035B00089F780916803909169030E94221A0E9402
:1035C000F61980E090E00E94221A0E94F6190F90EE
:1035D0000F90DF91CF910C947B1A8A810E94AC07E7
:1035E000DFCF83E090E00E94271A0E9460070E94CC
:1035F000221A0E94F6190E9449070E94221A0E946C
:10360000F6190C947B1ACF93DF93C0911B03D091D2
:103610001C03C430D1055CF00E94821A81E00E9434
:10362000BF1A229759F0DF91CF910C94F11A0E94A2
:10363000821AC230D10514F080E0F1CFDF91CF9132
:10364000089580916300813031F10E949715209197
:103650006300223051F460930B0470930C04809348
:103660000D0490930E041092630020910B0430918E
:103670000C0440910D0450910E04621B730B840BDB
:10368000950B60930704709308048093090490934A
:103690000A040C94031B08950E94C107811106C0FF
:1036A00010920404109205040C94B4190E94C407EB
:1036B000209104043091050428173907A9F3809359
:1036C0000404909305040E94211BEECF1F93CF9317
:1036D000DF93182F682F87E994E00E94DC16C12F32
:1036E000D0E0FE01E257FB4F84911930C8F40E94EC
:1036F000B50765E00E944A18111591F0CA958091AE
:1037000068039091690302C096958795CA95E2F780
:1037100080FF06C08AE2DF91CF911F910C948A1638
:10372000DF91CF911F9108950E94DC1981E00E94E2
:10373000180A0E94B10E8BE00E943D1286E69BE1C2
:103740008093E8039093E903C0E001E010E0C093A8
:10375000EE0381E00E94C112C82F8115C1F38730AA
:1037600090F48FEF8C0F980102C0220F331F8A95BF
:10377000E2F7C901209168033091690382279327FA
:103780000E948E0EE4CF893011F70E94EA0E0E944B
:1037900058080E94EC190E944D130E94DC1981E028
:1037A0000E94180A0E94B10ED2CF0C94941BA29FC3
:1037B000B001B39FC001A39F700D811D1124911D05
:1037C000B29F700D811D1124911D0895DB018F930F
:1037D0009F930E94581CBF91AF91A29F800D911D95
:1037E000A39F900DB29F900D11240895AA1BBB1B9F
:1037F00051E107C0AA1FBB1FA617B70710F0A61BF1
:10380000B70B881F991F5A95A9F780959095BC0111
:10381000CD010895A1E21A2EAA1BBB1BFD010DC00C
:10382000AA1FBB1FEE1FFF1FA217B307E407F50770
:1038300020F0A21BB30BE40BF50B661F771F881F4C
:10384000991F1A9469F760957095809590959B01E2
:10385000AC01BD01CF010895052E97FB1EF4009425
:103860000E94431C57FD07D00E940A1C07FC03D08E
:103870004EF40C94431C50954095309521953F4F44
:103880004F4F5F4F089590958095709561957F4F4C
:103890008F4F9F4F0895EE0FFF1F0590F491E02D7D
:1038A00009940E94D71BB7FF0895821B930B0895BC
:1038B0000E94D71BA59F900DB49F900DA49F800DD3
:1038C000911D11240895B7FF0C94581C0E94581C98
:1038D000821B930B089505900D9241505040D8F7EC
:1038E0000895FC0105900020E9F7809590958E0FD2
:1038F0009F1F0895FC0101900020E9F780959095A5
:103900008E0F9F1F0895DC01CB01FC01E199FECFD2
:1039100006C0FFBBEEBBE09A31960DB20D9241504E
:103920005040B8F70895E199FECF9FBB8EBBE09A57
:1039300099278DB30895A8E1B0E042E050E00C94DF
:10394000851CDC01A40FB51F4150504048F0CB014D
:10395000840F951F2E910E94B21C41505040D0F709
:103960000895262FE199FECF9FBB8EBBE09A019769
:103970000DB2021631F02DBB0FB6F894E29AE19A1F
:103980000FBE08950196272F0E94B21C0C94B11C03
:04399000F894FFCFD9
:1039940001E1010100004000140054000000010492
:1039A4000104010101010101010000010101010102
:0839B400010002010308010AF1
:00000001FF
