:100000000C9416060C943E060C943E060C943E0688
:100010000C9448090C943E060C943E060C943E0643
:100020000C943E060C9498090C9478090C947A0967
:100030000C943E060C94180A0C94500A0C943E063C
:100040000C9424090C943E060C943E060C943E0637
:100050000C943E06000000003A65C52E000000002A
:100060003A65C52EF80132007C2BE803800432008B
:10007000001F2C0100000000000000000000000034
:10008000000000000000000080A6CA30FC16E8084E
:10009000000000000000000043BFA80E00000000A8
:1000A00071D8681000000000AFD96810000000008F
:1000B0004067D007000000000FD668100000000065
:1000C000C8D86810000000008AD86810F801320013
:1000D0007B2BE8039A0132007A0B2C010006080002
:1000E000FF01010A01060900FF03020002060A00DF
:1000F000FF00000A06060E00FF03020005060D00C1
:10010000FF02030004060C00FF03020003060B00BD
:10011000FF04060007060700FF0302008025000019
:10012000004B00000096000000E1000000C201004A
:100130004600030088137017010032000C173200CC
:10014000D007401FE8031027000000000300000054
:100150000000010004000001020202020203040583
:10016000FC0AF20AED0AE80AE30ADE0AD90AD40A0E
:10017000CF0ACA0AF70AC60A0100010001000100FD
:100180000100B0040807520300005203B00408073E
:10019000E8030000E803D0079209D60600006C07C8
:1001A000E40C100EC409E40CB80B100E0410C409C2
:1001B000A60EAC0D740E6810B80B0A0F890C740EE5
:1001C000CC10B80B0A0F890C740EFE10B80B0A0F76
:1001D000890C40066C071405400678050100A00F45
:1001E000D007010001000100A00F01000100010083
:1001F000AE19E719301BDA1BE51BF01BDC1CD81C01
:100200000C1DC01DCC1DD11D6F1E6C1E761E9B1EAD
:10021000A21EC51E1B21F220F820AC23E51BAE2335
:10022000180980270F09182903092029F708AE2784
:10023000E808972700000000079608020044003BEA
:1002400002FD7F000010279108010049008502008F
:100250000000000000AE08040049000B040100008B
:10026000000100000000000000000000000000008D
:100270000000018A08020041002D02FD7F00007885
:10028000698208020041002F02FD7F00007869AEFC
:1002900008040049000B04010000000100000000F8
:1002A0000000000000000000000000E30802004120
:1002B000003902FD7F00003075DE08820041006BCE
:1002C00002FD7F00008813D908820041006D02FD05
:1002D0007F00008813D408820041006F02FD7F0078
:1002E000008813CF08820041007102FD7F00008862
:1002F00013CA08820041007302FD7F00008813C505
:1003000008820041007502FD7F00008813BF0801CC
:100310000041005302000000000000B90801004144
:10032000005102000000000000AE08040049000B6C
:1003300004010000000100000000000000000000B7
:10034000000000000006090A0B0C0D0E061F2021FC
:10035000222324A708FF7F49000D04FD7F0000FF32
:10036000FFA408FF7F0300EF270000000000009CAF
:1003700008FF7F40000F04FD7F0000FFFF0000002A
:100380000000000000000000000000190B332D0FDA
:100390000BB326010B002C00000000FD09FF7F02BB
:1003A000001505010000000B00FA090F00030060B2
:1003B00031FE7F062C0000F6090E8041003803FD57
:1003C0007F00008813F60910004100380332000056
:1003D000007869E909018041003803FD7FB004D04D
:1003E00007E909200041003803FF7F01007869F226
:1003F00009048041004C03FD7F00008813EE090FC3
:100400008041003A03FD7F00008813EE091000418F
:10041000003A03320000007869E4091F004500300B
:1004200003FF7F6400E8FDE0093F0040003403FF64
:100430007F01000C17D9091E8040003C03FF7F019B
:10044000000C17D5091F0040003603FF7F0100D0C4
:1004500007CE091F8040003E03FF7F0100D007C484
:10046000090C8048004E0301000300C800BB0901CD
:10047000004D004C03010000000100B609000248D5
:10048000004E03FC7FECFF0000AA0900024B005065
:1004900003010001001E00A1091F004D00420301DD
:1004A0000000000100990900044A0652030A000AEC
:1004B0000084038D0900014403440364005802AC26
:1004C0002687093F004C004003FF7F0000E8037DC2
:1004D000091F0047004A0301000100FA00710903E7
:1004E000004900540301000000050067091F804B0C
:1004F0000048030100010063005C091F804D0046B5
:1005000003010000000100000000000000000000E6
:10051000000000000060012E03950B860B7E0B741B
:100520000B680B600B510B460B370B2A0B000900B5
:10053000030407080900030708090001020304086F
:100540000900010203040506080909C00AFF7F4DDE
:10055000001203010000000100B80AFF7F400014F0
:1005600003FD7F0100F401B00AFF7F40001603FF86
:100570007F01000C17980AFF7F42001C03FF7F0ACF
:1005800000401FA80AFF7F40001803FD7F0100F410
:1005900001A00AFF7F40001A03FF7F0100D00790EF
:1005A0000AFF7F42001E03FF7F0A00E803850AFF5F
:1005B0007F410020036400581B30757A0AFF7F4D8D
:1005C000002203010000000100740AFF7F020047BF
:1005D000060100000004006C0A020001004306014D
:1005E0000000000400630A020002003B0601000054
:1005F0000001005C0AFF7F020033060100000001D9
:1006000000530AFF7F02002B060100000001004D8D
:100610000AFF7F0000000000000000000000000052
:1006200000000000000000000000002F062C033234
:100630000A060A37062A03130A0A0A3F062803484D
:100640000A420A1C0126034B062403390A320A2CEB
:100650000A230A1A0A20202D2D20200063686561D4
:100660006C692D636861726765720A76332E305F3C
:1006700032303236303531360063616C69622E209B
:100680006572726F7200706C656173652063616C76
:1006900069627261746500656570726F6D20726564
:1006A0007365740A6572726F723A200072657365C1
:1006B0007474696E6720656570726F6D002020200C
:1006C000202020202020202020796573006565707F
:1006D000726F6D2072657365743A005245564552CB
:1006E000534520504F4C4152495459006572726F26
:1006F000723A00636F6D706C6574653A00AD3100DD
:1007000000004000000000A832004000000000008F
:10071000407230FFFFFF7F040000400F3280010075
:100720000000000040013100020000080000400D00
:1007300031000200000800004021310002000000EA
:100740000000402931FFFFFF7F04000040592E00C8
:10075000000060000000005D2E000000600000004E
:1007600000612E0000002004000040652E00000003
:100770002004000040C330FFFFFF7F04000040A5BD
:1007800030FFFFFF7F00000040FD30FFFFFF7F00D4
:100790000000008630FFFFFF7F04000000E130FF13
:1007A000FFFF7F000000000000FFFFFF7F00000050
:1007B00000250064542F64743D200064563D2020C1
:1007C00020006D6178563D00206C696D69743D00B4
:1007D00056696E7075743D00776972657320523D7D
:1007E00000626174742E20523D004C696D6974730F
:1007F0003A20004E2F4100546578743D004E2F4141
:100800000025200043684342426C446946435374C8
:1008100053424359434300010101020A1E010318D8
:10082000478E01190C03010101E80301270CE803BD
:1008300000250C640000230C640000200C64000000
:100840001E0CE803011B0CE80301190C0100001742
:100850000CE80301250C010000100C640000130CCF
:10086000010000110C010000110C0100000000014A
:1008700000000E0C141719181A0705061F20212254
:100880002324566D696E75733A0056706C75733A11
:10089000006164633A0074656D703A004965787070
:1008A00065633A00493A0076616C75653A006361A8
:1008B0006C69622E20702E3A00566F75743A00569D
:1008C000312D363A005662363A005662353A0056B5
:1008D00062343A005662333A005662323A00566247
:1008E000313A0056696E3A0065787065727420443A
:1008F000414E474552210074656D702065787465DE
:10090000726E0049206469736368617267650049AB
:100910002063686172676500766F6C74616765005B
:1009200062616C616E636520706F72742100626138
:1009300074746572792100646973636F6E6E6563A8
:100940007400636F6E6E6563740064542F6474008A
:100950002D64560056206C696D6974006164617085
:1009600074206469733A00442F4320726573743AAB
:1009700000442F43206379636C65733A00636170B0
:1009800020434F66663A0074696D653A007C65786D
:1009900074726E2054434F3A007C64542F64743A4E
:1009A00000657874726E20543A007C69676E72201C
:1009B000667273743A007C64563A00656E61622018
:1009C00064563A0062616C2E206572723A006D695D
:1009D0006E49643A0049643A006D696E49633A00B1
:1009E00049633A004361703A0056636F3A005664B7
:1009F0003A0056733A0056633A00563A0062617400
:100A0000746572793A0072657600616476616E632E
:100A100065640073696D706C65006578742E2041A3
:100A20006463006578742E20646562006465627595
:100A300067006E6F726D616C0064697361626C65F2
:100A4000640073657061720074656D700072657327
:100A5000657400627574746F6E733A006D656E75BF
:100A6000733A007C6F75747075743A007C737065AE
:100A700065643A00554152543A00616463206E6FD8
:100A80006973653A00696E707574206C6F773A000F
:100A90006D61782050643A006D61782050633A00AF
:100AA0006D61782049643A006D696E2049643A00AE
:100AB0006D61782049633A006D696E2049633A00A0
:100AC000626565703A004C4544004E695A6E004CB0
:100AD000343335004C343330004C69706F004C694E
:100AE0006C6F004C6966650050622020004E694DB5
:100AF00048004E69436400556E6B6E004E6F6E6524
:100B00000072657365742064656661756C7400635A
:100B1000616C6962726174650073657474696E6793
:100B200073006F7074696F6E73006564697420621E
:100B300061747465727900636170616369747920AE
:100B4000636865636B00443E4320666F726D617439
:100B50000073746F726167652B62616C616E630014
:100B600073746F7261676500666173742063686196
:100B700072676500646973636861726765006261CA
:100B80006C616E6365006368617267652B62616C9E
:100B9000616E636500636861726765006578742ED5
:100BA00074656D702E6375746F66660074696D652B
:100BB000206C696D69740063617061636974792088
:100BC0006375746F666600696E7075742056207464
:100BD0006F206C6F77004857206661696C7572658D
:100BE0000062616C616E63657220646973632E00DC
:100BF0006261747465727920646973632E006E6F2C
:100C00006C696D697400206E6F0079657300550022
:100C1000006D00432F6D002500F400416800430083
:100C2000576800570056004100007C0B11241FBE7E
:100C3000CFE5D8E0DEBFCDBF10E0A0E6B0E0EAEC43
:100C4000F8E702C005900D92A838B107D9F724E063
:100C5000A8E8B0E001C01D92A638B207E1F716E09F
:100C6000C6E1D6E004C02197FE010E94DD3BC531FC
:100C7000D107C9F70E944A120C945A3C0C94000008
:100C800086B396B336B321E0422F32FD4227522F6E
:100C900091FD5227952F990F40FD946080958170AA
:100CA000892B9927B3999395922790FD8860089591
:100CB000811107C0A698A798D59888988A988F9888
:100CC0000895A69AA79AD59A889A8A9A8F9A08958B
:100CD0000E94703940E062E080E10E9428390E9461
:100CE00094090E94010A0E94E80788E799E60C949B
:100CF0001A07811106C0939A0E94440780E00C9461
:100D00003B079398089580FF11C0AE9A81FF10C0F1
:100D1000AF9A82FF0FC0DD9A83FF0EC0909A84FFC6
:100D20000DC0929A85FF0CC0979A0895AE98EECFA9
:100D3000AF98EFCFDD98F0CF9098F1CF9298F2CFA7
:100D40009798089580E00E94830680E00E947906CB
:100D500080E00E94810987B18F7387B98B9A8D9A41
:100D6000D79ABC9A8C9A8D9A8E9A08952FB7F89438
:100D700080918D0090918E00A0918F00B091900095
:100D80002FBF892F9A2F08952FB7F89410929400AF
:100D9000109293008617970728F580E090E4A0E072
:100DA000B0E080938D0090938E00A0938F00B0935D
:100DB000900080918D0090918E00A0918F00B09155
:100DC0009000BA2FA92F982F80E080938D009093E8
:100DD0008E00A0938F00B093900081E080938C00F0
:100DE0002FBF089510928D0010928E0010928F00E8
:100DF00010929000DECFCF93DF93EC01C13080E6FC
:100E0000D80770F4C13080E4D80760F48EE00E9407
:100E10000D0A9598BE018DE0DF91CF910C94EB09FE
:100E2000C0E0D0E68DE00E940D0A949ABE01705495
:100E30008EE0F2CF893729E6920710F088E799E62D
:100E4000BC0180E00E94020E813C2FEF920710F05F
:100E500080EC9FEF2FB7F8949093920080939100CD
:100E60002FBF08959C019FB7F8943093940020936E
:100E700093009FBF0895811102C0DF9A089580E01A
:100E80000E944407DF980895CF93DF93C82F811500
:100E900019F080E00E943B07DFB7F8948DE00E94D4
:100EA0000D0A94988EE00E940D0A959810928C007D
:100EB000DFBFC11104C0969ADF91CF910895969833
:100EC00080E00E942F0CEC0186E00E942F0CBE01F6
:100ED000DF91CF910C94C40680918C00811509F4A8
:100EE00072C080E00E94380C2091910030919200F5
:100EF0008217930748F080E00E94440710928C000C
:100F000081E08093A903089582E00E94380C9C013F
:100F1000409193005091940060E070E080918D00CA
:100F200090918E00A0918F00B0919000421B530BC6
:100F30006109710932E0440F551F661F771F3A950A
:100F4000D1F7840F951FA61FB71F80938D00909334
:100F50008E00A0938F00B093900080918D009091AF
:100F60008E00A0918F00B0919000B7FF08C0109242
:100F70008D0010928E0010928F0010929000809140
:100F80008D0090918E00A0918F00B09190000197FC
:100F9000A046B10560F080E090E0A0E6B0E080936C
:100FA0008D0090938E00A0938F00B093900080915D
:100FB0008D0090918E00A0918F00B0919000892FAC
:100FC0009A2F0C94FB060895BC018EE00C94EB095B
:100FD000DE98D698BD9ABE9ABF9A8EEA86B9369A9E
:100FE0000895CF930E9420249093B8028093B70273
:100FF0000E94421D9093BA028093B902809197009B
:10100000811509F457C00E9420244091F7025091A5
:10101000F8026091F9027091FA02CEE0C89F900147
:10102000C99F300D1124420F531F611D711D409344
:10103000F7025093F8026093F9027093FA020E944B
:10104000421D4091FB025091FC026091FD027091A3
:10105000FE02C89F9001C99F300D1124420F531FFB
:10106000611D711D4093FB025093FC026093FD02D1
:101070007093FE028091FF02909100030197B9F4F2
:101080008091C3029091C402A091C502B091C602A2
:1010900022E0B695A795979587952A95D1F78093E5
:1010A000C3029093C402A093C502B093C602CF912D
:1010B0000C94420FCF9108958091220390912303C5
:1010C000892BD1F080919B008115B1F0909199000E
:1010D00021E001C0220F9A95EAF74091FF0250915A
:1010E00000034F703FB7F8949BB3292B2BBB840FA1
:1010F0008A95F1F79BBB3FBF0895809195008F5F64
:10110000803108F080E080939500409198005091E4
:10111000990060919A0070919B0040939C005093BD
:101120009D0060939E0070939F00E1E0E80F8F3078
:1011300009F4E0E094E0E99FF0011124E452FF4F4C
:101140004591559165917591409398005093990000
:1011500060939A0070939B00209142033091430367
:10116000232B29F4473019F496E0909398008111CD
:101170000CC00E94F1072091FF023091000381E032
:10118000232B09F480E080939700089584B125B162
:1011900090919600923028F1922FE0919E002FB707
:1011A000F894F0E0DF01AA0FBB1FA756BD4F1296BF
:1011B0009E938E9330919700311591F0EE0FFF1FA3
:1011C000EE0FFF1FE554FD4F408151816281738115
:1011D000480F591F611D711D4083518362837383C2
:1011E0002FBF8091960091E0980F909396008C30DD
:1011F00001F128F4813031F08B30A9F008958F305F
:10120000D1F008958091980087FD1DC02FB7F89404
:1012100098B3809198008295880F807E9F71892B6A
:1012200088BB2FBF089580919E00823061F40C949A
:101230006C070C945C0880919900806287B91092C9
:1012400096000C947D0808951F920F920FB60F928E
:1012500011242F933F934F935F936F937F938F93BB
:101260009F93AF93BF93EF93FF930E94C608FF91A4
:10127000EF91BF91AF919F918F917F916F915F910E
:101280004F913F912F910F900FBE0F901F90189587
:101290001F920F920FB60F9211242F933F934F93EB
:1012A0005F936F937F938F939F93AF93BF93EF93CE
:1012B000FF930E949C34FF91EF91BF91AF919F915A
:1012C0008F917F916F915F914F913F912F910F90EF
:1012D0000FBE0F901F90189588E085BD85B584607E
:1012E00085BD14BC8CE783BD89B7806889BF08952C
:1012F000C49A18958F93C4988091A00082BF8F9153
:101300001895811104C013BE12BEC4980895869525
:1013100098E7980F9093A00090E095958795845456
:101320008CBF8CE483BF089589B7836089BF08951B
:101330001F921FB61F9211242F933F938F939F9359
:101340002091A7003091A8008091A3009091A40063
:10135000820F931F8093A3009093A4002091A50077
:101360003091A6008091A1009091A200820F931F5E
:101370008093A1009093A2002FB7F8948091A300CE
:101380009091A40035E0969587953A95E1F79BBD3D
:101390008ABD8091A1009091A20035E09695879535
:1013A0003A95E1F799BD88BD2FBF8091A3008F7159
:1013B0008093A3001092A4008091A1008F7180936C
:1013C000A1001092A2009F918F913F912F911F90A9
:1013D0001FBE1F9018959FB7F8948E3049F47093F4
:1013E000A8006093A7008FB580688FBD9FBF089548
:1013F0008D30E1F77093A6006093A5008FB58062F1
:10140000F4CF80E092E097BD86BD82E08FBD89E198
:101410008EBD89B7846089BF08958E3021F48FB561
:101420008F778FBD08958D30E9F78FB58F7DF9CF18
:101430001F921FB61F9211242F933F934F936F93C8
:101440007F938F939F93EF93FF935A9927C04CB14B
:101450008091BF019091C0018395282F30E0609169
:10146000C1017091C2018617170659F0E091BF01C2
:10147000F091C001E154FF4F40833093C0012093AD
:10148000BF01FF91EF919F918F917F916F914F914C
:101490003F912F911F901FBE1F9018958CB1F1CFD7
:1014A0002F932FB72F933F938F939F93EF93FF9398
:1014B0002091BF013091C0018091C1019091C20182
:1014C0002817390751F45598FF91EF919F918F910B
:1014D0003F912F912FBF2F911895E091C101F0916D
:1014E000C201E154FF4F20818091C1019091C2015E
:1014F000839590E09093C2018093C1012CB9E4CF11
:10150000CF92DF92EF92FF92CF93DF93EC016A01CB
:101510007B01E885F985C11461EED606E104F1048A
:10152000F9F02C8981E001C0880F2A95EAF78083C1
:1015300060E079E08DE390E09A01A7010E949C3B76
:1015400021503109410951095695479537952795FD
:1015500061E0C9013031B8F06115A9F0E885F9857D
:10156000108260E874E88EE190E09601A7010E9485
:101570009C3B2150310941095109569547953795B2
:10158000279560E0E6CFEC81FD819083EE81FF81BD
:1015900020831D8AEA85FB852081498981E090E0CE
:1015A000BC0101C0660F4A95EAF7262B2083EA8525
:1015B000FB8520814A89BC0101C0660F4A95EAF784
:1015C000262B2083EA85FB8520813B8901C0880F7B
:1015D0003A95EAF7809582238083DF91CF91FF903F
:1015E000EF90DF90CF900895CF93DF93FC01A2811D
:1015F000B381AD015F5FAE5FBE4FEA0128813981E3
:101600008D919D91129728173907B9F7A285B38557
:101610004C91818921E030E0B90101C0660F8A95C3
:10162000EAF7862F809584238C93A285B3854C910D
:101630008289E90101C0CC0F8A95EAF78C2F809549
:1016400084238C93A285B3858C91938901C0220F4A
:101650009A95EAF7209528232C9380819181FC01AB
:10166000EE5FFE4F2081318132932293DF91CF9143
:101670000895FC018589811529F0A085B1858C919B
:1016800086FFFBCF158A0895CF93DF93FC0122815B
:101690003381D901BF5F8D919D911297839590E021
:1016A000E901CE5FDE4F4881598148175907D9F3C8
:1016B0004D915D91240F351FD9016C93A281B381A7
:1016C000AE5FBE4F9E938E93A285B3858C91938916
:1016D00021E001C0220F9A95EAF7822B8C9381E0DA
:1016E000858B0084F185E02D80818064808381E09A
:1016F00090E0DF91CF9108958FEB90E08093A90067
:101700009093AA008093AB009093AC0080E4809308
:10171000AD001092AE0029E22093AF001092B0000D
:101720002BE22093B1001092B2002AE22093B30082
:101730001092B4008093B5001092B6008CE28093B2
:10174000B7001092B80084E08093B90083E08093E2
:10175000BA0087E08093BB0085E08093BC0081E005
:101760008093BD000895CF93DF930F92CDB7DEB77E
:10177000E0918A00F0918B00309711F4E6E8F4E0F4
:10178000CE0101962EEB8E179F0720F40F90DF916C
:10179000CF9108952193F7CFCF93DF9300D0CDB7AA
:1017A000DEB7CE01019620918A0030918B00211581
:1017B000310511F426E834E0821B930B0F900F9053
:1017C000DF91CF910895CF93DF930F92CDB7DEB71E
:1017D000E0918A00F0918B00309711F4E6E8F4E094
:1017E00080E090E09E012F5F3F4F2E173F0730F0C3
:1017F00040814E3B19F401963196F7CF0F90DF915F
:10180000CF910895009709F408950197EFE9FFE05B
:101810003197F1F700C00000F5CF8436910560F0F4
:1018200064E670E00E94883BCB010C94020C0197A7
:1018300025E32A95F1F700000097C9F708956AE0BB
:1018400070E00E94883BCB010C940D0CE82FF0E077
:10185000EE0FFF1FE958FD4F808191810895E82F19
:10186000F0E0EE0FFF1FE35DFD4F80819181089551
:101870002FB7F894E82FF0E0EE0FFF1FE756FD4F6B
:10188000808191812FBF08958091050308958091F3
:10189000E1019091E20108958091CF019091D001F2
:1018A00008958091D1019091D20108958093CC0147
:1018B0000895E82FF0E0EE0FFF1FED51FE4F8081FD
:1018C0009181089581E0809303030895613110F4BC
:1018D000423038F021E0FC01228313822083118200
:1018E000089550E09A01260F311D260F311DB901D0
:1018F000660F771F660F771F625F7F4F44E00C947F
:10190000153C9A01813190F4623080F470E0680FE8
:10191000711D680F711D660F771F660F771F625F5D
:101920007F4F44E050E0C9010C94333C0895EF929E
:10193000FF921F93CF93DF9300D000D0CDB7DEB7D7
:1019400084E5E82E80E0F82E10E0F701859195916E
:10195000A591B59189839A83AB83BC83AE014F5F18
:101960005F4F60E0812F0E94810CF70134968591D2
:101970009591A591B59189839A83AB83BC83AE0180
:101980004F5F5F4F61E0812F0E94810C1F5F88E0F5
:10199000E80EF11C1131C9F681E00E94C7120F90C8
:1019A0000F900F900F90DF91CF911F91FF90EF90CC
:1019B000089580910103909102030C94F61481E044
:1019C00020915702309158022331310509F080E00F
:1019D0000895809155029091560208958091510288
:1019E00090915202089580915B0290915C0208955B
:1019F00080910B0290910C02039750F0809111029C
:101A000090911202039720F083E090E00C942D1A3D
:101A100080E008952FB7F89480E090E0FC01EE0F8D
:101A2000FF1FEE0FFF1FE554FD4F1082118212823F
:101A3000138201968131910589F78AE390E09093B2
:101A400000038093FF02109204032FBF0895CF93E9
:101A5000CFB7F8941092DF011092E0011092DB01F1
:101A60001092DC011092DD011092DE011092D7017C
:101A70001092D8011092D9011092DA011092D3017C
:101A80001092D4011092D5011092D6010E94C43454
:101A90008093CD019093CE01CFBFCF910895E3EE17
:101AA000F1E08AE4DF011D928A95E9F70895CF936A
:101AB000CFB7F89481E090E0909300038093FF0209
:101AC000809304030E944F0DCFBFCF910895CF9311
:101AD000DF930E94570DC091E101D091E201809106
:101AE000E1019091E2018C179D0719F0DF91CF91F0
:101AF00008958AE090E00E94F934F1CF1092050336
:101B000080E00C947906CF93DF9381E00E94380C3B
:101B1000EC0180E00E94380C8C179D0750F4C81B24
:101B2000D90B81E0C93ED34008F480E0DF91CF912A
:101B30000895C0E0D0E0F5CFCF92DF92EF92FF9210
:101B40000F931F93CF93DF93CDB7DEB728970FB6D0
:101B5000F894DEBF0FBECDBF182F6B01672B89F441
:101B600080E090E028960FB6F894DEBF0FBECDBFA0
:101B7000DF91CF911F910F91FF90EF90DF90CF9069
:101B8000089540E0682FCE0105960E94660C41E062
:101B9000612FCE0101960E94660CED81FE81E980E5
:101BA000FA80EE15FF05E1F26B817C8180E090E028
:101BB0000F811885601B710B81099109960140E026
:101BC00050E02E1B3F0B410951090E946C3B9701CD
:101BD00040E050E02E1B3F0B410951090E94BE3BE3
:101BE000C901DA01800F911FA11DB11DA130B105FE
:101BF0001CF08FEF9FEFB6CFB7FFB4CFA0E0B0E0FF
:101C0000CD01B0CFCF92DF92EF92FF920F931F934F
:101C1000CF93DF93CDB7DEB728970FB6F894DEBF2A
:101C20000FBECDBF182F6B01672B89F480E090E0C9
:101C300028960FB6F894DEBF0FBECDBFDF91CF91CF
:101C40001F910F91FF90EF90DF90CF90089540E0AB
:101C5000682FCE0105960E94660C41E0612FCE01EF
:101C600001960E94660CEF81F885EB80FC80EE15F2
:101C7000FF05E1F269817A8180E090E00D811E81AB
:101C8000601B710B81099109960140E050E02E1B09
:101C90003F0B410951090E946C3B970140E050E025
:101CA0002E1B3F0B410951090E94BE3BC901DA01BD
:101CB000800F911FA11DB11DA130B1051CF08FEF48
:101CC0009FEFB6CFB7FFB4CFA0E0B0E0CD01B0CF6B
:101CD00082508C3130F4E82FF0E0E459FF4F8081DE
:101CE000089581E00895CF93C82F833151F481E0A6
:101CF00020915702309158022331310589F080E05C
:101D00000FC00E94680E813069F4EC2FF0E0EE0FF6
:101D1000FF1FE35DFD4F208131812139314078F390
:101D2000CF91089581E0FCCFEF92FF920F931F9324
:101D3000CF93CFE191E0E92EF12C00E010E08C2F61
:101D40000E94730E90E09195819591098E219F21BB
:101D5000082B192BEE0CFF1CCF5FC53281F7C80191
:101D6000CF911F910F91FF90EF900895CF93DF9344
:101D700000D00F92CDB7DEB76B83E82FF0E0EE0F07
:101D8000FF1FE35DFD4F2081318129833A830E944B
:101D9000680E482F6B8189819A810F900F900F9068
:101DA000DF91CF910C942F382FB7F8946091C80130
:101DB0007091C9018091CA019091CB012FBF20E0A1
:101DC0003DE740E050E00E949C3BC90108952FB7D9
:101DD000F8946091C4017091C5018091C601909101
:101DE000C7012FBF969587957795679520E03DE7CA
:101DF00040E050E00E949C3BC901089540915B0285
:101E000050915C028091C8019091C901A091CA01D2
:101E1000B091CB01840F951FA11DB11D8093C80106
:101E20009093C901A093CA01B093CB018091C301E3
:101E3000815019F08093C301089582E38093C30118
:101E40002091510230915202DA010E945D3B24E65A
:101E500030E040E050E00E949C3B8091C4019091B2
:101E6000C501A091C601B091C701820F931FA41FA5
:101E7000B51F8093C4019093C501A093C601B09390
:101E8000C70108958091FF0290910003892B49F0CA
:101E90008091FF029091000301979093000380933B
:101EA000FF02089590E0880F991FFC01E35DFD4F4C
:101EB0002081318162177307B8F4261B370B273056
:101EC0003105B8F4FC01ED51FE4F208131812F5FC7
:101ED0003F4FFC01ED51FE4F20833183835D9D4FC9
:101EE000FC01608371830895AB01421B530B9A017F
:101EF000E6CF20E030E0EDCFCF93DF938FB7F894BB
:101F00001092C8011092C9011092CA011092CB011F
:101F10001092C4011092C5011092C6011092C7011F
:101F200092E39093C3018FBFCDE2D2E06CA17DA17B
:101F30008CE10E94520F8E859F858093CF019093F4
:101F4000D0010E94570D0E94270D1092D1011092CE
:101F5000D20160E070E089E10E94520F60E070E021
:101F60008BE10E94520F60E070E08DE1DF91CF9134
:101F70000C94520F1092E1011092E2010C947C0F2C
:101F80000C94BA0F9091050391110FC00E9479062D
:101F90000E94BA0F81E080930503809360000E9445
:101FA000670D0E947C0F109203030895CF92DF9279
:101FB000EF92FF920F931F93CF93DF93C0912D0267
:101FC000D0912E0280912F02909130028C179D07A4
:101FD00008F09FC0C81BD90BBE0182E10E94520FBE
:101FE0008DE2C82E82E0D82E9FE3E92E92E0F92EF2
:101FF0001FE1F701619171917F01812F0E94520FC2
:102000001F5F1532B1F780910303811106C00E9452
:10201000940E8093010390930203E0900103F090EB
:10202000020380E090E08C0141E050E09A01082E2C
:1020300002C0220F331F0A94E2F72E213F21232BE7
:1020400029F0F60126AD37AD020F131F0196F2E01D
:10205000CF0ED11C8630910549F7B80183E10E946B
:10206000520F0115110509F457C0CE01801B910BC9
:102070000C171D0718F0C8018C1B9D0B893B9B405A
:1020800008F04AC0E80113E1BE0184E10E94520F4A
:10209000B70186E10E94520F612F70E085E10E9436
:1020A000520F0E94361D00913302109134028111AB
:1020B0000AC00E9414240091310210913202811151
:1020C00002C000E010E09801DE010E945D3B20E1CB
:1020D00037E240E050E00E949C3BB90188E10E9459
:1020E000520FB80187E10E94520F0E94D40EBC012A
:1020F00089E10E94520F0E94E70EBC018AE1DF9144
:10210000CF911F910F91FF90EF90DF90CF900C94A3
:10211000520FC0E0D0E060CF12E1E12CF12CB4CF3F
:102120001F93CF93DF93182FC82FD0E084E0189F20
:10213000F0011124E554FD4F60817181828193810A
:102140002CE233E040E050E00E949C3BCC0FDD1FCE
:10215000C958DD4F28833983B901812F0E949C0D16
:10216000BC01812FDF91CF911F910C94520FCF9220
:10217000DF92EF92FF920F931F93CF93DF93CDB730
:10218000DEB72C970FB6F894DEBF0FBECDBF0E940E
:10219000C4342091CD013091CE01821B930B813349
:1021A000954708F4B3C04FB7F8942091DF01309100
:1021B000E001ACE2B3E00E945D3B6B017C01F69470
:1021C000E794D794C7948091DB019091DC01A091B2
:1021D000DD01B091DE018D839E83AF83B88780914E
:1021E000D7019091D801A091D901B091DA018983EA
:1021F0009A83AB83BC838091D3019091D401A09149
:10220000D501B091D60189879A87AB87BC874FBF2C
:102210000E94270D8091D1019091D2010196809367
:10222000D1019093D20169817A818B819C81960141
:10223000A7010E949C3B29833A834B835C836D8179
:102240007E818F8198859601A7010E949C3BB901F0
:1022500080E00E949C0D8D839E8369817A8181E05C
:102260000E949C0DAD81BE818A179B0708F04BC070
:10227000A81BB90BA983BA8300916502109166026D
:1022800029813A812017310720F48091CC018111F6
:1022900005C069817A818CE10E94520F69817A813F
:1022A000601B710B8BE10E94520F69857A858B85CB
:1022B0009C859601A7010E949C3BB90187E00E9482
:1022C0009C0D2091CF013091D0018093CF0190934C
:1022D000D001821B930BBC01660F771F8DE10E941A
:1022E000520FB6018EE12C960FB6F894DEBF0FBEEA
:1022F000CDBFDF91CF911F910F91FF90EF90DF90B5
:10230000CF900C94520F19821A82B6CF2C960FB62A
:10231000F894DEBF0FBECDBFDF91CF911F910F911B
:10232000FF90EF90DF90CF900895CF932FB7F89460
:102330008091FF02909100032FBF892B09F091C07B
:1023400080910403811182C080910503811509F4F5
:1023500080C08091E1019091E20101968093E101BA
:102360009093E2014091BB025091BC026091BD028A
:102370007091BE0276956795579547958091DB01E0
:102380009091DC01A091DD01B091DE01840F951FD9
:10239000A61FB71F8093DB019093DC01A093DD01A2
:1023A000B093DE014091BF025091C0026091C10222
:1023B0007091C20276956795579547958091D701A0
:1023C0009091D801A091D901B091DA01840F951FA5
:1023D000A61FB71F8093D7019093D801A093D9016E
:1023E000B093DA014091D7025091D8026091D9029E
:1023F0007091DA0276956795579547958091D3014C
:102400009091D401A091D501B091D601840F951F70
:10241000A61FB71F8093D3019093D401A093D50139
:10242000B093D6018091DF019091E00101968093F5
:10243000DF019093E0010E94B710C0E08C2F0E9452
:102440009010CF5FC131D1F70E94D60FCF910C947D
:102450000A0D809160008115C9F385E00E949010FB
:10246000F5CFCF9108950C9495110E94A20678940F
:102470000E9468060E946C090E94B1240E94BB1D44
:102480000E94C00F0E94B30B0E947E140E94262F50
:102490000C940D300E9435120E9476130E948A2DF2
:1024A00080E090E008950F931F93CF93DF9300D0C7
:1024B0000F92CDB7DEB789839A838B0141110E94B9
:1024C000543C84E08B8389819A810E942D3C801743
:1024D000910791F084E690E00E94DB348B8181507B
:1024E0008B838111F0CF81E00F900F900F90DF91DF
:1024F000CF911F910F91089580E0F6CFEF92FF9258
:102500000F931F93CF93DF938C017C01E60EF71E90
:10251000CFEFDFEF0E151F0541F4CE01DF91CF9114
:102520001F910F91FF90EF900895C8010E94253CE4
:10253000C82788E09E01369527959C2FE90190FFDA
:1025400004C091E0C92790EAD927815099F70F5F1D
:102550001F4FE0CF0F931F93CF93DF9300D00F92C5
:10256000CDB7DEB78C016A837B8349830E947E12DC
:102570004981BC018A819B81800F911F0F900F9030
:102580000F90DF91CF911F910F910C945312482F10
:1025900068E870E08EE090E00C94AA12482F60E2A8
:1025A00073E088E990E00C94AA12482F64E270E08E
:1025B0008AEB93E00C94AA120F931F93CF93DF93AF
:1025C00000D00F92CDB7DEB78B8381708983482FFF
:1025D00063E678E680E090E00E945312182F49816C
:1025E0006CE679E682E090E00E945312182B498154
:1025F00061E070E184E090E00E945312182B498161
:1026000066E070E086E090E00E94531289838B813F
:1026100081FB442740F96AE070E088E090E00E9486
:1026200053128A839B8192FB442740F963E070E058
:102630008AE090E00E9453128195082F04708A81ED
:10264000880F082B9B8193FB442740F96CE070E0D6
:102650008CE090E00E94531281958870802B8A83D1
:102660008981182B9A81912B99838B8181FD0E94FE
:10267000970C80E00E94C712182F110F9981192B17
:102680008B8182FD0E94081880E00E94CE12819505
:102690008470812B89839B8193FD0E94991480E033
:1026A0000E94D512819588709981892B0F900F9087
:1026B0000F90DF91CF911F910F910895CF93C82F65
:1026C0000E94BE2FC0FF04C0C260C460C86004C0C6
:1026D000C1FDFBCFC2FDFACF0E94DF2F8C2F0E94DD
:1026E000DC12682F8C2FCF910C94E32F80E00E9496
:1026F000DC12811521F00E945E1380E0089581E0D4
:10270000089580E00E94DC1281600C945E13CF93E8
:102710000E941C2F82E092E08093800390938103BB
:10272000C1E0C0937F03109278030E94101682309C
:1027300011F4C09378030E94991C982F81E0913086
:1027400009F080E0CF91089561E081E00E940B1CC8
:102750008EE092E08093800390938103089561E07E
:1027600081E00E940B1C8AE192E0809380039093A9
:102770008103089560E082E00E940B1C8CEF91E0E1
:10278000809380039093810308950E948E1D88EEAC
:1027900093E00E946F1D82E390E00E94F9340E9452
:1027A000A11D61E081E00E940B1C86EF91E0809307
:1027B0008003909381030895109278038930E8F4A0
:1027C000E82FF0E0E45AF34C0C94DD3B0E94101625
:1027D000811102C00C94AF130E941016853029F4A9
:1027E0000C94C51381E0809378030C94A41380EFBC
:1027F00091E0809380039093810308950C94BA1321
:102800000E94A413809134039091350365E070E039
:102810000E94883B6093790370937A03089581E066
:102820008093780384E192E0E4CF0E94C01F0C946F
:102830007C0FCF93C82F0E9415148C2F0E94DC139D
:10284000C73039F063E081E0C83041F0CF910C949B
:10285000991C60915403660F615080E0CF910C94F5
:102860007618CF93DF930F92CDB7DEB789830E949E
:10287000B126811581F18981809309030E94DC13BF
:10288000109206031092070383E0809308030E94CE
:10289000BE3981E00E94C20F0E948713811591F01A
:1028A00081E0809308030E94E51F0E941C2F109274
:1028B0007F0385E00E94AF33809109030E941914C1
:1028C0000E9426200E947E0D0E94DA390F90DF912F
:1028D000CF910C94252F0F90DF91CF910895DC01BB
:1028E0005C96ED91FD91EE0FFF1FEE0FFF1FE45E72
:1028F000FE4F6591759185919591089544E250E060
:102900006AEB73E08AE093E00C94153C44E250E0FB
:102910006AEB73E08AE093E00E94333C81E00C9420
:10292000D51244E250E0DC01E0E3F1E00E94FF3B1D
:10293000089544E250E0AAE0B3E0E0E3F1E00E9451
:10294000FF3B0C94861480911603909117032091FD
:102950001403309115038217930728F4209316036C
:1029600030931703C9018D30974130F08CE097E127
:10297000809316039093170380911A0390911B0381
:1029800020911803309119038217930728F420939C
:102990001A0330931B03C901813D974030F080ED4D
:1029A00097E080931A0390931B0308950895FC0108
:1029B0000994FC01859195910C94D714282F81E0FE
:1029C00090E03AE0211101C008952150AC01349FFC
:1029D000C001359F900D1124F5CF009719F024F414
:1029E0008FEF089580E0089581E008959C0180E0D4
:1029F00090E1422F4170840F369527959150C9F789
:102A00000895CF9397FF0AC00E94D53BC1E000977D
:102A10007040604051F48C2FCF910895C1E0009731
:102A200070406040A1F3C0E0F2CFCF5F2AE030E019
:102A300040E050E00E94BE3BB901CA01E8CFBC01B2
:102A400080E090E00C940115EF92FF920F931F939A
:102A5000CF93DF9300D000D0CDB7DEB789839A83C0
:102A60007B014B835C83DC01ED91FD91CF01B801CB
:102A70000E94883B009799F0081B190B1E141F0435
:102A80008CF08C018B819C81800F911F8E179F078A
:102A9000A0F4CF01801B910B8B839C830EC01E146E
:102AA0001F0484F7C901801B910BE817F90718F47C
:102AB0009F01200F311F2B833C838B819C81E981F7
:102AC000FA81808391830F900F900F900F90DF9188
:102AD000CF911F910F91FF90EF9008950F931F9347
:102AE000CF93DF93CDB7DEB728970FB6F894DEBF4C
:102AF0000FBECDBF8F83988769837A834B835C83B6
:102B00002D833E83FC01808191810E941F158230BC
:102B1000C8F082500E94DE148C012D813E814B81D1
:102B20005C8169817A818F8198850E94241528961D
:102B30000FB6F894DEBF0FBECDBFDF91CF911F91CE
:102B40000F91089581E090E0E7CF2FEF3FEF40E055
:102B500050E00C946E150E9423358111FCCF0E9429
:102B600023358115E1F308954091320350913303E9
:102B700060912E0370912F0395E0969FF001979F2F
:102B8000F00D1124E80FF11DEE0FFF1FE858FE4F66
:102B900025913591823051F46230710539F4473016
:102BA000510520F04150510920EB34E0429FC00113
:102BB000439F900D529F900D112408954091320330
:102BC0005091330320912E0330912F0395E0929F73
:102BD000F001939FF00D1124E80FF11DEE0FFF1F80
:102BE000E858FE4F25913591813061F420913803EA
:102BF00030913903249FC001259F900D349F900D83
:102C000011240895823029F420913A0330913B0336
:102C1000F1CF833079F720914C0330914D03EACF07
:102C2000E0912E03F0912F03EC5AFE4F849108950A
:102C30002091300330913103A0914A03B0914B03AE
:102C40000E945D3B64302FE2720723E68207910504
:102C500088F4E0912E03F0912F03EC5AFE4FE4919B
:102C6000E53041F024E630E040E050E00E949C3B3B
:102C7000C901089528EE3DEFFBCF2091320330913A
:102C8000330380914E0390914F03AC01249FC00108
:102C9000259F900D349F900D1124089582E00E948D
:102CA000B415BC0180911C0390911D030E94A418CF
:102CB0009C0180911603909117032817390708F497
:102CC000C901089582E00E94B415BC0180911E03E1
:102CD00090911F030E94A4189C0180911A03909167
:102CE0001B032817390708F4C901089580912E03A2
:102CF00090912F039C012A5031092230310580F038
:102D00002AE0289FF001299FF00D1124E658FE4F7C
:102D10006591759188E799E60E94883BCB010895FB
:102D200081E090E0089580913003909131038436E2
:102D3000910508F088C084E690E08093300390937A
:102D400031038091400390914103893E934030F0DC
:102D500088EE93E080934003909341030E9476169F
:102D600020913203309133038217930728F4809324
:102D70003203909333039C01232B29F481E0809349
:102D80003203109233030E944E1620913403309187
:102D900035038217930728F4809334039093350307
:102DA0009C0180913C0390913D032817390720F442
:102DB00020933C0330933D030E946216209136031A
:102DC000309137038217930728F48093360390934A
:102DD00037039C0140913E0350913F032417350770
:102DE00028F420933E0330933F03A90180911403FC
:102DF000909115036091340370913503681779073A
:102E000020F4809334039093350360913C037091D8
:102E10003D036817790720F480933C0390933D03AA
:102E200080911803909119032817390720F4809393
:102E30003603909337034817590720F480933E03D5
:102E400090933F030895893E9D4F08F47ACF88EE12
:102E50009DEF73CF98E2899FB001112468567F4F90
:102E600048E250E08EE293E00E94153C0C949316E9
:102E700098E2899FB001112468567F4F48E250E0E4
:102E80008EE293E00E94333C81E00C94CE120E94CB
:102E9000931680913403909135036AE070E00E94AC
:102EA000883B60933C0370933D0308950E94931602
:102EB00080913603909137036AE070E00E94883B6E
:102EC00060933E0370933F0308950E949316809190
:102ED0003003909131038093340390933503209114
:102EE0002E0330912F032330310541F496958795B9
:102EF0009695879580933403909335030E944717E6
:102F0000809130039091310380933603909337037F
:102F10000C94561720912E0330912F034AE0429FC4
:102F2000C001439F900D1124FC01E658FE4F4591CE
:102F300055914093380350933903FC01E458FE4FF8
:102F40004591559140933A0350933B032115310528
:102F500049F540ED57E0409330035093310343E08F
:102F6000409332031092330348EE53E04093400302
:102F700050934103109242031092430340E757E1FC
:102F80004093440350934503109246031092470325
:102F90004EE1409348031092490348E740934A03A7
:102FA00010924B03F901EC5AFE4FE491E11121C05C
:102FB00081EF9FEF2230310511F48BEF9FEF21E07D
:102FC00020934C0310924D0380934E0390934F0334
:102FD00083E0809350031092510384E68093520360
:102FE0001092530385E080935403109255030C9480
:102FF000651728E020934E0310924F03FC01E2581E
:10300000FE4F8591959180934C0390934D03EFCFA4
:10301000CF9310922E0310922F030E948A17C0E0C4
:103020008C2F0E943817CF5FC431D1F781E0CF9148
:103030000C94CE12CF93DF930F92CDB7DEB7898376
:103040000E942A1780912E0390912F03892B19F14A
:103050000E94A7310E94523680912E0390912F0337
:103060008B30910551F120F40097A9F00A97F9F0FF
:1030700067E080913003909131030E9449388FE2DC
:103080000E94B73580913203909133030F90DF9106
:10309000CF910C94F0352981822F90E001960E9407
:1030A000F0358AE30F90DF91CF910C94B73589E02A
:1030B0000F90DF91CF910C94603165E080913403E3
:1030C000909135030E9426380E94523684E0F0CF5A
:1030D00080914803909149030E94901E88E092E0FD
:1030E00080938003909381030C94991CCF93DF937A
:1030F0000F92CDB7DEB7698391E090937F03809301
:103100005603809156039981891302C010927F0360
:1031100080FF18C080E00E941914813079F49091EA
:103120007F03911559F0809156038F5F809356036A
:103130000E9415140E946818813019F30F90DF91D6
:10314000CF91089583E0E7CFAB019C01A8EEB3E0F7
:103150000E945D3B9A0140E050E00E949C3BA8EE3B
:10316000B3E00E94EA3B8436910540F424E630E067
:1031700040E050E00E949C3BC90108952FEF3FEFD3
:10318000FBCF8091750390917603892B99F40E946F
:10319000440C811581F00E94470C20915703309117
:1031A0005803AC01421B530B81E04330510518F02A
:1031B00080E0089581E00895815E0C942F0CEF92D9
:1031C000FF920F931F93CF93DF9300D00F92CDB751
:1031D000DEB71A821B828FEFF82EEF2C2FEF298398
:1031E00001E010E02091010330910203C8010A8040
:1031F00002C0880F991F0A94E2F782239323892B38
:1032000049F08A810E94DC188E159F0518F42A81E6
:1032100029837C018A819B8101968A839B830697FF
:1032200009F789810F900F900F90DF91CF911F9137
:103230000F91FF90EF900895CF93DF932091750346
:1032400030917603232B21F4DF91CF910C94DC187D
:10325000C82FD0E090915B03CC0FDD1F911591F04A
:103260000E94DC18FE01E45AFC4FC859DC4F208153
:10327000318148815981241B350B820F931FDF91C7
:10328000CF910895C45ADC4F88819981F8CFEF928D
:10329000FF920F931F93CF93DF938091010390913F
:1032A0000203892B81F100E010E0E8018FEFF82E96
:1032B000EF2C209101033091020381E090E0002E79
:1032C00002C0880F991F0A94E2F782239323892B67
:1032D00059F0802F0E941C19C817D90708F4EC0177
:1032E0008E159F0508F47C010F5F1F4F06301105F6
:1032F00001F7CE19DF0981E020914E0330914F0391
:103300002C173D0708F080E0DF91CF911F910F91BE
:10331000FF90EF900895CF93DF93EC0180917503B8
:1033200090917603892B41F0209731F40E94470C4D
:103330008093570390935803C0937503D0937603FB
:103340000E944F0D80917403811105C08C2FDF9175
:10335000CF910C948306DF91CF910895FF920F9344
:103360001F93CF93DF9381E00E945806C8E6D3E015
:103370000CE513E0F12C8F2D0E94DC1889939993B2
:10338000F801819391938F01F394F6E0FF12F3CF4C
:1033900010927503109276031092740380E090E00F
:1033A0000E948B1910925703109258038FEF80934D
:1033B0007703DF91CF911F910F91FF90089580E0E7
:1033C00090E00E948B1981E08093740308950E941D
:1033D000DF1980E00C945806EF92FF921F93CF9371
:1033E000DF9300D000D0CDB7DEB78091770387FDA3
:1033F00031C00E941C1989839A8310E091E0E92E64
:10340000F12C1B821C8280910103909102038E217A
:103410009F21892B71F0812F0E941C1929813A81EB
:103420002817390730F48B819C818E299F298B8343
:103430009C83EE0CFF1C1F5F163029F78B819C814B
:103440000F900F900F900F90DF91CF911F91FF90F1
:10345000EF9008951B821C82F1CF0F931F93CF939F
:10346000DF9300D000D0CDB7DEB789839A831B826B
:103470001C8201E010E02091010330910203C80199
:103480000B8002C0880F991F0A94E2F782239323CE
:10349000892B99F42B813C812F5F3F4F2B833C83F9
:1034A0002630310541F781E00F900F900F900F907B
:1034B000DF91CF911F910F9108958B81815E0E94C2
:1034C000590C29813A818217930720F780E0ECCFCD
:1034D000AF92BF92CF92DF92EF92FF920F931F9322
:1034E000CF93DF9300D000D0CDB7DEB786E090E079
:1034F0000E942D1A811509F480C00E94F80CA82E94
:10350000811509F47AC08091770387FF04C00E9477
:10351000DF18809377030E94DC1889839A83E090F8
:103520003A03F0903B038CE5C82E83E0D82E08E6E2
:1035300013E0BA2C1B821C822091010330910203FC
:1035400081E090E00B8002C0880F991F0A94E2F797
:1035500082239323892BA1F08B810E94DC188E1586
:103560009F05B8F121E049815A814817590708F4AD
:1035700020E0B222F60180839183F8018083918359
:103580004B815C814F5F5F4F4B835C8352E0C50E84
:10359000D11C0E5F1F4F8B819C81069769F610929C
:1035A0005B030E94D7348093590390935A03B1145C
:1035B00091F00F900F900F900F90DF91CF911F918E
:1035C0000F91FF90EF90DF90CF90BF90AF900C9451
:1035D000DF19BA2CE4CF0E94EC190F900F900F90D6
:1035E0000F90DF91CF911F910F91FF90EF90DF909F
:1035F000CF90BF90AF900C948B190F900F900F90BD
:103600000F90DF91CF911F910F91FF90EF90DF907E
:10361000CF90BF90AF9008950F931F93CF93809159
:103620005B03811110C081E080935B0308E613E027
:10363000C0E08C2F0E94DC18F801819391938F01D8
:10364000CF5FC630B1F7CF911F910F9108950E94BF
:10365000D7342091590330915A03821B930B08955C
:103660008091750390917603892B59F40E94681A12
:103670000E94C118811110C09091740382E0891BCF
:1036800008950E940C1B0E94271B409788F380E03E
:1036900090E00E948B19ECCF82E008950F931F9366
:1036A000CF93DF9300D000D0CDB7DEB789839A8364
:1036B0001B821C8201E010E0209101033091020383
:1036C000C8010B8002C0880F991F0A94E2F7822379
:1036D0009323892B99F42B813C812F5F3F4F2B83C0
:1036E0003C832630310541F780E00F900F900F901A
:1036F0000F90DF91CF911F910F9108958B810E94C0
:103700001C1929813A818217930728F381E0EDCFB4
:103710000F931F93CF93DF9300D000D0CDB7DEB7C8
:1037200089839A831B821C8201E010E020910103AF
:1037300030910203C8010B8002C0880F991F0A94C0
:10374000E2F782239323892B99F42B813C812F5F0D
:103750003F4F2B833C832630310541F780E00F90AB
:103760000F900F900F90DF91CF911F910F910895BF
:103770008B810E941C1929813A812817390728F367
:1037800081E0EDCFCF93DF9300D0CDB7DEB7898353
:103790009A830E94D90C90E0811539F0682F70E06F
:1037A00089819A810E94883BCB010F900F90DF9115
:1037B000CF9108950E94842481E00E948521809108
:1037C000790390917A030C944F240C949B240E94CB
:1037D000F80C811521F00E9425240C943C220895B8
:1037E0000E94E71B0E94E90C20917D0330917E032B
:1037F0002817390740F484E599E0809306039093F5
:10380000070380E0089580917B0390917C030E94E0
:103810004F2482E00895CF93DF930F92CDB7DEB7A8
:1038200069830E94DE1580937D0390937E038981D6
:103830008115A1F0809134039091350380937B032F
:1038400090937C0380913C0390913D038093790396
:1038500090937A030F90DF91CF9108958091360372
:103860009091370380937B0390937C0380913E0378
:1038700090913F03EBCF80918003909181030C9452
:10388000D914809180039091810302960C94D914ED
:103890000E94411C0E9426200C94B535CF93DF93E3
:1038A00000D0CDB7DEB70E94D73489839A830E94B7
:1038B000D73429813A81821B930B853B910510F007
:1038C0000E947E0D0E942335811589F30F900F9081
:1038D000DF91CF910C94A5330E94481C0E946E2F5B
:1038E00086E00E94AF330C944E1C0E94481C0E943C
:1038F0007E0D0E94722F87E00E94AF330C944E1C05
:10390000E0918003F0918103349685919591FC01BB
:103910000994813020F40E94751C80E0089539F4E8
:1039200080917F038111F9CF0E946C1CF6CF81E05A
:1039300008950F931F93CF93DF93109227040E9453
:103940003B1CD2E000E010E0C1E00E9423358093F0
:1039500027040E94962FC115C1F00E946920D82F1C
:103960000E94891CC82F811581F00E94470C801786
:10397000910791F00E94470C8C010E94801CD82F67
:103980000E94891CC82F811107C0C0917F03C115F7
:1039900019F0D11105C0C0E0809127048130A9F64B
:1039A0000E94411C8D2FDF91CF911F910F9108959F
:1039B0000E94A11D0C94E7190E948E1D0E94AE1951
:1039C00081E02091460330914703232B09F480E0E6
:1039D0008093820380E00C9485210F931F93CF93F3
:1039E00000917D0310917E03C8010E94C21B0E94BA
:1039F000881BC82F0E94C118811109C0C11107C0BE
:103A00000E94E90CC1E00817190708F4C0E08C2FE8
:103A1000CF911F910F910895CF93DF9300D00F9214
:103A2000CDB7DEB70E94ED1C89830E94471D8A83B3
:103A30009B83809182038115A9F06A817B818981B2
:103A40000E94EE21811110C06A817B8189810E94D0
:103A50004F230E946F1D82E00F900F900F90DF9117
:103A6000CF9108958981EECF81E0F6CF80918703D1
:103A7000089581E02091850330918603232B09F47A
:103A800080E0089580918503909186030895809148
:103A900083039091840308950E94EE0C009711F423
:103AA00081E090E0BC0188EE93E00E94A4189C01A4
:103AB00080911A0390911B032817390708F4C90154
:103AC0000895813020E4920710F080E090E4809324
:103AD0008503909386030E94E4070C94570DCF93BF
:103AE000DF93EC010E944C1DC817D90708F4CE01E2
:103AF00020918303309184032817390761F0809364
:103B0000830390938403BC0180E10E94020EDF9145
:103B1000CF910C94611DDF91CF910895809187031F
:103B200081110EC080E090E00E94611D109283031D
:103B30001092840381E00E943B0781E08093870319
:103B40000895809187038115A9F080E090E00E949C
:103B5000611D1092830310928403109287038AE000
:103B600090E00E94F93480E00E943B078AE090E0F8
:103B70000C94F934089581E0809387030C94A11D7F
:103B800087E08093670482E0809366040E94A833F4
:103B900083E08093880308958FEF809367040C94EB
:103BA000A533EF92FF920F931F93CF93DF9382E1A0
:103BB0000E94730E20912E0330912F032A50310959
:103BC00091E02230310508F490E021E0C82FC227AF
:103BD000C9230E94D90C082FD0917803D11559F030
:103BE00080913203D1E0081301C0D0E0813009F4A4
:103BF0004DC011E0011110E00E94DF0C8115B9F0F9
:103C000083E10E942F0C7C0182E10E942F0CE816B8
:103C1000F90608F040C09C012E193F09790181E0A6
:103C200035EFE31631E0F30608F480E0C82B87E0B7
:103C3000D11183E080936704111519F082508093AD
:103C40006704C11529F0809167048150809367044F
:103C5000D11126C0111511F182E00E94AF33D1E0DD
:103C6000011541F10E941935811126C01092880377
:103C7000D11128C0C11122C00E9419358830F1F439
:103C8000809188038F5F8093880318C0011101C061
:103C900080E0D823B0CFE81AF90AC1CFC11541F0AE
:103CA00082E00E94AF331111DACFD111D8CF02C018
:103CB0000E94A533D0E0D6CFD115E1F280918803E0
:103CC000823041F082E0DF91CF911F910F91FF9000
:103CD000EF90089581E0F7CF10928D0308950E9430
:103CE000D73480938B0390938C0308950E94D7342C
:103CF00020918B0330918C03821B930B20918903BD
:103D000030918A032817390728F481E090E09093D6
:103D10008D03089582E091E0FACF80918D0308959C
:103D20004CE3489F9001499F300D11242093890353
:103D300030938A0308950E94AE190E94842481E082
:103D40000C9485210E949B240C94E7190F931F93D8
:103D5000CF9300917D0310917E03C8010E94C21B86
:103D60000E944E1BC82F0E94C118811109C0C111A9
:103D700007C00E94E90CC1E08017910708F4C0E079
:103D80008C2FCF911F910F910895CF93DF9300D087
:103D90000F92CDB7DEB70E94A61E89830E9425240C
:103DA0008A839B83BC0189810E94EE2181110EC010
:103DB0006A817B8189810E944F230E944F2482E087
:103DC0000F900F900F90DF91CF91089581E0F8CF81
:103DD00080919F03811109C060919A0370919B03A8
:103DE00080919C0390919D0308950E94CC34209172
:103DF0009A0330919B0340919C0350919D03621B59
:103E0000730B840B950B0895609196037091970343
:103E1000809198039091990328EE33E040E050E0C0
:103E20000E949C3BB901CA01089560919203709170
:103E30009303809194039091950328EE33E040E042
:103E400050E00E949C3BB901CA0108956091920321
:103E500070919303809194039091950320E63AEE3C
:103E600040E050E00E949C3BC90108950F931F93CE
:103E7000CF93DF9381E00E94DE15EC0184E00E9485
:103E8000DE158C0184E10E942F0C8C179D07D0F465
:103E900008171907C8F49C01201B310BCE01801BA9
:103EA000910B64E670E00E94883BC9010E94883B48
:103EB0006436710508F063E6862FDF91CF911F917C
:103EC0000F91089583E6F9CF80E0F7CFCF92DF928C
:103ED000EF92FF920E94361F90919E03981798F5DB
:103EE00080939E030E94E81EC090A103D090A2037D
:103EF000E090A303F090A4039B01AC012C193D09B1
:103F00004E095F0969017A010E94E81E6093A103CE
:103F10007093A2038093A3039093A4038091A503BD
:103F20009091A603A091A703B091A8038C159D05BD
:103F3000AE05BF0540F4C092A503D092A603E0925F
:103F4000A703F092A803FF90EF90DF90CF90089521
:103F50000E94661F8091A003A9E6811101C0A4E61A
:103F600080919E03A81BBB0B2091A5033091A60353
:103F70004091A7035091A8030E94F53B089508952E
:103F80000E94361F80939E031092A1031092A203F9
:103F90001092A3031092A4031092A5031092A603FB
:103FA0001092A7031092A803109296031092970301
:103FB0001092980310929903109292031092930317
:103FC00010929403109295030895CF93DF9360E9C4
:103FD00071E080E00E94020E809390039093910321
:103FE00081E00E94DE15EC01C854D44FC93729E6A0
:103FF000D20710F0C8E7D9E6CE010E941A07BE0129
:1040000080E00E94020E813C2FEF920710F080ECBE
:104010009FEF80938E0390938F030E94DF0C809319
:10402000A0030E94CC3460939A0370939B03809307
:104030009C0390939D030E94C01F1092A90381E0EE
:1040400080939F03DF91CF910C94620C0E94E81E35
:1040500060939A0370939B0380939C0390939D03BA
:1040600010929F0308950E941724811569F1809191
:10407000920390919303A0919403B091950380597A
:104080009F4FAF4FBF4F8093920390939303A093A2
:104090009403B09395030E94C1188115A1F08091FB
:1040A000960390919703A0919803B091990380593A
:1040B0009F4FAF4FBF4F8093960390939703A0936A
:1040C0009803B093990308950E94391D8111CFCFB1
:1040D000E2CFCF93DF9380919F03811104C082E0F0
:1040E000DF91CF91089580E00E94380C20918E03DB
:1040F00030918F038217930758F4209190033091E9
:1041000091038217930760F40E94361D811541F0D8
:1041100080EF9BE0809306039093070380E0E0CF5D
:104120008091A9038130A1F30E94DF0C9091A0033C
:10413000891719F081EE9BE0EDCFC0917B03D09100
:104140007C03C851DC4F0E94F30CC817D90718F440
:1041500086ED9BE0DFCF86E00E942F0C20912003AC
:10416000309121038217930718F487EC9BE0D2CF9C
:1041700089E10E942F0CEC010E941816883E2DEF59
:10418000920759F0C817D90740F087EB9BE080935E
:1041900006039093070381E0A3CFC0914003D09121
:1041A0004103C83E83E0D80740F40E94261F8C17C5
:1041B0009D0718F08CEA9BE0EACF80914203909132
:1041C0004303892B09F48BCF87E00E942F0C2091A9
:1041D0004403309145032817390708F080CF8CE954
:1041E0009BE098CF0E94A21E0E94D81C0C94E71955
:1041F000CF938091AA03813058F0D1F00E94301BF8
:10420000C82F823011F00E94F2208C2FCF91089598
:104210000E94C51EC82F8130C1F780917803811597
:10422000A1F382E08093AA030E94AE19C2E0EDCF11
:104230000E940C1DEFCFCF93DF930E94AE1961E077
:1042400083E00E940B1CC0917D03D0917E030E94ED
:10425000D90C81110DC00E94E90CC817D90778F05C
:104260000E949B1E80E08093AA03DF91CF91089566
:10427000CE010E94C21B0E94881B8111F1CF60E019
:1042800083E00E940B1C0E94DC1C81E0809382036F
:10429000EACF8091AB03813029F48091790390912A
:1042A0007A03089580E090E008952CE0829FC00199
:1042B000112489549C4F0C94C2248FEF93E00C94EA
:1042C000C224CF93DF9300D000D0CDB7DEB782E118
:1042D0000E942F0C89839A8384E10E942F0C2981EC
:1042E0003A81281B390B29833A8387E10E942F0CDE
:1042F0008B839C83CE0101960E94C2240F900F9065
:104300000F900F90DF91CF910895EF92FF920F934E
:10431000CF93DF9300D000D00F92CDB7DEB7898363
:1043200081E08093AB030E94E90C209179033091E6
:104330007A0340917D0350917E030981BC0187EF90
:1043400093E00E94DB2480917D0390917E030E9484
:10435000C21B8A839B838FEAE82E83E0F82E1C829F
:104360001D82209101033091020381E090E00C80D6
:1043700002C0880F991F0A94E2F782239323892BA6
:1043800071F08C810E941C192091790330917A037D
:1043900009814A815B81BC01C7010E94DB248C81B9
:1043A0009D8101968C839D839CE0E90EF11C8C819C
:1043B0009D810697B1F6109205041092AE031092FB
:1043C0000304109204040F900F900F900F900F9021
:1043D000DF91CF910F91FF90EF9008950F931F936E
:1043E000CF93C82F8B0180917803811559F080916C
:1043F0000504C11501F181111EC00E94DF1981E081
:10440000809305040E9449218017910790F1C115FE
:1044100081F180910504843061F59091AE0381E0D3
:10442000890F8093AE0381E09A3008F480E0CF9149
:104430001F910F9108958B7F29F7809179039091B7
:104440007A03803A910510F480EA90E08017910792
:1044500010F4109274030E94301B8093AB038130E0
:1044600029F70E944719811569F28FEF809377032E
:10447000C9CF1092AE03DACF0F931F93CF93DF9380
:1044800000D000D0CDB7DEB789839A830E94E90CB3
:1044900049815A81BC0187EF93E00E949C250FEA75
:1044A00013E01B821C82209101033091020381E002
:1044B00090E00B8002C0880F991F0A94E2F78223D4
:1044C0009323892B49F08B810E941C1949815A81C1
:1044D000BC01C8010E949C258B819C8101968B8325
:1044E0009C83045F1F4F0697F1F60F900F900F907B
:1044F0000F90DF91CF911F910F910895EF92FF924E
:104500000F931F93CF93DF9300D000D0CDB7DEB7CA
:1045100060917D0370917E0387EF93E00E940125F7
:104520007C0180917D0390917E030E94C21B898350
:104530009A830FEA13E01B821C82209101033091C1
:10454000020381E090E00B8002C0880F991F0A945B
:10455000E2F782239323892B71F069817A81C80164
:104560000E940125E816F90630F069817A81C801B8
:104570000E9401257C018B819C8101968B839C8309
:10458000045F1F4F0697C9F6C7010F900F900F9059
:104590000F90DF91CF911F910F91FF90EF900895B1
:1045A0000F931F93CF93DF93EB0100917B03109147
:1045B0007C038017910708F48C010E9449219C011B
:1045C0008017910708F498012C173D0729F14091B5
:1045D00005044430C1F42C173D07A8F0801791075B
:1045E00090F48091790390917A038C179D07A0F045
:1045F0004091AC035091AD038091570390915803C3
:104600004817590749F080915703909158038093B8
:10461000AC039093AD03E901CE01DF91CF911F91DF
:104620000F910895EF92FF920F931F93CF93DF9313
:104630008C010E94E90C8093F7039093F803009398
:10464000F9031093FA038FEAE82E83E0F82EC0E016
:10465000D0E0209101033091020381E090E00C2E24
:1046600002C0880F991F0A94E2F782239323892BB3
:1046700041F08C2F0E941C19F701808391830283E3
:1046800013832196FCE0EF0EF11CC630D10509F72B
:10469000DF91CF911F910F91FF90EF9008951F939D
:1046A000CF93DF93182FEB010E94F80C811109C002
:1046B000111509F440C08091030490910404892BE2
:1046C000D1F10E94C118811136C0CE010E943C2256
:1046D000CE010E9412230E947E228C179D0720F497
:1046E0008C0F9D1F969587958093030490930404E7
:1046F000BE010E94D0228093030490930404809111
:104700000504823001F150F481110CC0111599F0AB
:104710000E94DF1981E0809305040DC08330C9F049
:1047200084E0F9CF111539F082E0809305041092EE
:104730000304109204048091030490910404DF9117
:10474000CF911F910895109203041092040483E006
:10475000E2CF111581F3E4CF0C94DA1B0F931F9372
:10476000CF93DF930E94E71B0E94E90CEC0182E0EB
:104770000E94DE158C179D0730F480917B03909189
:104780007C030E944F2480917D0390917E038C17BF
:104790009D0740F484E599E0809306039093070316
:1047A00081E005C00E94510C029730F482E0DF9155
:1047B000CF911F910F9108958091420390914303EF
:1047C000892B69F08DE10E942F0C209152033091CA
:1047D0005303281739071CF48AE499E0DDCF0E94BF
:1047E000510C8C01C0915003D0915103CC0FDD1FAF
:1047F00081E00C171D0708F480E00E94560C0C178E
:104800001D07A0F280914C0390914D03892B71F20A
:104810008BE10E942F0CEC010E943D16C817D907AE
:104820002CF680E599E0B8CF80910A04089581E0E4
:104830002091080430910904232B09F480E00895A5
:104840008091080490910904089580910604909144
:10485000070408950E94EE0C009711F481E090E0A7
:10486000BC0180911C0390911D030E94A4189C011F
:1048700080911603909117032817390708F4C9018E
:104880000895893E2DEF920710F088EE9DEF8093FA
:104890000804909309040E9432070C94570DCF939B
:1048A000DF93EC010E942A24C817D90708F4CE012F
:1048B000209106043091070482179307A8F4A901F8
:1048C000481B590B4D38510518F0C9018C589109F6
:1048D0008093060490930704BC018FE00E94020EAF
:1048E000DF91CF910C944124AC01421B530B4D3806
:1048F000510520F0C90184579F4FEACF2817390787
:1049000039F7DF91CF91089580910A04811112C087
:1049100010920804109209041092060410920704E1
:1049200080E090E00E94412481E00E94440781E001
:1049300080930A04089580910A04811589F080E02B
:1049400090E00E94412410920804109209041092F1
:1049500006041092070480E00E94440710920A04A3
:1049600008951092080410920904109206041092FF
:10497000070480E090E00E94412481E080930A04D3
:104980000C949B24FC01428153814115510589F00F
:104990002081318137FF03C0319521953109A8EE7F
:1049A000B3E00E945D3B9A0140E050E00E949C3BD6
:1049B000A901CA0108950F93DC01FB0146175707AF
:1049C00008F4FA016417750708F4BA01011105C06B
:1049D0009E2F8F2FFB01692F782F1696ED93FD9355
:1049E0001897ED93FD931D921D921D921D921496A2
:1049F0002D933D936E1B7F0B14976D937D930F91B9
:104A00000895DC011896ED91FD911A973097F1F019
:104A10009B0140E050E016968D919D911897281BC0
:104A2000390B410951091A960D90BC91A02D0E9495
:104A3000EA3B9F01FF0F440B542F0E94BE3B4130C5
:104A4000510524F457FD05C0C90108958FEF9FEF6C
:104A5000089580E090E00895EF92FF920F931F93E6
:104A6000CF93DF9300D00F92CDB7DEB78A839B83BD
:104A7000FC01828193817A01E81AF90A841795076B
:104A800018F07C01E41AF50AEA81FB812481358162
:104A9000369527952E153F05F0F400811181841776
:104AA000950718F5CB01801B910B8C01C8010E9462
:104AB000ED148983EA81FB81808591850E94ED1444
:104AC000F981F81308C0EA81FB81E482F58200874E
:104AD0001187E286F3860F900F900F90DF91CF91B0
:104AE0001F910F91FF90EF900895061B170BDECFDB
:104AF0000F931F93CF93DF938C01EB019A01FC017D
:104B0000A085B1850E94E33B2285338540E050E0DB
:104B10000E94BE3BC217D3071406150654F0C21BF1
:104B2000D30BF801C683D783DF91CF911F910F91EB
:104B30000895C0E0D0E0F5CFCF93DF9300D000D050
:104B400000D0CDB7DEB789839A836B837C834D8396
:104B50005E830E942C254D815E816B817C818981E1
:104B60009A810F900F900F900F900F900F90DF9100
:104B7000CF910C9478251F93CF93DF93182F6EE27B
:104B800079E082E499E00E943B2FD0E082E10E942C
:104B9000730EC82F811559F00E94D90C91E0811134
:104BA00001C090E0911741F0D11559F0DC2F0E941F
:104BB0002335813059F7C0E08C2FDF91CF911F91C1
:104BC000089560E279E082E499E0111102C087E380
:104BD00099E00E943B2FEACFCF92DF92EF92FF92B3
:104BE0000F931F93CF93DF9300D00F92CDB7DEB713
:104BF00089836B017A01BA010E94020E8A839B832A
:104C0000B60189810E94020E8C01B7016C0D7D1DD9
:104C10007695679589810E94020E0115110539F17B
:104C20000F3F100731F12A813B812115310519F120
:104C30002F3F320711F10217130708F59C012A5084
:104C4000310902171307E8F40A962A813B8182177B
:104C50009307C8F480E00F900F900F90DF91CF91F1
:104C60001F910F91FF90EF90DF90CF90089581E01A
:104C7000F2CF82E0F0CF83E0EECF84E0ECCF85E0AE
:104C8000EACF86E0E8CF87E0E6CF40911603509167
:104C9000170360911403709115038FE00E94EC25B7
:104CA00081110BC0409116035091170360911403BA
:104CB0007091150382E00C94EC25865F0895409175
:104CC0001A0350911B03609118037091190380E13E
:104CD0000E94EC2581110BC040911A0350911B03D7
:104CE000609118037091190383E00C94EC25865FA2
:104CF0000895CF93DF930E947613D82F811571F01A
:104D000048E759E668EE73E080E00E94EC258115E3
:104D100051F0682F88E199E00E94F72FD0E08D2FA5
:104D2000DF91CF9108950E944526811521F0682FCB
:104D30008FE099E0F1CF0E945F26C9E0811521F054
:104D4000682F83E099E0E8CF40EA5FE068EE73E027
:104D50008C2F0E94EC258111DCCFCF5FCF30A1F7E3
:104D6000DECF0C947926CF93C1E0809142039091DD
:104D70004303892B09F4C0E01092420310924303CD
:104D80000E94BE3980E292E00E947D2B0E94B126F3
:104D90000E94DA39C0934203109243031092080331
:104DA000CF910895EF92FF920F931F93CF93DF93CC
:104DB000CDB7DEB729970FB6F894DEBF0FBECDBFD3
:104DC0006E837F8348875987122F60E070E00E94CE
:104DD000CB29111107C080912A0390912B03892BB5
:104DE00009F479C08FEF9FE70E94C12981E00E94FA
:104DF000532B082F87FD77C00E94E8297C0181FF93
:104E00006DC0102F110F110BEE81FF81E00FF11F0C
:104E100084918D830E94730E811541F30E94670D6A
:104E200010920503109260000E94B82B811509F4BE
:104E30004CC0E885F985E00FF11FF49084E00E94F2
:104E4000AF338D810E942F0C8C010E94E4398F2D8D
:104E50000E94260C89839A830B831C83AE014F5FCB
:104E60005F4F60910B048F2D0E94810CE7FE2AC0DA
:104E700081E0809305030E94670D0E94E43980E081
:104E80000E94260C89839A8381E00E94260C298146
:104E90003A81281B390B29833A8383E10E942F0C26
:104EA0008B839C83AE014F5F5F4F60910B0480E06A
:104EB0000E94810CAE014F5F5F4F60910B0481E057
:104EC0000E94810C81E00E94C71281E0809305035B
:104ED000809360008BCF8BEF9FE786CF82FF86CFDA
:104EE0000E94B82B83CF29960FB6F894DEBF0FBE71
:104EF000CDBFDF91CF911F910F91FF90EF9008955B
:104F000081E080930B0410920C040E94C20F81E098
:104F10000E94BB25811549F020E045E453E06CE494
:104F200073E08BEA92E00E94D2260C947E0D81E021
:104F300080930B0410920C0480E00E94C20F109228
:104F4000620020E041E752E0BA0183E792E00E946C
:104F5000D22681E0809362000C947E0DCF93C1E055
:104F60008091420390914303892B09F4C0E0109291
:104F70000B0410920C040E94DA3981E08093420302
:104F80001092430380E00E94C20F21E048E352E008
:104F9000BA0189E392E00E94D2260E947E0DC0935E
:104FA000420310924303CF910C94BE39CF93DF9309
:104FB00000D000D0CDB7DEB7482F60911204CE01EB
:104FC00001960E94660C67E08B819C810E942638C6
:104FD0000F900F900F900F90DF91CF9108950E9446
:104FE000F30C67E00E942638809111040E94260C81
:104FF00066E00C941D3820911104223011F40C94B9
:1050000041240C94611D40910D0450910E04609157
:10501000110420910F0430911004623061F5493E73
:105020005D4F30F048EE5DEF40930D0450930E0459
:105030002D30374130F02CE037E120930F043093CE
:1050400010048D50944031F480910D0490910E0421
:105050000E94FB2782E10E94730E81111AC06EE24A
:1050600079E082E499E00E943B2F80911104833023
:1050700081F40C94A11D4130504428F050E410926A
:105080000D0450930E04213D3740D8F220ED37E057
:10509000D4CF0895BF92CF92DF92EF92FF920F93F9
:1050A0001F93CF93DF93CDB7DEB72C970FB6F8944D
:1050B000DEBF0FBECDBF10E07E0185E0E80EF11C23
:1050C0006E019FEFC91AD90A82E00E94BD2A86EDBF
:1050D00097E280931D0490931E041093230480E0B4
:1050E0000E94532B182F87FD93C081E00E94C20FAE
:1050F00080E00E94BB25811509F487C0412F609193
:105100001204C7010E94660C412F60911104C60170
:105110000E94660C63E078E283E593E00E94CB296D
:105120008F81988580930F049093100400E0E986A6
:10513000FA86CB86DC868D819E8180930D049093C8
:105140000E0481E00E94532B81150CF44BC0E1F555
:1051500080911104823091F50E94842488E799E6B9
:105160000E941A0780910D0490910E040E94FB2763
:105170000E94B82B8115B9F0082F0E94670D80910D
:105180000F04909110048F83988720910D04309123
:105190000E042D833E838B839C83809111040E9497
:1051A000260C89839A8380E090E00E94FB278091FF
:1051B0001104823031F40E949B24BDCF0E948E1DC9
:1051C000D1CF0E94A11DB7CF823009F0B4CF0E9489
:1051D000B82B8111B0CF8F81988580930F04909365
:1051E0001004A9CF011589F049855A85612F809156
:1051F00012040E94810C4B855C85612F8091110403
:105200000E94810C81E00E94C7120E947E0D5CCF3B
:105210002C960FB6F894DEBF0FBECDBFDF91CF91B5
:105220001F910F91FF90EF90DF90CF90BF90089566
:105230008FE08093120482E0809311040C944A283A
:1052400080E18093120483E0809311040C944A2837
:10525000A82F609113047091140440911704509189
:10526000180480E090E0FB012EE0929FE00DF11D1C
:1052700011243296259135912115310579F01CF4D0
:1052800057FF09C0305824233523232B21F0A115C3
:1052900021F0A1508F5F9F5FE6CF892F08950F9374
:1052A0001F93CF93DF9300D0CDB7DEB78A830E94E0
:1052B00028293EE0839F80011124E0911304F0919E
:1052C0001404E00FF11F859195910E941036898397
:1052D0000E948933811123C06FE08981681BE091AE
:1052E0001304F0911404E00FF11F35969491998303
:1052F000911531F0862F9981891B0E944E36698164
:105300008091130490911404800F911F04960F90C4
:105310000F90DF91CF911F910F910C94EA32209161
:1053200067043A81832F90E0022E001C00082817A2
:10533000090691F60F900F90DF91CF911F910F9179
:1053400008950E942829E0911304F09114049F010C
:105350004EE0849F200D311D1124C901F9013696BC
:1053600025913591FC01349684918150823010F062
:10537000C9010895F9014591559165917591CB0148
:10538000089580931704909318048FEF0E942829A2
:1053900080932104089580931304909314046093E0
:1053A00015047093160480E00E94BD2A8FE499E2F0
:1053B00080931D0490931E0487EF99E280931B0451
:1053C00090931C048FEF809367049FE70C94C1298E
:1053D0000E942829E0911304F09114049EE0899F13
:1053E000E00DF11D112432968591959108958F92CB
:1053F0009F92AF92BF92CF92DF92EF92FF920F9364
:105400001F93CF93DF93CDB7DEB72C970FB6F894E9
:10541000DEBF0FBECDBF182FB62E0E94A1297C0182
:10542000812F0E942829E0911304F09114049EE03A
:10543000899FE00DF11D1124389646E050E0DE0111
:1054400017960E94FF3B86E0FE013796DE0111961B
:1054500001900D928A95E1F786E0FE013196DE011A
:10546000179601900D928A95E1F70F811885C984EE
:10547000DA849B848C84E2E0BE1651F191E0A92E7F
:10548000B12C0E3FFFE71F0739F134F1292D382DDC
:10549000A601B501C7010E946E15E0911504F091B7
:1054A0001604309709F448C0C7012C960FB6F8943B
:1054B000DEBF0FBECDBFDF91CF911F910F91FF9047
:1054C000EF90DF90CF90BF90AF909F908F90099416
:1054D0008FEFB82EAB2CD5CF21F4C501F60109957D
:1054E000DCCF0C3FFFE71F07B9F4F7018081918102
:1054F0008A0D9B1D292D382D2817390744F09C0152
:10550000F7012C153D052CF080839183C6CFC9018E
:10551000F7CFC082D182C1CF0D3FFFE71F0721F433
:105520000E941C35082F10E0292D382DA601B50149
:10553000C7010E942415B1CF2C960FB6F894DEBF98
:105540000FBECDBFDF91CF911F910F91FF90EF90D4
:10555000DF90CF90BF90AF909F908F90089524E000
:10556000829FC0011124E0911904F0911A04E80F00
:10557000F91F859195910C94103610922304109286
:1055800022048093210481E08093200480931F04EF
:1055900008954091190450911A0480E094E0899F85
:1055A000F0011124E40FF51F25913591232B09F407
:1055B00008958F5FF3CF809123048F5F809323043E
:1055C000089580912304811519F08150809323045C
:1055D00008958091230490912104891720F08FEF82
:1055E000890F8093230420912204821718F480935A
:1055F0002204282F30E02F5F3F4F281731051CF47D
:105600008150809322040895CF930E94E92AC0918B
:10561000220420912204822F90E001968C1791059C
:1056200024F410922004CF9108956C2F621B80E027
:105630000E94AB35809123048C1311C08EE30E942D
:10564000B73580912104C81730F4E0911D04F09122
:105650001E048C2F09950E945536CF5FDACF80E269
:10566000EECFCF930E942335C82F0E947E3981153B
:1056700039F081E080932004CFE78C2FCF910895FB
:10568000C23071F0C43029F40E94DB2A81E080939B
:10569000200480912004811581F30E94042BEDCF1A
:1056A0000E94E12AF3CFCF93DF930F92CDB7DEB7FD
:1056B000898381E0809320040E94312B811102C0F4
:1056C00010921F0490911F0491110BC0883049F46F
:1056D00081E080931F04809123040F90DF91CF918C
:1056E00008952981211519F021E0209320048130AB
:1056F00019F79111E1CF8FEFF0CF0F931F93CF9355
:10570000DF9300D00F92CDB7DEB789839A831B82D7
:105710000FEA1AE289819A818093190490931A04FE
:105720000E94C92A0E94BD2A00931D0410931E04E2
:105730009B819093230480E00E94532B8B8387FDF1
:105740000EC094E089029001112480911904909177
:105750001A04820F931F02960E94D914DBCF8B810B
:105760000F900F900F90DF91CF911F910F9108959F
:10577000CF93DF9380912304809367041092660493
:1057800081E080932004C1E0D2E00E942335682F9D
:10579000823011F08430C1F4E0911B04F0911C04BC
:1057A0008091230409958091230480936704D0930A
:1057B0006604C09320040E9495338115B9F0C0930C
:1057C00020040E94042B16C0813011F0883099F714
:1057D0008FEF8093670481E080931F0480932004FF
:1057E000683009F080E0DF91CF9108958091200426
:1057F0008111E7CF809166048F5F80936604C5CFE7
:105800000C9481138BE893E00C947D2B0F931F93E2
:10581000CF93DF9300D0CDB7DEB789839A830E9400
:10582000761601E010E09C01A80169817A8182E38B
:1058300093E00E9424150F900F90DF91CF911F915C
:105840000F910895CF93DF9380912E0390912F03B2
:10585000C0E0D0E4892B11F10E941016C1E0D0E025
:1058600002C0CC0FDD1F8A95E2F780914203909130
:105870004303892BB9F4D05C0E941016811107C034
:1058800080914C0390914D03892B09F0DE5F80914C
:105890002A0390912B03892B09F0D058CE01DF9178
:1058A000CF9108950E941016811511F0DF5BE4CFAF
:1058B000DB5BE2CF23E08E32920741F40E948A172D
:1058C0000E9493160E94222C0C94C12923E080335D
:1058D000920719F40E946517F3CF23E084339207EF
:1058E00019F40E944717ECCF8653934049F70E9462
:1058F0005617E6CFCF93DF93CDB7DEB7A8970FB695
:10590000F894DEBF0FBECDBF6AE57CE28BE993E081
:105910000E94CB290E94222C0E94C12980E00E9473
:10592000532B87FD1DC088E2EEE2F3E0DE01119605
:1059300001900D928A95E1F70E94B82B81110AC05F
:1059400088E2FE013196AEE2B3E001900D928A95B5
:10595000E1F7E0CF84E00E94AF330E949316DACFE4
:10596000A8960FB6F894DEBF0FBECDBFDF91CF91E2
:105970000895E0912504F0912604E80FF11D64914B
:1059800089E195E00C942936CF93DF930F92CDB740
:10599000DEB789830E942A170E94101620912E03D9
:1059A00030912F03232B99F02AE335E0833089F0DF
:1059B00021E435E0823069F025E335E0811549F0D6
:1059C0002DE235E0853029F02FE235E002C02AE4EF
:1059D00035E0209325043093260480E0E82FE20F81
:1059E000F32FF11D8F5FE491E930C1F70E94BD2ACA
:1059F00089EB9CE280931D0490931E048091240403
:105A00008093230480E00E94532B90912304909371
:105A1000240487FD12C0E0912504F0912604E90FCB
:105A2000F11D8491893031F40E947A2C89810E9481
:105A30003817B2CF0E943114AFCF0F90DF91CF91C2
:105A400008958091240390912503892B19F08FEFFD
:105A50009FE708958DEF9FE708950E94212D0E94F2
:105A6000C1290C94A314CF93DF93CDB7DEB7A497CD
:105A70000FB6F894DEBF0FBECDBF6DE27DE28BE4C2
:105A800095E00E94CB290E94212D0E94C12980E02F
:105A90000E94532B87FD2BC00E94A129892B41F422
:105AA0008AE093E00E94911484E00E94AF33EBCF30
:105AB00084E2EAE0F3E0DE01119601900D928A950E
:105AC000E1F70E94B82B81110EC084E2FE013196ED
:105AD000AAE0B3E001900D928A95E1F78AE093E0A5
