:100000000C9438060C9460060C9460060C94600600
:100010000C9478090C9460060C9460060C946006AD
:100020000C9460060C94C8090C94A8090C94AA09B5
:100030000C9460060C94480A0C94800A0C94600698
:100040000C9454090C9460060C9460060C946006A1
:100050000C946006000000000067582F00000000AC
:10006000F567E630C80232002F2CE8031009320091
:10007000802F2C01000000000000000000000000A4
:1000800000000000000000002ECA7E3BFC16E808BD
:10009000000000000000000043BFA80E00000000A8
:1000A00080D566100000000080D0841F0000000092
:1000B00031D5611000000000C0D6651000000000BE
:1000C00080D465100000000080D46510C6023200A4
:1000D0002E2CE80304013200D2052C010006080092
:1000E000FF01010A01060900FF03020002060A00DF
:1000F000FF00000A06060E00FF03020005060D00C1
:10010000FF02030004060C00FF03020003060B00BD
:10011000FF04060007060700FF0302008025000019
:10012000004B00000096000000E1000000C201004A
:100130004600030088137017010032008813320054
:10014000E8038813F40110270000000003000000FA
:100150000000010004000001020202020203040583
:10016000410B370B320B2D0B280B230B1E0B190BDE
:10017000140B0F0B3C0B0B0B0100010001000100E5
:100180000100B0040807520300005203B00408073E
:10019000E8030000E803D0079209D60600006C07C8
:1001A000E40C100EC409E40CB80B100E0410C409C2
:1001B000A60EAC0D740E6810B80B0A0F890C740EE5
:1001C000CC10B80B0A0F890C740EFE10B80B0A0F76
:1001D000890C40066C071405400678050100A00F45
:1001E000D007010001000100A00F01000100010083
:1001F000021A3B1A841B2E1C391C441C301D2C1D5A
:10020000601D141E201E251EC31EC01ECA1EEF1E0A
:10021000F61E191F6F2146214C210024391C02248F
:100220005D0922285409BA294809C2293C095028E5
:100230002D0939280000000007DB08020044003BBC
:1002400002FD7F00001027D608010049008502004A
:100250000000000000F308040049000B0401000046
:10026000000100000000000000000000000000008D
:100270000008090A0001CE08020041003D02FD7F8E
:1002800000001027C608020041003F02FD7F000069
:100290001027BE08020041004102FD7F0000102728
:1002A000B708020041002D02FD7F00007869AF0809
:1002B000020041002F02FD7F00007869F30804006E
:1002C00049000B04010000000100000000000000D4
:1002D000000000000000000028090200410039026F
:1002E000FD7F000030752309820041006B02FD7F15
:1002F000000088131E09820041006D02FD7F00008E
:1003000088131909820041006F02FD7F00008813E5
:100310001409820041007102FD7F000088130F095B
:10032000820041007302FD7F000088130A098200E9
:1003300041007502FD7F000088130409010041009F
:100340005302000000000000FE08010041005102BD
:10035000000000000000F308040049000B04010045
:10036000000001000000000000000000000000008C
:10037000000006090A0B0C0D0E061F202122232463
:10038000EC08FF7F49000D04FD7F0000FFFFE90836
:10039000FF7F03009128000000000000E108FF7FBC
:1003A00040000F04FD7F0000FFFF00000000000080
:1003B00000000000000000005E0BD52D540B072745
:1003C000460BA22C00000000420AFF7F02004205FB
:1003D000010000000B003F0A0F0003000232FE7F05
:1003E000A82C00003B0A0E8041003803FD7F00006E
:1003F00088133B0A1000410038033200000078697E
:100400002E0A018041003803FD7FB004D0072E0A78
:10041000200041003803FF7F01007869370A04801B
:1004200041004C03FD7F00008813330A0F80410018
:100430003A03FD7F00008813330A100041003A039D
:10044000320000007869290A1F0045003003FF7F51
:100450006400E8FD250A3F0040003403FF7F0100EF
:1004600088131E0A1E8040003C03FF7F0100881392
:100470001A0A1F0040003603FF7F0100E803130A39
:100480001F8040003E03FF7F0100E803090A0C8043
:1004900048004E0301000300C800000A01004D009F
:1004A0004C03010000000100FB09000248004E035C
:1004B000FC7FECFF0000EF0900024B00500301003D
:1004C00001001E00E6091F004D004203010000006C
:1004D0000100DE0900044A0652030A000A008403F0
:1004E000D20900014403440364005802AC26CC093D
:1004F0003F004C004003FF7F0000E803C2091F00DB
:1005000047004A0301000100FA00B6090300490050
:100510005403010000000500AC091F804B00480394
:10052000010001006300A1091F804D004603010086
:1005300000000100000000000000000000000000BA
:10054000000060012E03DA0BCB0BC30BB90BAD0B14
:10055000A50B960B8B0B7C0B6F0B0009000304079C
:100560000809000307080900010203040809000143
:100570000203040506080909050BFF7F4D0012035D
:10058000010000000100FD0AFF7F40001403FD7F11
:100590000100F401F50AFF7F40001603FF7F010010
:1005A0008813DD0AFF7F42001C03FF7F0A008813C7
:1005B000ED0AFF7F40001803FD7F0100F401E50A0A
:1005C000FF7F40001A03FF7F0100E803D50AFF7F89
:1005D00042001E03FF7F0A00F401CA0AFF7F4100A8
:1005E00020036400581B3075BF0AFF7F4D002203B3
:1005F000010000000100B90AFF7F0200740601003B
:1006000000000400B10A02000100700601000000B1
:100610000400A80A020002006806010000000100B0
:10062000A10AFF7F02006006010000000100980A95
:10063000FF7F02005806010000000100920AFF7FC0
:1006400000000000000000000000000000000000AA
:1006500000000000000000005C062C03770A4B0A33
:1006600064062A03580A4F0A6C0628038D0A870A73
:100670001C012603780624037E0A770A710A680A99
:100680005F0A20202D2D202000636865616C692D94
:10069000636861726765720A76332E305F3230327A
:1006A00036303531360063616C69622E20657272B6
:1006B0006F7200706C656173652063616C69627252
:1006C00061746500656570726F6D20726573657425
:1006D0000A6572726F723A2000726573657474698C
:1006E0006E6720656570726F6D00202020202020CD
:1006F00020202020202079657300656570726F6D61
:100700002072657365743A00524556455253452030
:10071000504F4C4152495459006572726F723A0001
:10072000636F6D706C6574653A004F320000004075
:10073000000000004A330040000000000040143177
:10074000FFFFFF7F04000040B13280010000000085
:100750000040A3310002000008000040AF31000259
:10076000000008000040C33100020000000000400B
:10077000CB31FFFFFF7F04000040FB2E0000006034
:1007800000000000FF2E0000006000000000032FAA
:100790000000002004000040072F0000002004009B
:1007A00000406531FFFFFF7F040000404731FFFF3D
:1007B000FF7F000000409F31FFFFFF7F000000002F
:1007C0002831FFFFFF7F040000008331FFFFFF7F20
:1007D000000000000000FFFFFF7F00000000250078
:1007E00064542F64743D200064563D202020006D29
:1007F0006178563D00206C696D69743D0056696EE4
:100800007075743D00776972657320523D006261B6
:1008100074742E20523D004C696D6974733A200047
:100820004E2F4100546578743D004E2F4100252025
:100830000043684342426C44694643537453424305
:1008400059434300010101020A1E010318478E01AA
:10085000190C03010101E803016C0CE803006A0CA8
:10086000640000680C640000650C640000630CE820
:100870000301600CE803015E0C0100005C0CE8035E
:10088000016A0C010000550C640000580C010000C6
:10089000560C010000560C0100000000010000533E
:1008A0000C141719181A0705061F20212223245695
:1008B0006D696E75733A0056706C75733A005662C6
:1008C0003270696E3A0056623170696E3A00566253
:1008D0003070696E3A006164633A0074656D703A15
:1008E000004965787065633A00493A0076616C7535
:1008F000653A0063616C69622E20702E3A00566F73
:1009000075743A0056312D363A005662363A005622
:1009100062353A005662343A005662333A00566203
:10092000323A005662313A0056696E3A0065787084
:100930006572742044414E474552210074656D70C4
:100940002065787465726E0049206469736368611C
:1009500072676500492063686172676500766F6C35
:10096000746167650062616C616E636520706F72AF
:100970007421006261747465727921006469736323
:100980006F6E6E65637400636F6E6E656374006492
:10099000542F6474002D64560056206C696D697480
:1009A000006164617074206469733A00442F4320CD
:1009B000726573743A00442F43206379636C6573E6
:1009C0003A0063617020434F66663A0074696D6552
:1009D0003A007C657874726E2054434F3A007C6410
:1009E000542F64743A00657874726E20543A007C17
:1009F00069676E7220667273743A007C64563A00BE
:100A0000656E61622064563A0062616C2E206572E8
:100A1000723A006D696E49643A0049643A006D6942
:100A20006E49633A0049633A004361703A00566385
:100A30006F3A0056643A0056733A0056633A0056CD
:100A40003A00626174746572793A00726576006189
:100A50006476616E6365640073696D706C650065D2
:100A600078742E20416463006578742E206465627A
:100A7000006465627567006E6F726D616C00646919
:100A80007361626C65640073657061720074656D9A
:100A90007000726573657400627574746F6E733A7A
:100AA000006D656E75733A007C6F75747075743A7D
:100AB000007C73706565643A00554152543A006198
:100AC0006463206E6F6973653A00696E7075742097
:100AD0006C6F773A006D61782050643A006D6178F0
:100AE0002050633A006D61782049643A006D696E68
:100AF0002049643A006D61782049633A006D696E5F
:100B00002049633A00626565703A004C4544004EE6
:100B1000695A6E004C343335004C343330004C6924
:100B2000706F004C696C6F004C6966650050622004
:100B300020004E694D48004E69436400556E6B6E4F
:100B4000004E6F6E65007265736574206465666142
:100B5000756C740063616C696272617465007365C1
:100B60007474696E6773006F7074696F6E7300657B
:100B70006469742062617474657279006361706184
:100B80006369747920636865636B00443E43206643
:100B90006F726D61740073746F726167652B62614F
:100BA0006C616E630073746F726167650066617378
:100BB0007420636861726765006469736368617259
:100BC00067650062616C616E63650063686172678E
:100BD000652B62616C616E63650063686172676555
:100BE000006578742E74656D702E6375746F66661B
:100BF0000074696D65206C696D6974006361706172
:100C000063697479206375746F666600696E7075C8
:100C100074205620746F206C6F77004857206661EF
:100C2000696C7572650062616C616E6365722064E7
:100C30006973632E006261747465727920646973EC
:100C4000632E006E6F6C696D697400206E6F0079A1
:100C50006573005500006D00432F6D002500F40002
:100C60004168004300576800570056004100AC0B34
:100C700011241FBECFE5D8E0DEBFCDBF10E0A0E657
:100C8000B0E0EEE0FAE702C005900D92A838B10797
:100C9000D9F724E0A8E8B0E001C01D92A638B20759
:100CA000E1F716E0C8E3D6E004C02197FE010E94F8
:100CB0007F3CC733D107C9F70E949E120C94FC3CBD
:100CC0000C94000086B396B336B321E0422F32FD78
:100CD0004227522F91FD5227952F990F40FD946086
:100CE00080958170892B9927B3999395922790FDD0
:100CF00088600895811107C0A698A798D59888980C
:100D00008A988F980895A69AA79AD59A889A8A9AC7
:100D10008F9A08950E94123A40E062E080E10E94BA
:100D2000CA390E94C4090E94310A0E940A0888E751
:100D300099E60C943C07811106C0939A0E946607BD
:100D400080E00C945D079398089580FF11C0AE9ADF
:100D500081FF10C0AF9A82FF0FC0DD9A83FF0EC0E3
:100D6000909A84FF0DC0929A85FF0CC0979A0895BF
:100D7000AE98EECFAF98EFCFDD98F0CF9098F1CF4F
:100D80009298F2CF9798089580E00E94A50680E09F
:100D90000E949B0680E00E94B10987B18F7387B9DA
:100DA0008B9A8D9AD79ABC9A8C9A8D9A8E9A08951E
:100DB0002FB7F89480918D0090918E00A0918F00B4
:100DC000B09190002FBF892F9A2F08952FB7F894D4
:100DD00010929400109293008617970728F580E0F0
:100DE00090E4A0E0B0E080938D0090938E00A093FB
:100DF0008F00B093900080918D0090918E00A09113
:100E00008F00B0919000BA2FA92F982F80E0809387
:100E10008D0090938E00A0938F00B093900081E09E
:100E200080938C002FBF089510928D0010928E0039
:100E300010928F0010929000DECFCF93DF93EC01E1
:100E4000C13080E6D80770F4C13080E4D80760F480
:100E50008EE00E943D0A9598BE018DE0DF91CF9112
:100E60000C941B0AC0E0D0E68DE00E943D0A949AE3
:100E7000BE0170548EE0F2CF893729E6920710F058
:100E800088E799E6BC0180E00E94320E813C2FEF9A
:100E9000920710F080EC9FEF2FB7F8949093920098
:100EA000809391002FBF08959C019FB7F8943093D1
:100EB0009400209393009FBF0895811102C0DF9A90
:100EC000089580E00E946607DF980895CF93DF932E
:100ED000C82F811519F080E00E945D07DFB7F894F4
:100EE0008DE00E943D0A94988EE00E943D0A9598FC
:100EF00010928C00DFBFC11104C0969ADF91CF9190
:100F00000895969880E00E945F0CEC0186E00E94B4
:100F10005F0CBE01DF91CF910C94E60680918C00AE
:100F2000811509F472C080E00E94680C2091910044
:100F3000309192008217930748F080E00E94660784
:100F400010928C0081E08093A903089582E00E94B2
:100F5000680C9C01409193005091940060E070E017
:100F600080918D0090918E00A0918F00B0919000A3
:100F7000421B530B6109710932E0440F551F661F74
:100F8000771F3A95D1F7840F951FA61FB71F80933F
:100F90008D0090938E00A0938F00B093900080916D
:100FA0008D0090918E00A0918F00B0919000B7FFBE
:100FB00008C010928D0010928E0010928F00109237
:100FC000900080918D0090918E00A0918F00B09143
:100FD00090000197A046B10560F080E090E0A0E6A7
:100FE000B0E080938D0090938E00A0938F00B0931B
:100FF000900080918D0090918E00A0918F00B09113
:101000009000892F9A2F0C941D070895BC018EE043
:101010000C941B0ADE98D698BD9ABE9ABF9A8EEAA7
:1010200086B9369A0895CF930E9474249093B8029B
:101030008093B7020E94961D9093BA028093B902E2
:1010400080919700811509F457C00E947424409143
:10105000F7025091F8026091F9027091FA02CEE025
:10106000C89F9001C99F300D1124420F531F611D6D
:10107000711D4093F7025093F8026093F902709348
:10108000FA020E94961D4091FB025091FC02609171
:10109000FD027091FE02C89F9001C99F300D11247E
:1010A000420F531F611D711D4093FB025093FC02C0
:1010B0006093FD027093FE028091FF029091000305
:1010C0000197B9F48091C3029091C402A091C50226
:1010D000B091C60222E0B695A795979587952A9577
:1010E000D1F78093C3029093C402A093C502B0933A
:1010F000C602CF910C94720FCF9108958091220374
:1011000090912303892BD1F080919B008115B1F040
:101110009091990021E001C0220F9A95EAF7409141
:10112000FF02509100034F703FB7F8949BB3292BF7
:101130002BBB840F8A95F1F79BBB3FBF089580912D
:1011400095008F5F803108F080E08093950040919A
:1011500098005091990060919A0070919B00409383
:101160009C0050939D0060939E0070939F00E1E06F
:10117000E80F8F3009F4E0E094E0E99FF0011124DA
:10118000E452FF4F459155916591759140939800B8
:101190005093990060939A0070939B0020914203B2
:1011A00030914303232B29F4473019F496E09093B0
:1011B000980081110CC00E9413082091FF02309109
:1011C000000381E0232B09F480E0809397000895C9
:1011D00084B125B190919600923028F1922FE09140
:1011E0009E002FB7F894F0E0DF01AA0FBB1FA756AF
:1011F000BD4F12969E938E9330919700311591F0CA
:10120000EE0FFF1FEE0FFF1FE554FD4F4081518190
:1012100062817381480F591F611D711D4083518385
:10122000628373832FBF8091960091E0980F909313
:1012300096008B3041F120F4813038F081F0089530
:101240008C3039F18F3039F108958091980087FD05
:101250002AC088B38F71806C88BBD69A089580911C
:10126000980087FD20C03FB7F8949AB39F7B28B3BE
:10127000809198008295880F807E2F71822B88BB89
:101280009ABB3FBF089580919E00823061F40C9418
:101290008E070C947E0880919900806287B9109225
:1012A00096000C949F0808951F920F920FB60F920C
:1012B00011242F933F934F935F936F937F938F935B
:1012C0009F93AF93BF93EF93FF930E94E808FF9122
:1012D000EF91BF91AF919F918F917F916F915F91AE
:1012E0004F913F912F910F900FBE0F901F90189527
:1012F0001F920F920FB60F9211242F933F934F938B
:101300005F936F937F938F939F93AF93BF93EF936D
:10131000FF930E943E35FF91EF91BF91AF919F9156
:101320008F917F916F915F914F913F912F910F908E
:101330000FBE0F901F90189588E085BD85B584601D
:1013400085BD14BC8CE783BD89B7806889BF0895CB
:10135000C49A18958F93C4988091A00082BF8F91F2
:101360001895811104C013BE12BEC49808958695C5
:1013700098E7980F9093A00090E0959587958454F6
:101380008CBF8CE483BF089589B7836089BF0895BB
:101390001F921FB61F9211242F933F938F939F93F9
:1013A0002091A7003091A8008091A3009091A40003
:1013B000820F931F8093A3009093A4002091A50017
:1013C0003091A6008091A1009091A200820F931FFE
:1013D0008093A1009093A2002FB7F8948091A3006E
:1013E0009091A40035E0969587953A95E1F79BBDDD
:1013F0008ABD8091A1009091A20035E096958795D5
:101400003A95E1F799BD88BD2FBF8091A3008F71F8
:101410008093A3001092A4008091A1008F7180930B
:10142000A1001092A2009F918F913F912F911F9048
:101430001FBE1F9018959FB7F8948E3049F4709393
:10144000A8006093A7008FB580688FBD9FBF0895E7
:101450008D30E1F77093A6006093A5008FB5806290
:10146000F4CF80E092E097BD86BD82E08FBD89E138
:101470008EBD89B7846089BF08958E3021F48FB501
:101480008F778FBD08958D30E9F78FB58F7DF9CFB8
:101490001F921FB61F9211242F933F934F936F9368
:1014A0007F938F939F93EF93FF935A9927C04CB1EB
:1014B0008091BF019091C0018395282F30E0609109
:1014C000C1017091C2018617170659F0E091BF0162
:1014D000F091C001E154FF4F40833093C00120934D
:1014E000BF01FF91EF919F918F917F916F914F91EC
:1014F0003F912F911F901FBE1F9018958CB1F1CF77
:101500002F932FB72F933F938F939F93EF93FF9337
:101510002091BF013091C0018091C1019091C20121
:101520002817390751F45598FF91EF919F918F91AA
:101530003F912F912FBF2F911895E091C101F0910C
:10154000C201E154FF4F20818091C1019091C201FD
:10155000839590E09093C2018093C1012CB9E4CFB0
:10156000CF92DF92EF92FF92CF93DF93EC016A016B
:101570007B01E885F985C11461EED606E104F1042A
:10158000F9F02C8981E001C0880F2A95EAF7808361
:1015900060E079E08DE390E09A01A7010E943E3C73
:1015A000215031094109510956954795379527959D
:1015B00061E0C9013031B8F06115A9F0E885F9851D
:1015C000108260E874E88EE190E09601A7010E9425
:1015D0003E3C2150310941095109569547953795AF
:1015E000279560E0E6CFEC81FD819083EE81FF815D
:1015F00020831D8AEA85FB852081498981E090E06E
:10160000BC0101C0660F4A95EAF7262B2083EA85C4
:10161000FB8520814A89BC0101C0660F4A95EAF723
:10162000262B2083EA85FB8520813B8901C0880F1A
:101630003A95EAF7809582238083DF91CF91FF90DE
:10164000EF90DF90CF900895CF93DF93FC01A281BC
:10165000B381AD015F5FAE5FBE4FEA012881398182
:101660008D919D91129728173907B9F7A285B385F7
:101670004C91818921E030E0B90101C0660F8A9563
:10168000EAF7862F809584238C93A285B3854C91AD
:101690008289E90101C0CC0F8A95EAF78C2F8095E9
:1016A00084238C93A285B3858C91938901C0220FEA
:1016B0009A95EAF7209528232C9380819181FC014B
:1016C000EE5FFE4F2081318132932293DF91CF91E3
:1016D0000895FC018589811529F0A085B1858C913B
:1016E00086FFFBCF158A0895CF93DF93FC012281FB
:1016F0003381D901BF5F8D919D911297839590E0C1
:10170000E901CE5FDE4F4881598148175907D9F367
:101710004D915D91240F351FD9016C93A281B38146
:10172000AE5FBE4F9E938E93A285B3858C919389B5
:1017300021E001C0220F9A95EAF7822B8C9381E079
:10174000858B0084F185E02D80818064808381E039
:1017500090E0DF91CF9108958FEB90E08093A90006
:101760009093AA008093AB009093AC0080E48093A8
:10177000AD001092AE0029E22093AF001092B000AD
:101780002BE22093B1001092B2002AE22093B30022
:101790001092B4008093B5001092B6008CE2809352
:1017A000B7001092B80084E08093B90083E0809382
:1017B000BA0087E08093BB0085E08093BC0081E0A5
:1017C0008093BD000895CF93DF930F92CDB7DEB71E
:1017D000E0918A00F0918B00309711F4E6E8F4E094
:1017E000CE0101962EEB8E179F0720F40F90DF910C
:1017F000CF9108952193F7CFCF93DF9300D0CDB74A
:10180000DEB7CE01019620918A0030918B00211520
:10181000310511F426E834E0821B930B0F900F90F2
:10182000DF91CF910895CF93DF930F92CDB7DEB7BD
:10183000E0918A00F0918B00309711F4E6E8F4E033
:1018400080E090E09E012F5F3F4F2E173F0730F062
:1018500040814E3B19F401963196F7CF0F90DF91FE
:10186000CF910895009709F408950197EFE9FFE0FB
:101870003197F1F700C00000F5CF8436910560F094
:1018800064E670E00E942A3CCB010C94320C019774
:1018900025E32A95F1F700000097C9F708956AE05B
:1018A00070E00E942A3CCB010C943D0CE82FF0E044
:1018B000EE0FFF1FE958FD4F808191810895E82FB9
:1018C000F0E0EE0FFF1FE35DFD4F808191810895F1
:1018D0002FB7F894E82FF0E0EE0FFF1FE756FD4F0B
:1018E000808191812FBF0895809105030895809193
:1018F000E1019091E20108958091CF019091D00192
:1019000008958091D1019091D20108958093CC01E6
:101910000895E82FF0E0EE0FFF1FED51FE4F80819C
:101920009181089581E0809303030895613110F45B
:10193000423038F021E0FC0122831382208311829F
:10194000089550E09A01260F311D260F311DB9016F
:10195000660F771F660F771F625F7F4F44E00C941E
:10196000B73C9A01813190F4623080F470E0680FE6
:10197000711D680F711D660F771F660F771F625FFD
:101980007F4F44E050E0C9010C94D53C0895EF929C
:10199000FF921F93CF93DF9300D000D0CDB7DEB777
:1019A00084E5E82E80E0F82E10E0F701859195910E
:1019B000A591B59189839A83AB83BC83AE014F5FB8
:1019C0005F4F60E0812F0E94B10CF7013496859142
:1019D0009591A591B59189839A83AB83BC83AE0120
:1019E0004F5F5F4F61E0812F0E94B10C1F5F88E065
:1019F000E80EF11C1131C9F681E00E941B130F9013
:101A00000F900F900F90DF91CF911F91FF90EF906B
:101A1000089580910103909102030C944A1581E08E
:101A200020915702309158022331310509F080E0AE
:101A30000895809155029091560208958091510227
:101A400090915202089580915B0290915C020895FA
:101A500080910B0290910C02039750F0809111023B
:101A600090911202039720F083E090E00C94811A89
:101A700080E008952FB7F89480E090E0FC01EE0F2D
:101A8000FF1FEE0FFF1FE554FD4F108211821282DF
:101A9000138201968131910589F78AE390E0909352
:101AA00000038093FF02109204032FBF0895CF9389
:101AB000CFB7F8941092DF011092E0011092DB0191
:101AC0001092DC011092DD011092DE011092D7011C
:101AD0001092D8011092D9011092DA011092D3011C
:101AE0001092D4011092D5011092D6010E94663551
:101AF0008093CD019093CE01CFBFCF910895E3EEB7
:101B0000F1E08AE4DF011D928A95E9F70895CF9309
:101B1000CFB7F89481E090E0909300038093FF02A8
:101B2000809304030E947F0DCFBFCF910895CF9380
:101B3000DF930E94870DC091E101D091E201809175
:101B4000E1019091E2018C179D0719F0DF91CF918F
:101B500008958AE090E00E949B35F1CF1092050332
:101B600080E00C949B06CF93DF9381E00E94680C89
:101B7000EC0180E00E94680C8C179D0750F4C81B94
:101B8000D90B81E0C93ED34008F480E0DF91CF91CA
:101B90000895C0E0D0E0F5CFCF92DF92EF92FF92B0
:101BA0000F931F93CF93DF93CDB7DEB728970FB670
:101BB000F894DEBF0FBECDBF182F6B01672B89F4E1
:101BC00080E090E028960FB6F894DEBF0FBECDBF40
:101BD000DF91CF911F910F91FF90EF90DF90CF9009
:101BE000089540E0682FCE0105960E94960C41E0D2
:101BF000612FCE0101960E94960CED81FE81E98055
:101C0000FA80EE15FF05E1F26B817C8180E090E0C7
:101C10000F811885601B710B81099109960140E0C5
:101C200050E02E1B3F0B410951090E940E3C9701C9
:101C300040E050E02E1B3F0B410951090E94603CDF
:101C4000C901DA01800F911FA11DB11DA130B1059D
:101C50001CF08FEF9FEFB6CFB7FFB4CFA0E0B0E09E
:101C6000CD01B0CFCF92DF92EF92FF920F931F93EF
:101C7000CF93DF93CDB7DEB728970FB6F894DEBFCA
:101C80000FBECDBF182F6B01672B89F480E090E069
:101C900028960FB6F894DEBF0FBECDBFDF91CF916F
:101CA0001F910F91FF90EF90DF90CF90089540E04B
:101CB000682FCE0105960E94960C41E0612FCE015F
:101CC00001960E94960CEF81F885EB80FC80EE1562
:101CD000FF05E1F269817A8180E090E00D811E814B
:101CE000601B710B81099109960140E050E02E1BA9
:101CF0003F0B410951090E940E3C970140E050E022
:101D00002E1B3F0B410951090E94603CC901DA01B9
:101D1000800F911FA11DB11DA130B1051CF08FEFE7
:101D20009FEFB6CFB7FFB4CFA0E0B0E0CD01B0CF0A
:101D300082508C3130F4E82FF0E0E459FF4F80817D
:101D4000089581E00895CF93C82F833151F481E045
:101D500020915702309158022331310589F080E0FB
:101D60000FC00E94980E813069F4EC2FF0E0EE0F66
:101D7000FF1FE35DFD4F208131812139314078F330
:101D8000CF91089581E0FCCFEF92FF920F931F93C4
:101D9000CF93CFE191E0E92EF12C00E010E08C2F01
:101DA0000E94A30E90E09195819591098E219F212B
:101DB000082B192BEE0CFF1CCF5FC53281F7C80131
:101DC000CF911F910F91FF90EF900895CF93DF93E4
:101DD00000D00F92CDB7DEB76B83E82FF0E0EE0FA7
:101DE000FF1FE35DFD4F2081318129833A830E94EB
:101DF000980E482F6B8189819A810F900F900F90D8
:101E0000DF91CF910C94D1382FB7F8946091C8012D
:101E10007091C9018091CA019091CB012FBF20E040
:101E20003DE740E050E00E943E3CC90108952FB7D5
:101E3000F8946091C4017091C5018091C6019091A0
:101E4000C7012FBF969587957795679520E03DE769
:101E500040E050E00E943E3CC901089540915B0281
:101E600050915C028091C8019091C901A091CA0172
:101E7000B091CB01840F951FA11DB11D8093C801A6
:101E80009093C901A093CA01B093CB018091C30183
:101E9000815019F08093C301089582E38093C301B8
:101EA0002091510230915202DA010E94FF3B24E658
:101EB00030E040E050E00E943E3C8091C4019091AF
:101EC000C501A091C601B091C701820F931FA41F45
:101ED000B51F8093C4019093C501A093C601B09330
:101EE000C70108958091FF0290910003892B49F06A
:101EF0008091FF02909100030197909300038093DB
:101F0000FF02089590E0880F991FFC01E35DFD4FEB
:101F10002081318162177307B8F4261B370B2730F5
:101F20003105B8F4FC01ED51FE4F208131812F5F66
:101F30003F4FFC01ED51FE4F20833183835D9D4F68
:101F4000FC01608371830895AB01421B530B9A011E
:101F5000E6CF20E030E0EDCFCF93DF938FB7F8945A
:101F60001092C8011092C9011092CA011092CB01BF
:101F70001092C4011092C5011092C6011092C701BF
:101F800092E39093C3018FBFCDE2D2E06CA17DA11B
:101F90008CE10E94820F8E859F858093CF01909364
:101FA000D0010E94870D0E94570D1092D10110920E
:101FB000D20160E070E089E10E94820F60E070E091
:101FC0008BE10E94820F60E070E08DE1DF91CF91A4
:101FD0000C94820F1092E1011092E2010C94AC0F6C
:101FE0000C94EA0F9091050391110FC00E949B067B
:101FF0000E94EA0F81E080930503809360000E94B5
:10200000970D0E94AC0F109203030895CF92DF92B8
:10201000EF92FF920F931F93CF93DF93C0912D0206
:10202000D0912E0280912F02909130028C179D0743
:1020300008F0C0C0C81BD90BBE0182E10E94820F0C
:1020400020913D0230913E0280913F0290914002EA
:102050000091410210914202BC01621B730B2817D0
:10206000390710F060E070E08017910708F0A5C014
:10207000081B190B8FE10E94820FB80180E20E94B9
:10208000820F8DE2C82E82E0D82E93E4E92E92E0F2
:10209000F92E11E2F701619171917F01812F0E9468
:1020A000820F1F5F1532B1F780910303811106C0C3
:1020B0000E94C40E8093010390930203E0900103F9
:1020C000F090020380E090E08C0141E050E09A0142
:1020D000082E02C0220F331F0A94E2F72E213F215F
:1020E000232B29F0F60126AD37AD020F131F019601
:1020F000F2E0CF0ED11C8630910549F7B80183E19B
:102100000E94820F0115110509F45AC0CE01801BEF
:10211000910B0C171D0718F0C8018C1B9D0B893BF8
:102120009B4008F04DC0E80113E1BE0184E10E942C
:10213000820FB70186E10E94820F612F70E085E176
:102140000E94820F0E948A1D009133021091340276
:1021500081110AC00E94682400913102109132025C
:10216000811102C000E010E09801DE010E94FF3BF7
:1021700020E137E240E050E00E943E3CB90188E1B6
:102180000E94820FB80187E10E94820F0E94040F13
:10219000BC0189E10E94820F0E94170FBC018AE1F5
:1021A000DF91CF911F910F91FF90EF90DF90CF9033
:1021B0000C94820FC0E0D0E03FCF00E010E05ACF97
:1021C00012E1E12CF12CB1CF1F93CF93DF93182FA5
:1021D000C82FD0E084E0189FF0011124E554FD4F92
:1021E00060817181828193812CE233E040E050E094
:1021F0000E943E3CCC0FDD1FC958DD4F2883398338
:10220000B901812F0E94CC0DBC01812FDF91CF91AC
:102210001F910C94820FCF92DF92EF92FF920F9357
:102220001F93CF93DF93CDB7DEB72C970FB6F894FB
:10223000DEBF0FBECDBF0E9466352091CD0130912B
:10224000CE01821B930B8133954708F4B3C04FB77F
:10225000F8942091DF013091E001ACE2B3E00E94FC
:10226000FF3B6B017C01F694E794D794C79480916F
:10227000DB019091DC01A091DD01B091DE018D8345
:102280009E83AF83B8878091D7019091D801A091A8
:10229000D901B091DA0189839A83AB83BC838091A1
:1022A000D3019091D401A091D501B091D601898735
:1022B0009A87AB87BC874FBF0E94570D8091D10191
:1022C0009091D20101968093D1019093D2016981BE
:1022D0007A818B819C819601A7010E943E3C2983D3
:1022E0003A834B835C836D817E818F8198859601D3
:1022F000A7010E943E3CB90180E00E94CC0D8D8375
:102300009E8369817A8181E00E94CC0DAD81BE817E
:102310008A179B0708F04BC0A81BB90BA983BA8387
:10232000009165021091660229813A8120173107D8
:1023300020F48091CC01811105C069817A818CE102
:102340000E94820F69817A81601B710B8BE10E9470
:10235000820F69857A858B859C859601A7010E94ED
:102360003E3CB90187E00E94CC0D2091CF01309115
:10237000D0018093CF019093D001821B930BBC01BD
:10238000660F771F8DE10E94820FB6018EE12C96B9
:102390000FB6F894DEBF0FBECDBFDF91CF911F9176
:1023A0000F91FF90EF90DF90CF900C94820F1982E5
:1023B0001A82B6CF2C960FB6F894DEBF0FBECDBFF3
:1023C000DF91CF911F910F91FF90EF90DF90CF9011
:1023D0000895CF932FB7F8948091FF029091000356
:1023E0002FBF892B09F091C080910403811182C015
:1023F00080910503811509F480C08091E1019091DD
:10240000E20101968093E1019093E2014091BB02C9
:102410005091BC026091BD027091BE0276956795A5
:10242000579547958091DB019091DC01A091DD01EA
:10243000B091DE01840F951FA61FB71F8093DB01AB
:102440009093DC01A093DD01B093DE014091BF02C7
:102450005091C0026091C1027091C2027695679559
:10246000579547958091D7019091D801A091D901B6
:10247000B091DA01840F951FA61FB71F8093D70173
:102480009093D801A093D901B093DA014091D7027B
:102490005091D8026091D9027091DA0276956795D1
:1024A000579547958091D3019091D401A091D50182
:1024B000B091D601840F951FA61FB71F8093D3013B
:1024C0009093D401A093D501B093D6018091DF0100
:1024D0009091E00101968093DF019093E0010E94CA
:1024E0000B11C0E08C2F0E94E410CF5FC131D1F7F7
:1024F0000E940610CF910C943A0D809160008115D6
:10250000C9F385E00E94E410F5CFCF9108950C94B3
:10251000E9110E94C40678940E948A060E949C09D0
:102520000E9405250E940F1E0E94F00F0E94E30BDF
:102530000E94D2140E94C82F0C94AF300E948912BE
:102540000E94CA130E942C2E80E090E008950F9301
:102550001F93CF93DF9300D00F92CDB7DEB789835F
:102560009A838B0141110E94F63C84E08B83898120
:102570009A810E94CF3C8017910791F084E690E009
:102580000E947D358B8181508B838111F0CF81E05A
:102590000F900F900F90DF91CF911F910F910895A1
:1025A00080E0F6CFEF92FF920F931F93CF93DF93CC
:1025B0008C017C01E60EF71ECFEFDFEF0E151F0535
:1025C00041F4CE01DF91CF911F910F91FF90EF90D9
:1025D0000895C8010E94C73CC82788E09E0136952F
:1025E00027959C2FE90190FF04C091E0C92790EA4C
:1025F000D927815099F70F5F1F4FE0CF0F931F939B
:10260000CF93DF9300D00F92CDB7DEB78C016A83F2
:102610007B8349830E94D2124981BC018A819B81BC
:10262000800F911F0F900F900F90DF91CF911F910E
:102630000F910C94A712482F68E870E08EE090E0AC
:102640000C94FE12482F60E273E088E990E00C944D
:10265000FE12482F64E270E08AEB93E00C94FE12C5
:102660000F931F93CF93DF9300D00F92CDB7DEB7B8
:102670008B8381708983482F63E678E680E090E061
:102680000E94A712182F49816CE679E682E090E05B
:102690000E94A712182B498161E070E184E090E06C
:1026A0000E94A712182B498166E070E086E090E056
:1026B0000E94A71289838B8181FB442740F96AE03D
:1026C00070E088E090E00E94A7128A839B8192FBD1
:1026D000442740F963E070E08AE090E00E94A7128E
:1026E0008195082F04708A81880F082B9B8193FBAA
:1026F000442740F96CE070E08CE090E00E94A71263
:1027000081958870802B8A838981182B9A81912BDF
:1027100099838B8181FD0E94C70C80E00E941B136E
:10272000182F110F9981192B8B8182FD0E945C1843
:1027300080E00E94221381958470812B89839B8184
:1027400093FD0E94ED1480E00E942913819588700A
:102750009981892B0F900F900F90DF91CF911F914E
:102760000F910895CF93C82F0E946030C0FF04C01E
:10277000C260C460C86004C0C1FDFBCFC2FDFACF17
:102780000E9481308C2F0E943013682F8C2FCF91A4
:102790000C94853080E00E943013811521F00E9456
:1027A000B21380E0089581E0089580E00E94301324
:1027B00081600C94B213CF930E94BE2F82E092E00E
:1027C0008093800390938103C1E0C0937F031092B4
:1027D00078030E946416823011F4C09378030E943B
:1027E000ED1C982F81E0913009F080E0CF910895A1
:1027F00061E081E00E945F1C8EE092E080938003A4
:1028000090938103089561E081E00E945F1C8AE15A
:1028100092E08093800390938103089560E082E0CA
:102820000E945F1C8CEF91E0809380039093810362
:1028300008950E94E21D88EE93E00E94C31D82E38A
:1028400090E00E949B350E94F51D61E081E00E94AE
:102850005F1C86EF91E0809380039093810308953D
:10286000109278038930E8F4E82FF0E0E250F34C5E
:102870000C947F3C0E946416811102C00C940314D6
:102880000E946416853029F40C94191481E0809319
:1028900078030C94F81380EF91E080938003909379
:1028A000810308950C940E140E94F8138091340350
:1028B0009091350365E070E00E942A3C60937903B3
:1028C00070937A03089581E08093780384E192E025
:1028D000E4CF0E9414200C94AC0FCF93C82F0E9419
:1028E00069148C2F0E943014C73039F063E081E006
:1028F000C83041F0CF910C94ED1C60915403660FE9
:10290000615080E0CF910C94CA18CF93DF930F925F
:10291000CDB7DEB789830E940527811581F18981B2
:10292000809309030E94301410920603109207034B
:1029300083E0809308030E94603A81E00E94F20FD6
:102940000E94DB13811591F081E0809308030E94BF
:1029500039200E94BE2F10927F0385E00E945134DF
:10296000809109030E946D140E947A200E94AE0D8E
:102970000E947C3A0F90DF91CF910C94C72F0F905B
:10298000DF91CF910895DC015C96ED91FD91EE0F02
:10299000FF1FEE0FFF1FE45EFE4F6591759185915D
:1029A0009591089544E250E06AEB73E08AE093E089
:1029B0000C94B73C44E250E06AEB73E08AE093E0A9
:1029C0000E94D53C81E00C94291344E250E0DC01E4
:1029D000E0E3F1E00E94A13C089544E250E0AAE067
:1029E000B3E0E0E3F1E00E94A13C0C94DA148091A2
:1029F0001603909117032091140330911503821749
:102A0000930728F42093160330931703C9018938DC
:102A1000934130F088E893E1809316039093170375
:102A200080911A0390911B03209118033091190390
:102A30008217930728F420931A0330931B03C901CC
:102A4000893E934030F088EE93E080931A03909390
:102A50001B0308950895FC010994FC01859195914B
:102A60000C942B15282F81E090E03AE0211101C051
:102A700008952150AC01349FC001359F900D112461
:102A8000F5CF009719F024F48FEF089580E00895B2
:102A900081E008959C0180E090E1422F4170840F15
:102AA000369527959150C9F70895CF9397FF0AC09F
:102AB0000E94773CC1E000977040604051F48C2F39
:102AC000CF910895C1E0009770406040A1F3C0E04D
:102AD000F2CFCF5F2AE030E040E050E00E94603C5F
:102AE000B901CA01E8CFBC0180E090E00C94551513
:102AF000EF92FF920F931F93CF93DF9300D000D0FC
:102B0000CDB7DEB789839A837B014B835C83DC017D
:102B1000ED91FD91CF01B8010E942A3C009799F0F8
:102B2000081B190B1E141F048CF08C018B819C81D7
:102B3000800F911F8E179F07A0F4CF01801B910B70
:102B40008B839C830EC01E141F0484F7C901801B55
:102B5000910BE817F90718F49F01200F311F2B8301
:102B60003C838B819C81E981FA81808391830F90E2
:102B70000F900F900F90DF91CF911F910F91FF90C9
:102B8000EF9008950F931F93CF93DF93CDB7DEB7E8
:102B900028970FB6F894DEBF0FBECDBF8F839887FE
:102BA00069837A834B835C832D833E83FC01808120
:102BB00091810E9473158230C8F082500E943215B4
:102BC0008C012D813E814B815C8169817A818F816D
:102BD00098850E94781528960FB6F894DEBF0FBE30
:102BE000CDBFDF91CF911F910F91089581E090E0CB
:102BF000E7CF2FEF3FEF40E050E00C94C2150E946A
:102C0000C5358111FCCF0E94C5358115E1F30895CA
:102C1000409132035091330360912E0370912F0342
:102C200095E0969FF001979FF00D1124E80FF11D9C
:102C3000EE0FFF1FE858FE4F25913591823051F479
:102C40006230710539F44730510520F04150510987
:102C500020EB34E0429FC001439F900D529F900DA6
:102C600011240895409132035091330320912E0393
:102C700030912F0395E0929FF001939FF00D112466
:102C8000E80FF11DEE0FFF1FE858FE4F259135911B
:102C9000813061F42091380330913903249FC001C1
:102CA000259F900D349F900D11240895823029F4B2
:102CB00020913A0330913B03F1CF833079F7209193
:102CC0004C0330914D03EACFE0912E03F0912F0396
:102CD000EC5AFE4F849108952091300330913103D6
:102CE000A0914A03B0914B030E94FF3B64302FE256
:102CF000720723E68207910588F4E0912E03F09194
:102D00002F03EC5AFE4FE491E53041F024E630E029
:102D100040E050E00E943E3CC901089528EE3DEF9E
:102D2000FBCF209132033091330380914E03909179
:102D30004F03AC01249FC001259F900D349F900D3F
:102D40001124089582E00E940816BC0180911C03A2
:102D500090911D030E94F8189C0180911603909198
:102D600017032817390708F4C901089582E00E9463
:102D70000816BC0180911E0390911F030E94F81851
:102D80009C0180911A0390911B032817390708F4BE
:102D9000C901089580912E0390912F039C012A5020
:102DA00031092230310580F02AE0289FF001299F67
:102DB000F00D1124E658FE4F6591759188E799E66C
:102DC0000E942A3CCB01089581E090E00895809113
:102DD0003003909131038436910508F088C084E671
:102DE00090E0809330039093310380914003909161
:102DF0004103893E934030F088EE93E08093400396
:102E0000909341030E94CA162091320330913303FC
:102E10008217930728F480933203909333039C0125
:102E2000232B29F481E080933203109233030E9414
:102E3000A21620913403309135038217930728F4AA
:102E400080933403909335039C0180913C039091CF
:102E50003D032817390720F420933C0330933D03AA
:102E60000E94B616209136033091370382179307DC
:102E700028F480933603909337039C0140913E03DE
:102E800050913F032417350728F420933E033093D5
:102E90003F03A901809114039091150360913403BD
:102EA000709135036817790720F480933403909369
:102EB000350360913C0370913D036817790720F456
:102EC00080933C0390933D038091180390911903E4
:102ED0002817390720F48093360390933703481757
:102EE000590720F480933E0390933F030895893E51
:102EF0009D4F08F47ACF88EE9DEF73CF98E2899FBB
:102F0000B001112468567F4F48E250E08EE293E012
:102F10000E94B73C0C94E71698E2899FB0011124F7
:102F200068567F4F48E250E08EE293E00E94D53C25
:102F300081E00C9422130E94E71680913403909153
:102F400035036AE070E00E942A3C60933C03709372
:102F50003D0308950E94E716809136039091370350
:102F60006AE070E00E942A3C60933E0370933F0346
:102F700008950E94E7168091300390913103809369
:102F800034039093350320912E0330912F03233087
:102F9000310541F4969587959695879580933403EE
:102FA000909335030E949B178091300390913103D9
:102FB00080933603909337030C94AA1720912E0325
:102FC00030912F034AE0429FC001439F900D11248E
:102FD000FC01E658FE4F45915591409338035093BC
:102FE0003903FC01E458FE4F4591559140933A0353
:102FF00050933B032115310549F540ED57E04093CF
:1030000030035093310343E0409332031092330373
:1030100048EE53E040934003509341031092420323
:103020001092430340E757E1409344035093450314
:1030300010924603109247034EE1409348031092CA
:10304000490348E740934A0310924B03F901EC5AB5
:10305000FE4FE491E11121C081EF9FEF2230310555
:1030600011F48BEF9FEF21E020934C0310924D035E
:1030700080934E0390934F0383E08093500310920C
:10308000510384E6809352031092530385E08093AA
:103090005403109255030C94B91728E020934E0363
:1030A00010924F03FC01E258FE4F85919591809359
:1030B0004C0390934D03EFCFCF9310922E031092B9
:1030C0002F030E94DE17C0E08C2F0E948C17CF5F69
:1030D000C431D1F781E0CF910C942213CF93DF93C9
:1030E0000F92CDB7DEB789830E947E1780912E03A1
:1030F00090912F03892B19F10E9449320E94F436D6
:1031000080912E0390912F038B30910551F120F483
:103110000097A9F00A97F9F067E080913003909149
:1031200031030E94EB388FE20E94593680913203BE
:10313000909133030F90DF91CF910C9492362981B7
:10314000822F90E001960E9492368AE30F90DF91E1
:10315000CF910C94593689E00F90DF91CF910C9468
:10316000023265E080913403909135030E94C838A3
:103170000E94F43684E0F0CF809148039091490397
:103180000E94E41E88E092E0809380039093810384
:103190000C94ED1CCF93DF930F92CDB7DEB769830C
:1031A00091E090937F038093560380915603998119
:1031B000891302C010927F0380FF18C080E00E9434
:1031C0006D14813079F490917F03911559F08091BD
:1031D00056038F5F809356030E9469140E94BC18A7
:1031E000813019F30F90DF91CF91089583E0E7CFFD
:1031F000AB019C01A8EEB3E00E94FF3B9A0140E0C6
:1032000050E00E943E3CA8EEB3E00E948C3C843625
:10321000910540F424E630E040E050E00E943E3C5E
:10322000C90108952FEF3FEFFBCF80917503909177
:103230007603892B99F40E94740C811581F00E9409
:10324000770C2091570330915803AC01421B530B6C
:1032500081E04330510518F080E0089581E0089541
:10326000815E0C945F0CEF92FF920F931F93CF93AC
:10327000DF9300D00F92CDB7DEB71A821B828FEF9B
:10328000F82EEF2C2FEF298301E010E020910103AD
:1032900030910203C8010A8002C0880F991F0A9466
:1032A000E2F782239323892B49F08A810E94301907
:1032B0008E159F0518F42A8129837C018A819B81C0
:1032C00001968A839B83069709F789810F900F9057
:1032D0000F90DF91CF911F910F91FF90EF90089584
:1032E000CF93DF932091750330917603232B21F444
:1032F000DF91CF910C943019C82FD0E090915B03EF
:10330000CC0FDD1F911591F00E943019FE01E45A97
:10331000FC4FC859DC4F2081318148815981241BE1
:10332000350B820F931FDF91CF910895C45ADC4F64
:1033300088819981F8CFEF92FF920F931F93CF93DB
:10334000DF938091010390910203892B81F100E0CA
:1033500010E0E8018FEFF82EEF2C2091010330915F
:10336000020381E090E0002E02C0880F991F0A94AA
:10337000E2F782239323892B59F0802F0E94701942
:10338000C817D90708F4EC018E159F0508F47C01D5
:103390000F5F1F4F0630110501F7CE19DF0981E0DD
:1033A00020914E0330914F032C173D0708F080E029
:1033B000DF91CF911F910F91FF90EF900895CF93E0
:1033C000DF93EC018091750390917603892B41F096
:1033D000209731F40E94770C809357039093580301
:1033E000C0937503D09376030E947F0D8091740380
:1033F000811105C08C2FDF91CF910C94A506DF9130
:10340000CF910895FF920F931F93CF93DF9381E0A5
:103410000E947A06C8E6D3E00CE513E0F12C8F2D6C
:103420000E94301989939993F801819391938F01A8
:10343000F394F6E0FF12F3CF109275031092760327
:103440001092740380E090E00E94DF1910925703FD
:10345000109258038FEF80937703DF91CF911F91E4
:103460000F91FF90089580E090E00E94DF1981E0C5
:103470008093740308950E94331A80E00C947A06B6
:10348000EF92FF921F93CF93DF9300D000D0CDB780
:10349000DEB78091770387FD31C00E947019898360
:1034A0009A8310E091E0E92EF12C1B821C8280911E
:1034B0000103909102038E219F21892B71F0812FAE
:1034C0000E94701929813A812817390730F48B81BD
:1034D0009C818E299F298B839C83EE0CFF1C1F5F90
:1034E000163029F78B819C810F900F900F900F90D1
:1034F000DF91CF911F91FF90EF9008951B821C8266
:10350000F1CF0F931F93CF93DF9300D000D0CDB7AF
:10351000DEB789839A831B821C8201E010E0209130
:10352000010330910203C8010B8002C0880F991F6C
:103530000A94E2F782239323892B99F42B813C810F
:103540002F5F3F4F2B833C832630310541F781E0CD
:103550000F900F900F900F90DF91CF911F910F91CF
:1035600008958B81815E0E94890C29813A8182179E
:10357000930720F780E0ECCFAF92BF92CF92DF921B
:10358000EF92FF920F931F93CF93DF9300D000D061
:10359000CDB7DEB786E090E00E94811A811509F46C
:1035A00080C00E94280DA82E811509F47AC0809150
:1035B000770387FF04C00E943319809377030E942A
:1035C000301989839A83E0903A03F0903B038CE5AD
:1035D000C82E83E0D82E08E613E0BA2C1B821C828A
:1035E000209101033091020381E090E00B8002C042
:1035F000880F991F0A94E2F782239323892BA1F065
:103600008B810E9430198E159F05B8F121E0498108
:103610005A814817590708F420E0B222F601808346
:103620009183F801808391834B815C814F5F5F4F71
:103630004B835C8352E0C50ED11C0E5F1F4F8B8104
:103640009C81069769F610925B030E9479358093FE
:10365000590390935A03B11491F00F900F900F906B
:103660000F90DF91CF911F910F91FF90EF90DF901E
:10367000CF90BF90AF900C94331ABA2CE4CF0E9435
:10368000401A0F900F900F900F90DF91CF911F91E4
:103690000F91FF90EF90DF90CF90BF90AF900C9480
:1036A000DF190F900F900F900F90DF91CF911F9126
:1036B0000F91FF90EF90DF90CF90BF90AF90089563
:1036C0000F931F93CF9380915B03811110C081E012
:1036D00080935B0308E613E0C0E08C2F0E94301952
:1036E000F801819391938F01CF5FC630B1F7CF91ED
:1036F0001F910F9108950E947935209159033091BF
:103700005A03821B930B0895809175039091760361
:10371000892B59F40E94BC1A0E941519811110C0FE
:103720009091740382E0891B08950E94601B0E949F
:103730007B1B409788F380E090E00E94DF19ECCF7C
:1037400082E008950F931F93CF93DF9300D000D0B2
:10375000CDB7DEB789839A831B821C8201E010E01B
:103760002091010330910203C8010B8002C0880F31
:10377000991F0A94E2F782239323892B99F42B81D2
:103780003C812F5F3F4F2B833C832630310541F72F
:1037900080E00F900F900F900F90DF91CF911F91CD
:1037A0000F9108958B810E94701929813A818217A7
:1037B000930728F381E0EDCF0F931F93CF93DF930F
:1037C00000D000D0CDB7DEB789839A831B821C82DC
:1037D00001E010E02091010330910203C8010B8049
:1037E00002C0880F991F0A94E2F782239323892B42
:1037F00099F42B813C812F5F3F4F2B833C832630F4
:10380000310541F780E00F900F900F900F90DF91FE
:10381000CF911F910F9108958B810E94701929817A
:103820003A812817390728F381E0EDCFCF93DF9352
:1038300000D0CDB7DEB789839A830E94090D90E04E
:10384000811539F0682F70E089819A810E942A3CA5
:10385000CB010F900F90DF91CF9108950E94D82453
:1038600081E00E94D9218091790390917A030C9490
:10387000A3240C94EF240E94280D811521F00E94AE
:1038800079240C94902208950E943B1C0E94190DEB
:1038900020917D0330917E032817390740F489E990
:1038A00099E0809306039093070380E00895809148
:1038B0007B0390917C030E94A32482E00895CF9320
:1038C000DF930F92CDB7DEB769830E9432168093E3
:1038D0007D0390937E0389818115A1F0809134034B
:1038E0009091350380937B0390937C0380913C03FC
:1038F00090913D038093790390937A030F90DF9129
:10390000CF910895809136039091370380937B0384
:1039100090937C0380913E0390913F03EBCF809185
:103920008003909181030C942D15809180039091D8
:10393000810302960C942D150E94951C0E947A20FA
:103940000C945736CF93DF9300D0CDB7DEB70E94EB
:10395000793589839A830E94793529813A81821B3E
:10396000930B853B910510F00E94AE0D0E94C5356A
:10397000811589F30F900F90DF91CF910C9447340C
:103980000E949C1C0E94103086E00E9451340C94CE
:10399000A21C0E949C1C0E94AE0D0E94143087E065
:1039A0000E9451340C94A21CE0918003F091810399
:1039B000349685919591FC010994813020F40E9400
:1039C000C91C80E0089539F480917F038111F9CFFB
:1039D0000E94C01CF6CF81E008950F931F93CF93F0
:1039E000DF93109227040E948F1CD2E000E010E0C9
:1039F000C1E00E94C535809327040E943830C1156C
:103A0000C1F00E94BD20D82F0E94DD1CC82F811557
:103A100081F00E94770C8017910791F00E94770C3B
:103A20008C010E94D41CD82F0E94DD1CC82F81114C
:103A300007C0C0917F03C11519F0D11105C0C0E0C6
:103A4000809127048130A9F60E94951C8D2FDF916B
:103A5000CF911F910F9108950E94F51D0C943B1A70
:103A60000E94E21D0E94021A81E0209146033091DB
:103A70004703232B09F480E08093820380E00C94B9
:103A8000D9210F931F93CF9300917D0310917E0353
:103A9000C8010E94161C0E94DC1BC82F0E94151929
:103AA000811109C0C11107C00E94190DC1E008179A
:103AB000190708F4C0E08C2FCF911F910F91089542
:103AC000CF93DF9300D00F92CDB7DEB70E94411D98
:103AD00089830E949B1D8A839B8380918203811529
:103AE000A9F06A817B8189810E944222811110C0E4
:103AF0006A817B8189810E94A3230E94C31D82E089
:103B00000F900F900F90DF91CF9108958981EECFA4
:103B100081E0F6CF80918703089581E020918503AD
:103B200030918603232B09F480E00895809185036A
:103B30009091860308958091830390918403089562
:103B40000E941E0D009711F481E090E0BC0184EF0B
:103B500091E00E94F8189C0180911A0390911B0338
:103B60002817390708F4C9010895813020E4920725
:103B700010F080E090E480938503909386030E9488
:103B800006080C94870DCF93DF93EC010E94A01DD3
:103B9000C817D90708F4CE0120918303309184031C
:103BA0002817390761F08093830390938403BC0145
:103BB00080E10E94320EDF91CF910C94B51DDF9110
:103BC000CF9108958091870381110EC080E090E02D
:103BD0000E94B51D109283031092840381E00E941D
:103BE0005D0781E0809387030895809187038115A5
:103BF000A9F080E090E00E94B51D1092830310921E
:103C00008403109287038AE090E00E949B3580E055
:103C10000E945D078AE090E00C949B35089581E056
:103C2000809387030C94F51D87E08093670482E0FE
:103C3000809366040E944A3483E080938803089549
:103C40008FEF809367040C944734EF92FF920F93A9
:103C50001F93CF93DF9382E10E94A30E20912E0346
:103C600030912F032A50310991E02230310508F4B8
:103C700090E021E0C82FC227C9230E94090D082F18
:103C8000D0917803D11559F080913203D1E0081317
:103C900001C0D0E0813009F44DC011E0011110E005
:103CA0000E940F0D8115B9F083E10E945F0C7C0129
:103CB00082E10E945F0CE816F90608F040C09C0102
:103CC0002E193F09790181E035EFE31631E0F30663
:103CD00008F480E0C82B87E0D11183E0809367046B
:103CE000111519F0825080936704C11529F0809155
:103CF0006704815080936704D11126C0111511F11A
:103D000082E00E945134D1E0011541F10E94BB359F
:103D1000811126C010928803D11128C0C11122C080
:103D20000E94BB358830F1F4809188038F5F8093C7
:103D3000880318C0011101C080E0D823B0CFE81A71
:103D4000F90AC1CFC11541F082E00E94513411112E
:103D5000DACFD111D8CF02C00E944734D0E0D6CFFD
:103D6000D115E1F280918803823041F082E0DF9149
:103D7000CF911F910F91FF90EF90089581E0F7CFC1
:103D800010928D0308950E94793580938B03909350
:103D90008C0308950E94793520918B0330918C0318
:103DA000821B930B2091890330918A0328173907CE
:103DB00028F481E090E090938D03089582E091E0F3
:103DC000FACF80918D0308954CE3489F9001499F5D
:103DD000300D11242093890330938A0308950E94A3
:103DE000021A0E94D82481E00C94D9210E94EF2469
:103DF0000C943B1A0F931F93CF9300917D03109166
:103E00007E03C8010E94161C0E94A21BC82F0E949C
:103E10001519811109C0C11107C00E94190DC1E017
:103E20008017910708F4C0E08C2FCF911F910F915C
:103E30000895CF93DF9300D00F92CDB7DEB70E94E5
:103E4000FA1E89830E9479248A839B83BC0189811D
:103E50000E94422281110EC06A817B8189810E9469
:103E6000A3230E94A32482E00F900F900F90DF9174
:103E7000CF91089581E0F8CF80919F03811109C00F
:103E800060919A0370919B0380919C0390919D0394
:103E900008950E946E3520919A0330919B034091C2
:103EA0009C0350919D03621B730B840B950B08952B
:103EB0006091960370919703809198039091990374
:103EC00028EE33E040E050E00E943E3CB901CA01D8
:103ED000089560919203709193038091940390915F
:103EE000950328EE33E040E050E00E943E3CB901EB
:103EF000CA01089560919203709193038091940395
:103F00009091950320E63AEE40E050E00E943E3C5E
:103F1000C90108950F931F93CF93DF9381E00E940F
:103F20003216EC0184E00E9432168C0184E10E947A
:103F30005F0C8C179D07D0F408171907C8F49C0173
:103F4000201B310BCE01801B910B64E670E00E94B8
:103F50002A3CC9010E942A3C6436710508F063E6D8
:103F6000862FDF91CF911F910F91089583E6F9CFAE
:103F700080E0F7CFCF92DF92EF92FF920E948A1FEC
:103F800090919E03981798F580939E030E943C1F82
:103F9000C090A103D090A203E090A303F090A403EB
:103FA0009B01AC012C193D094E095F0969017A0199
:103FB0000E943C1F6093A1037093A2038093A3030C
:103FC0009093A4038091A5039091A603A091A703C9
:103FD000B091A8038C159D05AE05BF0540F4C092B5
:103FE000A503D092A603E092A703F092A803FF9046
:103FF000EF90DF90CF9008950E94BA1F8091A003A8
:10400000A9E6811101C0A4E680919E03A81BBB0B09
:104010002091A5033091A6034091A7035091A803D6
:104020000E94973C089508950E948A1F80939E03E2
:104030001092A1031092A2031092A3031092A40362
:104040001092A5031092A6031092A7031092A80342
:10405000109296031092970310929803109299036E
:10406000109292031092930310929403109295036E
:104070000895CF93DF9360E971E080E00E94320EF3
:10408000809390039093910381E00E943216EC019B
:10409000C854D44FC93729E6D20710F0C8E7D9E68B
:1040A000CE010E943C07BE0180E00E94320E813C9E
:1040B0002FEF920710F080EC9FEF80938E03909388
:1040C0008F030E940F0D8093A0030E946E356093B2
:1040D0009A0370939B0380939C0390939D030E948B
:1040E00014201092A90381E080939F03DF91CF9168
:1040F0000C94920C0E943C1F60939A0370939B0354
:1041000080939C0390939D0310929F0308950E94B7
:104110006B24811569F18091920390919303A09192
:104120009403B091950380599F4FAF4FBF4F809339
:10413000920390939303A0939403B09395030E94EA
:1041400015198115A1F08091960390919703A09184
:104150009803B091990380599F4FAF4FBF4F809301
:10416000960390939703A0939803B09399030895AF
:104170000E948D1D8111CFCFE2CFCF93DF9380912D
:104180009F03811104C082E0DF91CF91089580E008
:104190000E94680C20918E0330918F038217930741
:1041A00058F420919003309191038217930760F4A3
:1041B0000E948A1D811541F085E39CE080930603EF
:1041C0009093070380E0E0CF8091A9038130A1F3B1
:1041D0000E940F0D9091A003891719F086E29CE0D0
:1041E000EDCFC0917B03D0917C03C851DC4F0E947E
:1041F000230DC817D90718F48BE19CE0DFCF86E0C8
:104200000E945F0C209120033091210382179307B5
:1042100018F48CE09CE0D2CF89E10E945F0CEC01A5
:104220000E946C16883E2DEF920759F0C817D907E7
:1042300040F08CEF9BE0809306039093070381E0AE
:10424000A3CFC0914003D0914103C83E83E0D8077B
:1042500040F40E947A1F8C179D0718F081EF9BE0B5
:10426000EACF8091420390914303892B09F48BCFCD
:1042700087E00E945F0C209144033091450328178A
:10428000390708F080CF81EE9BE098CF0E94F61EA0
:104290000E942C1D0C943B1ACF938091AA0381306D
:1042A00058F0D1F00E94841BC82F823011F00E9478
:1042B00046218C2FCF9108950E94191FC82F81305D
:1042C000C1F7809178038115A1F382E08093AA035E
:1042D0000E94021AC2E0EDCF0E94601DEFCFCF9383
:1042E000DF930E94021A61E083E00E945F1CC0918C
:1042F0007D03D0917E030E94090D81110DC00E94A3
:10430000190DC817D90778F00E94EF1E80E080933E
:10431000AA03DF91CF910895CE010E94161C0E943E
:10432000DC1B8111F1CF60E083E00E945F1C0E94E2
:10433000301D81E080938203EACF8091AB0381300E
:1043400029F48091790390917A03089580E090E0B8
:1043500008952CE0829FC001112489549C4F0C9435
:1043600016258FEF93E00C941625CF93DF9300D0A2
:1043700000D0CDB7DEB782E10E945F0C89839A83BB
:1043800084E10E945F0C29813A81281B390B298323
:104390003A8387E10E945F0C8B839C83CE01019658
:1043A0000E9416250F900F900F900F90DF91CF91E4
:1043B0000895EF92FF920F93CF93DF9300D000D038
:1043C0000F92CDB7DEB7898381E08093AB030E9463
:1043D000190D2091790330917A0340917D0350911A
:1043E0007E030981BC0187EF93E00E942F25809115
:1043F0007D0390917E030E94161C8A839B838FEA23
:10440000E82E83E0F82E1C821D822091010330915A
:10441000020381E090E00C8002C0880F991F0A948B
:10442000E2F782239323892B71F08C810E9470190B
:104430002091790330917A0309814A815B81BC0123
:10444000C7010E942F258C819D8101968C839D83BD
:104450009CE0E90EF11C8C819D810697B1F61092CB
:1044600005041092AE0310920304109204040F90FE
:104470000F900F900F900F90DF91CF910F91FF90C1
:10448000EF9008950F931F93CF93C82F8B018091C6
:104490007803811559F080910504C11501F181114E
:1044A0001EC00E94331A81E0809305040E949D2162
:1044B0008017910790F1C11581F180910504843036
:1044C00061F59091AE0381E0890F8093AE0381E0A6
:1044D0009A3008F480E0CF911F910F9108958B7F5F
:1044E00029F78091790390917A03803A910510F42D
:1044F00080EA90E08017910710F4109274030E94F4
:10450000841B8093AB03813029F70E949B1981158E
:1045100069F28FEF80937703C9CF1092AE03DACFA1
:104520000F931F93CF93DF9300D000D0CDB7DEB7AA
:1045300089839A830E94190D49815A81BC0187EFB2
:1045400093E00E94F0250FEA13E01B821C82209169
:1045500001033091020381E090E00B8002C0880FDC
:10456000991F0A94E2F782239323892B49F08B81C8
:104570000E94701949815A81BC01C8010E94F0252E
:104580008B819C8101968B839C83045F1F4F0697D0
:10459000F1F60F900F900F900F90DF91CF911F9138
:1045A0000F910895EF92FF920F931F93CF93DF9394
:1045B00000D000D0CDB7DEB760917D0370917E034F
:1045C00087EF93E00E9455257C0180917D039091B7
:1045D0007E030E94161C89839A830FEA13E01B82D4
:1045E0001C82209101033091020381E090E00B8056
:1045F00002C0880F991F0A94E2F782239323892B24
:1046000071F069817A81C8010E945525E816F90682
:1046100030F069817A81C8010E9455257C018B8127
:104620009C8101968B839C83045F1F4F0697C9F67C
:10463000C7010F900F900F900F90DF91CF911F91B6
:104640000F91FF90EF9008950F931F93CF93DF93F7
:10465000EB0100917B0310917C038017910708F414
:104660008C010E949D219C018017910708F49801FC
:104670002C173D0729F1409105044430C1F42C1753
:104680003D07A8F08017910790F4809179039091ED
:104690007A038C179D07A0F04091AC035091AD03B5
:1046A00080915703909158034817590749F080911A
:1046B0005703909158038093AC039093AD03E901A5
:1046C000CE01DF91CF911F910F910895EF92FF924C
:1046D0000F931F93CF93DF938C010E94190D80934A
:1046E000F7039093F8030093F9031093FA038FEA0A
:1046F000E82E83E0F82EC0E0D0E020910103309155
:10470000020381E090E00C2E02C0880F991F0A94EA
:10471000E2F782239323892B41F08C2F0E9470199A
:10472000F70180839183028313832196FCE0EF0ECF
:10473000F11CC630D10509F7DF91CF911F910F9180
:10474000FF90EF9008951F93CF93DF93182FEB0105
:104750000E94280D811109C0111509F440C08091F3
:10476000030490910404892BD1F10E941519811141
:1047700036C0CE010E949022CE010E9466230E9484
:10478000D2228C179D0720F48C0F9D1F969587953C
:104790008093030490930404BE010E942423809319
:1047A00003049093040480910504823001F150F4D5
:1047B00081110CC0111599F00E94331A81E0809389
:1047C00005040DC08330C9F084E0F9CF111539F02C
:1047D00082E08093050410920304109204048091F7
:1047E000030490910404DF91CF911F9108951092DA
:1047F00003041092040483E0E2CF111581F3E4CFA7
:104800000C942E1C0F931F93CF93DF930E943B1C9D
:104810000E94190DEC0182E00E9432168C179D0750
:1048200030F480917B0390917C030E94A3248091BB
:104830007D0390917E038C179D0740F489E999E0F0
:10484000809306039093070381E005C00E94810CCA
:10485000029730F482E0DF91CF911F910F9108957C
:104860008091420390914303892B69F08DE10E946E
:104870005F0C2091520330915303281739071CF421
:104880008FE899E0DDCF0E94810C8C01C09150032C
:10489000D0915103CC0FDD1F81E00C171D0708F4E8
:1048A00080E00E94860C0C171D07A0F280914C033B
:1048B00090914D03892B71F28BE10E945F0CEC010A
:1048C0000E949116C817D9072CF685E999E0B8CF50
:1048D00080910A04089581E0209108043091090430
:1048E000232B09F480E00895809108049091090435
:1048F0000895809106049091070408950E941E0D6A
:10490000009711F481E090E0BC0180911C0390912C
:104910001D030E94F8189C018091160390911703C3
:104920002817390708F4C9010895893E2DEF920729
:1049300010F088EE9DEF80930804909309040E9484
:1049400054070C94870DCF93DF93EC010E947E24D3
:10495000C817D90708F4CE01209106043091070446
:1049600082179307A8F4A901481B590B4D3851052C
:1049700018F0C9018C58910980930604909307049C
:10498000BC018FE00E94320EDF91CF910C949524F0
:10499000AC01421B530B4D38510520F0C90184571F
:1049A0009F4FEACF2817390739F7DF91CF91089544
:1049B00080910A04811112C0109208041092090417
:1049C000109206041092070480E090E00E94952463
:1049D00081E00E94660781E080930A040895809137
:1049E0000A04811589F080E090E00E9495241092DD
:1049F000080410920904109206041092070480E043
:104A00000E94660710920A040895109208041092FA
:104A10000904109206041092070480E090E00E94BE
:104A2000952481E080930A040C94EF24FC014281D8
:104A300053814115510589F02081318137FF03C031
:104A4000319521953109A8EEB3E00E94FF3B9A0110
:104A500040E050E00E943E3CA901CA0108950F9336
:104A6000DC01FB014617570708F4FA0164177507C4
:104A700008F4BA01011105C09E2F8F2FFB01692F89
:104A8000782F1696ED93FD931897ED93FD931D9255
:104A90001D921D921D9214962D933D936E1B7F0BBC
:104AA00014976D937D930F910895DC011896ED9105
:104AB000FD911A973097F1F09B0140E050E0169677
:104AC0008D919D911897281B390B410951091A9610
:104AD0000D90BC91A02D0E948C3C9F01FF0F440BB8
:104AE000542F0E94603C4130510524F457FD05C00D
:104AF000C90108958FEF9FEF089580E090E0089539
:104B0000EF92FF920F931F93CF93DF9300D00F92FA
:104B1000CDB7DEB78A839B83FC01828193817A01C2
:104B2000E81AF90A8417950718F07C01E41AF50AC7
:104B3000EA81FB8124813581369527952E153F0525
:104B4000F0F4008111818417950718F5CB01801BC3
:104B5000910B8C01C8010E9441158983EA81FB8178
:104B6000808591850E944115F981F81308C0EA817A
:104B7000FB81E482F58200871187E286F3860F903D
:104B80000F900F90DF91CF911F910F91FF90EF90B9
:104B90000895061B170BDECF0F931F93CF93DF9360
:104BA0008C01EB019A01FC01A085B1850E94853C36
:104BB0002285338540E050E00E94603CC217D30755
:104BC0001406150654F0C21BD30BF801C683D78315
:104BD000DF91CF911F910F910895C0E0D0E0F5CF04
:104BE000CF93DF9300D000D000D0CDB7DEB789835C
:104BF0009A836B837C834D835E830E9480254D81E5
:104C00005E816B817C8189819A810F900F900F90DA
:104C10000F900F900F90DF91CF910C94CC251F93A4
:104C2000CF93DF93182F63E779E087E899E00E943C
:104C3000DD2FD0E082E10E94A30EC82F811559F02C
:104C40000E94090D91E0811101C090E0911741F09F
:104C5000D11559F0DC2F0E94C535813059F7C0E0DD
:104C60008C2FDF91CF911F91089565E679E087E859
:104C700099E0111102C08CE799E00E94DD2FEACF84
:104C8000CF92DF92EF92FF920F931F93CF93DF9318
:104C900000D00F92CDB7DEB789836B017A01BA01DC
:104CA0000E94320E8A839B83B60189810E94320E54
:104CB0008C01B7016C0D7D1D7695679589810E94E9
:104CC000320E0115110539F10F3F100731F12A811C
:104CD0003B812115310519F12F3F320711F10217E0
:104CE000130708F59C012A50310902171307E8F44D
:104CF0000A962A813B8182179307C8F480E00F90BF
:104D00000F900F90DF91CF911F910F91FF90EF9037
:104D1000DF90CF90089581E0F2CF82E0F0CF83E082
:104D2000EECF84E0ECCF85E0EACF86E0E8CF87E005
:104D3000E6CF4091160350911703609114037091D0
:104D400015038FE00E94402681110BC0409116038D
:104D500050911703609114037091150382E00C9435
:104D60004026865F089540911A0350911B0360917D
:104D700018037091190380E10E94402681110BC035
:104D800040911A0350911B0360911803709119030D
:104D900083E00C944026865F0895CF93DF930E94B2
:104DA000CA13D82F811571F048E759E668EE73E011
:104DB00080E00E944026811551F0682F8DE599E032
:104DC0000E949930D0E08D2FDF91CF9108950E94FD
:104DD0009926811521F0682F84E599E0F1CF0E9492
:104DE000B326C9E0811521F0682F88E499E0E8CF67
:104DF00040EA5FE068EE73E08C2F0E94402681114C
:104E0000DCCFCF5FCF30A1F7DECF0C94CD26CF9390
:104E1000C1E08091420390914303892B09F4C0E0E3
:104E200010924203109243030E94603A80E292E0A3
:104E30000E941F2C0E9405270E947C3AC0934203C7
:104E40001092430310920803CF910895CF92DF92FE
:104E5000FF920F931F93CF93DF93CDB7DEB7619788
:104E60000FB6F894DEBF0FBECDBF6E877F87488B2D
:104E7000598B122F60E070E00E946D2A111107C05B
:104E800080912A0390912B03892B09F4AEC08FEFF8
:104E90009FE70E94632A81E00E94F52B082F87FD7F
:104EA000C3C00E948A2A6C0181FFB9C0102F110F64
:104EB000110BEE85FF85E00FF11F84918D870E9415
:104EC000A30E811541F30E94970D109205031092D5
:104ED00060000E945A2C811509F481C0FC2CE889DD
:104EE000F9890E0F1F1FF801049184E00E945134CC
:104EF0008D850E945F0C6C010E94863A802F0E9473
:104F0000560C89879A87CB86DC86FD85FF3109F0B0
:104F10006FC089E00E94560C8D839E8388E00E94BA
:104F20005F0C8C0D9D1D8F8398878AE00E94560C24
:104F300089839A830F81188580E20E945F0C080F95
:104F4000191F0B831C83AE014B5F5F4F60910B04F5
:104F500088E00E94B10CAE014B5F5F4F60910B0483
:104F600089E00E94B10C80E20E94A30E811541F0FD
:104F7000AE014F5F5F4F60910B048AE00E94B10C5D
:104F8000F7FE2AC081E0809305030E94970D0E94DE
:104F9000863A80E00E94560C89839A8381E00E94C1
:104FA000560C29813A81281B390B29833A8383E1E6
:104FB0000E945F0C8B839C83AE014F5F5F4F6091BB
:104FC0000B0480E00E94B10CAE014F5F5F4F609117
:104FD0000B0481E00E94B10C81E00E941B1381E070
:104FE000809305038093600056CF8BEF9FE751CFEE
:104FF0008D85803269F48AE00E94560C89839A83F9
:1050000089E00E945F0C8C0D9D1D8B839C83B0CF2B
:10501000AE01475F5F4F60910B04802FAFCF82FFDF
:105020003ACF0E945A2C37CF61960FB6F894DEBF64
:105030000FBECDBFDF91CF911F910F91FF90DF90F9
:10504000CF90089581E080930B0410920C040E948D
:10505000F20F81E00E940F26811549F020E042E71F
:1050600053E069E773E088ED92E00E9426270C94F4
:10507000AE0D81E080930B0410920C0480E00E943E
:10508000F20F1092620020E041E752E0BA0186E799
:1050900092E00E94262781E0809362000C94AE0D7E
:1050A000CF93C1E08091420390914303892B09F48F
:1050B000C0E010920B0410920C040E947C3A81E034
:1050C000809342031092430380E00E94F20F21E09C
:1050D00048E352E0BA0189E392E00E9426270E9449
:1050E000AE0DC093420310924303CF910C94603AEB
:1050F000CF93DF9300D000D0CDB7DEB7482F6091BB
:105100001204CE0101960E94960C67E08B819C816F
:105110000E94C8380F900F900F900F90DF91CF91A1
:1051200008950E94230D67E00E94C8388091110401
:105130000E94560C66E00C94BF3820911104223076
:1051400011F40C9495240C94B51D40910D045091CC
:105150000E046091110420910F043091100462300C
:1051600061F5493E5D4F30F048EE5DEF40930D0430
:1051700050930E042938334130F028E833E120936E
:105180000F04309310048D50944031F480910D043D
:1051900090910E040E949D2882E10E94A30E81112D
:1051A0001AC063E779E087E899E00E94DD2F8091DB
:1051B0001104833081F40C94F51D4130504428F0E3
:1051C00050E410920D0450930E04293E3340D8F25F
:1051D00028EE33E0D4CF0895BF92CF92DF92EF92C2
:1051E000FF920F931F93CF93DF93CDB7DEB72C972A
:1051F0000FB6F894DEBF0FBECDBF10E07E0185E094
:10520000E80EF11C6E019FEFC91AD90A82E00E94D4
:105210005F2B88E798E280931D0490931E041093FF
:10522000230480E00E94F52B182F87FD93C081E0B6
:105230000E94F20F80E00E940F26811509F487C0BA
:10524000412F60911204C7010E94960C412F60917A
:105250001104C6010E94960C65EA78E280E893E0AA
:105260000E946D2A8F81988580930F04909310047B
:1052700000E0E986FA86CB86DC868D819E8180936C
:105280000D0490930E0481E00E94F52B81150CF41F
:105290004BC0E1F580911104823091F50E94D82431
:1052A00088E799E60E943C0780910D0490910E04D6
:1052B0000E949D280E945A2C8115B9F0082F0E9447
:1052C000970D80910F04909110048F8398872091FF
:1052D0000D0430910E042D833E838B839C8380913B
:1052E00011040E94560C89839A8380E090E00E940A
:1052F0009D2880911104823031F40E94EF24BDCFAB
:105300000E94E21DD1CF0E94F51DB7CF823009F077
:10531000B4CF0E945A2C8111B0CF8F819885809391
:105320000F0490931004A9CF011589F049855A857F
:10533000612F809112040E94B10C4B855C85612F16
:10534000809111040E94B10C81E00E941B130E9405
:10535000AE0D5CCF2C960FB6F894DEBF0FBECDBF5E
:10536000DF91CF911F910F91FF90EF90DF90CF9041
:10537000BF9008958FE08093120482E0809311041F
:105380000C94EC2880E18093120483E08093110454
:105390000C94EC28A82F6091130470911404409190
:1053A00017045091180480E090E0FB012EE0929FDA
:1053B000E00DF11D1124329625913591211531050D
:1053C00079F01CF457FF09C0305824233523232BD0
:1053D00021F0A11521F0A1508F5F9F5FE6CF892FAB
:1053E00008950F931F93CF93DF9300D0CDB7DEB70F
:1053F0008A830E94CA293EE0839F80011124E091A4
:105400001304F0911404E00FF11F859195910E940F
:10541000B23689830E942B34811123C06FE08981C9
:10542000681BE0911304F0911404E00FF11F35960E
:1054300094919983911531F0862F9981891B0E944F
:10544000F03669818091130490911404800F911FAC
:1054500004960F900F90DF91CF911F910F910C94B4
:105460008C33209167043A81832F90E0022E001C38
:1054700000082817090691F60F900F90DF91CF9141
:105480001F910F9108950E94CA29E0911304F09191
:1054900014049F014EE0849F200D311D1124C90189
:1054A000F901369625913591FC013496849181500D
:1054B000823010F0C9010895F90145915591659127
:1054C0007591CB01089580931704909318048FEF82
:1054D0000E94CA2980932104089580931304909315
:1054E0001404609315047093160480E00E945F2BEF
:1054F00081EF99E280931D0490931E0489E99AE25A
:1055000080931B0490931C048FEF809367049FE7A4
:105510000C94632A0E94CA29E0911304F0911404A8
:105520009EE0899FE00DF11D1124329685919591A1
:1055300008958F929F92AF92BF92CF92DF92EF9297
:10554000FF920F931F93CF93DF93CDB7DEB72C97C6
:105550000FB6F894DEBF0FBECDBF182FB62E0E9437
:10556000432A7C01812F0E94CA29E0911304F09103
:1055700014049EE0899FE00DF11D1124389646E049
:1055800050E0DE0117960E94A13C86E0FE013796AE
:10559000DE01119601900D928A95E1F786E0FE01F9
:1055A0003196DE01179601900D928A95E1F70F81F1
:1055B0001885C984DA849B848C84E2E0BE1651F19C
:1055C00091E0A92EB12C0E3FFFE71F0739F134F10E
:1055D000292D382DA601B501C7010E94C215E09101
:1055E0001504F0911604309709F448C0C7012C96B1
:1055F0000FB6F894DEBF0FBECDBFDF91CF911F91E4
:105600000F91FF90EF90DF90CF90BF90AF909F9061
:105610008F9009948FEFB82EAB2CD5CF21F4C50114
:10562000F6010995DCCF0C3FFFE71F07B9F4F7013E
:10563000808191818A0D9B1D292D382D28173907CE
:1056400044F09C01F7012C153D052CF080839183DB
:10565000C6CFC901F7CFC082D182C1CF0D3FFFE7CE
:105660001F0721F40E94BE35082F10E0292D382D88
:10567000A601B501C7010E947815B1CF2C960FB6CF
:10568000F894DEBF0FBECDBFDF91CF911F910F9178
:10569000FF90EF90DF90CF90BF90AF909F908F9052
:1056A000089524E0829FC0011124E0911904F09133
:1056B0001A04E80FF91F859195910C94B236109257
:1056C0002304109222048093210481E0809320041B
:1056D00080931F0408954091190450911A0480E0AA
:1056E00094E0899FF0011124E40FF51F2591359175
:1056F000232B09F408958F5FF3CF809123048F5FEC
:1057000080932304089580912304811519F081501A
:105710008093230408958091230490912104891794
:1057200020F08FEF890F80932304209122048217A9
:1057300018F480932204282F30E02F5F3F4F281762
:1057400031051CF48150809322040895CF930E9468
:105750008B2BC091220420912204822F90E001968D
:105760008C17910524F410922004CF9108956C2F8A
:10577000621B80E00E944D36809123048C1311C07F
:105780008EE30E94593680912104C81730F4E091CD
:105790001D04F0911E048C2F09950E94F736CF5FEF
:1057A000DACF80E2EECFCF930E94C535C82F0E949A
:1057B000203A811539F081E080932004CFE78C2FC7
:1057C000CF910895C23071F0C43029F40E947D2B2E
:1057D00081E08093200480912004811581F30E9450
:1057E000A62BEDCF0E94832BF3CFCF93DF930F92A5
:1057F000CDB7DEB7898381E0809320040E94D32B4C
:10580000811102C010921F0490911F0491110BC0CE
:10581000883049F481E080931F04809123040F9025
:10582000DF91CF9108952981211519F021E020936E
:105830002004813019F79111E1CF8FEFF0CF0F9352
:105840001F93CF93DF9300D00F92CDB7DEB789833C
:105850009A831B8201E51BE289819A818093190456
:1058600090931A040E946B2B0E945F2B00931D04DF
:1058700010931E049B819093230480E00E94F52BDB
:105880008B8387FD0EC094E08902900111248091E2
:10589000190490911A04820F931F02960E942D15ED
:1058A000DBCF8B810F900F900F90DF91CF911F91E5
:1058B0000F910895CF93DF93809123048093670421
:1058C0001092660481E080932004C1E0D2E00E943F
:1058D000C535682F823011F08430C1F4E0911B048B
:1058E000F0911C04809123040995809123048093F6
:1058F0006704D0936604C09320040E943734811556
:10590000B9F0C09320040E94A62B16C0813011F07C
:10591000883099F78FEF8093670481E080931F04AC
:1059200080932004683009F080E0DF91CF910895E2
:10593000809120048111E7CF809166048F5F80936E
:105940006604C5CF0C94D51388EB93E00C941F2C00
:105950000F931F93CF93DF9300D0CDB7DEB789832A
:105960009A830E94CA1601E010E09C01A801698197
:105970007A8182E393E00E9478150F900F90DF9177
:10598000CF911F910F910895CF93DF9380912E03B4
:1059900090912F03C0E0D0E4892B11F10E9464168E
:1059A000C1E0D0E002C0CC0FDD1F8A95E2F7809104
:1059B000420390914303892BB9F4D05C0E94641692
:1059C000811107C080914C0390914D03892B09F000
:1059D000DE5F80912A0390912B03892B09F0D05828
:1059E000CE01DF91CF9108950E946416811511F0C8
:1059F000DF5BE4CFDB5BE2CF23E08E32920741F442
:105A00000E94DE170E94E7160E94C42C0C94632AA1
:105A100023E08033920719F40E94B917F3CF23E0F3
:105A20008433920719F40E949B17ECCF865393405E
:105A300049F70E94AA17E6CFCF93DF93CDB7DEB721
:105A4000A8970FB6F894DEBF0FBECDBF6CEF7CE217
:105A500088EC93E00E946D2A0E94C42C0E94632A65
:105A600080E00E94F52B87FD1DC088E2EEE2F3E0A6
:105A7000DE01119601900D928A95E1F70E945A2C51
:105A800081110AC088E2FE013196AEE2B3E00190D6
:105A90000D928A95E1F7E0CF84E00E9451340E9494
:105AA000E716DACFA8960FB6F894DEBF0FBECDBFCB
:105AB000DF91CF910895E0912504F0912604E80F3D
:105AC000F11D649186E495E00C94CB36CF93DF937F
:105AD0000F92CDB7DEB789830E947E170E946416AD
