:100000000C94A3060C94CB060C94CB060C94CB0654
:100010000C94EA080C94CB060C94CB060C94CB06FB
:100020000C94CB060C943A090C941A090C941C09F4
:100030000C94CB060C94AF090C94E7090C94CB06F6
:100040000C94C6080C94CB060C94CB060C94CB06EF
:100050000C94CB0600000000808F7341000000006C
:100060007C6B08313E023200C515E8038001320086
:10007000C0092C0100000000C0AE4E5A00D608078F
:100080008F67AC0D0000000013A27E2F1801F4084A
:10009000DC377017000000000000000000000000C6
:1000A00000D8651000000000C0D85E1000000000FD
:1000B00040D85A100000000040D85710000000003F
:1000C00081D966100000000081D9661068013200F5
:1000D000C00CE80318013200C0052C01FF0000002D
:1000E0000A00050400000004090000FF0101000AE5
:1000F000040505000004040A0000FF0202000002DB
:100100000506000002040B0000FF030300000605C3
:1001100007000006040C0000FF0000000A010511A2
:10012000020001040D0000FF0101000A0505110491
:100130000005040E0000FF0202000003051101008B
:10014000FF03030000070511080080250000004B95
:1001500000000096000000E1000000C2010046001F
:100160000300881370170100320010273200881333
:10017000204EC4091027000000000300000000000A
:100180000100040000010202020202030405070C40
:10019000FD0BF80BF30BEE0BE90BE40BDF0BDA0BAB
:1001A000D50B020CD10B0100010001000100010080
:1001B000B0040807520300005203B0040807E80324
:1001C0000000E803D0079209D60600006C07E40C93
:1001D000100EC409E40CB80B100E0410C409A60ECE
:1001E000AC0D740E6810B80B0A0F890C740ECC108D
:1001F000B80B0A0F890C740EFE10B80B0A0F890C8D
:1002000040066C071405400678050100A00FD007D2
:10021000010001000100A00F0100010001007E1992
:10022000B719001BAA1BB51BC01BAC1CA81CDC1CEF
:10023000A81DB41DB91D571E541E5E1E831E8A1EA6
:10024000AD1E36210D211321C723B51BC923DB09A0
:100250009B27D2093F29C6094729BA09C927AE09F0
:10026000F1279F09B22700000000054D0902004454
:10027000003102FD7F000010274809010049007B82
:1002800002000000000000650904004900050401A7
:10029000000000010000000000000000000000005D
:1002A000000000074D09020044003502FD7F0000F8
:1002B00010274809010049007F02000000000000EB
:1002C0006509040049000504010000000100000068
:1002D00000000000000000000000000000014109D3
:1002E000020041002702FD7F000078693909020001
:1002F00041002902FD7F000078696509040049007A
:1003000005040100000001000000000000000000E2
:100310000000000000009A09020041003302FD7F46
:10032000000030759509820041006502FD7F0000E4
:1003300088139009820041006702FD7F0000881346
:100340008B09820041006902FD7F00008813860945
:10035000820041006B02FD7F00008813810982004A
:1003600041006D02FD7F000088137C09820041007E
:100370006F02FD7F000088137609010041004D02E5
:100380000000000000007009010041004B02000065
:100390000000000065090400490005040100000098
:1003A000010000000000000000000000000000004C
:1003B00006090A0B0C0D0E061F20212223245E09BC
:1003C000FF7F49000704FD7F0000FFFF5B09FF7FFF
:1003D00003001B280000000000005309FF7F4000BD
:1003E0000904FD7F0000FFFF000000000000000086
:1003F000000000000000240C622D1A0CCE260C0C0C
:10040000272C00000000C00AFF7F020080050100C9
:1004100000000B00BD0A0F0003009731FE7F2D2C5A
:100420000000B90A0E8041003203FD7F00008813EE
:10043000B90A100041003203320000007869AC0AAA
:10044000018041003203FD7FB004D007AC0A2000D8
:1004500041003203FF7F01007869B50A0480410042
:100460004603FD7F00008813B10A0F80410034036A
:10047000FD7F00008813B10A1000410034033200F0
:1004800000007869A70A1F0045002A03FF7F640067
:10049000E8FDA30A3F0040002E03FF7F0100102764
:1004A0009C0A1E8040003603FF7F01001027980A37
:1004B0001F0040003003FF7F01008813910A1F8056
:1004C00040003803FF7F01008813870A0C80480032
:1004D000480301000300C8007E0A01004D004603E6
:1004E000010000000100790A000248004803FC7F77
:1004F000ECFF00006D0A00024B004A0301000100FE
:100500001E00640A1F004D003C03010000000100B2
:100510005C0A00044A064C030A000A008403500ADD
:10052000000144033E0364005802AC264A0A3F001F
:100530004C003A03FF7F0000E803400A1F00470019
:10054000440301000100FA00340A030049004E038D
:100550000100000005002A0A1F804B004203010031
:10056000010063001F0A1F804D00400301000000CE
:10057000010000000000000000000000000000007A
:100580008E012803A00C910C890C7F0C730C6B0C52
:100590005C0C510C420C350C0009000304070809DF
:1005A000000307080900010203040809000102030F
:1005B000040506080909C60BFF7F49000403010072
:1005C00000006400BE0BFF7F0200F806010000007F
:1005D0000400B30B01004400080364005802AC2679
:1005E000A80BFF7F44030A0364005802AC26A20B49
:1005F000FF7F4D000C030100000001009A0BFF7FFC
:1006000040000E03FD7F0100F401920BFF7F4000CC
:100610001003FF7F010010277A0BFF7F42001603B3
:10062000FF7F0A00204E8A0BFF7F40001203FD7FF0
:100630000100F401820BFF7F40001403FF7F0100E3
:100640008813720BFF7F42001803FF7F0A00C40962
:10065000670BFF7F41001A036400581B30755C0B69
:10066000FF7F4D001C03010000000100560BFF7FBF
:100670000200EA060100000004004E0B0200010027
:10068000E606010000000400450B02000200DE0641
:100690000100000001003E0BFF7F0200D6060100B2
:1006A00000000100350BFF7F0200CE0601000000B4
:1006B00001002F0BFF7F0000000000000000000081
:1006C0000000000000000000000000000000D20652
:1006D0002603140BC90ADA062403D60ACD0AE20659
:1006E00022032A0B240B4A012003EE061E031B0BD8
:1006F000140B0E0B050BFC0AFC0606031B0BF50A7C
:10070000ED0AE50ADD0A20202D2D20200063686512
:10071000616C692D636861726765720A76332E3089
:100720005F32303236303531360063616C69622EAB
:10073000206572726F7200706C6561736520636111
:100740006C69627261746500656570726F6D2072AC
:10075000657365740A6572726F723A200072657310
:10076000657474696E6720656570726F6D00202016
:10077000202020202020202020207965730065651E
:1007800070726F6D2072657365743A0052455645FC
:1007900052534520504F4C41524954590065727292
:1007A0006F723A00636F6D706C6574653A00E43186
:1007B0000000004000000000DF32004000000000A8
:1007C0000040A130FFFFFF7F04000040463280015F
:1007D0000000000000403831000200000800004026
:1007E00044310002000008000040583100020000BF
:1007F000000000406031FFFFFF7F04000040882EB2
:1008000000000060000000008C2E0000006000006E
:100810000000902E0000002004000040942E0000F4
:10082000002004000040F230FFFFFF7F0400004082
:10083000D430FFFFFF7F000000402C31FFFFFF7F1F
:1008400000000000B530FFFFFF7F04000000103102
:10085000FFFFFF7F000000000000FFFFFF7F0000A0
:100860000000250064542F64743D200064563D2030
:100870002020006D6178563D0054696E743D002063
:100880006C696D69743D0056696E7075743D0077D2
:100890006972657320523D00626174742E20523D6E
:1008A000004C696D6974733A20004E2F4100546505
:1008B00078743D004E2F410025200043684342429A
:1008C0006C44694643537453424359434300010106
:1008D00001020A1E010318478E01190C03010101D0
:1008E000E80301420DE80300400D6400003E0D6482
:1008F00000003B0D640000390DE80301360DE803EC
:1009000001340D010000320DE80301400D0100002B
:100910002B0D6400002E0D0100002C0D0100002C99
:100920000D0100000000010000290D141719181A0C
:100930000705061F2021222324566D696E75733A20
:100940000056706C75733A006164633A0074656DAB
:10095000703A004965787065633A00493A007661FB
:100960006C75653A0063616C69622E20702E3A00E6
:10097000566F75743A0056312D363A005662363A43
:10098000005662353A005662343A005662333A00F5
:100990005662323A005662313A0056696E3A006544
:1009A00078706572742044414E4745522100746549
:1009B0006D7020696E7465726E0074656D7020656F
:1009C000787465726E004920646973636861726748
:1009D0006500492063686172676500766F6C7461B9
:1009E00067650062616C616E636520706F7274216F
:1009F00000626174746572792100646973636F6E5B
:100A00006E65637400636F6E6E6563740064542F6B
:100A10006474002D64560056206C696D6974006121
:100A200064617074206469733A00442F43207265D6
:100A300073743A00442F43206379636C65733A0002
:100A400063617020434F66663A0074696D653A00D1
:100A50007C657874726E2054434F3A007C64542F46
:100A600064743A00657874726E20543A007C696749
:100A70006E7220667273743A007C64563A00656E3A
:100A800061622064563A0062616C2E206572723A8F
:100A9000006D696E49643A0049643A006D696E49B7
:100AA000633A0049633A004361703A0056636F3A13
:100AB0000056643A0056733A0056633A00563A00BC
:100AC000626174746572793A007265760061647669
:100AD000616E6365640073696D706C6500542D70A0
:100AE000726F67720054656D706572610070726F2D
:100AF0006772616D00616C77617973006578742E3F
:100B000020416463006578742E206465620064652A
:100B1000627567006E6F726D616C0064697361620B
:100B20006C65640073657061720074656D7000724D
:100B30006573657400627574746F6E733A006D65E9
:100B40006E75733A007C6F75747075743A007C73BF
:100B5000706565643A00554152543A0061646320FF
:100B60006E6F6973653A00696E707574206C6F778B
:100B70003A006D61782050643A006D6178205063CE
:100B80003A006D61782049643A006D696E204964CD
:100B90003A006D61782049633A006D696E204963BF
:100BA0003A00626565703A006469736368206F6635
:100BB000663A007C66616E2054206F6E3A00666172
:100BC0006E206F6E3A006261636B6C696768743A9D
:100BD000004C4544004E695A6E004C343335004C8D
:100BE000343330004C69706F004C696C6F004C6995
:100BF00066650050622020004E694D48004E6943F2
:100C00006400556E6B6E004E6F6E650072657365A5
:100C1000742064656661756C740063616C696272EE
:100C20006174650073657474696E6773006F7074C6
:100C3000696F6E73006564697420626174746572B3
:100C40007900636170616369747920636865636BBF
:100C500000443E4320666F726D61740073746F725E
:100C60006167652B62616C616E630073746F7261A2
:100C7000676500666173742063686172676500640C
:100C800069736368617267650062616C616E636558
:100C9000006368617267652B62616C616E636500F9
:100CA000636861726765006578742E74656D702E77
:100CB0006375746F66660074696D65206C696D6933
:100CC00074006361706163697479206375746F6621
:100CD0006600696E707574205620746F206C6F7793
:100CE000004857206661696C7572650062616C61CD
:100CF0006E63657220646973632E00696E742E746E
:100D0000656D702E6375746F6666006261747465DC
:100D1000727920646973632E006E6F6C696D6974FB
:100D200000206E6F00796573005500006D00432F41
:100D30006D002500F400416800430057680057002B
:100D400056004100130B11241FBECFE5D8E0DEBFD3
:100D5000CDBF10E0A0E6B0E0E0E2F9E702C0059008
:100D60000D92A838B107D9F724E0A8E8B0E001C097
:100D70001D92A038B207E1F716E0C3EAD6E004C03E
:100D80002197FE010E94083CC23AD107C9F70E9490
:100D9000E1110C94853C0C9400000E94A73940E0BE
:100DA00062E080E10E945F390E9436090E94A30937
:100DB0000C946507CF93DF9300D000D0CDB7DEB79A
:100DC000482F282F30E0A0E0BDE70E94883B198221
:100DD0007A838B839C83A4E6B0E0A41BB10924E64C
:100DE0000E940E3C29813A814B815C81620F731F06
:100DF000841F951F24E630E040E050E00E94C73B8E
:100E0000B9018DE00F900F900F900F90DF91CF916F
:100E10000C948D09811511F0909A08959098089579
:100E2000811104C0939A969A929A0895939808957E
:100E3000811102C0969A089596980895811102C072
:100E4000929A089592980895BC018EE00C948D09B1
:100E50000C94240780FF11C0C09A81FF10C0C19A72
:100E600082FF0FC0C29A83FF0EC0C39A84FF0DC0D9
:100E7000DE9A85FF0CC0DF9A0895C098EECFC19826
:100E8000EFCFC298F0CFC398F1CFDE98F2CFDF98C2
:100E9000089580E00E94100780E00E940A0780E029
:100EA0000E94230980E00E942A078C9A8B9A889AD4
:100EB0008F9AB89AB99ABA9ABB9AD69AD79A8D9AB3
:100EC0008E9A8D9A8A9A08950895D598D498DD9827
:100ED000DC98BF9ABE9ABD9A8EEA86B9369A089572
:100EE0009C01E0919700E13119F18FB7F894F0E09F
:100EF000DF01AA0FBB1FAD56BD4F12963E932E9336
:100F00008FBF80918F008115E1F0EE0FFF1FEE0F74
:100F1000FF1FEB54FD4F80819181A281B381820F2D
:100F2000931FA11DB11D80839183A283B383089574
:100F30009091980080918C0037FD04C0982B90937D
:100F40008C00089590959823FACF0E943B249093AB
:100F5000B2028093B1020E94121D9093B40280935A
:100F6000B30280918F00811509F485C00E943B2453
:100F70004091F1025091F2026091F3027091F402FB
:100F8000480F591F611D711D4093F1025093F202E9
:100F90006093F3027093F4020E94121D4091F502D7
:100FA0005091F6026091F7027091F802480F591FB4
:100FB000611D711D4093F5025093F6026093F70294
:100FC0007093F8028091F9029091FA02019709F06A
:100FD00050C08091BD029091BE02A091BF02B0911D
:100FE000C002B695A795979587958093BD0290937B
:100FF000BE02A093BF02B093C0028091B50290914F
:10100000B602A091B702B091B802B695A795979590
:1010100087958093B5029093B602A093B702B093E0
:10102000B8028091B9029091BA02A091BB02B0912E
:10103000BC02B695A795979587958093B902909332
:10104000BA02A093BB02B093BC028091C1029091FE
:10105000C202A091C302B091C402B695A79597951C
:1010600087958093C1029093C202A093C302B0936C
:10107000C4020C94D90E089580911C0390911D0315
:10108000892BD9F0809194008115B9F0909191004D
:1010900041E001C0440F9A95EAF72091F90230919E
:1010A000FA022F703FB7F8945BB39BB3942B9BBBB2
:1010B000820F8A95F1F75BBB3FBF089580918E0048
:1010C0008F5F863108F080E080938E0085E0E0E954
:1010D000F0E0A5E9B0E001900D928A95E1F7E0918A
:1010E0008E00EF5FE63108F0E0E085E0E89FF00178
:1010F0001124E452FF4F45E050E0A0E9B0E00E9427
:101100002A3C80918E0081110CC00E94A50720917D
:10111000F9023091FA0281E0232B09F480E08093F8
:101120008F00089584B125B190918D00933018F00F
:10113000922F0E94700780918D0091E0980F9093FC
:101140008D008D30A9F08031A9F081111BC08091F4
:10115000900087FD17C02FB7F89498B38091900046
:101160008295880F807E9F71892B88BB2FBF089541
:101170000C943C0880919100806287B910928D0098
:101180000C945E08089580918C0008951F920F9230
:101190000FB60F9211242F933F934F935F936F934A
:1011A0007F938F939F93AF93BF93EF93FF930E948F
:1011B0009208FF91EF91BF91AF919F918F917F9195
:1011C0006F915F914F913F912F910F900FBE0F90B4
:1011D0001F9018951F920F920FB60F9211242F9304
:1011E0003F934F935F936F937F938F939F93AF93AF
:1011F000BF93EF93FF930E94D334FF91EF91BF9180
:10120000AF919F918F917F916F915F914F913F919E
:101210002F910F900FBE0F901F90189588E085BDFD
:1012200085B5846085BD14BC8CE783BD89B78068B3
:1012300089BF0895979A18958F93979880919A00EF
:1012400082BF8F911895811104C013BE12BE97986A
:101250000895869598E7980F90939A0090E0959559
:10126000879584548CBF8CE483BF089589B78360CD
:1012700089BF08951F921FB61F9211242F933F9389
:101280008F939F932091A1003091A20080919D00A7
:1012900090919E00820F931F80939D0090939E00DB
:1012A00020919F003091A00080919B0090919C0024
:1012B000820F931F80939B0090939C002FB7F8940C
:1012C00080919D0090919E0035E0969587953A9586
:1012D000E1F79BBD8ABD80919B0090919C0035E019
:1012E000969587953A95E1F799BD88BD2FBF809176
:1012F0009D008F7180939D0010929E0080919B00B5
:101300008F7180939B0010929C009F918F913F91D1
:101310002F911F901FBE1F9018959FB7F8948E3085
:1013200049F47093A2006093A1008FB580688FBDCF
:101330009FBF08958D30E1F77093A00060939F00E8
:101340008FB58062F4CF80E094E097BD86BD82E0E7
:101350008FBD89E18EBD89B7846089BF08951F92D2
:101360001FB61F9211242F933F934F936F937F9338
:101370008F939F93EF93FF935A9927C04CB180911D
:10138000B9019091BA018395282F30E06091BB019B
:101390007091BC018617170659F0E091B901F091E0
:1013A000BA01E754FF4F40833093BA012093B9014B
:1013B000FF91EF919F918F917F916F914F913F910D
:1013C0002F911F901FBE1F9018958CB1F1CF2F93B6
:1013D0002FB72F933F938F939F93EF93FF9320917A
:1013E000B9013091BA018091BB019091BC012817DD
:1013F000390751F45598FF91EF919F918F913F914B
:101400002F912FBF2F911895E091BB01F091BC0156
:10141000E754FF4F20818091BB019091BC018395DF
:1014200090E09093BC018093BB012CB9E4CFCF92A4
:10143000DF92EF92FF92CF93DF93EC016A017B0181
:10144000E885F985C11461EED606E104F104F9F0EE
:101450002C8981E001C0880F2A95EAF7808360E03B
:1014600079E08DE390E09A01A7010E94C73B2150EB
:10147000310941095109569547953795279561E0FE
:10148000C9013031B8F06115A9F0E885F9851082FD
:1014900060E874E88EE190E09601A7010E94C73BE6
:1014A000215031094109510956954795379527959E
:1014B00060E0E6CFEC81FD819083EE81FF812083A7
:1014C0001D8AEA85FB852081498981E090E0BC0185
:1014D00001C0660F4A95EAF7262B2083EA85FB8533
:1014E00020814A89BC0101C0660F4A95EAF7262B84
:1014F0002083EA85FB8520813B8901C0880F3A95CE
:10150000EAF7809582238083DF91CF91FF90EF905F
:10151000DF90CF900895CF93DF93FC01A281B38138
:10152000AD015F5FAE5FBE4FEA01288139818D91C9
:101530009D91129728173907B9F7A285B3854C9169
:10154000818921E030E0B90101C0660F8A95EAF790
:10155000862F809584238C93A285B3854C918289B4
:10156000E90101C0CC0F8A95EAF78C2F809584237E
:101570008C93A285B3858C91938901C0220F9A9593
:10158000EAF7209528232C9380819181FC01EE5F5E
:10159000FE4F2081318132932293DF91CF910895C4
:1015A000FC018589811529F0A085B1858C9186FF84
:1015B000FBCF158A0895CF93DF93FC0122813381FD
:1015C000D901BF5F8D919D911297839590E0E901BC
:1015D000CE5FDE4F4881598148175907D9F34D91A5
:1015E0005D91240F351FD9016C93A281B381AE5F49
:1015F000BE4F9E938E93A285B3858C91938921E0F3
:1016000001C0220F9A95EAF7822B8C9381E0858B9B
:101610000084F185E02D80818064808381E090E00A
:10162000DF91CF91089589EB90E08093A300909390
:10163000A4008093A5009093A60080E48093A70067
:101640001092A80029E22093A9001092AA002BE290
:101650002093AB001092AC002AE22093AD001092D0
:10166000AE008093AF001092B0008CE28093B10086
:101670001092B20084E08093B30083E08093B400C2
:1016800087E08093B50085E08093B60081E0809389
:10169000B7000895CF93DF930F92CDB7DEB7E091F7
:1016A0008A00F0918B00309711F4E0E8F4E0CE016D
:1016B00001962EEB8E179F0720F40F90DF91CF91AC
:1016C00008952193F7CFCF93DF9300D0CDB7DEB746
:1016D000CE01019620918A0030918B0021153105B1
:1016E00011F420E834E0821B930B0F900F90DF91F0
:1016F000CF910895CF93DF930F92CDB7DEB7E091EE
:101700008A00F0918B00309711F4E0E8F4E080E07B
:1017100090E09E012F5F3F4F2E173F0730F0408132
:101720004E3B19F401963196F7CF0F90DF91CF9190
:101730000895009709F408950197EFE9FFE03197C4
:10174000F1F700C00000F5CF8436910560F064E643
:1017500070E00E94B33BCB010C94990B019725E3F9
:101760002A95F1F700000097C9F708956AE070E044
:101770000E94B33BCB010C94A40BE82FF0E0EE0FDA
:10178000FF1FEF58FD4F808191810895E82FF0E011
:10179000EE0FFF1FE95DFD4F8081918108952FB706
:1017A000F894E82FF0E0EE0FFF1FED56FD4F80811B
:1017B00091812FBF08958091FF0208958091DB01F0
:1017C0009091DC0108958091C9019091CA0108951A
:1017D0008091CB019091CC0108958093C60108952A
:1017E000E82FF0E0EE0FFF1FE352FE4F8081918162
:1017F000089581E08093FD020895613110F4423034
:1018000038F021E0FC0122831382208311820895A5
:1018100050E09A01260F311D260F311DB901660FC8
:10182000771F660F771F625F7F4F44E00C94403C48
:101830009A01813190F4623080F470E0680F711D7C
:10184000680F711D660F771F660F771F625F7F4FEE
:1018500044E050E0C9010C945E3C0895EF92FF9281
:101860001F93CF93DF9300D000D0CDB7DEB784E5D0
:10187000E82E80E0F82E10E0F70185919591A59172
:10188000B59189839A83AB83BC83AE014F5F5F4F71
:1018900060E0812F0E94180CF70134968591959194
:1018A000A591B59189839A83AB83BC83AE014F5FC9
:1018B0005F4F61E0812F0E94180C1F5F88E0E80EE7
:1018C000F11C1131C9F681E00E945E120F900F9059
:1018D0000F900F90DF91CF911F91FF90EF9008959F
:1018E0008091FB029091FC020C94C61481E020913F
:1018F0005102309152022331310509F080E0089500
:1019000080914F0290915002089580914B029091E6
:101910004C0208958091550290915602089580914D
:10192000050290910602039750F080910B0290916E
:101930000C02039720F083E090E00C94FD1980E006
:1019400008952FB7F89480E090E0FC01EE0FFF1FA0
:10195000EE0FFF1FEB54FD4F108211821282138293
:1019600001968131910589F788E290E09093FA021F
:101970008093F9021092FE022FBF0895CF93CFB744
:10198000F8941092D9011092DA011092D5011092B8
:10199000D6011092D7011092D8011092D101109265
:1019A000D2011092D3011092D4011092CD01109265
:1019B000CE011092CF011092D0010E94FB3480938F
:1019C000C7019093C801CFBFCF910895EDEDF1E02D
:1019D0008AE4DF011D928A95E9F70895CF93CFB786
:1019E000F89481E090E09093FA028093F90280935A
:1019F000FE020E94E60CCFBFCF910895CF93DF93F4
:101A00000E94EE0CC091DB01D091DC018091DB01E2
:101A10009091DC018C179D0719F0DF91CF9108950B
:101A20008AE090E00E943035F1CF1092FF0280E012
:101A30000C941007CF93DF9381E00E94CF0BEC0151
:101A400080E00E94CF0B8C179D0750F4C81BD90B68
:101A500081E0C93ED34008F480E0DF91CF91089542
:101A6000C0E0D0E0F5CFCF92DF92EF92FF920F93DC
:101A70001F93CF93DF93CDB7DEB728970FB6F894B7
:101A8000DEBF0FBECDBF182F6B01672B89F480E03E
:101A900090E028960FB6F894DEBF0FBECDBFDF9161
:101AA000CF911F910F91FF90EF90DF90CF9008950D
:101AB00040E0682FCE0105960E94FD0B41E0612FAA
:101AC000CE0101960E94FD0BED81FE81E980FA8036
:101AD000EE15FF05E1F26B817C8180E090E00F81E3
:101AE0001885601B710B81099109960140E050E057
:101AF0002E1B3F0B410951090E94973B970140E083
:101B000050E02E1B3F0B410951090E94E93BC901DE
:101B1000DA01800F911FA11DB11DA130B1051CF08C
:101B20008FEF9FEFB6CFB7FFB4CFA0E0B0E0CD010D
:101B3000B0CFCF92DF92EF92FF920F931F93CF938C
:101B4000DF93CDB7DEB728970FB6F894DEBF0FBE90
:101B5000CDBF182F6B01672B89F480E090E02896A9
:101B60000FB6F894DEBF0FBECDBFDF91CF911F91AE
:101B70000F91FF90EF90DF90CF90089540E0682F95
:101B8000CE0105960E94FD0B41E0612FCE0101962A
:101B90000E94FD0BEF81F885EB80FC80EE15FF05C0
:101BA000E1F269817A8180E090E00D811E81601B05
:101BB000710B81099109960140E050E02E1B3F0B0B
:101BC000410951090E94973B970140E050E02E1BCC
:101BD0003F0B410951090E94E93BC901DA01800F1D
:101BE000911FA11DB11DA130B1051CF08FEF9FEF1A
:101BF000B6CFB7FFB4CFA0E0B0E0CD01B0CF8250F8
:101C00008C3130F4E82FF0E0E459FF4F80810895E3
:101C100081E00895CF93C82F833151F481E0209162
:101C20005102309152022331310589F080E00FC01A
:101C30000E94FF0D813069F4EC2FF0E0EE0FFF1FE2
:101C4000E95DFD4F208131812139314078F3CF9119
:101C5000089581E0FCCFEF92FF920F931F93CF93F3
:101C6000CFE191E0E92EF12C00E010E08C2F0E94F2
:101C70000A0E90E09195819591098E219F21082B64
:101C8000192BEE0CFF1CCF5FC53281F7C801CF9135
:101C90001F910F91FF90EF900895CF93DF9300D0A5
:101CA0000F92CDB7DEB76B83E82FF0E0EE0FFF1F8A
:101CB000E95DFD4F2081318129833A830E94FF0D28
:101CC000482F6B8189819A810F900F900F90DF913F
:101CD000CF910C9466382FB7F8946091C20170913F
:101CE000C3018091C4019091C5012FBF20E03DE761
:101CF00040E050E00E94C73BC90108952FB7F89417
:101D00006091BE017091BF018091C0019091C101AD
:101D10002FBF969587957795679520E03DE740E042
:101D200050E00E94C73BC90108954091550250916F
:101D300056028091C2019091C301A091C401B0915B
:101D4000C501840F951FA11DB11D8093C201909301
:101D5000C301A093C401B093C5018091BD0181501E
:101D600019F08093BD01089582E38093BD01209115
:101D70004B0230914C02DA010E94883B24E630E0AD
:101D800040E050E00E94C73B8091BE019091BF01AE
:101D9000A091C001B091C101820F931FA41FB51F74
:101DA0008093BE019093BF01A093C001B093C10185
:101DB00008958091F9029091FA02892B49F080915F
:101DC000F9029091FA0201979093FA028093F90236
:101DD000089590E0880F991FFC01E95DFD4F208177
:101DE000318162177307B8F4261B370B2730310592
:101DF000B8F4FC01E352FE4F208131812F5F3F4F49
:101E0000FC01E352FE4F20833183895D9D4FFC012D
:101E1000608371830895AB01421B530B9A01E6CF97
:101E200020E030E0EDCFCF93DF938FB7F89410929E
:101E3000C2011092C3011092C4011092C501109208
:101E4000BE011092BF011092C0011092C10192E335
:101E50009093BD018FBFC7E2D2E06CA17DA18CE160
:101E60000E94E90E8E859F858093C9019093CA01D7
:101E70000E94EE0C0E94BE0C1092CB011092CC017D
:101E800060E070E089E10E94E90E60E070E08BE1C3
:101E90000E94E90E60E070E08DE1DF91CF910C943B
:101EA000E90E1092DB011092DC010C94130F0C94DC
:101EB000510F9091FF0291110FC00E9410070E94D4
:101EC000510F81E08093FF02809360000E94FE0C1E
:101ED0000E94130F1092FD020895CF92DF92EF92AD
:101EE000FF920F931F93CF93DF93C0912702D0915E
:101EF00028028091290290912A028C179D0708F0F0
:101F00009FC0C81BD90BBE0182E10E94E90E87E287
:101F1000C82E82E0D82E99E3E92E92E0F92E1FE137
:101F2000F701619171917F01812F0E94E90E1F5F7E
:101F30001532B1F78091FD02811106C00E942B0E6F
:101F40008093FB029093FC02E090FB02F090FC0275
:101F500080E090E08C0141E050E09A01082E02C040
:101F6000220F331F0A94E2F72E213F21232B29F061
:101F7000F60126AD37AD020F131F0196F2E0CF0E2A
:101F8000D11C8630910549F7B80183E10E94E90E22
:101F90000115110509F457C0CE01801B910B0C17D8
:101FA0001D0718F0C8018C1B9D0B893B9B4008F056
:101FB0004AC0E80113E1BE0184E10E94E90EB701C5
:101FC00086E10E94E90E612F70E085E10E94E90E32
:101FD0000E94061D00912D0210912E0281110AC04F
:101FE0000E942F2400912B0210912C02811102C01B
:101FF00000E010E09801DE010E94883B20E137E21A
:1020000040E050E00E94C73BB90188E10E94E90E20
:10201000B80187E10E94E90E0E946B0EBC0189E1C4
:102020000E94E90E0E947E0EBC018AE1DF91CF91F1
:102030001F910F91FF90EF90DF90CF900C94E90EDD
:10204000C0E0D0E060CF12E1E12CF12CB4CF1F93BF
:10205000CF93DF93182FC82FD0E084E0189FF001B2
:102060001124EB54FD4F608171818281938120E3C3
:1020700032E040E050E00E94C73BCC0FDD1FCF585C
:10208000DD4F28833983B901812F0E94330DBC01B4
:10209000812FDF91CF911F910C94E90ECF92DF92A7
:1020A000EF92FF920F931F93CF93DF93CDB7DEB7DD
:1020B0002C970FB6F894DEBF0FBECDBF0E94FB3445
:1020C0002091C7013091C801821B930B8133954742
:1020D00008F4B3C04FB7F8942091D9013091DA01D8
:1020E000A0E3B2E00E94883B6B017C01F694E79488
:1020F000D794C7948091D5019091D601A091D70132
:10210000B091D8018D839E83AF83B8878091D10130
:102110009091D201A091D301B091D40189839A8387
:10212000AB83BC838091CD019091CE01A091CF0172
:10213000B091D00189879A87AB87BC874FBF0E9437
:10214000BE0C8091CB019091CC0101968093CB0184
:102150009093CC0169817A818B819C819601A70142
:102160000E94C73B29833A834B835C836D817E81C8
:102170008F8198859601A7010E94C73BB90180E035
:102180000E94330D8D839E8369817A8181E00E9454
:10219000330DAD81BE818A179B0708F04BC0A81B89
:1021A000B90BA983BA8300915F0210916002298163
:1021B0003A812017310720F48091C601811105C0B2
:1021C00069817A818CE10E94E90E69817A81601BC4
:1021D000710B8BE10E94E90E69857A858B859C8560
:1021E0009601A7010E94C73BB90187E00E94330D09
:1021F0002091C9013091CA018093C9019093CA010D
:10220000821B930BBC01660F771F8DE10E94E90EC4
:10221000B6018EE12C960FB6F894DEBF0FBECDBF8F
:10222000DF91CF911F910F91FF90EF90DF90CF90B2
:102230000C94E90E19821A82B6CF2C960FB6F89438
:10224000DEBF0FBECDBFDF91CF911F910F91FF90E9
:10225000EF90DF90CF900895CF932FB7F8948091AF
:10226000F9029091FA022FBF892B09F091C0809159
:10227000FE02811182C08091FF02811509F480C0A5
:102280008091DB019091DC0101968093DB019093BA
:10229000DC014091B5025091B6026091B702709195
:1022A000B80276956795579547958091D50190919D
:1022B000D601A091D701B091D801840F951FA61F18
:1022C000B71F8093D5019093D601A093D701B09307
:1022D000D8014091B9025091BA026091BB0270914D
:1022E000BC0276956795579547958091D10190915D
:1022F000D201A091D301B091D401840F951FA61FE4
:10230000B71F8093D1019093D201A093D301B093D2
:10231000D4014091D1025091D2026091D3027091C8
:10232000D40276956795579547958091CD01909108
:10233000CE01A091CF01B091D001840F951FA61FAF
:10234000B71F8093CD019093CE01A093CF01B0939E
:10235000D0018091D9019091DA0101968093D90141
:102360009093DA010E944E10C0E08C2F0E9427103B
:10237000CF5FC131D1F70E946D0FCF910C94A10CAA
:10238000809160008115C9F385E00E942710F5CF88
:10239000CF9108950C942C110E94490778940E94C3
:1023A000CD060E940E090E94CC240E94A31D0E940B
:1023B000570F0E944A0B0E9454140E94552F0C94F0
:1023C0003C300E94CC110E940D130E94B92D80E078
:1023D00090E008950F931F93CF93DF9300D00F9257
:1023E000CDB7DEB789839A838B0141110E947F3C70
:1023F00084E08B8389819A810E94583C80179107E1
:1024000091F084E690E00E9412358B8181508B839D
:102410008111F0CF81E00F900F900F90DF91CF915D
:102420001F910F91089580E0F6CFEF92FF920F93E6
:102430001F93CF93DF938C017C01E60EF71ECFEF45
:10244000DFEF0E151F0541F4CE01DF91CF911F91F3
:102450000F91FF90EF900895C8010E94503CC8274B
:1024600088E09E01369527959C2FE90190FF04C0D6
:1024700091E0C92790EAD927815099F70F5F1F4F44
:10248000E0CF0F931F93CF93DF9300D00F92CDB780
:10249000DEB78C016A837B8349830E9415124981D0
:1024A000BC018A819B81800F911F0F900F900F902C
:1024B000DF91CF911F910F910C94EA11482F68E89A
:1024C00070E08EE090E00C944112482F60E273E0DF
:1024D00088E990E00C944112482F64E270E08AEBA6
:1024E00093E00C9441120F931F93CF93DF9300D08E
:1024F0000F92CDB7DEB78B8381708983482F63E657
:1025000078E680E090E00E94EA11182F49816CE69D
:1025100079E682E090E00E94EA11182B498162E09E
:1025200070E184E090E00E94EA11182B498166E096
:1025300070E086E090E00E94EA1189838B8181FB44
:10254000442740F96AE070E088E090E00E94EA11D8
:102550008A839B8192FB442740F963E070E08AE024
:1025600090E00E94EA118195082F04708A81880FFB
:10257000082B9B8193FB442740F96CE070E08CE0D2
:1025800090E00E94EA1181958870802B8A8389816E
:10259000182B9A81912B99838B8181FD0E942E0C9F
:1025A00080E00E945E12182F110F9981192B8B81E8
:1025B00082FD0E94D81780E00E9465128195847088
:1025C000812B89839B8193FD0E946F1480E00E9480
:1025D0006C12819588709981892B0F900F900F90C4
:1025E000DF91CF911F910F910895CF93C82F0E9433
:1025F000ED2FC0FF04C0C260C460C86004C0C1FD4C
:10260000FBCFC2FDFACF0E940E308C2F0E947312B6
:10261000682F8C2FCF910C94123080E00E9473129F
:10262000811521F00E94F51280E0089581E008955F
:1026300080E00E94731281600C94F512CF930E9487
:102640004B2F80E392E080937A0390937B03C1E069
:10265000C0937903109272030E94E015823011F446
:10266000C09372030E94691C982F81E0913009F099
:1026700080E0CF91089561E081E00E94DB1B8CE354
:1026800092E080937A0390937B03089561E081E068
:102690000E94DB1B88E492E080937A0390937B0393
:1026A000089560E082E00E94DB1B8AE292E0809362
:1026B0007A0390937B0308950E94761D88EE93E041
:1026C0000E94571D82E390E00E9430350E94891DD0
:1026D00061E081E00E94DB1B84E292E080937A0358
:1026E00090937B030895109272038930E8F4E82FE9
:1026F000F0E0E957F34C0C94083C0E94E01581117E
:1027000002C00C9446130E94E015853029F40C9405
:102710005C1381E0809372030C943B138EE192E092
:1027200080937A0390937B0308950C9451130E9435
:102730003B1380912E0390912F0365E070E00E947F
:10274000B33B6093730370937403089581E08093A7
:10275000720382E492E0E4CF0E94D51F0C94130F21
:10276000CF93C82F0E94AC138C2F0E947313C730D5
:1027700039F063E081E0C83041F0CF910C94691CDE
:1027800060914E03660F615080E0CF910C94461823
:10279000CF93DF930F92CDB7DEB789830E94CC260B
:1027A000811581F18981809303030E947313109234
:1027B00000031092010383E0809302030E94F53925
:1027C00081E00E94590F0E941E13811591F081E053
:1027D000809302030E94FA1F0E944B2F10927903EC
:1027E00085E00E94E633809103030E94B0130E94AB
:1027F00033200E94150D0E94053A0F90DF91CF9172
:102800000C94542F0F90DF91CF910895DC015C96CA
:10281000ED91FD91EE0FFF1FEE0FFF1FE65BFE4FE8
:102820006591759185919591089544E250E0DC01A0
:10283000EEE5F1E00E942A3C08958091100390910A
:10284000110320910E0330910F038217930728F490
:102850002093100330931103C9018131974230F066
:1028600080E197E280931003909311038091140309
:10287000909115032091120330911303821793074F
:1028800028F42093140330931503C9018938934128
:1028900030F088E893E18093140390931503089532
:1028A000FC0180810C94DA0644E250E06AEB73E0AC
:1028B00084E093E00E94403C84E093E00C94501448
:1028C00044E250E06AEB73E084E093E00E945E3CF7
:1028D00081E00E946C1284E093E00C94501444E276
:1028E00050E0A4E0B3E0EEE5F1E00E942A3C0C9455
:1028F0006014FC010994FC01859195910C94791464
:10290000CF93DF9300D000D000D0CDB7DEB78D835A
:102910009E8369837A834B835C8385E00E94C60B28
:1029200029813A818217930768F4ED81FE81108234
:1029300081E00F900F900F900F900F900F90DF910C
:10294000CF9108952B813C812817390728F481E025
:10295000ED81FE818083ECCF80E0EBCF282F81E0FA
:1029600090E03AE0211101C008952150AC01349F5C
:10297000C001359F900D1124F5CF009719F024F474
:102980008FEF089580E0089581E008959C0180E034
:1029900090E1422F4170840F369527959150C9F7E9
:1029A0000895CF9397FF0AC00E94003CC1E00097B2
:1029B0007040604051F48C2FCF910895C1E0009792
:1029C00070406040A1F3C0E0F2CFCF5F2AE030E07A
:1029D00040E050E00E94E93BB901CA01E8CFBC01E8
:1029E00080E090E00C94D114EF92FF920F931F932C
:1029F000CF93DF9300D000D0CDB7DEB789839A8321
:102A00007B014B835C83DC01ED91FD91CF01B8012B
:102A10000E94B33B009799F0081B190B1E141F046A
:102A20008CF08C018B819C81800F911F8E179F07EA
:102A3000A0F4CF01801B910B8B839C830EC01E14CE
:102A40001F0484F7C901801B910BE817F90718F4DC
:102A50009F01200F311F2B833C838B819C81E98157
:102A6000FA81808391830F900F900F900F90DF91E8
:102A7000CF911F910F91FF90EF9008950F931F93A7
:102A8000CF93DF93CDB7DEB728970FB6F894DEBFAC
:102A90000FBECDBF8F83988769837A834B835C8316
:102AA0002D833E83FC01808191810E94EF1482304E
:102AB000C8F082500E94AE148C012D813E814B8162
:102AC0005C8169817A818F8198850E94F4142896AF
:102AD0000FB6F894DEBF0FBECDBFDF91CF911F912F
:102AE0000F91089581E090E0E7CF2FEF3FEF40E0B6
:102AF00050E00C943E150E945A358111FCCF0E9483
:102B00005A358115E1F3089540912C0350912D031E
:102B1000609128037091290395E0969FF001979F9B
:102B2000F00D1124E80FF11DEE0FFF1FEA55FE4FC7
:102B300025913591823051F46230710539F4473076
:102B4000510520F04150510920EB34E0429FC00173
:102B5000439F900D529F900D1124089540912C0396
:102B600050912D03209128033091290395E0929FE5
:102B7000F001939FF00D1124E80FF11DEE0FFF1FE0
:102B8000EA55FE4F25913591813061F42091320351
:102B900030913303249FC001259F900D349F900DE9
:102BA00011240895823029F42091340330913503A3
:102BB000F1CF833079F72091460330914703EACF74
:102BC000E0912803F0912903EE57FE4F8491089578
:102BD00020912A0330912B03A0914403B091450327
:102BE0000E94883B64302FE2720723E6820791053A
:102BF00088F4E0912803F0912903EE57FE4FE49109
:102C0000E53041F024E630E040E050E00E94C73B70
:102C1000C901089528EE3DEFFBCF20912C033091A0
:102C20002D038091480390914903AC01249FC0017A
:102C3000259F900D349F900D1124089582E00E94ED
:102C40008415BC0180911603909117030E9474189B
:102C50009C0180911003909111032817390708F403
:102C6000C901089582E00E948415BC018091180377
:102C7000909119030E9474189C0180911403909103
:102C800015032817390708F4C9010895809128030E
:102C9000909129039C012A5031092230310580F09E
:102CA0002AE0289FF001299FF00D1124E855FE4FDE
:102CB0006591759188E799E60E94B33BCB01089531
:102CC00081E090E0089580912A0390912B0384364F
:102CD000910508F088C084E690E080932A039093E1
:102CE0002B0380913A0390913B03893E934030F04F
:102CF00088EE93E080933A0390933B030E9446163C
:102D000020912C0330912D038217930728F4809390
:102D10002C0390932D039C01232B29F481E08093B5
:102D20002C0310922D030E941E1620912E03309129
:102D30002F038217930728F480932E0390932F0379
:102D40009C0180913603909137032817390720F4AE
:102D500020933603309337030E94321620913003BC
:102D6000309131038217930728F4809330039093B6
:102D700031039C01409138035091390324173507E2
:102D800028F42093380330933903A90180910E036E
:102D900090910F0360912E0370912F0368177907AC
:102DA00020F480932E0390932F036091360370914B
:102DB00037036817790720F480933603909337031D
:102DC00080911203909113032817390720F4809300
:102DD0003003909331034817590720F48093380348
:102DE000909339030895893E9D4F08F47ACF88EE79
:102DF0009DEF73CF98E2899FB001112468567F4FF1
:102E000048E250E088E293E00E94403C0C94631654
:102E100098E2899FB001112468567F4F48E250E044
:102E200088E293E00E945E3C81E00C9465120E946F
:102E3000631680912E0390912F036AE070E00E9448
:102E4000B33B609336037093370308950E94631673
:102E500080913003909131036AE070E00E94B33BAF
:102E6000609338037093390308950E94631680912C
:102E70002A0390912B0380932E0390932F0320918C
:102E80002803309129032330310541F49695879525
:102E90009695879580932E0390932F030E94171782
:102EA00080912A0390912B038093300390933103F8
:102EB0000C94261720912803309129034AE0429F61
:102EC000C001439F900D1124FC01E855FE4F459130
:102ED00055914093320350933303FC01E655FE4F66
:102EE0004591559140933403509335032115310595
:102EF00049F540ED57E040932A0350932B0343E0FC
:102F000040932C0310922D0348EE53E040933A0374
:102F100050933B0310923C0310923D0340E757E16E
:102F200040933E0350933F0310924003109241039D
:102F30004EE1409342031092430348E74093440319
:102F400010924503F901EE57FE4FE491E11121C0C3
:102F500081EF9FEF2230310511F48BEF9FEF21E0DD
:102F600020934603109247038093480390934903AC
:102F700083E080934A0310924B0384E680934C03D2
:102F800010924D0385E080934E0310924F030C94F2
:102F9000351728E02093480310924903FC01E455BB
:102FA000FE4F859195918093460390934703EFCF11
:102FB000CF9310922803109229030E945A17C0E061
:102FC0008C2F0E940817CF5FC431D1F781E0CF91D9
:102FD0000C946512CF93DF930F92CDB7DEB7898340
:102FE0000E94FA168091280390912903892B19F1E8
:102FF0000E94DE310E948936809128039091290336
:103000008B30910551F120F40097A9F00A97F9F05F
:1030100067E080912A0390912B030E9480388FE211
:103020000E94EE3580912C0390912D030F90DF913B
:10303000CF910C9427362981822F90E001960E942F
:1030400027368AE30F90DF91CF910C94EE3589E01B
:103050000F90DF91CF910C94973165E080912E0312
:1030600090912F030E945D380E94893684E0F0CF52
:1030700080914203909143030E94781E86E392E080
:1030800080937A0390937B030C94691CCF93DF9316
:103090000F92CDB7DEB7698391E090937903809367
:1030A0005003809150039981891302C010927903D3
:1030B00080FF18C080E00E94B013813079F49091B5
:1030C0007903911559F0809150038F5F80935003DD
:1030D0000E94AC130E943818813019F30F90DF91D1
:1030E000CF91089583E0E7CFAB019C01A8EEB3E058
:1030F0000E94883B9A0140E050E00E94C73BA8EE46
:10310000B3E00E94153C8436910540F424E630E09B
:1031100040E050E00E94C73BC90108952FEF3FEF08
:10312000FBCF80916F0390917003892B99F40E94DB
:10313000DB0B811581F00E94DE0B20915103309151
:103140005203AC01421B530B81E04330510518F090
:1031500080E0089581E00895815E0C94C60BEF92A3
:10316000FF920F931F93CF93DF9300D00F92CDB7B1
:10317000DEB71A821B828FEFF82EEF2C2FEF2983F8
:1031800001E010E02091FB023091FC02C8010A80AE
:1031900002C0880F991F0A94E2F782239323892B98
:1031A00049F08A810E94AC188E159F0518F42A8177
:1031B00029837C018A819B8101968A839B83069760
:1031C00009F789810F900F900F90DF91CF911F9198
:1031D0000F91FF90EF900895CF93DF9320916F03AD
:1031E00030917003232B21F4DF91CF910C94AC1814
:1031F000C82FD0E090915503CC0FDD1F911591F0B1
:103200000E94AC18FE01EA5AFC4FCE59DC4F2081D7
:10321000318148815981241B350B820F931FDF9127
:10322000CF910895CA5ADC4F88819981F8CFEF92E7
:10323000FF920F931F93CF93DF938091FB029091A6
:10324000FC02892B81F100E010E0E8018FEFF82EFD
:10325000EF2C2091FB023091FC0281E090E0002EE7
:1032600002C0880F991F0A94E2F782239323892BC7
:1032700059F0802F0E94EC18C817D90708F4EC0108
:103280008E159F0508F47C010F5F1F4F0630110556
:1032900001F7CE19DF0981E02091480330914903FD
:1032A0002C173D0708F080E0DF91CF911F910F911F
:1032B000FF90EF900895CF93DF93EC0180916F031F
:1032C00090917003892B41F0209731F40E94DE0B1E
:1032D0008093510390935203C0936F03D093700374
:1032E0000E94E60C80916E03811105C08C2FDF9146
:1032F000CF910C942A07DF91CF910895FF920F93FD
:103300001F93CF93DF9381E00E946407C2E6D3E06E
:1033100006E513E0F12C8F2D0E94AC188993999348
:10332000F801819391938F01F394F6E0FF12F3CFAC
:1033300010926F031092700310926E0380E090E081
:103340000E945B1910925103109252038FEF8093E9
:103350007103DF91CF911F910F91FF90089580E04D
:1033600090E00E945B1981E080936E0308950E94B3
:10337000AF1980E00C946407EF92FF921F93CF93F4
:10338000DF9300D000D0CDB7DEB78091710387FD09
:1033900031C00E94EC1889839A8310E091E0E92EF5
:1033A000F12C1B821C828091FB029091FC028E21E9
:1033B0009F21892B71F0812F0E94EC1829813A817D
:1033C0002817390730F48B819C818E299F298B83A4
:1033D0009C83EE0CFF1C1F5F163029F78B819C81AC
:1033E0000F900F900F900F90DF91CF911F91FF9052
:1033F000EF9008951B821C82F1CF0F931F93CF9300
:10340000DF9300D000D0CDB7DEB789839A831B82CB
:103410001C8201E010E02091FB023091FC02C80107
:103420000B8002C0880F991F0A94E2F7822393232E
:10343000892B99F42B813C812F5F3F4F2B833C8359
:103440002630310541F781E00F900F900F900F90DB
:10345000DF91CF911F910F9108958B81815E0E9422
:10346000F00B29813A818217930720F780E0ECCF97
:10347000AF92BF92CF92DF92EF92FF920F931F9382
:10348000CF93DF9300D000D0CDB7DEB786E090E0D9
:103490000E94FD19811509F480C00E948F0CA82E8E
:1034A000811509F47AC08091710387FF04C00E94DE
:1034B000AF18809371030E94AC1889839A83E090BF
:1034C0003403F090350386E5C82E83E0D82E02E65B
:1034D00013E0BA2C1B821C822091FB023091FC026B
:1034E00081E090E00B8002C0880F991F0A94E2F7F8
:1034F00082239323892BA1F08B810E94AC188E1517
:103500009F05B8F121E049815A814817590708F40D
:1035100020E0B222F60180839183F80180839183B9
:103520004B815C814F5F5F4F4B835C8352E0C50EE4
:10353000D11C0E5F1F4F8B819C81069769F61092FC
:1035400055030E940E358093530390935403B11496
:1035500091F00F900F900F900F90DF91CF911F91EE
:103560000F91FF90EF90DF90CF90BF90AF900C94B1
:10357000AF19BA2CE4CF0E94BC190F900F900F9096
:103580000F90DF91CF911F910F91FF90EF90DF90FF
:10359000CF90BF90AF900C945B190F900F900F904D
:1035A0000F90DF91CF911F910F91FF90EF90DF90DF
:1035B000CF90BF90AF9008950F931F93CF938091BA
:1035C0005503811110C081E08093550302E613E09A
:1035D000C0E08C2F0E94AC18F801819391938F0169
:1035E000CF5FC630B1F7CF911F910F9108950E9420
:1035F0000E352091530330915403821B930B089591
:1036000080916F0390917003892B59F40E94381AAE
:103610000E949118811110C090916E0382E0891B65
:1036200008950E94DC1A0E94F71A409788F380E000
:1036300090E00E945B19ECCF82E008950F931F93F6
:10364000CF93DF9300D000D0CDB7DEB789839A83C4
:103650001B821C8201E010E02091FB023091FC02F1
:10366000C8010B8002C0880F991F0A94E2F78223D9
:103670009323892B99F42B813C812F5F3F4F2B8320
:103680003C832630310541F780E00F900F900F907A
:103690000F90DF91CF911F910F9108958B810E9420
:1036A000EC1829813A818217930728F381E0EDCF46
:1036B0000F931F93CF93DF9300D000D0CDB7DEB729
:1036C00089839A831B821C8201E010E02091FB0217
:1036D0003091FC02C8010B8002C0880F991F0A9428
:1036E000E2F782239323892B99F42B813C812F5F6E
:1036F0003F4F2B833C832630310541F780E00F900C
:103700000F900F900F90DF91CF911F910F9108951F
:103710008B810E94EC1829813A812817390728F3F8
:1037200081E0EDCFCF93DF9300D0CDB7DEB78983B3
:103730009A830E94700C90E0811539F0682F70E038
:1037400089819A810E94B33BCB010F900F90DF914A
:10375000CF9108950E949F2481E00E94A021809132
:103760007303909174030C946A240C94B6240E9401
:103770008F0C811521F00E9440240C94572208954B
:103780000E94B71B0E94800C209177033091780330
:103790002817390740F487E19AE08093000390935B
:1037A000010380E0089580917503909176030E9453
:1037B0006A2482E00895CF93DF930F92CDB7DEB7EE
:1037C00069830E94AE158093770390937803898173
:1037D0008115A1F080912E0390912F0380937503A2
:1037E000909376038091360390913703809373030F
:1037F000909374030F90DF91CF91089580913003DF
:1038000090913103809375039093760380913803F0
:1038100090913903EBCF80917A0390917B030C94C4
:103820007B1480917A0390917B0302960C947B1415
:103830000E94111C0E9433200C94EC35CF93DF932F
:1038400000D0CDB7DEB70E940E3589839A830E94DF
:103850000E3529813A81821B930B853B910510F02F
:103860000E94150D0E945A35811589F30F900F9013
:10387000DF91CF910C94DC330E94181C0E949D2F85
:1038800086E00E94E6330C941E1C0E94181C0E94C5
:10389000150D0E94A12F87E00E94E6330C941E1C98
:1038A000E0917A03F0917B03349685919591FC0128
:1038B0000994813020F40E94451C80E0089539F479
:1038C000809179038111F9CF0E943C1CF6CF81E0F1
:1038D00008950F931F93CF93DF93109221040E94BA
:1038E0000B1CD2E000E010E0C1E00E945A3580934A
:1038F00021040E94C52FC115C1F00E947620D82F47
:103900000E94591CC82F811581F00E94DE0B801780
:10391000910791F00E94DE0B8C010E94501CD82F61
:103920000E94591CC82F811107C0C0917903C1158D
:1039300019F0D11105C0C0E0809121048130A9F6B1
:103940000E94111C8D2FDF91CF911F910F9108952F
:103950000E94891D0C94B7190E94761D0E947E1941
:1039600081E02091400330914103232B09F480E052
:1039700080937C0380E00C94A0210F931F93CF933E
:103980000091770310917803C8010E94921B0E9456
:10399000581BC82F0E949118811109C0C11107C07E
:1039A0000E94800CC1E00817190708F4C0E08C2FB2
:1039B000CF911F910F910895CF93DF9300D00F9275
:1039C000CDB7DEB70E94BD1C89830E94171D8A8374
:1039D0009B8380917C038115A9F06A817B81898119
:1039E0000E940922811110C06A817B8189810E9415
:1039F0006A230E94571D82E00F900F900F90DF9175
:103A0000CF9108958981EECF81E0F6CF8091810337
:103A1000089581E020917F0330918003232B09F4E6
:103A200080E0089580917F039091800308958091B4
:103A30007D0390917E030895CF93DF930F92CDB7CE
:103A4000DEB740910A0350910B03BA017250CE01C8
:103A500001960E9480148981811118C00E94850CF2
:103A6000009711F481E090E0BC0184EC99E00E94A1
:103A700074189C018091140390911503281739073D
:103A800008F4C9010F90DF91CF91089580E090E094
:103A9000F9CF813020E8920710F080E090E8809321
:103AA0007F03909380030E9428070C94EE0CCF9321
:103AB000DF93EC010E941C1DC817D90708F4CE0142
:103AC00020917D0330917E032817390761F08093A0
:103AD0007D0390937E03BC0180E10E94990DDF91EC
:103AE000CF910C94491DDF91CF910895809181036E
:103AF00081110EC080E090E00E94491D10927D036C
:103B000010927E0381E00E941E0781E08093810372
:103B10000895809181038115A9F080E090E00E94D2
:103B2000491D10927D0310927E03109281038AE05A
:103B300090E00E94303580E00E941E078AE090E00D
:103B40000C943035089581E0809381030C94891D95
:103B500087E08093610482E0809360040E94DF33F9
:103B600083E08093820308958FEF809361040C9427
:103B7000DC33EF92FF920F931F93CF93DF9382E199
:103B80000E940A0E20912803309129032A503109FE
:103B900091E02230310508F490E021E0C82FC227DF
:103BA000C9230E94700C082FD0917203D11559F0CF
:103BB00080912C03D1E0081301C0D0E0813009F4DA
:103BC0004DC011E0011110E00E94760C8115B9F092
:103BD00083E10E94C60B7C0182E10E94C60BE816BD
:103BE000F90608F040C09C012E193F09790181E0D7
:103BF00035EFE31631E0F30608F480E0C82B87E0E8
:103C0000D11183E080936104111519F082508093E3
:103C10006104C11529F08091610481508093610491
:103C2000D11126C0111511F182E00E94E633D1E0D6
:103C3000011541F10E945035811126C01092820376
:103C4000D11128C0C11122C00E9450358830F1F432
:103C5000809182038F5F8093820318C0011101C09D
:103C600080E0D823B0CFE81AF90AC1CFC11541F0DE
:103C700082E00E94E6331111DACFD111D8CF02C011
:103C80000E94DC33D0E0D6CFD115E1F280918203DF
:103C9000823041F082E0DF91CF911F910F91FF9030
:103CA000EF90089581E0F7CF1092870308950E9466
:103CB0000E35809385039093860308950E940E35F8
:103CC0002091850330918603821B930B20918303FF
:103CD000309184032817390728F481E090E090930D
:103CE0008703089582E091E0FACF809187030895D9
:103CF0004CE3489F9001499F300D1124209383038A
:103D00003093840308950E947E190E949F2481E0CD
:103D10000C94A0210E94B6240C94B7190F931F9302
:103D2000CF930091770310917803C8010E94921BF2
:103D30000E941E1BC82F0E949118811109C0C11139
:103D400007C00E94800CC1E08017910708F4C0E012
:103D50008C2FCF911F910F910895CF93DF9300D0B7
:103D60000F92CDB7DEB70E948E1E89830E94402439
:103D70008A839B83BC0189810E94092281110EC024
:103D80006A817B8189810E946A230E946A2482E081
:103D90000F900F900F90DF91CF91089581E0F8CFB1
:103DA00080919903811109C06091940370919503EA
:103DB000809196039091970308950E940335209176
:103DC0009403309195034091960350919703621BA1
:103DD000730B840B950B0895609190037091910380
:103DE000809192039091930328EE33E040E050E0FD
:103DF0000E94C73BB901CA01089560918C0370917C
:103E00008D0380918E0390918F0328EE33E040E084
:103E100050E00E94C73BB901CA01089560918C032C
:103E200070918D0380918E0390918F0320E63AEE7E
:103E300040E050E00E94C73BC90108950F931F93D3
:103E4000CF93DF9381E00E94AE15EC0184E00E94E5
:103E5000AE158C0184E10E94C60B8C179D07D0F42F
:103E600008171907C8F49C01201B310BCE01801BD9
:103E7000910B64E670E00E94B33BC9010E94B33B22
:103E80006436710508F063E6862FDF91CF911F91AC
:103E90000F91089583E6F9CF80E0F7CFCF92DF92BC
:103EA000EF92FF920E941E1F90919803981798F529
:103EB000809398030E94D01EC0909B03D0909C03D7
:103EC000E0909D03F0909E039B01AC012C193D09ED
:103ED0004E095F0969017A010E94D01E60939B031D
:103EE00070939C0380939D0390939E0380919F0306
:103EF0009091A003A091A103B091A2038C159D0500
:103F0000AE05BF0540F4C0929F03D092A003E0929B
:103F1000A103F092A203FF90EF90DF90CF9008955D
:103F20000E944E1F80919A03A9E6811101C0A4E668
:103F300080919803A81BBB0B20919F033091A00395
:103F40004091A1035091A2030E94203C089520912A
:103F50000603309107032130310519F481E00C94F8
:103F60000A0710F480E0FBCF24303105A1F48091E2
:103F700099038115B9F385E00E94C60B20910803CF
:103F800030910903A90152508417950758F3281757
:103F9000390720F308952230310519F480919903EF
:103FA000DECF23303105D9F6E6CF0E941E1F809365
:103FB000980310929B0310929C0310929D03109201
:103FC0009E0310929F031092A0031092A1031092DF
:103FD000A2031092900310929103109292031092F8
:103FE000930310928C0310928D0310928E03109203
:103FF0008F03089560E971E080E00E94990D80933D
:104000008A0390938B0381E00E94AE15BC01685433
:10401000744F693729E6720710F068E779E680E0A7
:104020000E94990D813C2FEF920710F080EC9FEFDA
:1040300080938803909389030E94760C80939A035F
:104040000E940335609394037093950380939603C5
:10405000909397030E94D51F1092A30381E0809351
:1040600099030C94F90B0E94D01E609394037093F3
:104070009503809396039093970310929903089564
:104080000E943224811569F180918C0390918D03F7
:10409000A0918E03B0918F0380599F4FAF4FBF4FB8
:1040A00080938C0390938D03A0938E03B0938F0322
:1040B0000E9491188115A1F0809190039091910335
:1040C000A0919203B091930380599F4FAF4FBF4F80
:1040D0008093900390939103A0939203B0939303E2
:1040E00008950E94091D8111CFCFE2CFCF93DF93B6
:1040F00080919903811104C082E0DF91CF910895EE
:1041000085E00E94C60B20910A0330910B033E5FAD
:104110002817390740F48BEF9CE0809300039093BD
:10412000010380E0EACF80E00E94CF0B209188035A
:10413000309189038217930758F420918A033091B4
:104140008B038217930738F40E94061D811519F01E
:104150008BE09DE0E2CF8091A3038130C9F30E9400
:10416000760C90919A03891719F08CEE9CE0D5CFCC
:10417000C0917503D0917603C851DC4F0E948A0C20
:10418000C817D90718F481EE9CE0C7CF86E00E94DB
:10419000C60B20911A0330911B038217930718F462
:1041A00082ED9CE0BACF89E10E94C60BEC010E942F
:1041B000E815883E2DEF920759F0C817D90740F04F
:1041C00082EC9CE0809300039093010381E095CF03
:1041D000C0913A03D0913B03C83E83E0D80740F436
:1041E0000E940E1F8C179D0718F087EB9CE0EACF0A
:1041F00080913C0390913D03892B09F47DCF87E0AA
:104200000E94C60B20913E0330913F0328173907C7
:1042100008F072CF87EA9CE080CF0E948A1E0E943D
:10422000A81C0C94B719CF938091A403813058F047
:10423000D1F00E94001BC82F823011F00E940D2186
:104240008C2FCF9108950E94AD1EC82F8130C1F7E9
:10425000809172038115A1F382E08093A4030E94F0
:104260007E19C2E0EDCF0E94DC1CEFCFCF93DF932D
:104270000E947E1961E083E00E94DB1BC0917703FE
:10428000D09178030E94700C81110DC00E94800CA7
:10429000C817D90778F00E94831E80E08093A4039A
:1042A000DF91CF910895CE010E94921B0E94581B6E
:1042B0008111F1CF60E083E00E94DB1B0E94AC1C07
:1042C00081E080937C03EACF8091A503813029F4BB
:1042D0008091730390917403089580E090E00895B5
:1042E0002CE0829FC00111248F549C4F0C94DD243C
:1042F00089EF93E00C94DD24CF93DF9300D000D0BE
:10430000CDB7DEB782E10E94C60B89839A8384E130
:104310000E94C60B29813A81281B390B29833A83D5
:1043200087E10E94C60B8B839C83CE0101960E947D
:10433000DD240F900F900F900F90DF91CF91089593
:10434000EF92FF920F93CF93DF9300D000D00F92A4
:10435000CDB7DEB7898381E08093A5030E94800CEE
:104360002091730330917403409177035091780347
:104370000981BC0181EF93E00E94F62480917703CC
:10438000909178030E94921B8A839B8389EAE82E8E
:1043900083E0F82E1C821D822091FB023091FC02EA
:1043A00081E090E00C8002C0880F991F0A94E2F728
:1043B00082239323892B71F08C810E94EC18209129
:1043C00073033091740309814A815B81BC01C70189
:1043D0000E94F6248C819D8101968C839D839CE0B4
:1043E000E90EF11C8C819D810697B1F61092FF03B6
:1043F0001092A8031092FD031092FE030F900F90ED
:104400000F900F900F90DF91CF910F91FF90EF9051
:1044100008950F931F93CF93C82F8B018091720340
:10442000811559F08091FF03C11501F181111EC062
:104430000E94AF1981E08093FF030E9464218017DE
:10444000910790F1C11581F18091FF03843061F5EE
:104450009091A80381E0890F8093A80381E09A30AE
:1044600008F480E0CF911F910F9108958B7F29F779
:104470008091730390917403803A910510F480EA5F
:1044800090E08017910710F410926E030E94001BB9
:104490008093A503813029F70E941719811569F2CD
:1044A0008FEF80937103C9CF1092A803DACF0F93D7
:1044B0001F93CF93DF9300D000D0CDB7DEB78983B1
:1044C0009A830E94800C49815A81BC0181EF93E05C
:1044D0000E94B72509EA13E01B821C822091FB028F
:1044E0003091FC0281E090E00B8002C0880F991FA0
:1044F0000A94E2F782239323892B49F08B810E944F
:10450000EC1849815A81BC01C8010E94B7258B81F2
:104510009C8101968B839C83045F1F4F0697F1F665
:104520000F900F900F900F90DF91CF911F910F91EF
:104530000895EF92FF920F931F93CF93DF9300D0D4
:1045400000D0CDB7DEB7609177037091780381EF2B
:1045500093E00E941C257C01809177039091780361
:104560000E94921B89839A8309EA13E01B821C82B2
:104570002091FB023091FC0281E090E00B8002C0B0
:10458000880F991F0A94E2F782239323892B71F0F5
:1045900069817A81C8010E941C25E816F90630F06D
:1045A00069817A81C8010E941C257C018B819C81D4
:1045B00001968B839C83045F1F4F0697C9F6C70142
:1045C0000F900F900F900F90DF91CF911F910F914F
:1045D000FF90EF9008950F931F93CF93DF93EB011C
:1045E00000917503109176038017910708F48C01F0
:1045F0000E9464219C018017910708F498012C17F0
:104600003D0729F14091FF034430C1F42C173D07C9
:10461000A8F08017910790F4809173039091740330
:104620008C179D07A0F04091A6035091A70380919D
:104630005103909152034817590749F08091510353
:10464000909152038093A6039093A703E901CE01B2
:10465000DF91CF911F910F910895EF92FF920F93E9
:104660001F93CF93DF938C010E94800C8093F10302
:104670009093F2030093F3031093F40389EAE82E76
:1046800083E0F82EC0E0D0E02091FB023091FC02E4
:1046900081E090E00C2E02C0880F991F0A94E2F787
:1046A00082239323892B41F08C2F0E94EC18F70171
:1046B00080839183028313832196FCE0EF0EF11C2B
:1046C000C630D10509F7DF91CF911F910F91FF906F
:1046D000EF9008951F93CF93DF93182FEB010E9463
:1046E0008F0C811109C0111509F440C08091FD03A0
:1046F0009091FE03892BD1F10E949118811136C04F
:10470000CE010E945722CE010E942D230E949922A1
:104710008C179D0720F48C0F9D1F9695879580938D
:10472000FD039093FE03BE010E94EB228093FD03E4
:104730009093FE038091FF03823001F150F48111C8
:104740000CC0111599F00E94AF1981E08093FF030E
:104750000DC08330C9F084E0F9CF111539F082E043
:104760008093FF031092FD031092FE038091FD03DE
:104770009091FE03DF91CF911F9108951092FD0358
:104780001092FE0383E0E2CF111581F3E4CF0C9485
:10479000AA1B0F931F93CF93DF930E94B71B0E9416
:1047A000800CEC0182E00E94AE158C179D0730F45E
:1047B00080917503909176030E946A24809177031B
:1047C000909178038C179D0740F487E19AE08093DD
:1047D00000039093010381E005C00E94E80B02975B
:1047E00030F482E0DF91CF911F910F910895809175
:1047F0003C0390913D03892B69F08DE10E94C60B2B
:1048000020914C0330914D03281739071CF48DE09B
:104810009AE0DDCF0E94E80B8C01C0914A03D09151
:104820004B03CC0FDD1F81E00C171D0708F480E05F
:104830000E94ED0B0C171D07A0F28091460390918A
:104840004703892B71F28BE10E94C60BEC010E9499
:104850000D16C817D9072CF683E19AE0B8CF8091DE
:104860000404089581E02091020430910304232B75
:1048700009F480E008958091020490910304089562
:10488000809100049091010408950E94850C009786
:1048900011F481E090E0BC01809116039091170320
:1048A0000E9474189C0180911003909111032817A5
:1048B000390708F4C9010895813020E8920710F003
:1048C00080E090E880930204909303040E94240700
:1048D0000C94EE0CCF93DF93EC010E944524C81793
:1048E000D90708F4CE012091000430910104821709
:1048F0009307A8F4A901481B590B4D38510518F02E
:10490000C9018C5891098093000490930104BC0163
:104910008FE00E94990DDF91CF910C945C24AC0143
:10492000421B530B4D38510520F0C90184579F4F4E
:10493000EACF2817390739F7DF91CF910895809191
:104940000404811112C01092020410920304109208
:1049500000041092010480E090E00E945C2481E059
:104960000E94180781E08093040408958091040454
:10497000811589F080E090E00E945C24109202048E
:1049800010920304109200041092010480E00E942F
:104990001807109204040895109202041092030460
:1049A000109200041092010480E090E00E945C24C8
:1049B00081E0809304040C94B624FC01428153816D
:1049C0004115510589F02081318137FF03C03195B0
:1049D00021953109A8EEB3E00E94883B9A0140E09E
:1049E00050E00E94C73BA901CA0108950F93DC0162
:1049F000FB014617570708F4FA016417750708F416
:104A0000BA01011105C09E2F8F2FFB01692F782F4E
:104A10001696ED93FD931897ED93FD931D921D92BD
:104A20001D921D9214962D933D936E1B7F0B149730
:104A30006D937D930F910895DC011896ED91FD9192
:104A40001A973097F1F09B0140E050E016968D9157
:104A50009D911897281B390B410951091A960D9001
:104A6000BC91A02D0E94153C9F01FF0F440B542FB9
:104A70000E94E93B4130510524F457FD05C0C901AE
:104A800008958FEF9FEF089580E090E00895EF92F2
:104A9000FF920F931F93CF93DF9300D00F92CDB768
:104AA000DEB78A839B83FC01828193817A01E81AB5
:104AB000F90A8417950718F07C01E41AF50AEA81CF
:104AC000FB8124813581369527952E153F05F0F41D
:104AD000008111818417950718F5CB01801B910B7C
:104AE0008C01C8010E94BD148983EA81FB81808505
:104AF00091850E94BD14F981F81308C0EA81FB81F9
:104B0000E482F58200871187E286F3860F900F908A
:104B10000F90DF91CF911F910F91FF90EF9008952B
:104B2000061B170BDECF0F931F93CF93DF938C01E0
:104B3000EB019A01FC01A085B1850E940E3C228503
:104B4000338540E050E00E94E93BC217D3071406CA
:104B5000150654F0C21BD30BF801C683D783DF912F
:104B6000CF911F910F910895C0E0D0E0F5CFCF9382
:104B7000DF9300D000D000D0CDB7DEB789839A8311
:104B80006B837C834D835E830E9447254D815E81CC
:104B90006B817C8189819A810F900F900F900F908B
:104BA0000F900F90DF91CF910C9493251F93CF938B
:104BB000DF93182F61EF79E085E09AE00E946A2F79
:104BC000D0E082E10E940A0EC82F811559F00E94A0
:104BD000700C91E0811101C090E0911741F0D11566
:104BE00059F0DC2F0E945A35813059F7C0E08C2FE4
:104BF000DF91CF911F91089563EE79E085E09AE00F
:104C0000111102C08AEF99E00E946A2FEACFCF9279
:104C1000DF92EF92FF920F931F93CF93DF9300D019
:104C20000F92CDB7DEB789836B017A01BA010E947A
:104C3000990D8A839B83B60189810E94990D8C010D
:104C4000B7016C0D7D1D7695679589810E94990D40
:104C50000115110539F10F3F100731F12A813B8110
:104C60002115310519F12F3F320711F102171307F2
:104C700008F59C012A50310902171307E8F40A9637
:104C80002A813B8182179307C8F480E00F900F9030
:104C90000F90DF91CF911F910F91FF90EF90DF90D8
:104CA000CF90089581E0F2CF82E0F0CF83E0EECFA5
:104CB00084E0ECCF85E0EACF86E0E8CF87E0E6CF7E
:104CC000409110035091110360910E0370910F03F6
:104CD0008FE00E94072681110BC040911003509174
:104CE000110360910E0370910F0382E00C9407266C
:104CF000865F08954091140350911503609112034B
:104D00007091130380E10E94072681110BC040912E
:104D1000140350911503609112037091130383E003
:104D20000C940726865F0895CF93DF930E940D139E
:104D3000D82F811571F048E759E668EE73E080E0FE
:104D40000E940726811551F0682F8BED99E00E9493
:104D50002630D0E08D2FDF91CF9108950E946026FC
:104D6000811521F0682F82ED99E0F1CF0E947A261B
:104D7000C9E0811521F0682F86EC99E0E8CF40EA80
:104D80005FE068EE73E08C2F0E9407268111DCCF74
:104D9000CF5FCF30A1F7DECF0C949426CF93C1E044
:104DA00080913C0390913D03892B09F4C0E010925F
:104DB0003C0310923D030E94F5398EE492E00E947C
:104DC000A42B0E94CC260E94053AC0933C0310926B
:104DD0003D0310920203CF910895EF92FF920F933B
:104DE0001F93CF93DF93CDB7DEB729970FB6F89413
:104DF000DEBF0FBECDBF6E837F8348875987122FDA
:104E000060E070E00E94F229111107C08091240334
:104E100090912503892B09F479C08FEF9FE70E94B9
:104E2000E82981E00E947A2B082F87FD77C00E9435
:104E30000F2A7C0181FF6DC0102F110F110BEE8125
:104E4000FF81E00FF11F84918D830E940A0E81156E
:104E500041F30E94FE0C1092FF02109260000E942B
:104E6000DF2B811509F44CC0E885F985E00FF11FAF
:104E7000F49084E00E94E6338D810E94C60B8C0181
:104E80000E940F3A8F2D0E94BD0B89839A830B835A
:104E90001C83AE014F5F5F4F609105048F2D0E9410
:104EA000180CE7FE2AC081E08093FF020E94FE0CEE
:104EB0000E940F3A80E00E94BD0B89839A8381E0B3
:104EC0000E94BD0B29813A81281B390B29833A8323
:104ED00083E10E94C60B8B839C83AE014F5F5F4FC3
:104EE0006091050480E00E94180CAE014F5F5F4F97
:104EF0006091050481E00E94180C81E00E945E121E
:104F000081E08093FF02809360008BCF8BEF9FE75F
:104F100086CF82FF86CF0E94DF2B83CF29960FB6E4
:104F2000F894DEBF0FBECDBFDF91CF911F910F91DF
:104F3000FF90EF90089581E080930504109206049D
:104F40000E94590F81E00E94D625811549F020E08A
:104F500040EB53E067EB73E086E193E00E94ED26BF
:104F60000C94150D81E0809305041092060480E0F6
:104F70000E94590F1092620020E04CED52E0BA01FD
:104F80008EED92E00E94ED2681E0809362000C9409
:104F9000150DCF93C1E080913C0390913D03892B87
:104FA00009F4C0E010920504109206040E94053A2C
:104FB00081E080933C0310923D0380E00E94590FF2
:104FC00021E043EA52E0BA0184EA92E00E94ED2631
:104FD0000E94150DC0933C0310923D03CF910C9499
:104FE000F539109205041092060480E00E94590FD2
:104FF00021E04AE652E0BA018BE692E00E94ED26FB
:105000000C94150DCF93DF9300D000D0CDB7DEB751
:10501000482F60910C04CE0101960E94FD0B67E0C1
:105020008B819C810E945D380F900F900F900F90A4
:10503000DF91CF9108950E948A0C67E00E945D384D
:1050400080910B040E94BD0B66E00C9454382091B3
:105050000B04223011F40C945C240C94491D4091F3
:1050600007045091080460910B04209109043091C9
:105070000A04623059F54130504828F050E8109247
:105080000704509308042131374230F020E137E221
:105090002093090430930A048750944031F480919E
:1050A0000704909108040E94272882E10E940A0EBA
:1050B00081111AC061EF79E085E09AE00E946A2FC1
:1050C00080910B04833081F40C94891D4130504849
:1050D00028F050E81092070450930804293833410F
:1050E000D8F228E833E1D4CF0895BF92CF92DF926F
:1050F000EF92FF920F931F93CF93DF93CDB7DEB75D
:105100002C970FB6F894DEBF0FBECDBF10E07E0126
:1051100085E0E80EF11C6E019FEFC91AD90A82E002
:105120000E94E42A82E098E2809317049093180486
:1051300010931D0480E00E947A2B182F87FD8FC0EA
:1051400081E00E94590F80E00E94D625811509F464
:1051500083C0412F60910C04C7010E94FD0B412FB9
:1051600060910B04C6010E94FD0B6FE278E28EEBAA
:1051700093E00E94F2298F8198858093090490938F
:105180000A0400E0E986FA86CB86DC868D819E8162
:10519000809307049093080481E00E947A2B811584
:1051A0000CF447C0C1F580910B04823071F50E9468
:1051B0009F2480910704909108040E9427280E9450
:1051C000DF2B8115B9F0082F0E94FE0C8091090495
:1051D00090910A048F8398872091070430910804E6
:1051E0002D833E838B839C8380910B040E94BD0B97
:1051F00089839A8380E090E00E94272880910B04A5
:10520000823031F40E94B624C1CF0E94761DD1CFE6
:105210000E94891DBBCF823009F0B8CF0E94DF2BDE
:105220008111B4CF8F8198858093090490930A04EB
:10523000ADCF011589F049855A85612F80910C0405
:105240000E94180C4B855C85612F80910B040E9495
:10525000180C81E00E945E120E94150D60CF2C9602
:105260000FB6F894DEBF0FBECDBFDF91CF911F9177
:105270000F91FF90EF90DF90CF90BF9008958FE057
:1052800080930C0482E080930B040C94752880E1D9
:1052900080930C0483E080930B040C947528A82F52
:1052A00060910D0470910E0440911104509112040C
:1052B00080E090E0FB012EE0929FE00DF11D1124B3
:1052C0003296259135912115310579F01CF457FF5F
:1052D00009C0305824233523232B21F0A11521F0B8
:1052E000A1508F5F9F5FE6CF892F08950F931F9383
:1052F000CF93DF9300D0CDB7DEB78A830E944F29CA
:105300003EE0839F80011124E0910D04F0910E0492
:10531000E00FF11F859195910E94473689830E9485
:10532000C033811123C06FE08981681BE0910D04B7
:10533000F0910E04E00FF11F359694919983911529
:1053400031F0862F9981891B0E9485366981809171
:105350000D0490910E04800F911F04960F900F90F2
:10536000DF91CF911F910F910C9421332091610413
:105370003A81832F90E0022E001C000828170906AE
:1053800091F60F900F90DF91CF911F910F9108959B
:105390000E944F29E0910D04F0910E049F014EE010
:1053A000849F200D311D1124C901F90136962591E4
:1053B0003591FC01349684918150823010F0C901FE
:1053C0000895F9014591559165917591CB01089525
:1053D00080931104909312048FEF0E944F298093C1
:1053E0001B04089580930D0490930E0460930F04A2
:1053F0007093100480E00E94E42A86E799E280938B
:105400001704909318048EE19AE280931504909308
:1054100016048FEF809361049FE70C94E8290E94A3
:105420004F29E0910D04F0910E049EE0899FE00D5C
:10543000F11D112432968591959108958F929F9236
:10544000AF92BF92CF92DF92EF92FF920F931F9392
:10545000CF93DF93CDB7DEB72C970FB6F894DEBFAE
:105460000FBECDBF182FB62E0E94C8297C01812FF8
:105470000E944F29E0910D04F0910E049EE0899F57
:10548000E00DF11D1124389646E050E0DE0117963C
:105490000E942A3C86E0FE013796DE0111960190BB
:1054A0000D928A95E1F786E0FE013196DE011796AE
:1054B00001900D928A95E1F70F811885C984DA84ED
:1054C0009B848C84E2E0BE1651F191E0A92EB12CB0
:1054D0000E3FFFE71F0739F134F1292D382DA601C2
:1054E000B501C7010E943E15E0910F04F091100430
:1054F000309709F448C0C7012C960FB6F894DEBF68
:105500000FBECDBFDF91CF911F910F91FF90EF9014
:10551000DF90CF90BF90AF909F908F9009948FEFC6
:10552000B82EAB2CD5CF21F4C501F6010995DCCFFF
:105530000C3FFFE71F07B9F4F701808191818A0DC5
:105540009B1D292D382D2817390744F09C01F701A0
:105550002C153D052CF080839183C6CFC901F7CF70
:10556000C082D182C1CF0D3FFFE71F0721F40E9407
:105570005335082F10E0292D382DA601B501C7019C
:105580000E94F414B1CF2C960FB6F894DEBF0FBE74
:10559000CDBFDF91CF911F910F91FF90EF90DF90E2
:1055A000CF90BF90AF909F908F90089524E0829FFE
:1055B000C0011124E0911304F0911404E80FF91FC5
:1055C000859195910C94473610921D0410921C04FD
:1055D00080931B0481E080931A048093190408953A
:1055E000409113045091140480E094E0899FF001ED
:1055F0001124E40FF51F25913591232B09F408950B
:105600008F5FF3CF80911D048F5F80931D040895F9
:1056100080911D04811519F0815080931D04089517
:1056200080911D0490911B04891720F08FEF890F42
:1056300080931D0420911C04821718F480931C048D
:10564000282F30E02F5F3F4F281731051CF4815081
:1056500080931C040895CF930E94102BC0911C04CA
:1056600020911C04822F90E001968C17910524F460
:1056700010921A04CF9108956C2F621B80E00E9453
:10568000E23580911D048C1311C08EE30E94EE352B
:1056900080911B04C81730F4E0911704F0911804AE
:1056A0008C2F09950E948C36CF5FDACF80E2EECF47
:1056B000CF930E945A35C82F0E94B539811539F011
:1056C00081E080931A04CFE78C2FCF910895C230E8
:1056D00071F0C43029F40E94022B81E080931A04F7
:1056E00080911A04811581F30E942B2BEDCF0E942B
:1056F000082BF3CFCF93DF930F92CDB7DEB789831B
:1057000081E080931A040E94582B811102C01092EC
:1057100019049091190491110BC0883049F481E06B
:105720008093190480911D040F90DF91CF9108950B
:105730002981211519F021E020931A04813019F7ED
:105740009111E1CF8FEFF0CF0F931F93CF93DF93A2
:1057500000D00F92CDB7DEB789839A831B8206ED06
:105760001AE289819A8180931304909314040E9411
:10577000F02A0E94E42A00931704109318049B81D6
:1057800090931D0480E00E947A2B8B8387FD0EC0CE
:1057900094E08902900111248091130490911404E3
:1057A000820F931F02960E947B14DBCF8B810F9098
:1057B0000F900F90DF91CF911F910F910895CF938C
:1057C000DF9380911D04809361041092600481E056
:1057D00080931A04C1E0D2E00E945A35682F8230CB
:1057E00011F08430C1F4E0911504F0911604809119
:1057F0001D04099580911D0480936104D093600479
:10580000C0931A040E94CC338115B9F0C0931A04D6
:105810000E942B2B16C0813011F0883099F78FEF42
:105820008093610481E08093190480931A046830A6
:1058300009F080E0DF91CF91089580911A048111E1
:10584000E7CF809160048F5F80936004C5CF0C9494
:10585000181386EF93E00C94A42B0F931F93CF9310
:10586000DF9300D0CDB7DEB789839A830E944616B6
:1058700001E010E09C01A80169817A818CE293E04B
:105880000E94F4140F900F90DF91CF911F910F9110
:105890000895CF93DF938091280390912903C0E06E
:1058A000D0E4892B11F10E94E015C1E0D0E002C0E4
:1058B000CC0FDD1F8A95E2F780913C0390913D0368
:1058C000892BB9F4D05C0E94E015811107C080914A
:1058D000460390914703892B09F0DE5F80912403F2
:1058E00090912503892B09F0D058CE01DF91CF91FB
:1058F00008950E94E015811511F0DF5BE4CFDB5BBA
:10590000E2CF23E08832920741F40E945A170E94A6
:1059100063160E94492C0C94E82923E08A329207EE
:1059200019F40E943517F3CF23E08E32920719F451
:105930000E941717ECCF8053934049F70E94261717
:10594000E6CFCF93DF93CDB7DEB7A8970FB6F89425
:10595000DEBF0FBECDBF61E87CE286E094E00E942E
:10596000F2290E94492C0E94E82980E00E947A2BAB
:1059700087FD1DC088E2E8E2F3E0DE0111960190A8
:105980000D928A95E1F70E94DF2B81110AC088E20F
:10599000FE013196A8E2B3E001900D928A95E1F7FD
:1059A000E0CF84E00E94E6330E946316DACFA89627
:1059B0000FB6F894DEBF0FBECDBFDF91CF91089533
:1059C000E0911F04F0912004E80FF11D649184E838
:1059D00095E00C946036CF93DF930F92CDB7DEB78E
:1059E00089830E94FA160E94E015209128033091C5
:1059F0002903232B99F025EA35E0833089F02CEA3E
:105A000035E0823069F020EA35E0811549F028E977
:105A100035E0853029F02AE935E002C025EB35E094
:105A200020931F043093200480E0E82FE20FF32F2F
:105A3000F11D8F5FE491E930C1F70E94E42A80EE06
:105A40009CE2809317049093180480911E04809325
:105A50001D0480E00E947A2B90911D0490931E04F7
:105A600087FD12C0E0911F04F0912004E90FF11DA1
:105A70008491893031F40E94A12C89810E940817F9
:105A8000B2CF0E94C813AFCF0F90DF91CF9108958E
:105A900080910603909107030397029750F48FEFCC
:105AA0009FE720911E0330911F03232B09F40297D7
:105AB00008958EEF9FE7F5CF0E94482D0E94E829B8
:105AC0000C941D14CF93DF93CDB7DEB7A4970FB618
:105AD000F894DEBF0FBECDBF6CE57DE286EB95E0AE
