:100000000C94BB000C94E3000C94E3000C94E3000C
:100010000C9406030C94E3000C94E3000C94E300AE
:100020000C94E3000C9456030C9436030C943803A0
:100030000C94E3000C94CB030C9403040C94E300A5
:100040000C94E2020C94E3000C94E3000C94E300A3
:100050000C94E300FF00000000000504000004050C
:10006000090000FF01010000010505000005050A67
:100070000000FF02020000020506000006050B005A
:1000800000FF03030000030507000007050C000044
:10009000FF00000000040511020004040D0000FF31
:1000A00001010000050511040005040E000006050D
:1000B000110100FF02020000070511080080250061
:1000C00000004B00000096000000E1000000C201AB
:1000D0000001000100010001000100B00408075206
:1000E0000300005203B0040807E8030000E803D04F
:1000F000079209D60600006C07E40C100EC409E450
:100100000CB80B100E0410C409A60EAC0D740E68CA
:1001100010B80B0A0F890C740ECC10B80B0A0F899B
:100120000C740EFE10B80B0A0F890C40066C0714F5
:1001300005400678050100A00FD00701000100016D
:1001400000A00F010001000100636865616C692D6A
:10015000636861726765720A76332E305F323032BF
:10016000363035313600141719181A0705061F20C6
:1001700021222324DF0411241FBECFE5D8E0DEBFF7
:10018000CDBF10E0A0E6B0E0E6E7F6E202C00590E1
:100190000D92A838B107D9F723E0A8E8B0E001C074
:1001A0001D92A93FB207E1F710E0CBEBD0E004C00D
:1001B0002197FE010E94FA12CA3BD107C9F70E949B
:1001C000680A0C9439130C9400000E94AD1040E0B2
:1001D00062E080E10E9465100E9452030E94BF030A
:1001E0000C947D01CF93DF9300D000D0CDB7DEB764
:1001F000482F282F30E0A0E0BDE70E948612198228
:100200007A838B839C83A4E6B0E0A41BB10924E627
:100210000E94001329813A814B815C81620F731F18
:10022000841F951F24E630E040E050E00E94B912A0
:10023000B9018DE00F900F900F900F90DF91CF914B
:100240000C94A903811511F0909A0895909808953F
:10025000811104C0939A969A929A0895939808955A
:10026000811102C0969A089596980895811102C04E
:10027000929A089592980895BC018EE00C94A90377
:100280000C943C0180FF11C0C09A81FF10C0C19A3C
:1002900082FF0FC0C29A83FF0EC0C39A84FF0DC0B5
:1002A000DE9A85FF0CC0DF9A0895C098EECFC19802
:1002B000EFCFC298F0CFC398F1CFDE98F2CFDF989E
:1002C000089580E00E94280180E00E94220180E0E1
:1002D0000E943F0380E00E9442018C9A8B9A889A88
:1002E0008F9AB89AB99ABA9ABB9AD69AD79A8D9A8F
:1002F0008E9A8D9A8A9A08950895D598D498DD9803
:10030000DC98BF9ABE9ABD9A8EEA86B9369A08954D
:1003100094B185B1E0919700E13139F12FB7F894AC
:10032000692F782FAB01F0E0DF01AA0FBB1FAD569C
:10033000BD4F12965E934E9380918F00811591F080
:10034000EE0FFF1FEE0FFF1FEB54FD4F80819181D9
:10035000A281B381840F951FA11DB11D808391835C
:10036000A283B3832FBFCA01089520919800909172
:100370008C0087FD04C0922B90938C00F4CF2095C5
:100380009223FACF0E94D30C9093B2028093B102D1
:100390000E945C0B9093B4028093B30280918F0013
:1003A000811509F481C00E94D30C4091F102509153
:1003B000F2026091F3027091F402480F591F611D1F
:1003C000711D4093F1025093F2026093F302709317
:1003D000F4020E945C0B4091F5025091F60260918C
:1003E000F7027091F802480F591F611D711D40936B
:1003F000F5025093F6026093F7027093F802809131
:10040000F9029091FA02019709F04CC08091BD0267
:100410009091BE02A091BF02B091C002B695A7957F
:10042000979587958093BD029093BE02A093BF02DB
:10043000B093C0028091B5029091B602A091B7022C
:10044000B091B802B695A795979587958093B50218
:100450009093B602A093B702B093B8028091B9020C
:100460009091BA02A091BB02B091BC02B695A7953B
:10047000979587958093B9029093BA02A093BB0297
:10048000B093BC028091C1029091C202A091C302BC
:10049000B091C4028093C1029093C202A093C302A0
:1004A000B093C4020C946007089580911903909151
:1004B0001A03892BD9F0809194008115B9F090919D
:1004C000910041E001C0440F9A95EAF72091F902AA
:1004D0003091FA022F703FB7F8945BB39BB3942B23
:1004E0009BBB820F8A95F1F75BBB3FBF089580915C
:1004F0008E008F5F853108F080E080938E0085E06C
:10050000E0E9F0E0A5E9B0E001900D928A95E1F70D
:10051000E0918E00EF5FE53108F0E0E085E0E89FD4
:10052000F0011124EC5AFF4F45E050E0A0E9B0E0A3
:100530000E941C1380918E0081110CC00E94C20188
:100540002091F9023091FA0281E0232B09F480E036
:1005500080938F0008950E94880180918D0091E022
:10056000980F90938D00883019F128F4811531F09F
:100570008730E1F00895893001F10895809190006D
:1005800087FD1FC03FB7F8948091900098B380FB1F
:10059000222722F982FD21608270822B8295880FAA
:1005A000807E9F71892B88BB3FBF08950C945502B4
:1005B00080919100806287B9089510928D000C940B
:1005C000770208951F920F920FB60F9211242F9366
:1005D0003F934F935F936F937F938F939F93AF93CB
:1005E000BF93EF93FF930E94AB02FF91EF91BF91F6
:1005F000AF919F918F917F916F915F914F913F91BB
:100600002F910F900FBE0F901F9018951F920F9271
:100610000FB60F9211242F933F934F935F936F93D5
:100620007F938F939F93AF93BF93EF93FF930E941A
:10063000150EFF91EF91BF91AF919F918F917F9197
:100640006F915F914F913F912F910F900FBE0F903F
:100650001F90189588E085BD85B5846085BD14BC64
:100660008CE783BD89B7806889BF0895979A1895EC
:100670008F93979880919A0082BF8F9118958111DE
:1006800004C013BE12BE97980895869598E7980FF8
:1006900090939A0090E09595879584548CBF8CE454
:1006A00083BF089589B7836089BF08951F921FB6DD
:1006B0001F9211242F933F938F939F932091A1001A
:1006C0003091A20080919D0090919E00820F931F17
:1006D00080939D0090939E0020919F003091A000F8
:1006E00080919B0090919C00820F931F80939B00B0
:1006F00090939C002FB7F89480919D0090919E005C
:1007000035E0969587953A95E1F79BBD8ABD809136
:100710009B0090919C0035E0969587953A95E1F77E
:1007200099BD88BD2FBF80919D008F7180939D00E2
:1007300010929E0080919B008F7180939B0010927D
:100740009C009F918F913F912F911F901FBE1F90F2
:1007500018959FB7F8948E3049F47093A200609377
:10076000A1008FB580688FBD9FBF08958D30E1F7E0
:100770007093A00060939F008FB58062F4CF80E0FB
:1007800094E097BD86BD82E08FBD89E18EBD89B7BB
:10079000846089BF08951F921FB61F9211242F9362
:1007A0003F934F936F937F938F939F93EF93FF9319
:1007B0005A9927C04CB18091B9019091BA018395A3
:1007C000282F30E06091BB017091BC01861717069D
:1007D00059F0E091B901F091BA01E754FF4F40831D
:1007E0003093BA012093B901FF91EF919F918F91BE
:1007F0007F916F914F913F912F911F901FBE1F903E
:1008000018958CB1F1CF2F932FB72F933F938F93E0
:100810009F93EF93FF932091B9013091BA0180919A
:10082000BB019091BC012817390751F45598FF91ED
:10083000EF919F918F913F912F912FBF2F911895FD
:10084000E091BB01F091BC01E754FF4F2081809102
:10085000BB019091BC01839590E09093BC01809383
:10086000BB012CB9E4CFCF92DF92EF92FF92CF93EE
:10087000DF93EC016A017B01E885F985C11461EE23
:10088000D606E104F104F9F02C8981E001C0880F5B
:100890002A95EAF7808360E079E08DE390E09A01A1
:1008A000A7010E94B91221503109410951095695F9
:1008B00047953795279561E0C9013031B8F061154A
:1008C000A9F0E885F985108260E874E88EE190E08F
:1008D0009601A7010E94B91221503109410951091D
:1008E000569547953795279560E0E6CFEC81FD81D9
:1008F0009083EE81FF8120831D8AEA85FB8520811C
:10090000498981E090E0BC0101C0660F4A95EAF791
:10091000262B2083EA85FB8520814A89BC0101C002
:10092000660F4A95EAF7262B2083EA85FB8520810E
:100930003B8901C0880F3A95EAF78095822380832E
:10094000DF91CF91FF90EF90DF90CF900895CF93FC
:10095000DF93FC0122813381D901BF5F8D919D918D
:100960001297839590E0E901CE5FDE4F488159816F
:1009700048175907D9F34D915D91240F351FD901BF
:100980006C93A281B381AE5FBE4F9E938E93A2857E
:10099000B3858C91938921E001C0220F9A95EAF7E3
:1009A000822B8C9381E0858B0084F185E02D808102
:1009B0008064808381E090E0DF91CF91089589EB9E
:1009C00090E08093A3009093A4008093A50090935F
:1009D000A60080E48093A7001092A80029E220934B
:1009E000A9001092AA002BE22093AB001092AC0059
:1009F0002AE22093AD001092AE008093AF001092D7
:100A0000B0008CE28093B1001092B20084E0809339
:100A1000B30083E08093B40087E08093B50085E065
:100A20008093B60081E08093B7000895CF93DF9361
:100A30000F92CDB7DEB7E0918A00F0918B0030972E
:100A400011F4E9EFF3E0CE0101962EEB8E179F072C
:100A500020F40F90DF91CF9108952193F7CFCF939A
:100A6000DF9300D0CDB7DEB7CE01019620918A008A
:100A700030918B002115310511F429EF33E0821BF1
:100A8000930B0F900F90DF91CF910895CF93DF9349
:100A90000F92CDB7DEB7E0918A00F0918B003097CE
:100AA00011F4E9EFF3E080E090E09E012F5F3F4F0B
:100AB0002E173F0730F040814E3B19F401963196D6
:100AC000F7CF0F90DF91CF910895009709F4089523
:100AD0000197EFE9FFE03197F1F700C00000F5CF93
:100AE0008436910560F064E670E00E94A512CB01A7
:100AF0000C946505019725E32A95F1F7000000970E
:100B0000C9F708956AE070E00E94A512CB010C9429
:100B10007005E82FF0E0EE0FFF1FEF58FD4F8081CA
:100B200091810895E82FF0E0EE0FFF1FE95DFD4F82
:100B30008081918108952FB7F894E82FF0E0EE0FAF
:100B4000FF1FED56FD4F808191812FBF0895809149
:100B5000FF0208958091DB019091DC0108956131DD
:100B600010F4423038F021E0FC012283138220830C
:100B70001182089550E09A01260F311D260F311D74
:100B8000B901660F771F660F771F625F7F4F44E0E2
:100B90000C9429132FB7F89480E090E0FC01EE0F3D
:100BA000FF1FEE0FFF1FEB54FD4F108211821282C8
:100BB000138201968131910589F784E690E0909344
:100BC000FA028093F9021092FE022FBF0895CF938C
:100BD000CFB7F8941092D9011092DA011092D50192
:100BE0001092D6011092D7011092D8011092D10123
:100BF0001092D2011092D3011092D4011092CD0123
:100C00001092CE011092CF011092D0010E943D0EA1
:100C10008093C7019093C801CFBFCF910895EDEDA8
:100C2000F1E08AE4DF011D928A95E9F70895CF93F8
:100C3000CFB7F89481E090E09093FA028093F902A4
:100C40008093FE020E940F06CFBFCF910895CF93ED
:100C5000DF930E941706C091DB01D091DC018091E7
:100C6000DB019091DC018C179D0719F0DF91CF918A
:100C700008958AE090E00E946E0EF1CFCF92DF924D
:100C8000EF92FF920F931F93CF93DF93CDB7DEB711
:100C900028970FB6F894DEBF0FBECDBF182F6B019B
:100CA000672B89F480E090E028960FB6F894DEBFB9
:100CB0000FBECDBFDF91CF911F910F91FF90EF90AD
:100CC000DF90CF90089540E0682FCE0105960E94F6
:100CD000AF0541E0612FCE0101960E94AF05ED8185
:100CE000FE81E980FA80EE15FF05E1F26B817C81DF
:100CF00080E090E00F811885601B710B81099109DC
:100D0000960140E050E02E1B3F0B410951090E9423
:100D10009512970140E050E02E1B3F0B410951090D
:100D20000E94DB12C901DA01800F911FA11DB11DC4
:100D3000A130B1051CF08FEF9FEFB6CFB7FFB4CF56
:100D4000A0E0B0E0CD01B0CF82508C3130F4E82F7C
:100D5000F0E0E559FF4F8081089581E00895CF9339
:100D6000C82F833151F481E0209151023091520219
:100D70002331310589F080E00FC00E94A406813044
:100D800069F4EC2FF0E0EE0FFF1FE95DFD4F2081CD
:100D900031812139314078F3CF91089581E0FCCF42
:100DA000EF92FF920F931F93CF93CFE191E0E92E43
:100DB000F12C00E010E08C2F0E94AF0690E091959E
:100DC000819591098E219F21082B192BEE0CFF1C78
:100DD000CF5FC53281F7C801CF911F910F91FF906E
:100DE000EF9008952FB7F8946091C2017091C301FC
:100DF0008091C4019091C5012FBF20E03DE740E004
:100E000050E00E94B912C90108952FB7F89460917B
:100E1000BE017091BF018091C0019091C1012FBFAF
:100E2000969587957795679520E03DE740E050E0FF
:100E30000E94B912C901089540915502509156027D
:100E40008091C2019091C301A091C401B091C501EC
:100E5000840F951FA11DB11D8093C2019093C30102
:100E6000A093C401B093C5018091BD01815019F0D8
:100E70008093BD01089582E38093BD0120914B02D0
:100E800030914C02DA010E94861224E630E040E004
:100E900050E00E94B9128091BE019091BF01A091D3
:100EA000C001B091C101820F931FA41FB51F809391
:100EB000BE019093BF01A093C001B093C1010895FA
:100EC0008091F9029091FA02892B49F08091F90200
:100ED0009091FA0201979093FA028093F902089593
:100EE00090E0880F991FFC01E95DFD4F2081318161
:100EF00062177307B8F4261B370B27303105B8F497
:100F0000FC01E352FE4F208131812F5F3F4FFC01F6
:100F1000E352FE4F20833183895D9D4FFC01608346
:100F200071830895AB01421B530B9A01E6CF20E079
:100F300030E0EDCFCF93DF938FB7F8941092C201DA
:100F40001092C3011092C4011092C5011092BE010B
:100F50001092BF011092C0011092C10192E39093D0
:100F6000BD018FBFC7E2D2E06CA17DA18CE10E94E0
:100F700070078E859F858093C9019093CA010E9456
:100F800017060E94E7051092CB011092CC0160E099
:100F900070E089E10E94700760E070E08BE10E94E0
:100FA000700760E070E08DE1DF91CF910C947007E5
:100FB0001092DB011092DC010C949A070C94D80774
:100FC0009091FF0291110FC00E9428010E94D80742
:100FD00081E08093FF02809360000E9427060E94B8
:100FE0009A071092FD020895CF92DF92EF92FF923E
:100FF0000F931F93CF93DF93C0912702D0912802C4
:101000008091290290912A028C179D0708F09FC0B9
:10101000C81BD90BBE0182E10E94700787E2C82E6F
:1010200082E0D82E99E3E92E92E0F92E1FE1F70134
:10103000619171917F01812F0E9470071F5F1532AE
:10104000B1F78091FD02811106C00E94D006809305
:10105000FB029093FC02E090FB02F090FC0280E027
:1010600090E08C0141E050E09A01082E02C0220F6E
:10107000331F0A94E2F72E213F21232B29F0F6019A
:1010800026AD37AD020F131F0196F2E0CF0ED11C33
:101090008630910549F7B80183E10E947007011578
:1010A000110509F457C0CE01801B910B0C171D07C9
:1010B00018F0C8018C1B9D0B893B9B4008F04AC06F
:1010C000E80113E1BE0184E10E947007B70186E1E7
:1010D0000E947007612F70E085E10E9470070E94F6
:1010E000500B00912D0210912E0281110AC00E9416
:1010F000C70C00912B0210912C02811102C000E05C
:1011000010E09801DE010E94861220E137E240E003
:1011100050E00E94B912B90188E10E947007B8013D
:1011200087E10E9470070E94F206BC0189E10E94DB
:1011300070070E940507BC018AE1DF91CF911F91E2
:101140000F91FF90EF90DF90CF900C947007C0E06C
:10115000D0E060CF12E1E12CF12CB4CF1F93CF93FC
:10116000DF93182FC82FD0E084E0189FF0011124DE
:10117000EB54FD4F608171818281938128EE33E0D1
:1011800040E050E00E94B912CC0FDD1FCF58DD4F78
:1011900028833983B901812F0E943E06BC01812F2B
:1011A000DF91CF911F910C947007CF92DF92EF9255
:1011B000FF920F931F93CF93DF93CDB7DEB72C979A
:1011C0000FB6F894DEBF0FBECDBF0E943D0E20913A
:1011D000C7013091C801821B930B8133954708F4F6
:1011E000B3C04FB7F8942091D9013091DA01A8EE3D
:1011F000B3E00E9486126B017C01F694E794D794C9
:10120000C7948091D5019091D601A091D701B0915A
:10121000D8018D839E83AF83B8878091D10190914F
:10122000D201A091D301B091D40189839A83AB8379
:10123000BC838091CD019091CE01A091CF01B0915E
:10124000D00189879A87AB87BC874FBF0E94E7058B
:101250008091CB019091CC0101968093CB0190932A
:10126000CC0169817A818B819C819601A7010E94C2
:10127000B91229833A834B835C836D817E818F8190
:1012800098859601A7010E94B912B90180E00E94D9
:101290003E068D839E8369817A8181E00E943E06AD
:1012A000AD81BE818A179B0708F04BC0A81BB90B04
:1012B000A983BA8300915F021091600229813A816B
:1012C0002017310720F48091C601811105C0698182
:1012D0007A818CE10E94700769817A81601B710BB1
:1012E0008BE10E94700769857A858B859C859601C4
:1012F000A7010E94B912B90187E00E943E06209121
:10130000C9013091CA018093C9019093CA01821B1F
:10131000930BBC01660F771F8DE10E947007B60129
:101320008EE12C960FB6F894DEBF0FBECDBFDF91D5
:10133000CF911F910F91FF90EF90DF90CF900C9481
:10134000700719821A82B6CF2C960FB6F894DEBFBA
:101350000FBECDBFDF91CF911F910F91FF90EF9006
:10136000DF90CF900895CF932FB7F8948091F90232
:101370009091FA022FBF892B09F091C08091FE0253
:10138000811182C08091FF02811509F480C0809193
:10139000DB019091DC0101968093DB019093DC01ED
:1013A0004091B5025091B6026091B7027091B802B7
:1013B00076956795579547958091D5019091D6017F
:1013C000A091D701B091D801840F951FA61FB71F18
:1013D0008093D5019093D601A093D701B093D80103
:1013E0004091B9025091BA026091BB027091BC0267
:1013F00076956795579547958091D1019091D20147
:10140000A091D301B091D401840F951FA61FB71FDF
:101410008093D1019093D201A093D301B093D401D2
:101420004091D1025091D2026091D3027091D402C6
:1014300076956795579547958091CD019091CE010E
:10144000A091CF01B091D001840F951FA61FB71FA7
:101450008093CD019093CE01A093CF01B093D001A2
:101460008091D9019091DA0101968093D9019093EE
:10147000DA010E94D508C0E08C2F0E94AE08CF5F31
:10148000C131D1F70E94F407CF910C94CA05809125
:1014900060008115C9F385E00E94AE08F5CFCF91B9
:1014A00008950C94B3090E94610178940E94E500AC
:1014B0000E942A030E94FC0C0E94890B0E94DE07F6
:1014C0000E9416050E94820A0E94260D0C943B0D74
:1014D0000E94530A0E945B1280E090E00895DC01B4
:1014E0005C96ED91FD91EE0FFF1FEE0FFF1FE35491
:1014F000FF4F65917591859195910895FC018081CB
:101500000C94F20044E250E06AEB73E081E093E077
:101510000E94291381E093E00C947E0ACF9397FFF9
:101520000AC00E94F212C1E000977040604051F47E
:101530008C2FCF910895C1E0009770406040A1F3D7
:10154000C0E0F2CFCF5F2AE030E040E050E00E9400
:10155000DB12B901CA01E8CF4091290350912A0357
:10156000209125033091260395E0929FF001939FEF
:10157000F00D1124E80FF11DEE0FFF1FEF52FF4F8A
:1015800025913591813061F420912F033091300302
:10159000249FC001259F900D349F900D1124089524
:1015A000823029F42091310330913203F1CF83301E
:1015B00079F72091430330914403EACF8091680387
:1015C00090916903892B99F40E94A705811581F0F8
:1015D0000E94AA0520914D0330914E03AC01421B9D
:1015E000530B81E04330510518F080E0089581E00D
:1015F0000895815E0C949205CF93DF93EC01809166
:10160000680390916903892B41F0209731F40E947F
:10161000AA0580934D0390934E03C0936803D09323
:1016200069030E940F0680916703811105C08C2F0A
:10163000DF91CF910C944201DF91CF910895FF92F9
:101640000F931F93CF93DF9381E00E947C01CBE542
:10165000D3E00FE413E0F12C8F2D0E94F90A899357
:101660009993F801819391938F01F394F6E0FF121F
:10167000F3CF10926803109269031092670380E021
:1016800090E00E94FC0A10924D0310924E038FEFDF
:1016900080936A03DF91CF911F910F91FF9008957E
:1016A00080916F03089581E020916D0330916E0366
:1016B000232B09F480E0089580916D0390916E03CF
:1016C0000895813020E8920710F080E090E8809340
:1016D0006D0390936E030E9440010C941706809155
:1016E0006F038115A9F080E090E00E94610B1092D9
:1016F0006B0310926C0310926F038AE090E00E94DB
:101700006E0E80E00E9436018AE090E00C946E0E2E
:10171000089581E080936F030C946F0B80917D039B
:10172000811109C0609178037091790380917A03E7
:1017300090917B0308950E94450E2091780330918B
:10174000790340917A0350917B03621B730B840BE6
:10175000950B08950F931F93CF93DF9381E00E9421
:10176000AC0AEC0184E00E94AC0A8C0184E10E9486
:1017700092058C179D07D0F408171907C8F49C012F
:10178000201B310BCE01801B910B64E670E00E94A0
:10179000A512C9010E94A5126436710508F063E61E
:1017A000862FDF91CF911F910F91089583E6F9CF96
:1017B00080E0F7CFCF92DF92EF92FF920E94AA0BC8
:1017C00090917C03981798F580937C030E948E0B70
:1017D000C0907F03D0908003E0908103F09082035B
:1017E0009B01AC012C193D094E095F0969017A0181
:1017F0000E948E0B60937F0370938003809381031C
:10180000909382038091830390918403A091850338
:10181000B09186038C159D05AE05BF0540F4C092BE
:101820008303D0928403E0928503F0928603FF90B5
:10183000EF90DF90CF9008950E94DA0B80917E03A5
:10184000A9E6811101C0A4E680917C03A81BBB0B13
:101850002091830330918403409185035091860346
:101860000E94121308952091030330910403213044
:10187000310519F481E00C94220110F480E0FBCFD3
:1018800024303105A1F480917D038115B9F385E001
:101890000E9492052091050330910603A901525040
:1018A0008417950758F32817390720F30895223035
:1018B000310519F480917D03DECF23303105D9F64F
:1018C000E6CF0E94CA0C811569F180917003909156
:1018D0007103A0917203B091730380599F4FAF4F72
:1018E000BF4F8093700390937103A0937203B093E2
:1018F00073030E94DE0A8115A1F080917403909118
:101900007503A0917603B091770380599F4FAF4F35
:10191000BF4F8093740390937503A0937603B093A5
:10192000770308950E94530B8111CFCFE2CF2CE0B3
:10193000829FC001112481579C4F0C940D0D87ED9F
:1019400093E00C940D0DCF93DF9300D000D0CDB772
:10195000DEB782E10E94920589839A8384E10E9426
:10196000920529813A81281B390B29833A8387E123
:101970000E9492058B839C83CE0101960E940D0DDF
:101980000F900F900F900F90DF91CF91089580915D
:10199000DF03089581E02091DD033091DE03232BE6
:1019A00009F480E008958091DD039091DE030895AD
:1019B000813020E8920710F080E090E88093DD030A
:1019C0009093DE030E943C010C9417068091DF0384
:1019D000811589F080E090E00E94D80C1092DD0320
:1019E0001092DE031092DB031092DC0380E00E9471
:1019F00030011092DF0308951092DD031092DE0390
:101A00001092DB031092DC0380E090E00E94D80C7F
:101A100081E08093DF030C94E60CFC01428153814A
:101A20004115510589F02081318137FF03C031957F
:101A300021953109A8EEB3E00E9486129A0140E098
:101A400050E00E94B912A901CA0108950C94890FAF
:101A5000CF93DF9300D0CDB7DEB789839A830E94FE
:101A6000D40E0E94CC0E89819A810F900F90DF9145
:101A7000CF910C940F0F89E491E00E94280D88EB20
:101A80009BE00C94500E262F30E0A901440F551F07
:101A9000481759075CF02817390724F4660F681BAC
:101AA000862F0895181619060CF4089580E00895FD
:101AB0009C01369527958A9720F46AE0C9010C9419
:101AC000430D1092E00380E00895CF93DF9300D0A0
:101AD0000F92CDB7DEB79C013695279536952795A1
:101AE0002A833B838432934048F01092E00380E0E5
:101AF0000F900F900F90DF91CF9108956AE08A8147
:101B00009B810E94430D89836AE08A819B8188972B
:101B10000E94430D9981890FEBCF60ED77E00E9421
:101B2000A5126AE00C94430D823825E0920740F438
:101B30006AE070E00E94A512CB0164E10C94430DB1
:101B40001092E00380E00895803321E1920760F471
:101B50006AE070E00E94A512CB0168E270E00E948A
:101B6000A51264E10C94430D1092E00380E0089507
:101B70008A3223E0920760F46AE070E00E94A512C6
:101B8000CB0168E270E00E94A51264E10C94430D61
:101B90001092E00380E008952091E003263050F495
:101BA000243098F4223069F0233069F0213039F084
:101BB00080E00895283058F0D9F70C94B80D0C94B3
:101BC000580D0C948D0D0C94940D0C94650D0C9483
:101BD000A40D0E94410E2091E3033091E403821B87
:101BE000930B0E94CC0D4091E1035091E2038417C6
:101BF000150631F08093E1031092E2030C943F0349
:101C000008952FB7F8946091E5037091E6038091F1
:101C1000E7039091E8032FBF08950E94330C0E94C0
:101C200041120E94E90D0C94510A8091E5039091B4
:101C3000E603A091E703B091E8030196A11DB11D51
:101C40008093E5039093E603A093E703B093E80342
:101C500080916100815019F080936100089581EEB8
:101C6000809361000E941C070C94610C0E94010E7D
:101C7000969587957795679508950E94360ECB01C6
:101C800008950E94010ECB0108950E94360E28EEA1
:101C900033E040E050E00E94B912B901CA01089552
:101CA000CF93DF9300D000D0CDB7DEB78B839C837A
:101CB0000E943D0E89839A830E943D0E29813A81BC
:101CC000821B930B2B813C8182179307A8F30F9003
:101CD0000F900F900F90DF91CF910895CF93DF93E6
:101CE00000D000D0CDB7DEB78B839C830E943D0E21
:101CF00089839A830E940D0E0E943D0E29813A81AC
:101D0000821B930B2B813C818217930798F30F90D2
:101D10000F900F900F90DF91CF910895CF92DF92A7
:101D2000EF92FF920F931F93CF93DF936B017C0190
:101D3000EA01F7FE0AC08DE28993F094E094D09412
:101D4000C094C11CD11CE11CF11CB601C7010E944A
:101D50008E0AC80FD11D18828E01B601C7012AE074
:101D600030E040E050E00E94DB12605DF8016293D9
:101D70008F0169017A01C114D104E104F10469F70A
:101D8000CE01DF91CF911F910F91FF90EF90DF90E7
:101D9000CF9008950C94151060E080E00C9415101D
:101DA00061E080E00C9415100C940E108A3011F450
:101DB0000C94D00E0C94B6100F931F93CF93DF9317
:101DC00000D00F92CDB7DEB76983009731F18A83D7
:101DD0009B8300E010E0802F3981032E001C000857
:101DE0000317100534F4EA81FB819081911109C039
:101DF0008F5F0F900F900F90DF91CF911F910F91F8
:101E000008952A813B812F5F3F4F2A833B830F5FD9
:101E10001F4F892F0E94D60EDECF80E0EACF0F93AE
:101E20001F93CF93DF938C0180E00115110559F0CA
:101E3000E80103C021960E94D60EFE018491811113
:101E4000F9CF8C2F801BDF91CF911F910F910895B7
:101E5000CF93DF9300D00F92CDB7DEB789836A832B
:101E60001B829B818A81981744F087FD80E00F9048
:101E70000F900F90DF91CF91089589810E94D60E27
:101E80008B818F5F8B83EDCF682F80E20C94280FBE
:101E900081E00C94440FCF93DF9300D00F92CDB725
:101EA000DEB789839A836B830E9420139B81981BE2
:101EB000892F0E94440F6B8189819A810F900F9026
:101EC0000F90DF91CF910C94DC0ECF93DF93CDB7C1
:101ED000DEB72C970FB6F894DEBF0FBECDBF4C8790
:101EE000AE014F5F5F4F0E948E0E6C85CE01019652
:101EF0000E944B0F2C960FB6F894DEBF0FBECDBFDD
:101F0000DF91CF910895462FBC0180E090E00C94C2
:101F1000650FFF920F931F93CF93DF93CDB7DEB77B
:101F200028970FB6F894DEBF0FBECDBF8EE0F82E17
:101F3000F9821FE11A8301E10B830C830D830E8369
:101F40000F831887BE016F5F7F4F80E00E944A10A9
:101F5000F9821A830B830C831D831E831F831887CA
:101F6000BE016F5F7F4F81E00E944A10F9821A83A1
:101F70001B831C831D831E831F831887BE016F5F15
:101F80007F4F82E00E944A1028960FB6F894DEBF79
:101F90000FBECDBFDF91CF911F910F91FF9008959C
:101FA000AC9881E090E00E948205AC9A81E090E0DC
:101FB0000E948205AC9884E690E00C94820580FF34
:101FC0000CC0A89A81FF0BC0A99A82FF0AC0AA9AE6
:101FD00083FF09C0AB9A0C94D00FA898F3CFA998AF
:101FE000F4CFAA98F5CFAB98F6CFCF93DF930F92AB
:101FF000CDB7DEB78983611561F0AD9A898182958D
:102000008F700E94DF0F89810F90DF91CF910C9428
:10201000DF0FAD98F3CF60E00C94F50F81E00E94E4
:102020000B1080ED97E00C948205CF93DF93CDB732
:10203000DEB728970FB6F894DEBF0FBECDBF98E08D
:10204000E3E6F0E0DE01119601900D929A95E1F73A
:102050009091EA03691710F06FEF690FFE01319656
:10206000E60FF11DE60FF11D9081890F806828961B
:102070000FB6F894DEBF0FBECDBFDF91CF910C94A9
:102080000B108091EC03982F94609093EC038C607C
:102090000C940B100F931F93CF93DF93880F880F2F
:1020A000880F88738064EB010E940B108E01085F1B
:1020B0001F4F61E089910E94F50FC017D107C9F742
:1020C000DF91CF911F910F910895623028F0809198
:1020D000ED0388608093ED036093EA031092E903B7
:1020E000411539F0613029F48091ED0384608093CB
:1020F000ED03A09AA19AA29AA39A80E593EC0E947C
:102100008205AD98AC9883E00E94DF0F84E991E1ED
:102110000E94820583E00E94DF0F84E991E10E9422
:10212000820583E00E94DF0F86E990E00E9482052D
:1021300082E00E94DF0F8091ED0380620E940B100D
:1021400084E08093EC030E9441100E940E1082E014
:102150008093EB0386E00C940B10A59AA49A10923E
:10216000ED0340E061E080E10C94651061E00E94C5
:10217000F50F81E00895089581E093E00E946F0AD1
:10218000AB01BC0183EA90E00C943304CF93DF935E
:102190000F92CDB7DEB78983682F83EA90E00E9463
:1021A000A7048091F003998189278093F0030F9011
:1021B000DF91CF91089580916200813059F4809130
:1021C0001B0390911C03892B29F00E94BC1082E014
:1021D0008093620008958BE30C94C610CF93DF9335
:1021E000EC018881811103C0DF91CF910895219680
:1021F0000E94C610F6CFCF93DF93CDB7DEB72F97EF
:102200000FB6F894DEBF0FBECDBFAE014F5F5F4F7C
:102210000E948E0ECE0101960E94EE102F960FB6F0
:10222000F894DEBF0FBECDBFDF91CF910895BC0102
:1022300080E090E00C94FB10CF93DF9300D0CDB7FB
:10224000DEB789839A831092F00384E20E94C6105D
:1022500089819A810E9417110E94EB1080910003DE
:1022600090E001960E9417110E94EB106091F1031B
:102270007091F2038091F3039091F40328EE33E020
:1022800040E050E00E94B912B901CA010E94FB105F
:102290008EE20E94C6106091F1037091F20380916A
:1022A000F3039091F40324E630E040E050E00E9414
:1022B000B912B901CA012AE030E040E050E00E94C2
:1022C000B912CB010E9417110F900F90DF91CF919F
:1022D0000C94EB108DE00E94C6108AE00C94C6109E
:1022E0008091F00390E00E9417110C946A11CF9333
:1022F000DF9381E090E00E941C11C6E6D1E0FE0170
:1023000084910E9492050E9417110E94EB10219661
:10231000F1E0C437DF0799F7C0E08C2F0E94970CDB
:102320000E9417110E94EB10CF5FC630B1F70E94D8
:102330009F0C0E9417110E94EB100E94A30C0E9498
:1023400017110E94EB100E94AA0B90E00E94171137
:102350000E94EB100E941C0C0E94FB100E94EB10CC
:10236000DF91CF910C947011CF93DF9300D0CDB754
:10237000DEB7898382E090E00E941C111A82898175
:10238000811501F18A810E9489050E9417110E941E
:10239000EB108A818F5F8A83853289F78091680389
:1023A000909169030E9417110E94EB1080E090E069
:1023B0000E9417110E94EB100F900F90DF91CF91A8
:1023C0000C9470118A810E949205DFCF83E090E027
:1023D0000E941C110E9446050E9417110E94EB10DA
:1023E0000E942F050E9417110E94EB100C9470118F
:1023F000CF93DF93C0911B03D0911C03C430D10550
:102400005CF00E94771181E00E94B411229759F08C
:10241000DF91CF910C94E6110E947711C230D10563
:1024200014F080E0F1CFDF91CF91089580916200A8
:10243000813031F10E94360E20916200223051F439
:102440006093F5037093F6038093F7039093F8037A
:10245000109262002091F5033091F6034091F7034A
:102460005091F803621B730B840B950B6093F1037F
:102470007093F2038093F3039093F4030C94F81198
:1024800008950E94A705811106C01092EE031092D4
:10249000EF030C94BB100E94AA052091EE0330912B
:1024A000EF0328173907A9F38093EE039093EF0306
:1024B0000E941612EECF0C945D120E94DB1081E098
:1024C0000E94E0070E941F0B60E080E00E94CA0E9D
:1024D000C0E0D0E08C2F875F0E949B0567E00E94E0
:1024E000830F0E94480FC130D10539F461E080E0CC
:1024F0000E94CA0EC2E0D0E0EDCF2196C430D105D3
:1025000049F784E690E00E946E0EDECFA29FB001F4
:10251000B39FC001A39F700D811D1124911DB29F17
:10252000700D811D1124911D0895DB018F939F93E0
:102530000E940713BF91AF91A29F800D911DA39F91
:10254000900DB29F900D11240895AA1BBB1B51E161
:1025500007C0AA1FBB1FA617B70710F0A61BB70B13
:10256000881F991F5A95A9F780959095BC01CD01B8
:102570000895A1E21A2EAA1BBB1BFD010DC0AA1FC4
:10258000BB1FEE1FFF1FA217B307E407F50720F0DC
:10259000A21BB30BE40BF50B661F771F881F991F57
:1025A0001A9469F760957095809590959B01AC01A0
:1025B000BD01CF010895052E97FB1EF400940E94E3
:1025C000F21257FD07D00E94B91207FC03D04EF457
:1025D0000C94F21250954095309521953F4F4F4FF6
:1025E0005F4F089590958095709561957F4F8F4FBF
:1025F0009F4F0895EE0FFF1F0590F491E02D099471
:102600000E948612B7FF0895821B930B08950E94C3
:102610008612A59F900DB49F900DA49F800D911DD3
:1026200011240895B7FF0C9407130E940713821B0F
:10263000930B089505900D9241505040D8F708959E
:10264000FC0101900020E9F7809590958E0F9F1F67
:102650000895DC01CB01FC01E199FECF06C0FFBB70
:10266000EEBBE09A31960DB20D9241505040B8F752
:062670000895F894FFCF6D
:1026760001E10100004000140054000000010401C3
:102686000401010101010101000001010101010133
:082696000002010308010A0023
:00000001FF
