:100000000C949B060C94B8060C94B8060C94B80695
:100010000C94D7080C94B8060C94B8060C94B80647
:100020000C94B8060C9427090C9407090C94090940
:100030000C94B8060C94B8060C94B8060C94B80648
:100040000C94B3080C94B8060C94B8060C94B8063B
:100050000C94B8060000000048A50C4C00000000FD
:100060007C6B0831850032007D09E8038000320096
:1000700057012C0100000000C0AE4E5AFC53501432
:100080003FA0540B00000000A8D5803E80186009F6
:10009000DC377017000000000000000000000000C6
:1000A00040C7370F0000000080C7300F000000007D
:1000B00040CA310F00000000E1C7340F000000000B
:1000C000B7C6400F00000000B7C6400F180032004E
:1000D000B002E80348003200D0002C01FF0000000D
:1000E0000A00050400000004090000FF0101000AE5
:1000F000040505000004040A0000FF0202000002DB
:100100000506000002040B0000FF030300000605C3
:1001100007000006040C0000FF0000000A010511A2
:10012000020001040D0000FF0101000A0505110491
:100130000005040E0000FF0202000003051101008B
:10014000FF03030000070511080080250000004B95
:1001500000000096000000E1000000C2010046001F
:1001600003008813701701003200204E32008813FC
:10017000409CC4091027000000000300000000009C
:100180000100040000010202020202030405F90B4F
:10019000EF0BEA0BE50BE00BDB0BD60BD10BCC0B1B
:1001A000C70BF40BC30B01000100010001000100AB
:1001B000B0040807520300005203B0040807E80324
:1001C0000000E803D0079209D60600006C07E40C93
:1001D000100EC409E40CB80B100E0410C409A60ECE
:1001E000AC0D740E6810B80B0A0F890C740ECC108D
:1001F000B80B0A0F890C740EFE10B80B0A0F890C8D
:1002000040066C071405400678050100A00FD007D2
:10021000010001000100A00F0100010001008B1787
:10022000C4170D19B719C219CD19B91AB51AE91A97
:10023000B51BC11BC61B641C611C6B1C901C971C4E
:10024000BA1CEA1EC11EC71E7B21C2197D21CD0921
:100250004F25C409F326B809FB26AC097D25A00962
:10026000A5259109662500000000053F090200440C
:10027000001701FD7F000010273A090100490061C5
:1002800001000000000000570904004900EB0201D2
:10029000000000010000000000000000000000005D
:1002A000000000073F09020044001B01FD7F000021
:1002B00010273A0901004900650100000000000014
:1002C000570904004900EB02010000000100000092
:1002D00000000000000000000000000000013309E1
:1002E000020041000D01FD7F000078692B0902002A
:1002F00041000F01FD7F00007869570904004900A3
:10030000EB020100000001000000000000000000FE
:100310000000000000008C09020041001901FD7F6F
:10032000000030758709820041004B01FD7F00000D
:1003300088138209820041004D01FD7F000088136F
:100340007D09820041004F01FD7F0000881378097C
:10035000820041005101FD7F000088137309820073
:1003600041005301FD7F000088136E0982004100A7
:100370005501FD7F00008813680901004100330129
:10038000000000000000620901004100310100008E
:1003900000000000570904004900EB0201000000C2
:1003A000010000000000000000000000000000004C
:1003B00006090A0B0C0D0E061F20212223245009CA
:1003C000FF7F4900ED02FD7F0000FFFF4D09FF7F29
:1003D0000300CF250000000000004509FF7F40001A
:1003E000EF02FD7F0000FFFF0000000000000000A2
:1003F000000000000000160C162B0C0C8224FE0BD3
:10040000DB2900000000B20AFF7F02008005010026
:1004100000000B00AF0A0F0003004B2FFE7FE12905
:100420000000AB0A0E8041001802FD7F0000881317
:10043000AB0A1000410018023200000078699E0AE1
:10044000018041001802FD7FB004D0079E0A200001
:1004500041001802FF7F01007869A70A048041006B
:100460002C02FD7F00008813A30A0F8041001A02AE
:10047000FD7F00008813A30A100041001A02320019
:1004800000007869990A1F0045001002FF7F640090
:10049000E8FD950A3F0040001402FF7F0100204E56
:1004A0008E0A1E8040001C02FF7F0100204E8A0A37
:1004B0001F0040001602FF7F01008813830A1F807F
:1004C00040001E02FF7F01008813790A0C8048005B
:1004D0002E0201000300C800700A01004D002C022A
:1004E0000100000001006B0A000248002E02FC7FA0
:1004F000ECFF00005F0A00024B0030020100010027
:100500001E00560A1F004D002202010000000100DB
:100510004E0A00044A0632020A000A008403420A14
:1005200000014403240264005802AC263C0A3F0048
:100530004C002002FF7F0000E803320A1F00470042
:100540002A0201000100FA00260A030049003402D1
:100550000100000005001C0A1F804B00280201005A
:1005600001006300110A1F804D00260201000000F7
:10057000010000000000000000000000000000007A
:100580008E010E02920C830C7B0C710C650C5D0CC1
:100590004E0C430C340C270C000900030407080917
:1005A000000307080900010203040809000102030F
:1005B000040506080909B80BFF7F4900EA0101009C
:1005C00000006400B00BFF7F0200F806010000008D
:1005D0000400A50B01004400EE0164005802AC26A3
:1005E0009A0BFF7F4403F00164005802AC26940B81
:1005F000FF7F4D00F2010100000001008C0BFF7F26
:100600004000F401FD7F0100F401840BFF7F4000F6
:10061000F601FF7F0100204E6C0BFF7F4200FC01C2
:10062000FF7F0A00409C7C0BFF7F4000F801FD7FAC
:100630000100F401740BFF7F4000FA01FF7F01000D
:100640008813640BFF7F4200FE01FF7F0A00C4098C
:10065000590BFF7F410000026400581B30754E0BA0
:10066000FF7F4D000202010000000100480BFF7FE8
:100670000200EA06010000000400400B0200010035
:10068000E606010000000400370B02000200DE064F
:10069000010000000100300BFF7F0200D6060100C0
:1006A00000000100270BFF7F0200CE0601000000C2
:1006B0000100210BFF7F000000000000000000008F
:1006C0000000000000000000000000000000D20652
:1006D0000C02060BBB0ADA060A02C80ABF0AE206C7
:1006E00008021C0B160B4A010602EE0604020D0B53
:1006F000060B000BF70AEE0AFC06EC010D0BE70AED
:10070000DF0AD70ACF0A20202D2D2020006368653C
:10071000616C692D636861726765720A76332E3089
:100720005F32303236303531360063616C69622EAB
:10073000206572726F7200706C6561736520636111
:100740006C69627261746500656570726F6D2072AC
:10075000657365740A6572726F723A200072657310
:10076000657474696E6720656570726F6D00202016
:10077000202020202020202020207965730065651E
:1007800070726F6D2072657365743A0052455645FC
:1007900052534520504F4C41524954590065727292
:1007A0006F723A00636F6D706C6574653A00982FD4
:1007B00000000040000000009330004000000000F6
:1007C0000040552EFFFFFF7F04000040FA2F8001FC
:1007D000000000000040EC2E000200000800004075
:1007E000F82E00020000080000400C2F000200005C
:1007F00000000040142FFFFFFF7F040000403C2C4E
:100800000000006000000000402C000000600000BC
:100810000000442C0000002004000040482C000090
:10082000002004000040A62EFFFFFF7F04000040D0
:10083000882EFFFFFF7F00000040E02EFFFFFF7FBC
:1008400000000000692EFFFFFF7F04000000C42E9F
:10085000FFFFFF7F000000000000FFFFFF7F0000A0
:100860000000250064542F64743D200064563D2030
:100870002020006D6178563D0054696E743D002063
:100880006C696D69743D0056696E7075743D0077D2
:100890006972657320523D00626174742E20523D6E
:1008A000004C696D6974733A20004E2F4100546505
:1008B00078743D004E2F410025200043684342429A
:1008C0006C44694643537453424359434300010106
:1008D00001020A1E010318478E01190C03010101D0
:1008E000E80301340DE80300320D640000300D64AC
:1008F00000002D0D6400002B0DE80301280DE80316
:1009000001260D010000240DE80301320D01000055
:100910001D0D640000200D0100001E0D0100001ED1
:100920000D01000000000100001B0D566D696E7581
:10093000733A0056706C75733A006164633A0074E0
:10094000656D703A004965787065633A00493A0010
:1009500076616C75653A0063616C69622E20702E59
:100960003A00566F75743A0056312D363A00566289
:10097000363A005662353A005662343A00566233CF
:100980003A005662323A005662313A0056696E3A7F
:10099000006578706572742044414E4745522100CD
:1009A00074656D7020696E7465726E0074656D702B
:1009B0002065787465726E004920646973636861AC
:1009C00072676500492063686172676500766F6CC5
:1009D000746167650062616C616E636520706F723F
:1009E00074210062617474657279210064697363B3
:1009F0006F6E6E65637400636F6E6E656374006422
:100A0000542F6474002D64560056206C696D69740F
:100A1000006164617074206469733A00442F43205C
:100A2000726573743A00442F43206379636C657375
:100A30003A0063617020434F66663A0074696D65E1
:100A40003A007C657874726E2054434F3A007C649F
:100A5000542F64743A00657874726E20543A007CA6
:100A600069676E7220667273743A007C64563A004D
:100A7000656E61622064563A0062616C2E20657278
:100A8000723A006D696E49643A0049643A006D69D2
:100A90006E49633A0049633A004361703A00566315
:100AA0006F3A0056643A0056733A0056633A00565D
:100AB0003A00626174746572793A00726576006119
:100AC0006476616E6365640073696D706C65005473
:100AD0002D70726F67720054656D70657261007081
:100AE000726F6772616D00616C7761797300657810
:100AF000742E20416463006578742E206465620062
:100B00006465627567006E6F726D616C0064697315
:100B100061626C65640073657061720074656D700C
:100B200000726573657400627574746F6E733A0059
:100B30006D656E75733A007C6F75747075743A00EC
:100B40007C73706565643A00554152543A006164A3
:100B500063206E6F6973653A00696E707574206CFE
:100B60006F773A006D61782050643A006D617820AB
:100B700050633A006D61782049643A006D696E20D7
:100B800049643A006D61782049633A006D696E20CE
:100B900049633A00626565703A006469736368206E
:100BA0006F66663A007C66616E2054206F6E3A0074
:100BB00066616E206F6E3A006261636B6C69676894
:100BC000743A004C4544004E695A6E004C3433353B
:100BD000004C343330004C69706F004C696C6F000E
:100BE0004C6966650050622020004E694D48004EF9
:100BF00069436400556E6B6E004E6F6E65007265E2
:100C00007365742064656661756C740063616C69FA
:100C100062726174650073657474696E6773006FE6
:100C20007074696F6E7300656469742062617474B6
:100C300065727900636170616369747920636865C6
:100C4000636B00443E4320666F726D617400737481
:100C50006F726167652B62616C616E630073746FA4
:100C600072616765006661737420636861726765AD
:100C7000006469736368617267650062616C616ECC
:100C80006365006368617267652B62616C616E63A6
:100C90006500636861726765006578742E74656DC0
:100CA000702E6375746F66660074696D65206C697B
:100CB0006D69740063617061636974792063757430
:100CC0006F666600696E707574205620746F206CB4
:100CD0006F77004857206661696C757265006261C4
:100CE0006C616E63657220646973632E00696E7453
:100CF0002E74656D702E6375746F66660062617424
:100D00007465727920646973632E006E6F6C696D0F
:100D1000697400206E6F00796573005500006D00E6
:100D2000432F6D002500F400416800430057680020
:100D300057005600410011241FBECFE5D8E0DEBFAA
:100D4000CDBF10E0A0E6B0E0EAE0F1E702C0059018
:100D50000D92A838B107D9F723E0A8E8B0E001C0A8
:100D60001D92AB35B207E1F70E94FD0F0C947A3863
:100D70000C9400000E945B3740E062E080E10E943A
:100D800013370E9423090E9490090C945207CF93B5
:100D9000DF9300D000D0CDB7DEB7482F282F30E04A
:100DA000A0E0BDE70E94853719827A838B839C83FC
:100DB000A4E6B0E0A41BB10924E60E940B38298107
:100DC0003A814B815C81620F731F841F951F24E65B
:100DD00030E040E050E00E94C437B9018DE00F9050
:100DE0000F900F900F90DF91CF910C947A0981159D
:100DF00011F0909A089590980895811104C0939AE3
:100E0000969A929A089593980895811102C0969A9D
:100E1000089596980895811102C0929A0895929823
:100E20000895BC018EE00C947A090C94110780FFA0
:100E300011C0C09A81FF10C0C19A82FF0FC0C29A30
:100E400083FF0EC0C39A84FF0DC0DE9A85FF0CC0DD
:100E5000DF9A0895C098EECFC198EFCFC298F0CF37
:100E6000C398F1CFDE98F2CFDF98089580E00E941A
:100E7000FD0680E00E94F70680E00E94100980E0F5
:100E80000E9417078C9A8B9A889A8F9AB89AB99A67
:100E9000BA9ABB9AD69AD79A8D9A8E9A8D9A8A9A2E
:100EA00008950895D598D498DD98DC98BF9ABE9A95
:100EB000BD9A8EEA86B9369A08959C01E091970012
:100EC000E13119F18FB7F894F0E0DF01AA0FBB1FF1
:100ED000A758BE4F12963E932E938FBF80918F00DE
:100EE0008115E1F0EE0FFF1FEE0FFF1FE556FE4FDD
:100EF00080819181A281B381820F931FA11DB11DB9
:100F000080839183A283B383089590919800809108
:100F10008C0037FD04C0982B90938C000895909519
:100F20009823FACF0E94EF21909398018093970124
:100F30000E941F1B90939A018093990180918F00CA
:100F4000811509F485C00E94EF214091D70150918D
:100F5000D8016091D9017091DA01480F591F611DC4
:100F6000711D4093D7015093D8016093D9017093BC
:100F7000DA010E941F1B4091DB015091DC0160915E
:100F8000DD017091DE01480F591F611D711D4093F5
:100F9000DB015093DC016093DD017093DE018091F1
:100FA000DF019091E001019709F050C08091A30109
:100FB0009091A401A091A501B091A601B695A79525
:100FC000979587958093A3019093A401A093A50181
:100FD000B093A60180919B0190919C01A0919D01ED
:100FE000B0919E01B695A7959795879580939B01A3
:100FF00090939C01A0939D01B0939E0180919F01CD
:101000009091A001A091A101B091A201B695A795E0
:101010009795879580939F019093A001A093A1013C
:10102000B093A2018091A7019091A801A091A9017C
:10103000B091AA01B695A795979587958093A7013A
:101040009093A801A093A901B093AA010C94F50C68
:1010500008958091020290910302892BD9F080912A
:1010600094008115B9F09091910041E001C0440FC6
:101070009A95EAF72091DF013091E0012F703FB798
:10108000F8945BB39BB3942B9BBB820F8A95F1F7CB
:101090005BBB3FBF089580918E008F5F863108F063
:1010A00080E080938E0085E0E0E9F0E0A5E9B0E023
:1010B00001900D928A95E1F7E0918E00EF5FE631A5
:1010C00008F0E0E085E0E89FF0011124E452FF4FD2
:1010D00045E050E0A0E9B0E00E941F3880918E000A
:1010E00081110CC00E9492072091DF013091E00134
:1010F00081E0232B09F480E080938F00089584B170
:1011000025B190918D00933018F0922F0E945D07C9
:1011100080918D0091E0980F90938D008D30A9F013
:101120008031A9F081111BC08091900087FD17C00C
:101130002FB7F89498B3809190008295880F807EA5
:101140009F71892B88BB2FBF08950C94290880912B
:101150009100806287B910928D000C944B0808951D
:1011600080918C0008951F920F920FB60F92112458
:101170002F933F934F935F936F937F938F939F939F
:10118000AF93BF93EF93FF930E947F08FF91EF917E
:10119000BF91AF919F918F917F916F915F914F918F
:1011A0003F912F910F900FBE0F901F9018951F9297
:1011B0000F920FB60F9211242F933F934F935F938B
:1011C0006F937F938F939F93AF93BF93EF93FF930F
:1011D0000E948732FF91EF91BF91AF919F918F91C4
:1011E0007F916F915F914F913F912F910F900FBE23
:1011F0000F901F90189588E085BD85B5846085BDEA
:1012000014BC8CE783BD89B7806889BF0895979A1D
:1012100018958F93979880919A0082BF8F91189517
:10122000811104C013BE12BE97980895869598E761
:10123000980F90939A0090E09595879584548CBF71
:101240008CE483BF089589B7836089BF08951F9296
:101250001FB61F9211242F933F938F939F9320913A
:10126000A1003091A20080919D0090919E00820F7C
:10127000931F80939D0090939E0020919F0030913A
:10128000A00080919B0090919C00820F931F8093FF
:101290009B0090939C002FB7F89480919D009091B3
:1012A0009E0035E0969587953A95E1F79BBD8ABDFE
:1012B00080919B0090919C0035E0969587953A959A
:1012C000E1F799BD88BD2FBF80919D008F718093FC
:1012D0009D0010929E0080919B008F7180939B00D7
:1012E00010929C009F918F913F912F911F901FBE54
:1012F0001F9018959FB7F8948E3049F47093A20010
:101300006093A1008FB580688FBD9FBF08958D3019
:10131000E1F77093A00060939F008FB58062F4CFD7
:1013200080E094E097BD86BD82E08FBD89E18EBDEF
:1013300089B7846089BF0895CF93DF930F92CDB7AB
:10134000DEB7E0918A00F0918B00309711F4EBE565
:10135000F3E0CE0101962EEB8E179F0720F40F903D
:10136000DF91CF9108952193F7CF009709F4089565
:101370000197EFE9FFE03197F1F700C00000F5CFEA
:101380008436910560F064E670E00E94B037CB01CE
:101390000C94B509019725E32A95F1F70000009711
:1013A000C9F708956AE070E00E94B037CB010C9451
:1013B000C009E82FF0E0EE0FFF1FE95AFE4F8081D1
:1013C00091810895E82FF0E0EE0FFF1FE35FFE4FDD
:1013D0008081918108952FB7F894E82FF0E0EE0F07
:1013E000FF1FE758FE4F808191812FBF08958091A4
:1013F000E50108958091C1009091C2000895809107
:10140000AF009091B00008958091B1009091B2002A
:1014100008958093AC000895E82FF0E0EE0FFF1FD1
:10142000ED53FF4F80819181089581E08093E30126
:101430000895613110F4423038F021E0FC0122833C
:10144000138220831182089550E09A01260F311DE6
:10145000260F311DB901660F771F660F771F625F78
:101460007F4F44E00C9435389A01813190F462301A
:1014700080F470E0680F711D680F711D660F771F93
:10148000660F771F625F7F4F44E050E0C9010C9404
:1014900053380895EF92FF921F93CF93DF9300D0BC
:1014A00000D0CDB7DEB784E5E82E80E0F82E10E05E
:1014B000F70185919591A591B59189839A83AB8325
:1014C000BC83AE014F5F5F4F60E0812F0E94340A02
:1014D000F701349685919591A591B59189839A8369
:1014E000AB83BC83AE014F5F5F4F61E0812F0E94F1
:1014F000340A1F5F88E0E80EF11C1131C9F681E063
:101500000E947A100F900F900F900F90DF91CF9163
:101510001F91FF90EF9008958091E1019091E20179
:101520000C94D31281E0209137013091380123319E
:10153000310509F080E008958091350190913601E0
:1015400008958091310190913201089580913B017D
:1015500090913C0108958091EB009091EC000397ED
:1015600050F08091F1009091F200039720F083E019
:1015700090E00C940A1880E008952FB7F89480E06A
:1015800090E0FC01EE0FFF1FEE0FFF1FE556FE4F30
:10159000108211821282138201968131910589F79E
:1015A00088E290E09093E0018093DF011092E401E3
:1015B0002FBF0895CF93CFB7F8941092BF00109229
:1015C000C0001092BB001092BC001092BD0010929F
:1015D000BE001092B7001092B8001092B90010929D
:1015E000BA001092B3001092B4001092B50010929D
:1015F000B6000E94AF328093AD009093AE00CFBF93
:10160000CF910895E3ECF0E08AE4DF011D928A9522
:10161000E9F70895CF93CFB7F89481E090E09093E5
:10162000E0018093DF018093E4010E94020BCFBFB1
:10163000CF910895CF93DF930E940A0BC091C10010
:10164000D091C2008091C1009091C2008C179D077B
:1016500019F0DF91CF9108958AE090E00E94E43282
:10166000F1CF1092E50180E00C94FD06CF93DF935B
:1016700081E00E94EB09EC0180E00E94EB098C17ED
:101680009D0750F4C81BD90B81E0C93ED34008F434
:1016900080E0DF91CF910895C0E0D0E0F5CFCF9208
:1016A000DF92EF92FF920F931F93CF93DF93CDB70B
:1016B000DEB728970FB6F894DEBF0FBECDBF182F48
:1016C0006B01672B89F480E090E028960FB6F894C0
:1016D000DEBF0FBECDBFDF91CF911F910F91FF9065
:1016E000EF90DF90CF90089540E0682FCE010596EF
:1016F0000E94190A41E0612FCE0101960E94190A49
:10170000ED81FE81E980FA80EE15FF05E1F26B8143
:101710007C8180E090E00F811885601B710B81094E
:101720009109960140E050E02E1B3F0B4109510901
:101730000E949437970140E050E02E1B3F0B410977
:1017400051090E94E637C901DA01800F911FA11DDE
:10175000B11DA130B1051CF08FEF9FEFB6CFB7FFE1
:10176000B4CFA0E0B0E0CD01B0CFCF92DF92EF9246
:10177000FF920F931F93CF93DF93CDB7DEB72897D8
:101780000FB6F894DEBF0FBECDBF182F6B01672BCD
:1017900089F480E090E028960FB6F894DEBF0FBE83
:1017A000CDBFDF91CF911F910F91FF90EF90DF9010
:1017B000CF90089540E0682FCE0105960E94190A47
:1017C00041E0612FCE0101960E94190AEF81F88550
:1017D000EB80FC80EE15FF05E1F269817A8180E003
:1017E00090E00D811E81601B710B810991099601AA
:1017F00040E050E02E1B3F0B410951090E949437F5
:10180000970140E050E02E1B3F0B410951090E9417
:10181000E637C901DA01800F911FA11DB11DA1306A
:10182000B1051CF08FEF9FEFB6CFB7FFB4CFA0E0AC
:10183000B0E0CD01B0CF82508C3130F4E82FF0E031
:10184000E559FF4F8081089581E00895CF93C82F17
:10185000833151F481E020913701309138012331F7
:10186000310589F080E00FC00E941B0C813069F4C3
:10187000EC2FF0E0EE0FFF1FE35FFE4F2081318180
:101880002139314078F3CF91089581E0FCCFEF9278
:10189000FF920F931F93CF93CFE191E0E92EF12CAC
:1018A00000E010E08C2F0E94260C90E0919581952D
:1018B00091098E219F21082B192BEE0CFF1CCF5F65
:1018C000C53281F7C801CF911F910F91FF90EF9022
:1018D0000895CF93DF9300D00F92CDB7DEB76B831F
:1018E000E82FF0E0EE0FFF1FE35FFE4F2081318114
:1018F00029833A830E941B0C482F6B8189819A812E
:101900000F900F900F90DF91CF910C941A362FB754
:10191000F8946091A8007091A9008091AA0090911C
:10192000AB002FBF20E03DE740E050E00E94C4370D
:10193000C90108952FB7F8946091A4007091A50093
:101940008091A6009091A7002FBF969587957795D7
:10195000679520E03DE740E050E00E94C437C901B0
:10196000089540913B0150913C018091A8009091D5
:10197000A900A091AA00B091AB00840F951FA11DF2
:10198000B11D8093A8009093A900A093AA00B093E2
:10199000AB008091A300815019F08093A3000895BB
:1019A00082E38093A3002091310130913201DA016A
:1019B0000E94853724E630E040E050E00E94C437C2
:1019C0008091A4009091A500A091A600B091A700DD
:1019D000820F931FA41FB51F8093A4009093A500AE
:1019E000A093A600B093A70008958091DF01909185
:1019F000E001892B49F08091DF019091E00101978E
:101A00009093E0018093DF01089590E0880F991F83
:101A1000FC01E35FFE4F2081318162177307B8F448
:101A2000261B370B27303105B8F4FC01ED53FF4F6F
:101A3000208131812F5F3F4FFC01ED53FF4F208309
:101A40003183835F9E4FFC01608371830895AB01F6
:101A5000421B530B9A01E6CF20E030E0EDCFCF934D
:101A6000DF938FB7F8941092A8001092A9001092FB
:101A7000AA001092AB001092A4001092A500109240
:101A8000A6001092A70092E39093A3008FBFCDE031
:101A9000D1E06CA17DA18CE10E94050D8E859F8512
:101AA0008093AF009093B0000E940A0B0E94DA0A64
:101AB0001092B1001092B20060E070E089E10E94E3
:101AC000050D60E070E08BE10E94050D60E070E0C4
:101AD0008DE1DF91CF910C94050D1092C100109211
:101AE000C2000C942F0D0C946D0D9091E501911195
:101AF0000FC00E94FD060E946D0D81E08093E501FC
:101B0000809360000E941A0B0E942F0D1092E30137
:101B10000895CF92DF92EF92FF920F931F93CF938E
:101B2000DF93C0910D01D0910E0180910F01909132
:101B300010018C179D0708F09FC0C81BD90BBE0170
:101B400082E10E94050D8DE0C82E81E0D82E9FE134
:101B5000E92E91E0F92E1FE1F701619171917F016A
:101B6000812F0E94050D1F5F1532B1F78091E301AF
:101B7000811106C00E94470C8093E1019093E2011D
:101B8000E090E101F090E20180E090E08C0141E022
:101B900050E09A01082E02C0220F331F0A94E2F788
:101BA0002E213F21232B29F0F60126AD37AD020F60
:101BB000131F0196F2E0CF0ED11C8630910549F734
:101BC000B80183E10E94050D0115110509F457C004
:101BD000CE01801B910B0C171D0718F0C8018C1B40
:101BE0009D0B893B9B4008F04AC0E80113E1BE0110
:101BF00084E10E94050DB70186E10E94050D612F69
:101C000070E085E10E94050D0E94131B00911301F5
:101C10001091140181110AC00E94E3210091110169
:101C200010911201811102C000E010E09801DE0164
:101C30000E94853720E137E240E050E00E94C4373F
:101C4000B90188E10E94050DB80187E10E94050DE8
:101C50000E94870CBC0189E10E94050D0E949A0C2C
:101C6000BC018AE1DF91CF911F910F91FF90EF901E
:101C7000DF90CF900C94050DC0E0D0E060CF12E172
:101C8000E12CF12CB4CF1F93CF93DF93182FC82FE3
:101C9000D0E084E0189FF0011124E556FE4F6081EA
:101CA00071818281938120E332E040E050E00E9424
:101CB000C437CC0FDD1FC95ADE4F28833983B901E1
:101CC000812F0E944F0BBC01812FDF91CF911F917B
:101CD0000C94050DCF92DF92EF92FF920F931F931A
:101CE000CF93DF93CDB7DEB72C970FB6F894DEBF56
:101CF0000FBECDBF0E94AF322091AD003091AE003B
:101D0000821B930B8133954708F4B3C04FB7F89407
:101D10002091BF003091C000A0E3B2E00E9485375F
:101D20006B017C01F694E794D794C7948091BB0033
:101D30009091BC00A091BD00B091BE008D839E83A8
:101D4000AF83B8878091B7009091B800A091B90097
:101D5000B091BA0089839A83AB83BC838091B3002E
:101D60009091B400A091B500B091B60089879A8790
:101D7000AB87BC874FBF0E94DA0A8091B100909177
:101D8000B20001968093B1009093B20069817A818C
:101D90008B819C819601A7010E94C43729833A83D5
:101DA0004B835C836D817E818F8198859601A7012D
:101DB0000E94C437B90180E00E944F0B8D839E833F
:101DC00069817A8181E00E944F0BAD81BE818A17C3
:101DD0009B0708F04BC0A81BB90BA983BA830091DD
:101DE00045011091460129813A812017310720F4DD
:101DF0008091AC00811105C069817A818CE10E94DB
:101E0000050D69817A81601B710B8BE10E94050DC4
:101E100069857A858B859C859601A7010E94C437C8
:101E2000B90187E00E944F0B2091AF003091B000C4
:101E30008093AF009093B000821B930BBC01660FA0
:101E4000771F8DE10E94050DB6018EE12C960FB62D
:101E5000F894DEBF0FBECDBFDF91CF911F910F91E0
:101E6000FF90EF90DF90CF900C94050D19821A82AD
:101E7000B6CF2C960FB6F894DEBF0FBECDBFDF9164
:101E8000CF911F910F91FF90EF90DF90CF90089529
:101E9000CF932FB7F8948091DF019091E0012FBF8D
:101EA000892B09F091C08091E401811182C0809159
:101EB000E501811509F480C08091C1009091C200B4
:101EC00001968093C1009093C20040919B01509174
:101ED0009C0160919D0170919E0176956795579543
:101EE00047958091BB009091BC00A091BD00B0913E
:101EF000BE00840F951FA61FB71F8093BB00909351
:101F0000BC00A093BD00B093BE0040919F015091D2
:101F1000A0016091A1017091A201769567955795F6
:101F200047958091B7009091B800A091B900B09109
:101F3000BA00840F951FA61FB71F8093B700909318
:101F4000B800A093B900B093BA004091B701509186
:101F5000B8016091B9017091BA017695679557956E
:101F600047958091B3009091B400A091B500B091D5
:101F7000B600840F951FA61FB71F8093B3009093E0
:101F8000B400A093B500B093B6008091BF009091CB
:101F9000C00001968093BF009093C0000E946A0E1B
:101FA000C0E08C2F0E94430ECF5FC131D1F70E9459
:101FB000890DCF910C94BD0A809160008115C9F301
:101FC00085E00E94430EF5CFCF9108950C94480F01
:101FD0000E94360778940E94BA060E94FB080E946D
:101FE00080220E94B01B0E94730D0E949C090E94D7
:101FF00061120E94092D0C94F02D0E94E80F0E949E
:1020000029110E946D2B80E090E008950F931F939B
:10201000CF93DF9300D00F92CDB7DEB789839A8339
:102020008B0141110E94743884E08B8389819A81ED
:102030000E944D388017910791F084E690E00E944D
:10204000C6328B8181508B838111F0CF81E00F905C
:102050000F900F90DF91CF911F910F91089580E025
:10206000F6CFEF92FF920F931F93CF93DF938C01E4
:102070007C01E60EF71ECFEFDFEF0E151F0541F4D2
:10208000CE01DF91CF911F910F91FF90EF900895B6
:10209000C8010E944538C82788E09E0136952795DB
:1020A0009C2FE90190FF04C091E0C92790EAD9274D
:1020B000815099F70F5F1F4FE0CF0F931F93CF937E
:1020C000DF9300D00F92CDB7DEB78C016A837B839C
:1020D00049830E9431104981BC018A819B81800F14
:1020E000911F0F900F900F90DF91CF911F910F9143
:1020F0000C940610482F68E870E08EE090E00C9495
:102100005D10482F60E273E088E990E00C945D1068
:10211000482F64E270E08AEB93E00C945D100F931B
:102120001F93CF93DF9300D00F92CDB7DEB78B8391
:1021300081708983482F63E678E680E090E00E9412
:102140000610182F49816CE679E682E090E00E9443
:102150000610182B498162E070E184E090E00E9453
:102160000610182B498166E070E086E090E00E943E
:10217000061089838B8181FB442740F96AE070E077
:1021800088E090E00E9406108A839B8192FB44279E
:1021900040F963E070E08AE090E00E9406108195CB
:1021A000082F04708A81880F082B9B8193FB44279A
:1021B00040F96CE070E08CE090E00E9406108195A0
:1021C0008870802B8A838981182B9A81912B99831F
:1021D0008B8181FD0E944A0A80E00E947A10182FAC
:1021E000110F9981192B8B8182FD0E94E51580E0EA
:1021F0000E94811081958470812B89839B8193FD3E
:102200000E947C1280E00E948810819588709981DC
:10221000892B0F900F900F90DF91CF911F910F910D
:102220000895CF93C82F0E94A12DC0FF04C0C260A3
:10223000C460C86004C0C1FDFBCFC2FDFACF0E94DC
:10224000C22D8C2F0E948F10682F8C2FCF910C9451
:10225000C62D80E00E948F10811521F00E9411117F
:1022600080E0089581E0089580E00E948F108160F1
:102270000C941111CF930E94FF2C80E392E0809385
:10228000600290936102C1E0C0935F021092580215
:102290000E94ED13823011F4C09358020E94761A06
:1022A000982F81E0913009F080E0CF91089561E0AE
:1022B00081E00E94E8198CE392E0809360029093A1
:1022C0006102089561E081E00E94E81988E492E0EB
:1022D0008093600290936102089560E082E00E9422
:1022E000E8198AE292E08093600290936102089577
:1022F0000E94831B88EE93E00E94641B82E390E0BF
:102300000E94E4320E94961B61E081E00E94E8197D
:1023100084E292E0809360029093610208951092AB
:1023200058028930E8F4E82FF0E0E458F74C0C94B8
:1023300005380E94ED13811102C00C9462110E94B5
:10234000ED13853029F40C94781181E080935802C4
:102350000C9457118EE192E0809360029093610299
:1023600008950C946D110E94571180911402909160
:10237000150265E070E00E94B037609359027093D7
:102380005A02089581E08093580282E492E0E4CFFB
:102390000E94891D0C942F0DCF93C82F0E94C81145
:1023A0008C2F0E948F11C73039F063E081E0C83074
:1023B00041F0CF910C94761A60913402660F61500F
:1023C00080E0CF910C945316CF93DF930F92CDB74B
:1023D000DEB789830E948024811581F189818093F1
:1023E000E9010E948F111092E6011092E70183E04B
:1023F0008093E8010E94813781E00E94750D0E9460
:102400003A11811591F081E08093E8010E94AE1DA0
:102410000E94FF2C10925F0285E00E949A31809109
:10242000E9010E94CC110E94E71D0E94310B0E941D
:1024300082370F90DF91CF910C94082D0F90DF9190
:10244000CF91089544E250E0DC01EEE5F1E00E9416
:102450001F3808958091F6019091F7012091F401C1
:102460003091F5018217930728F42093F6013093F9
:10247000F701C90181329E4430F080E29EE48093EE
:10248000F6019093F7018091FA019091FB01209160
:10249000F8013091F9018217930728F42093FA018B
:1024A0003093FB01C9018938934130F088E893E10A
:1024B0008093FA019093FB010895FC0180810C94B4
:1024C000C70644E250E06AEB73E08AEE91E00E94B6
:1024D00035388AEE91E00C945D1244E250E06AEBEC
:1024E00073E08AEE91E00E94533881E00E948810E8
:1024F0008AEE91E00C945D1244E250E0AAEEB1E065
:10250000EEE5F1E00E941F380C946D12FC01099475
:10251000FC01859195910C948612CF93DF9300D0A6
:1025200000D000D0CDB7DEB78D839E8369837A83D8
:102530004B835C8385E00E94E20929813A818217FE
:10254000930768F4ED81FE81108281E00F900F9077
:102550000F900F900F900F90DF91CF9108952B81E6
:102560003C812817390728F481E0ED81FE818083C2
:10257000ECCF80E0EBCF282F81E090E03AE0211112
:1025800001C008952150AC01349FC001359F900DCA
:102590001124F5CF009719F024F48FEF089580E00F
:1025A000089581E008959C0180E090E1422F417000
:1025B000840F369527959150C9F70895CF9397FFCB
:1025C0000AC00E94FD37C1E000977040604051F49E
:1025D0008C2FCF910895C1E0009770406040A1F327
:1025E000C0E0F2CFCF5F2AE030E040E050E00E9450
:1025F000E637B901CA01E8CFBC0180E090E00C9455
:10260000DE12EF92FF920F931F93CF93DF9300D0D0
:1026100000D0CDB7DEB789839A837B014B835C837F
:10262000DC01ED91FD91CF01B8010E94B037009718
:1026300099F0081B190B1E141F048CF08C018B8160
:102640009C81800F911F8E179F07A0F4CF01801BE4
:10265000910B8B839C830EC01E141F0484F7C90149
:10266000801B910BE817F90718F49F01200F311F09
:102670002B833C838B819C81E981FA8180839183C8
:102680000F900F900F900F90DF91CF911F910F91AE
:10269000FF90EF9008950F931F93CF93DF93CDB7E3
:1026A000DEB728970FB6F894DEBF0FBECDBF8F837D
:1026B000988769837A834B835C832D833E83FC01F7
:1026C000808191810E94FC128230C8F082500E9469
:1026D000BB128C012D813E814B815C8169817A81A5
:1026E0008F8198850E94011328960FB6F894DEBF5B
:1026F0000FBECDBFDF91CF911F910F91089581E063
:1027000090E0E7CF2FEF3FEF40E050E00C944B1309
:102710000E940E338111FCCF0E940E338115E1F32C
:102720000895409112025091130260910E0270912F
:102730000F0295E0969FF001979FF00D1124E80F8E
:10274000F11DEE0FFF1FEA55FE4F259135918230A6
:1027500051F46230710539F44730510520F0415091
:10276000510920EB34E0429FC001439F900D529FDE
:10277000900D11240895409112025091130220915E
:102780000E0230910F0295E0929FF001939FF00DA1
:102790001124E80FF11DEE0FFF1FEA55FE4F2591A2
:1027A0003591813061F42091180230911902249FF3
:1027B000C001259F900D349F900D11240895823003
:1027C00029F420911A0230911B02F1CF833079F75E
:1027D00020912C0230912D02EACFE0910E02F0916F
:1027E0000F02EE57FE4F8491089520911002309110
:1027F0001102A0912A02B0912B020E948537643009
:102800002FE2720723E68207910588F4E0910E0219
:10281000F0910F02EE57FE4FE491E53041F024E6CF
:1028200030E040E050E00E94C437C901089528EE2E
:102830003DEFFBCF209112023091130280912E02C6
:1028400090912F02AC01249FC001259F900D349FD1
:10285000900D1124089582E00E949113BC01809193
:10286000FC019091FD010E9481169C018091F6016E
:102870009091F7012817390708F4C901089582E0FB
:102880000E949113BC018091FE019091FF010E9472
:1028900081169C018091FA019091FB01281739075C
:1028A00008F4C901089580910E0290910F029C01D5
:1028B0002A5031092230310580F02AE0289FF001AA
:1028C000299FF00D1124E855FE4F6591759188E719
:1028D00099E60E94B037CB01089581E090E0089519
:1028E00080911002909111028436910508F088C001
:1028F00084E690E080931002909311028091200270
:1029000090912102893E934030F088EE93E08093CD
:102910002002909321020E945314209112023091C0
:1029200013028217930728F48093120290931302E4
:102930009C01232B29F481E0809312021092130250
:102940000E942B14209114023091150282179307D4
:1029500028F480931402909315029C0180911C022C
:1029600090911D022817390720F420931C02309300
:102970001D020E943F142091160230911702821707
:10298000930728F480931602909317029C014091BC
:102990001E0250911F022417350728F420931E02AF
:1029A00030931F02A9018091F4019091F50160918B
:1029B0001402709115026817790720F480931402AD
:1029C0009093150260911C0270911D02681779079F
:1029D00020F480931C0290931D028091F801909145
:1029E000F9012817390720F48093160290931702F3
:1029F0004817590720F480931E0290931F020895F0
:102A0000893E9D4F08F47ACF88EE9DEF73CF98E210
:102A1000899FB001112468567F4F48E250E08EE054
:102A200092E00E9435380C94701498E2899FB001AE
:102A3000112468567F4F48E250E08EE092E00E94F9
:102A4000533881E00C9481100E947014809114021C
:102A5000909115026AE070E00E94B03760931C020A
:102A600070931D0208950E94701480911602909137
:102A700017026AE070E00E94B03760931E02709304
:102A80001F0208950E94701480911002909111020B
:102A9000809314029093150220910E0230910F0240
:102AA0002330310541F496958795969587958093C7
:102AB0001402909315020E942415809110029091A7
:102AC000110280931602909317020C9433152091F3
:102AD0000E0230910F024AE0429FC001439F900DC9
:102AE0001124FC01E855FE4F459155914093180281
:102AF00050931902FC01E655FE4F459155914093C4
:102B00001A0250931B022115310549F540ED57E09B
:102B1000409310025093110243E04093120210922E
:102B2000130248EE53E0409320025093210210928A
:102B300022021092230240E757E14093240250936F
:102B4000250210922602109227024EE1409328029D
:102B50001092290248E740932A0210922B02F901B1
:102B6000EE57FE4FE491E11121C081EF9FEF22303B
:102B7000310511F48BEF9FEF21E020932C0210928E
:102B80002D0280932E0290932F0283E080933002D7
:102B90001092310284E6809332021092330285E073
:102BA00080933402109235020C94421528E0209351
:102BB0002E0210922F02FC01E455FE4F8591959153
:102BC00080932C0290932D02EFCFCF9310920E02A0
:102BD00010920F020E946715C0E08C2F0E941515FD
:102BE000CF5FC431D1F781E0CF910C948110CF93A6
:102BF000DF930F92CDB7DEB789830E9407158091CE
:102C00000E0290910F02892B19F10E94922F0E94BF
:102C10003D3480910E0290910F028B30910551F15D
:102C200020F40097A9F00A97F9F067E0809110026C
:102C3000909111020E9434368FE20E94A23380915B
:102C40001202909113020F90DF91CF910C94DB331D
:102C50002981822F90E001960E94DB338AE30F9056
:102C6000DF91CF910C94A23389E00F90DF91CF9147
:102C70000C944B2F65E080911402909115020E94F4
:102C800011360E943D3484E0F0CF8091280290916B
:102C900029020E94851C86E392E080936002909353
:102CA00061020C94761ACF93DF930F92CDB7DEB703
:102CB000698391E090935F0280933602809136029F
:102CC0009981891302C010925F0280FF18C080E0D2
:102CD0000E94CC11813079F490915F02911559F0E6
:102CE000809136028F5F809336020E94C8110E9445
:102CF0004516813019F30F90DF91CF91089583E04D
:102D0000E7CFAB019C01A8EEB3E00E9485379A01A2
:102D100040E050E00E94C437A8EEB3E00E941238B1
:102D20008436910540F424E630E040E050E00E9413
:102D3000C437C90108952FEF3FEFFBCF80915502B3
:102D400090915602892B99F40E94F709811581F020
:102D50000E94FA092091370230913802AC01421BDF
:102D6000530B81E04330510518F080E0089581E075
:102D70000895815E0C94E209EF92FF920F931F93E6
:102D8000CF93DF9300D00F92CDB7DEB71A821B82AC
:102D90008FEFF82EEF2C2FEF298301E010E0209128
:102DA000E1013091E201C8010A8002C0880F991F39
:102DB0000A94E2F782239323892B49F08A810E94A7
:102DC000B9168E159F0518F42A8129837C018A8102
:102DD0009B8101968A839B83069709F789810F90CF
:102DE0000F900F90DF91CF911F910F91FF90EF9077
:102DF0000895CF93DF932091550230915602232BF3
:102E000021F4DF91CF910C94B916C82FD0E09091A6
:102E10003B02CC0FDD1F911591F00E94B916FE0107
:102E2000E45CFD4FC85BDD4F2081318148815981D1
:102E3000241B350B820F931FDF91CF910895C45C43
:102E4000DD4F88819981F8CFEF92FF920F931F9306
:102E5000CF93DF938091E1019091E201892B81F181
:102E600000E010E0E8018FEFF82EEF2C2091E10157
:102E70003091E20181E090E0002E02C0880F991F9E
:102E80000A94E2F782239323892B59F0802F0E9422
:102E9000F916C817D90708F4EC018E159F0508F438
:102EA0007C010F5F1F4F0630110501F7CE19DF09B6
:102EB00081E020912E0230912F022C173D0708F05F
:102EC00080E0DF91CF911F910F91FF90EF900895D7
:102ED000CF93DF93EC018091550290915602892B9C
:102EE00041F0209731F40E94FA09809337029093C1
:102EF0003802C0935502D09356020E94020B809173
:102F00005402811105C08C2FDF91CF910C941707CB
:102F1000DF91CF910895FF920F931F93CF93DF938B
:102F200081E00E945107C8E4D2E00CE312E0F12CEA
:102F30008F2D0E94B91689939993F80181939193EB
:102F40008F01F394F6E0FF12F3CF10925502109226
:102F500056021092540280E090E00E94681710928E
:102F60003702109238028FEF80935702DF91CF9192
:102F70001F910F91FF90089580E090E00E946817E4
:102F800081E08093540208950E94BC1780E00C9465
:102F90005107EF92FF921F93CF93DF9300D000D0A1
:102FA000CDB7DEB78091570287FD31C00E94F91678
:102FB00089839A8310E091E0E92EF12C1B821C8218
:102FC0008091E1019091E2018E219F21892B71F086
:102FD000812F0E94F91629813A812817390730F488
:102FE0008B819C818E299F298B839C83EE0CFF1CF7
:102FF0001F5F163029F78B819C810F900F900F90E7
:103000000F90DF91CF911F91FF90EF9008951B8259
:103010001C82F1CF0F931F93CF93DF9300D000D08A
:10302000CDB7DEB789839A831B821C8201E010E052
:103030002091E1013091E201C8010B8002C0880FAC
:10304000991F0A94E2F782239323892B99F42B8109
:103050003C812F5F3F4F2B833C832630310541F766
:1030600081E00F900F900F900F90DF91CF911F9103
:103070000F9108958B81815E0E940C0A29813A810B
:103080008217930720F780E0ECCFAF92BF92CF92E8
:10309000DF92EF92FF920F931F93CF93DF9300D0B5
:1030A00000D0CDB7DEB786E090E00E940A18811507
:1030B00009F480C00E94AB0AA82E811509F47AC0D9
:1030C0008091570287FF04C00E94BC16809357026C
:1030D0000E94B91689839A83E0901A02F0901B022D
:1030E0008CE3C82E82E0D82E08E412E0BA2C1B82B2
:1030F0001C822091E1013091E20181E090E00B809F
:1031000002C0880F991F0A94E2F782239323892B28
:10311000A1F08B810E94B9168E159F05B8F121E0B0
:1031200049815A814817590708F420E0B222F60174
:1031300080839183F801808391834B815C814F5F11
:103140005F4F4B835C8352E0C50ED11C0E5F1F4F57
:103150008B819C81069769F610923B020E94C232D5
:103160008093390290933A02B11491F00F900F902E
:103170000F900F90DF91CF911F910F91FF90EF90E3
:10318000DF90CF90BF90AF900C94BC17BA2CE4CFD7
:103190000E94C9170F900F900F900F90DF91CF9161
:1031A0001F910F91FF90EF90DF90CF90BF90AF9065
:1031B0000C9468170F900F900F900F90DF91CF91A4
:1031C0001F910F91FF90EF90DF90CF90BF90AF9045
:1031D00008950F931F93CF9380913B02811110C0EC
:1031E00081E080933B0208E412E0C0E08C2F0E9453
:1031F000B916F801819391938F01CF5FC630B1F773
:10320000CF911F910F9108950E94C23220913902EF
:1032100030913A02821B930B089580915502909150
:103220005602892B59F40E9445180E949E1681115E
:1032300010C09091540282E0891B08950E94E91801
:103240000E940419409788F380E090E00E9468177C
:10325000ECCF82E008950F931F93CF93DF9300D0BC
:1032600000D0CDB7DEB789839A831B821C8201E030
:1032700010E02091E1013091E201C8010B8002C011
:10328000880F991F0A94E2F782239323892B99F4DC
:103290002B813C812F5F3F4F2B833C8326303105B0
:1032A00041F780E00F900F900F900F90DF91CF913A
:1032B0001F910F9108958B810E94F91629813A81FF
:1032C0008217930728F381E0EDCF0F931F93CF93DD
:1032D000DF9300D000D0CDB7DEB789839A831B82FD
:1032E0001C8201E010E02091E1013091E201C8016F
:1032F0000B8002C0880F991F0A94E2F78223932360
:10330000892B99F42B813C812F5F3F4F2B833C838A
:103310002630310541F780E00F900F900F900F900D
:10332000DF91CF911F910F9108958B810E94F91623
:1033300029813A812817390728F381E0EDCFCF930F
:10334000DF9300D0CDB7DEB789839A830E948C0AC1
:1033500090E0811539F0682F70E089819A810E9490
:10336000B037CB010F900F90DF91CF9108950E945D
:10337000532281E00E94541F8091590290915A0279
:103380000C941E220C946A220E94AB0A811521F033
:103390000E94F4210C940B2008950E94C4190E94ED
:1033A0009C0A20915D0230915E022817390740F493
:1033B00089E09AE08093E6019093E70180E0089528
:1033C00080915B0290915C020E941E2282E008952F
:1033D000CF93DF930F92CDB7DEB769830E94BB1303
:1033E00080935D0290935E0289818115A1F08091A6
:1033F00014029091150280935B0290935C0280917D
:103400001C0290911D028093590290935A020F90D2
:10341000DF91CF91089580911602909117028093C9
:103420005B0290935C0280911E0290911F02EBCF91
:1034300080916002909161020C94881280916002E8
:103440009091610202960C9488120E941E1A0E94AA
:10345000E71D0C94A033CF93DF9300D0CDB7DEB738
:103460000E94C23289839A830E94C23229813A81A2
:10347000821B930B853B910510F00E94310B0E943B
:103480000E33811589F30F900F90DF91CF910C943B
:1034900090310E94251A0E94512D86E00E949A3197
:1034A0000C942B1A0E94251A0E94310B0E94552D54
:1034B00087E00E949A310C942B1AE0916002F091FF
:1034C0006102349685919591FC010994813020F434
:1034D0000E94521A80E0089539F480915F028111B0
:1034E000F9CF0E94491AF6CF81E008950F931F93F8
:1034F000CF93DF93109207030E94181AD2E000E0E6
:1035000010E0C1E00E940E33809307030E94792DE2
:10351000C115C1F00E942A1ED82F0E94661AC82F1A
:10352000811581F00E94FA098017910791F00E949D
:10353000FA098C010E945D1AD82F0E94661AC82FC2
:10354000811107C0C0915F02C11519F0D11105C0EA
:10355000C0E0809107038130A9F60E941E1A8D2FCA
:10356000DF91CF911F910F9108950E94961B0C94AB
:10357000C4170E94831B0E948B1781E020912602B2
:1035800030912702232B09F480E08093620280E0CF
:103590000C94541F0F931F93CF9300915D021091D1
:1035A0005E02C8010E949F190E946519C82F0E94DF
:1035B0009E16811109C0C11107C00E949C0AC1E07A
:1035C0000817190708F4C0E08C2FCF911F910F91B5
:1035D0000895CF93DF9300D00F92CDB7DEB70E944E
:1035E000CA1A89830E94241B8A839B83809162026A
:1035F0008115A9F06A817B8189810E94BD1F81119B
:1036000010C06A817B8189810E941E210E94641BF7
:1036100082E00F900F900F90DF91CF9108958981F4
:10362000EECF81E0F6CF80916702089581E020918E
:10363000650230916602232B09F480E008958091A1
:1036400065029091660208958091630290916402F0
:103650000895CF93DF930F92CDB7DEB74091F0017D
:103660005091F101BA017250CE0101960E948D1263
:103670008981811118C00E94A10A009711F481E08C
:1036800090E0BC0184EC99E00E9481169C0180913D
:10369000FA019091FB012817390708F4C9010F902E
:1036A000DF91CF91089580E090E0F9CF813020E85C
:1036B000920710F080E090E8809365029093660294
:1036C0000E9415070C940A0BCF93DF93EC010E9424
:1036D000291BC817D90708F4CE0120916302309145
:1036E00064022817390761F08093630290936402A3
:1036F000BC0180E10E94B50BDF91CF910C94561B69
:10370000DF91CF9108958091670281110EC080E012
:1037100090E00E94561B109263021092640281E0B6
:103720000E940B0781E080936702089580916702F1
:103730008115A9F080E090E00E94561B1092630270
:1037400010926402109267028AE090E00E94E432D4
:1037500080E00E940B078AE090E00C94E432089528
:1037600081E0809367020C94961B87E08093470367
:1037700082E0809346030E94933183E08093680245
:1037800008958FEF809347030C949031EF92FF924E
:103790000F931F93CF93DF9382E10E94260C209119
:1037A0000E0230910F022A50310991E0223031058A
:1037B00008F490E021E0C82FC227C9230E948C0A98
:1037C000082FD0915802D11559F080911202D1E002
:1037D000081301C0D0E0813009F44DC011E001119F
:1037E00010E00E94920A8115B9F083E10E94E2097B
:1037F0007C0182E10E94E209E816F90608F040C067
:103800009C012E193F09790181E035EFE31631E083
:10381000F30608F480E0C82B87E0D11183E08093A1
:103820004703111519F0825080934703C11529F001
:1038300080914703815080934703D11126C0111511
:1038400011F182E00E949A31D1E0011541F10E940C
:103850000433811126C010926802D11128C0C11111
:1038600022C00E9404338830F1F4809168028F5F97
:103870008093680218C0011101C080E0D823B0CF46
:10388000E81AF90AC1CFC11541F082E00E949A31CD
:103890001111DACFD111D8CF02C00E949031D0E0FF
:1038A000D6CFD115E1F280916802823041F082E0FA
:1038B000DF91CF911F910F91FF90EF90089581E0DC
:1038C000F7CF10926D0208950E94C23280936B026E
:1038D00090936C0208950E94C23220916B02309145
:1038E0006C02821B930B2091690230916A022817A7
:1038F000390728F481E090E090936D02089582E00A
:1039000091E0FACF80916D0208954CE3489F9001B9
:10391000499F300D11242093690230936A02089563
:103920000E948B170E94532281E00C94541F0E9426
:103930006A220C94C4170F931F93CF9300915D02DA
:1039400010915E02C8010E949F190E942B19C82F76
:103950000E949E16811109C0C11107C00E949C0AD5
:10396000C1E08017910708F4C0E08C2FCF911F9120
:103970000F910895CF93DF9300D00F92CDB7DEB7AC
:103980000E949B1C89830E94F4218A839B83BC0133
:1039900089810E94BD1F81110EC06A817B8189814E
:1039A0000E941E210E941E2282E00F900F900F9015
:1039B000DF91CF91089581E0F8CF80917F0281114E
:1039C00009C060917A0270917B0280917C02909193
:1039D0007D0208950E94B73220917A0230917B02D5
:1039E00040917C0250917D02621B730B840B950BFE
:1039F000089560917602709177028091780290919B
:103A0000790228EE33E040E050E00E94C437B9016B
:103A1000CA010895609172027091730280917402DC
:103A20009091750228EE33E040E050E00E94C437E8
:103A3000B901CA0108956091720270917302809178
:103A400074029091750220E63AEE40E050E00E9448
:103A5000C437C90108950F931F93CF93DF9381E07B
:103A60000E94BB13EC0184E00E94BB138C0184E133
:103A70000E94E2098C179D07D0F408171907C8F4B3
:103A80009C01201B310BCE01801B910B64E670E082
:103A90000E94B037C9010E94B0376436710508F042
:103AA00063E6862FDF91CF911F910F91089583E6F2
:103AB000F9CF80E0F7CF2091EC013091ED0121307A
:103AC000310519F481E00C94F70610F480E0FBCF87
:103AD00024303105A1F480917F028115B9F385E08E
:103AE0000E94E2092091EE013091EF01A9015250AC
:103AF0008417950758F32817390720F308952230C3
:103B0000310519F480917F02DECF23303105D9F6DB
:103B1000E6CF0E942B1D80937E02109281021092AC
:103B200082021092830210928402109285021092F7
:103B300086021092870210928802109276021092EA
:103B4000770210927802109279021092720210920B
:103B500073021092740210927502089560E971E088
:103B600080E00E94B50B809370029093710281E017
:103B70000E94BB13BC016854744F693729E6720771
:103B800010F068E779E680E00E94B50B813C2FEFEA
:103B9000920710F080EC9FEF80936E0290936F027B
:103BA0000E94920A809380020E94B73260937A0248
:103BB00070937B0280937C0290937D020E94891D0A
:103BC0001092890281E080937F020C94150A0E9472
:103BD000DD1C60937A0270937B0280937C02909349
:103BE0007D0210927F0208950E94E621811569F1FD
:103BF0008091720290917302A0917402B09175024B
:103C000080599F4FAF4FBF4F8093720290937302C2
:103C1000A0937402B09375020E949E168115A1F0C4
:103C20008091760290917702A0917802B09179020A
:103C300080599F4FAF4FBF4F80937602909377028A
:103C4000A0937802B093790208950E94161B811107
:103C5000CFCFE2CFCF93DF9380917F02811104C059
:103C600082E0DF91CF91089585E00E94E2092091E2
:103C7000F0013091F1013E5F2817390740F48DEED5
:103C80009CE08093E6019093E70180E0EACF80E03A
:103C90000E94EB0920916E0230916F028217930708
:103CA00058F420917002309171028217930738F412
:103CB0000E94131B811519F08DEF9CE0E2CF8091DB
:103CC00089028130C9F30E94920A9091800289177B
:103CD00019F08EED9CE0D5CFC0915B02D0915C02D3
:103CE000C851DC4F0E94A60AC817D90718F483ED03
:103CF0009CE0C7CF86E00E94E2092091000230914B
:103D000001028217930718F484EC9CE0BACF89E192
:103D10000E94E209EC010E94F513883E2DEF920704
:103D200059F0C817D90740F084EB9CE08093E60176
:103D30009093E70181E095CFC0912002D0912102BC
:103D4000C83E83E0D80740F40E941B1D8C179D07D6
:103D500018F089EA9CE0EACF809122029091230238
:103D6000892B09F47DCF87E00E94E209209124028B
:103D7000309125022817390708F072CF89E99CE0B5
:103D800080CF0E94971C0E94B51A0C94C417CF9341
:103D900080918A02813058F0D1F00E940D19C82F0D
:103DA000823011F00E94C11E8C2FCF9108950E9485
:103DB000BA1CC82F8130C1F7809158028115A1F338
:103DC00082E080938A020E948B17C2E0EDCF0E94AE
:103DD000E91AEFCFCF93DF930E948B1761E083E066
:103DE0000E94E819C0915D02D0915E020E948C0A87
:103DF00081110DC00E949C0AC817D90778F00E9453
:103E0000901C80E080938A02DF91CF910895CE01CB
:103E10000E949F190E9465198111F1CF60E083E033
:103E20000E94E8190E94B91A81E080936202EACFE9
:103E300080918B02813029F48091590290915A022D
:103E4000089580E090E008952CE0829FC001112445
:103E500089569D4F0C9491228FED92E00C94912203
:103E6000CF93DF9300D000D0CDB7DEB782E10E94C0
:103E7000E20989839A8384E10E94E20929813A81D7
:103E8000281B390B29833A8387E10E94E2098B833F
:103E90009C83CE0101960E9491220F900F900F906B
:103EA0000F90DF91CF910895EF92FF920F93CF93F0
:103EB000DF9300D000D00F92CDB7DEB7898381E0C9
:103EC00080938B020E949C0A2091590230915A02E1
:103ED00040915D0250915E020981BC0187ED92E044
:103EE0000E94AA2280915D0290915E020E949F1919
:103EF0008A839B838FE8E82E82E0F82E1C821D8245
:103F00002091E1013091E20181E090E00C8002C05B
:103F1000880F991F0A94E2F782239323892B71F06B
:103F20008C810E94F9162091590230915A02098120
:103F30004A815B81BC01C7010E94AA228C819D81BC
:103F400001968C839D839CE0E90EF11C8C819D8100
:103F50000697B1F61092E50210928E021092E302DB
:103F60001092E4020F900F900F900F900F90DF913E
:103F7000CF910F91FF90EF9008950F931F93CF93E0
:103F8000C82F8B0180915802811559F08091E5026C
:103F9000C11501F181111EC00E94BC1781E0809300
:103FA000E5020E94181F8017910790F1C11581F159
:103FB0008091E502843061F590918E0281E0890F55
:103FC00080938E0281E09A3008F480E0CF911F91B7
:103FD0000F9108958B7F29F78091590290915A0291
:103FE000803A910510F480EA90E08017910710F470
:103FF000109254020E940D1980938B02813029F790
:104000000E942417811569F28FEF80935702C9CF60
:1040100010928E02DACF0F931F93CF93DF9300D0CD
:1040200000D0CDB7DEB789839A830E949C0A49816C
:104030005A81BC0187ED92E00E946B230FE812E0E9
:104040001B821C822091E1013091E20181E090E02D
:104050000B8002C0880F991F0A94E2F782239323F2
:10406000892B49F08B810E94F91649815A81BC0144
:10407000C8010E946B238B819C8101968B839C835A
:10408000045F1F4F0697F1F60F900F900F900F905F
:10409000DF91CF911F910F910895EF92FF920F93AF
:1040A0001F93CF93DF9300D000D0CDB7DEB76091E0
:1040B0005D0270915E0287ED92E00E94D0227C0149
:1040C00080915D0290915E020E949F1989839A837C
:1040D0000FE812E01B821C822091E1013091E20185
:1040E00081E090E00B8002C0880F991F0A94E2F7EC
:1040F00082239323892B71F069817A81C8010E9400
:10410000D022E816F90630F069817A81C8010E9450
:10411000D0227C018B819C8101968B839C83045FE0
:104120001F4F0697C9F6C7010F900F900F900F9081
:10413000DF91CF911F910F91FF90EF9008950F9312
:104140001F93CF93DF93EB0100915B0210915C0210
:104150008017910708F48C010E94181F9C0180179A
:10416000910708F498012C173D0729F14091E502C9
:104170004430C1F42C173D07A8F08017910790F444
:104180008091590290915A028C179D07A0F040919E
:104190008C0250918D02809137029091380248171D
:1041A000590749F0809137029091380280938C0230
:1041B00090938D02E901CE01DF91CF911F910F9174
:1041C0000895EF92FF920F931F93CF93DF938C018B
:1041D0000E949C0A8093D7029093D8020093D90240
:1041E0001093DA028FE8E82E82E0F82EC0E0D0E0EB
:1041F0002091E1013091E20181E090E00C2E02C0BB
:10420000880F991F0A94E2F782239323892B41F0A8
:104210008C2F0E94F916F701808391830283138308
:104220002196FCE0EF0EF11CC630D10509F7DF91B5
:10423000CF911F910F91FF90EF9008951F93CF930F
:10424000DF93182FEB010E94AB0A811109C01115F1
:1042500009F440C08091E3029091E402892BD1F1EE
:104260000E949E16811136C0CE010E940B20CE0105
:104270000E94E1200E944D208C179D0720F48C0F96
:104280009D1F969587958093E3029093E402BE016B
:104290000E949F208093E3029093E4028091E502C4
:1042A000823001F150F481110CC0111599F00E9477
:1042B000BC1781E08093E5020DC08330C9F084E033
:1042C000F9CF111539F082E08093E5021092E302F4
:1042D0001092E4028091E3029091E402DF91CF9189
:1042E0001F9108951092E3021092E40283E0E2CF5E
:1042F000111581F3E4CF0C94B7190F931F93CF934B
:10430000DF930E94C4190E949C0AEC0182E00E9483
:10431000BB138C179D0730F480915B0290915C0277
:104320000E941E2280915D0290915E028C179D0773
:1043300040F489E09AE08093E6019093E70181E000
:1043400005C00E94040A029730F482E0DF91CF9109
:104350001F910F9108958091220290912302892B41
:1043600069F08DE10E94E20920913202309133021E
:10437000281739071CF48FEF99E0DDCF0E94040A5B
:104380008C01C0913002D0913102CC0FDD1F81E051
:104390000C171D0708F480E00E94090A0C171D077E
:1043A000A0F280912C0290912D02892B71F28BE169
:1043B0000E94E209EC010E941A14C817D9072CF6D2
:1043C00085E09AE0B8CF8091EA02089581E02091DB
:1043D000E8023091E902232B09F480E008958091EE
:1043E000E8029091E90208958091E6029091E70237
:1043F00008950E94A10A009711F481E090E0BC01A9
:104400008091FC019091FD010E9481169C01809198
:10441000F6019091F7012817390708F4C9010895AA
:10442000813020EC920710F080E090EC8093E8025D
:104430009093E9020E9411070C940A0BCF93DF932B
:10444000EC010E94F921C817D90708F4CE01209188
:10445000E6023091E70282179307A8F4A901481BEE
:10446000590B4D38510518F0C9018C5891098093AA
:10447000E6029093E702BC018FE00E94B50BDF914A
:10448000CF910C941022AC01421B530B4D385105B7
:1044900020F0C90184579F4FEACF2817390739F711
:1044A000DF91CF9108958091EA02811112C010929C
:1044B000E8021092E9021092E6021092E70280E010
:1044C00090E00E94102281E00E94050781E0809325
:1044D000EA0208958091EA02811589F080E090E077
:1044E0000E9410221092E8021092E9021092E60255
:1044F0001092E70280E00E9405071092EA020895F8
:104500001092E8021092E9021092E6021092E7027D
:1045100080E090E00E94102281E08093EA020C94F7
:104520006A22FC01428153814115510589F02081A5
:10453000318137FF03C0319521953109A8EEB3E0F1
:104540000E9485379A0140E050E00E94C437A901DB
:10455000CA0108950F93DC01FB014617570708F4C1
:10456000FA016417750708F4BA01011105C09E2FFE
:104570008F2FFB01692F782F1696ED93FD931897D7
:10458000ED93FD931D921D921D921D9214962D93F5
:104590003D936E1B7F0B14976D937D930F91089540
:1045A000DC011896ED91FD911A973097F1F09B017F
:1045B00040E050E016968D919D911897281B390B7D
:1045C000410951091A960D90BC91A02D0E941238F4
:1045D0009F01FF0F440B542F0E94E63741305105D5
:1045E00024F457FD05C0C90108958FEF9FEF08958A
:1045F00080E090E00895EF92FF920F931F93CF9386
:10460000DF9300D00F92CDB7DEB78A839B83FC0186
:10461000828193817A01E81AF90A8417950718F0C4
:104620007C01E41AF50AEA81FB8124813581369503
:1046300027952E153F05F0F4008111818417950709
:1046400018F5CB01801B910B8C01C8010E94CA1286
:104650008983EA81FB81808591850E94CA12F98154
:10466000F81308C0EA81FB81E482F5820087118794
:10467000E286F3860F900F900F90DF91CF911F91FC
:104680000F91FF90EF900895061B170BDECF0F934D
:104690001F93CF93DF938C01EB019A01FC01A0855E
:1046A000B1850E940B382285338540E050E00E949E
:1046B000E637C217D3071406150654F0C21BD30BF6
:1046C000F801C683D783DF91CF911F910F91089591
:1046D000C0E0D0E0F5CFCF93DF9300D000D000D082
:1046E000CDB7DEB789839A836B837C834D835E83EA
:1046F0000E94FB224D815E816B817C8189819A8140
:104700000F900F900F900F900F900F90DF91CF911F
:104710000C9447231F93CF93DF93182F63EE79E018
:1047200087EF99E00E941E2DD0E082E10E94260CC6
:10473000C82F811559F00E948C0A91E0811101C0A7
:1047400090E0911741F0D11559F0DC2F0E940E3303
:10475000813059F7C0E08C2FDF91CF911F910895E0
:1047600065ED79E087EF99E0111102C08CEE99E0D8
:104770000E941E2DEACFCF92DF92EF92FF920F930D
:104780001F93CF93DF9300D00F92CDB7DEB789830D
:104790006B017A01BA010E94B50B8A839B83B60133
:1047A00089810E94B50B8C01B7016C0D7D1D76953A
:1047B000679589810E94B50B0115110539F10F3FED
:1047C000100731F12A813B812115310519F12F3F65
:1047D000320711F10217130708F59C012A5031091D
:1047E00002171307E8F40A962A813B818217930780
:1047F000C8F480E00F900F900F90DF91CF911F9140
:104800000F91FF90EF90DF90CF90089581E0F2CF6D
:1048100082E0F0CF83E0EECF84E0ECCF85E0EACF1A
:1048200086E0E8CF87E0E6CF4091F6015091F701AE
:104830006091F4017091F5018FE00E94BB2381111A
:104840000BC04091F6015091F7016091F401709115
:10485000F50182E00C94BB23865F08954091FA0134
:104860005091FB016091F8017091F90180E10E9483
:10487000BB2381110BC04091FA015091FB01609163
:10488000F8017091F90183E00C94BB23865F0895D1
:10489000CF93DF930E942911D82F811571F048E73B
:1048A00059E668EE73E080E00E94BB23811551F069
:1048B000682F8DEC99E00E94DA2DD0E08D2FDF91EA
:1048C000CF9108950E941424811521F0682F84EC63
:1048D00099E0F1CF0E942E24C9E0811521F0682FC4
:1048E00088EB99E0E8CF40EA5FE068EE73E08C2F58
:1048F0000E94BB238111DCCFCF5FCF30A1F7DECF89
:104900000C944824CF93C1E080912202909123021D
:10491000892B09F4C0E010922202109223020E9417
:1049200081378EE492E00E9458290E9480240E94E0
:104930008237C0932202109223021092E801CF9195
:104940000895EF92FF920F931F93CF93DF93CDB70C
:10495000DEB729970FB6F894DEBF0FBECDBF6E83CA
:104960007F8348875987122F60E070E00E94A62756
:10497000111107C080910A0290910B02892B09F452
:1049800079C08FEF9FE70E949C2781E00E942E292B
:10499000082F87FD77C00E94C3277C0181FF6DC06F
:1049A000102F110F110BEE81FF81E00FF11F849189
:1049B0008D830E94260C811541F30E941A0B1092E0
:1049C000E501109260000E949329811509F44CC002
:1049D000E885F985E00FF11FF49084E00E949A3198
:1049E0008D810E94E2098C010E9484378F2D0E94E4
:1049F000D90989839A830B831C83AE014F5F5F4F74
:104A00006091EB028F2D0E94340AE7FE2AC081E0FC
:104A10008093E5010E941A0B0E94843780E00E9477
:104A2000D90989839A8381E00E94D90929813A8131
:104A3000281B390B29833A8383E10E94E2098B8387
:104A40009C83AE014F5F5F4F6091EB0280E00E945C
:104A5000340AAE014F5F5F4F6091EB0281E00E942C
:104A6000340A81E00E947A1081E08093E50180930E
:104A700060008BCF8BEF9FE786CF82FF86CF0E94AF
:104A8000932983CF29960FB6F894DEBF0FBECDBF12
:104A9000DF91CF911F910F91FF90EF90089581E0EA
:104AA0008093EB021092EC020E94750D81E00E944F
:104AB0008A23811549F020E040EB53E067EB73E077
:104AC00086E193E00E94A1240C94310B81E0809355
:104AD000EB021092EC0280E00E94750D10926200D1
:104AE00020E04CED52E0BA018EED92E00E94A1244C
:104AF00081E0809362000C94310BCF93C1E08091F0
:104B0000220290912302892B09F4C0E01092EB025B
:104B10001092EC020E94823781E080932202109270
:104B2000230280E00E94750D21E043EA52E0BA01C1
:104B300084EA92E00E94A1240E94310BC0932202D9
:104B400010922302CF910C9481371092EB021092B5
:104B5000EC0280E00E94750D21E04AE652E0BA01C5
:104B60008BE692E00E94A1240C94310BCF93DF934B
:104B700000D000D0CDB7DEB7482F6091F202CE0151
:104B800001960E94190A67E08B819C810E94113670
:104B90000F900F900F900F90DF91CF9108950E948A
:104BA000A60A67E00E9411368091F1020E94D9099D
:104BB00066E00C9408362091F102223011F40C9436
:104BC00010220C94561B4091ED025091EE02609120
:104BD000F1022091EF023091F002623059F541303C
:104BE000504C28F050EC1092ED025093EE0221321E
:104BF0003E4430F020E23EE42093EF023093F00296
:104C00008D5E924031F48091ED029091EE020E940F
:104C1000DB2582E10E94260C81111AC063EE79E047
:104C200087EF99E00E941E2D8091F102833081F47C
:104C30000C94961B4130504828F050E81092ED0239
:104C40005093EE0229383341D8F228E833E1D4CF2B
:104C50000895BF92CF92DF92EF92FF920F931F932E
:104C6000CF93DF93CDB7DEB72C970FB6F894DEBFA6
:104C70000FBECDBF10E07E0185E0E80EF11C6E0195
:104C80009FEFC91AD90A82E00E94982886EB95E224
:104C90008093FD029093FE021093030380E00E9434
:104CA0002E29182F87FD8FC081E00E94750D80E0AE
:104CB0000E948A23811509F483C0412F6091F2027A
:104CC000C7010E94190A412F6091F102C6010E949A
:104CD000190A63EE75E28EEB93E00E94A6278F819E
:104CE00098858093EF029093F00200E0E986FA86BF
:104CF000CB86DC868D819E818093ED029093EE02BF
:104D000081E00E942E2981150CF447C0C1F58091E5
:104D1000F102823071F50E9453228091ED02909150
:104D2000EE020E94DB250E9493298115B9F0082F1D
:104D30000E941A0B8091EF029091F0028F83988766
:104D40002091ED023091EE022D833E838B839C8374
:104D50008091F1020E94D90989839A8380E090E0D2
:104D60000E94DB258091F102823031F40E946A2298
:104D7000C1CF0E94831BD1CF0E94961BBBCF823034
:104D800009F0B8CF0E9493298111B4CF8F81988503
:104D90008093EF029093F002ADCF011589F0498521
:104DA0005A85612F8091F2020E94340A4B855C85FE
:104DB000612F8091F1020E94340A81E00E947A10F2
:104DC0000E94310B60CF2C960FB6F894DEBF0FBE59
:104DD000CDBFDF91CF911F910F91FF90EF90DF90AA
:104DE000CF90BF9008958FE08093F20282E080938D
:104DF000F1020C94292680E18093F20283E08093F3
:104E0000F1020C942926A82F6091F3027091F4020C
:104E10004091F7025091F80280E090E0FB012EE013
:104E2000929FE00DF11D11243296259135912115A7
:104E3000310579F01CF457FF09C03058242335237D
:104E4000232B21F0A11521F0A1508F5F9F5FE6CFAA
:104E5000892F08950F931F93CF93DF9300D0CDB781
:104E6000DEB78A830E9403273EE0839F80011124DE
:104E7000E091F302F091F402E00FF11F859195911A
:104E80000E94FB3389830E947431811123C06FE03B
:104E90008981681BE091F302F091F402E00FF11FA9
:104EA000359694919983911531F0862F9981891BBC
:104EB0000E94393469818091F3029091F402800F4D
:104EC000911F04960F900F90DF91CF911F910F913A
:104ED0000C94D530209147033A81832F90E0022E25
:104EE000001C00082817090691F60F900F90DF911B
:104EF000CF911F910F9108950E940327E091F30233
:104F0000F091F4029F014EE0849F200D311D112489
:104F1000C901F901369625913591FC0134968491A9
:104F20008150823010F0C9010895F90145915591E1
:104F300065917591CB0108958093F7029093F802E3
:104F40008FEF0E9403278093010308958093F3025B
:104F50009093F4026093F5027093F60280E00E9451
:104F600098288AE297E28093FD029093FE0282EDF8
:104F700097E28093FB029093FC028FEF80934703AC
:104F80009FE70C949C270E940327E091F302F09185
:104F9000F4029EE0899FE00DF11D11243296859167
:104FA000959108958F929F92AF92BF92CF92DF9288
:104FB000EF92FF920F931F93CF93DF93CDB7DEB79E
:104FC0002C970FB6F894DEBF0FBECDBF182FB62EAC
:104FD0000E947C277C01812F0E940327E091F3022D
:104FE000F091F4029EE0899FE00DF11D11243896A6
:104FF00046E050E0DE0117960E941F3886E0FE0171
:105000003796DE01119601900D928A95E1F786E0C0
:10501000FE013196DE01179601900D928A95E1F717
:105020000F811885C984DA849B848C84E2E0BE16E3
:1050300051F191E0A92EB12C0E3FFFE71F0739F186
:1050400034F1292D382DA601B501C7010E944B135B
:10505000E091F502F091F602309709F448C0C701DB
:105060002C960FB6F894DEBF0FBECDBFDF91CF9167
:105070001F910F91FF90EF90DF90CF90BF90AF9076
:105080009F908F9009948FEFB82EAB2CD5CF21F441
:10509000C501F6010995DCCF0C3FFFE71F07B9F406
:1050A000F701808191818A0D9B1D292D382D2817AC
:1050B000390744F09C01F7012C153D052CF0808345
:1050C0009183C6CFC901F7CFC082D182C1CF0D3F36
:1050D000FFE71F0721F40E940733082F10E0292D56
:1050E000382DA601B501C7010E940113B1CF2C963E
:1050F0000FB6F894DEBF0FBECDBFDF91CF911F91E9
:105100000F91FF90EF90DF90CF90BF90AF909F9066
:105110008F90089524E0829FC0011124E091F9024C
:10512000F091FA02E80FF91F859195910C94FB33E9
:1051300010920303109202038093010381E0809395
:1051400000038093FF0208954091F9025091FA0202
:1051500080E094E0899FF0011124E40FF51F259170
:105160003591232B09F408958F5FF3CF80910303CA
:105170008F5F80930303089580910303811519F0D5
:10518000815080930303089580910303909101035C
:10519000891720F08FEF890F80930303209102037A
:1051A000821718F480930203282F30E02F5F3F4FBF
:1051B000281731051CF48150809302030895CF9382
:1051C0000E94C428C091020320910203822F90E024
:1051D00001968C17910524F410920003CF91089545
:1051E0006C2F621B80E00E949633809103038C1326
:1051F00011C08EE30E94A23380910103C81730F4DE
:10520000E091FD02F091FE028C2F09950E9440343E
:10521000CF5FDACF80E2EECFCF930E940E33C82F5C
:105220000E946937811539F081E080930003CFE750
:105230008C2FCF910895C23071F0C43029F40E94B0
:10524000B62881E08093000380910003811581F3EB
:105250000E94DF28EDCF0E94BC28F3CFCF93DF93CD
:105260000F92CDB7DEB7898381E0809300030E945F
:105270000C29811102C01092FF029091FF0291113E
:105280000BC0883049F481E08093FF0280910303D2
:105290000F90DF91CF9108952981211519F021E018
:1052A00020930003813019F79111E1CF8FEFF0CFF8
:1052B0000F931F93CF93DF9300D00F92CDB7DEB73C
:1052C00089839A831B820AE818E289819A818093F4
:1052D000F9029093FA020E94A4280E949828009351
:1052E000FD021093FE029B819093030380E00E94D5
:1052F0002E298B8387FD0EC094E089029001112432
:105300008091F9029091FA02820F931F02960E94F7
:105310008812DBCF8B810F900F900F90DF91CF9190
:105320001F910F910895CF93DF9380910303809392
:1053300047031092460381E080930003C1E0D2E06E
:105340000E940E33682F823011F08430C1F4E09156
:10535000FB02F091FC028091030309958091030305
:1053600080934703D0934603C09300030E9480318B
:105370008115B9F0C09300030E94DF2816C0813068
:1053800011F0883099F78FEF8093470381E0809385
:10539000FF0280930003683009F080E0DF91CF9135
:1053A0000895809100038111E7CF809146038F5FBC
:1053B00080934603C5CF0C94341186EF93E00C9490
:1053C00058290F931F93CF93DF9300D0CDB7DEB74B
:1053D00089839A830E94531401E010E09C01A80184
:1053E00069817A8182E192E00E9401130F900F900F
:1053F000DF91CF911F910F910895CF93DF9380910B
:105400000E0290910F02C0E0D0E4892B11F10E94AE
:10541000ED13C1E0D0E002C0CC0FDD1F8A95E2F7AA
:105420008091220290912302892BB9F4D05C0E94D2
:10543000ED13811107C080912C0290912D02892BD0
:1054400009F0DE5F80910A0290910B02892B09F02E
:10545000D058CE01DF91CF9108950E94ED138115B0
:1054600011F0DF5BE4CFDB5BE2CF22E08E3092070E
:1054700041F40E9467150E9470140E94FD290C944B
:105480009C2722E08031920719F40E944215F3CF45
:1054900022E08431920719F40E942415ECCF865142
:1054A000924049F70E943315E6CFCF93DF93CDB7F3
:1054B000DEB7A8970FB6F894DEBF0FBECDBF65E389
:1054C0007AE286E094E00E94A6270E94FD290E94CD
:1054D0009C2780E00E942E2987FD1DC088E2EEE017
:1054E000F2E0DE01119601900D928A95E1F70E949B
:1054F000932981110AC088E2FE013196AEE0B2E044
:1055000001900D928A95E1F7E0CF84E00E949A31F4
:105510000E947014DACFA8960FB6F894DEBF0FBEC3
:10552000CDBFDF91CF910895E0910503F09106037F
:10553000E80FF11D649184E895E00C941434CF9346
:10554000DF930F92CDB7DEB789830E9407150E94C3
:10555000ED1320910E0230910F02232B99F025EAD2
:1055600035E0833089F02CEA35E0823069F020EABA
:1055700035E0811549F028E935E0853029F02AE940
:1055800035E002C025EB35E0209305033093060398
:1055900080E0E82FE20FF32FF11D8F5FE491E930F7
:1055A000C1F70E94982884E99AE28093FD029093C3
:1055B000FE02809104038093030380E00E942E2961
:1055C000909103039093040387FD12C0E0910503BB
:1055D000F0910603E90FF11D8491893031F40E94A6
:1055E000552A89810E941515B2CF0E94E411AFCFD0
:1055F0000F90DF91CF9108958091EC019091ED0192
:105600000397029750F48FEF9FE7209104023091A7
:105610000502232B09F4029708958EEF9FE7F5CF3B
:105620000E94FC2A0E949C270C942A12CF93DF939D
:10563000CDB7DEB7A4970FB6F894DEBF0FBECDBFCF
:1056400060E17BE286EB95E00E94A6270E94FC2A9F
:105650000E949C2780E00E942E2987FD2BC00E947B
:105660007C27892B41F48AEE91E00E94221284E08B
:105670000E949A31EBCF84E2EAEEF1E0DE0111966E
:1056800001900D928A95E1F70E94932981110EC035
:1056900084E2FE013196AAEEB1E001900D928A9566
:1056A000E1F78AEE91E00E945D12D0CF84E00E9483
:1056B0009A31F7CFA4960FB6F894DEBF0FBECDBFD8
:1056C000DF91CF910C946D12811104C08FE19CE0A9
:1056D0000C94FB3381500C94F715C0E004E61BE2F8
:1056E000DC2F85E10E9498280093FD021093FE02B2
:1056F000D093030380E00E942E29C82FD0E08115AB
:1057000084F319F40E94DD29EBCF8FEF8C0F0E94F8
:105710009F2AE6CF613011F40C94F9160C94241FE3
:10572000CF93DF9300D0CDB7DEB78A83698386300D
:1057300000F58F5F0E949A358AE30E94A2338A8126
:10574000815E0E94260C811561F069818A810E9428
:105750008A2B498166E00F900F90DF91CF910C94D6
:105760001A3686E097E00F900F90DF91CF910C945E
:10577000FB330F900F90DF91CF910895FF920F931D
:105780001F93CF93DF9300D00F92CDB7DEB7F82EE3
:1057900069830E9498330E949E1681112EC083E077
:1057A00090E00E940A18811571F180E22091550263
:1057B00030915602232B59F50E94A23387E00E94B4
:1057C000393469818F2D0E94902B0E9440340E94B1
:1057D0009C33698181E08F0D0E94902B698182E06A
:1057E0008F0D0E94902B0F900F900F90DF91CF9113
:1057F0001F910F91FF900C94403480913B028115D2
:1058000021F082E4D3CF8DE6D1CF82E6CFCF1A82CA
:105810001B8201E010E08091E1019091E201802380
:105820009123892B19F1809157022A813B81082EFF
:10583000001C000882170306D9F080915502909150
:10584000560280239123892BA9F080914603880F6B
:1058500082700E94A233000F111F8A819B810196E2
:105860008A839B830697B9F682E0A9CF80E2F1CFC5
:1058700080E0EFCF81E0EDCF61E080E00C94BE2BC3
:1058800061E083E00C94BE2B66E080E00C94BE2BBC
:1058900066E083E00C94BE2B8F929F92AF92BF92F2
:1058A000CF92DF92EF92FF92E12CF12C6701C3942B
:1058B0008091E801833009F0C12CFF24C0FAF6F88A
:1058C000C1FAF7F8C12C80908002912C5601B09457
:1058D000A09490948094811C911CA11CB11CB5FAD9
:1058E000BB24B5F80E94ED13482F8091E90121E017
:1058F00030E002C0220F331F8A95E2F7032E000C1E
:105900000008C20ED31EE01CF01CB601C7019B0D9F
:1059100020E032E002C0220F331F4A95E2F7032E47
:10592000000C0008620F731F801D901DFF90EF9008
:10593000DF90CF90BF90AF909F908F9008958F92FF
:105940009F92AF92BF92CF92DF92EF92FF92CF934E
:10595000DF93CDB7DEB72A970FB6F894DEBF0FBE40
:10596000CDBFB82E0E944C2C31E03B0D20E04AE028
:10597000249FF0011124E255F84F50E0DE0111960A
:105980000E941F38E981FA818B809C80AD80BE80A7
:10599000CF80D884E984FA8486229722A822B9226B
:1059A00089288A288B2849F0C622D722E822F922A2
:1059B000CD28CE28CF2809F431502F5F3111D7CF11
:1059C000CF012A960FB6F894DEBF0FBECDBFDF9190
:1059D000CF91FF90EF90DF90CF90BF90AF909F90CE
:1059E0008F9008950E946730809146038F5F809367
:1059F0004603809108030E949F2CFC010994109299
:105A0000470382E080934603109208030C945830B9
:105A100008950C943736CF93DF9300D0CDB7DEB71F
:105A200089839A830E94A0330E94983389819A8146
:105A30000F900F90DF91CF910C94FB33CF93DF93B6
:105A400000D0CDB7DEB769837A830E940B2D0E9408
:105A50009C3389819A810F900F90DF91CF910C94A4
:105A6000FB33CF93DF9300D0CDB7DEB789839A8322
:105A70000E94983389819A810E94FB330E94DD1C29
:105A800047E00E94B8350E949C338091E6019091D6
:105A9000E7010E94FB330F900F90DF91CF910C94A0
:105AA000403484EA97E00C94312D8DE997E00C9412
:105AB000312D8CE897E00C940B2DCF93DF93C0E051
:105AC00061E08FE08C1B0E9496338FEF0E94A2331F
:105AD00060E08C2F0E9496338FEF0E94A2338AE001
